S01000004672656552544F532E737265634A
S214080000B0D00720513D08004D3D08004D3D080082
S2140800104D3D08004D3D08004D3D0800000000001D
S2140800200000000000000000000000007122080028
S2140800304D3D080000000000F12208002D230800AE
S2140800404D3D08004D3D08004D3D08004D3D08005B
S2140800504D3D08004D3D08004D3D08004D3D08004B
S2140800604D3D08004D3D080000000000C13B08005B
S214080070D53B0800E93B0800FD3B080000000000EF
S214080080000000004D3D08004D3D08004D3D0800AD
S2140800904D3D08004D3D08004D3D08004D3D08000B
S2140800A04D3D0800000000004D3D08004D3D08008D
S2140800B04D3D08004D3D08004D3D08004D3D0800EB
S2140800C04D3D08004D3D08004D3D08004D3D0800DB
S2140800D04D3D08004D3D08004D3D08004D3D0800CB
S2140800E04D3D08004D3D08004D3D08004D3D0800BB
S2140800F04D3D080010B5054C237833B9044B13B1B1
S2140801000448AFF300800123237010BD680B072056
S21408011000000000E48908000C4B43B10C4810B5F9
S2140801200C49AFF300800C48036823B910BD0A4891
S214080130036833B97047094B002BF7D0BDE8104069
S2140801401847064B002BF5D0184700BF00000000E4
S214080150E48908006C0B0720E4890800000000000A
S214080160632800F20D81DFE810F06400720080005A
S2140801708E009C00AA00B800C600D400E200F0007A
S2140801800B010B010B010B010B010B010B010B0102
S2140801900B010B010B010B010B010B010B010B01F2
S2140801A00B010B010B010B010B010B010B010B01E2
S2140801B00B010B010B010B010B010B010B010B01D2
S2140801C00B010B010B010B010B010B010B010B01C2
S2140801D00B010B010B010B010B010B010B010B01B2
S2140801E00B010B010B010B010B010B010B010B01A2
S2140801F00B010B010B010B010B010B010B010B0192
S2140802000B010B010B010B010B010B010B010B0181
S2140802100B010B010B010B010B010B010B010B0171
S2140802200B010B010B010B010B010B010B010B0161
S214080230FE00544B4FF400421A634FF480421A6390
S2140802404FF400521A634FF480521A6370474D4BAE
S2140802504FF400421A634FF480425A634FF4005238
S2140802605A634FF480525A637047464B4FF4004225
S2140802705A634FF480421A634FF400525A634FF49D
S21408028080525A6370473F4B4FF400421A634FF44C
S21408029080421A634FF400525A634FF480525A63EE
S2140802A07047384B4FF400425A634FF480425A6303
S2140802B04FF400521A634FF480525A637047314B1A
S2140802C04FF400421A634FF480425A634FF40052C8
S2140802D01A634FF480525A6370472A4B4FF4004211
S2140802E05A634FF480421A634FF400521A634FF46D
S2140802F080525A637047234B4FF400421A634FF4F8
S21408030080421A634FF400521A634FF480525A63BD
S21408031070471C4B4FF400425A634FF480425A63AE
S2140803204FF400525A634FF480521A637047154BC5
S2140803304FF400421A634FF480425A634FF4005257
S2140803405A634FF480521A6370470E4B4FF40042BC
S2140803505A634FF480421A634FF400525A634FF4BC
S21408036080521A637047074B4FF400425A634FF4A3
S21408037080425A634FF400525A634FF480525A63CD
S214080380704700BF00120E40024B1860024B1960FF
S214080390704700BF840B0720880B0720014B18689E
S2140803A0704700BF840B0720014B1868704700BFD2
S2140803B0880B07202DE9F84381460C460F4B9847D3
S2140803C080460E4F0E4E0F4D03E00F4B1C600F4B32
S2140803D01C60B8474146B047A8470028B8BF404207
S2140803E00B4B984749460B4B98470028EDD10023FE
S2140803F0054A1360054A1360BDE8F8832D12080005
S214080400014F0800A1540800840B0720880B07201A
S2140804106D500800515408002DE9F0470546214B59
S21408042098470646204901FB00F12048204B98478C
S214080430204B98478046DFF898A01E4F0024DFF828
S214080440949004E0214628461B4B9847C8B9B847FD
S21408045041461A4B9847134B98470028B8BF404266
S21408046086EAE673A3EBE67398420FDA2146284637
S214080470134B98470028E5D051464846114B9847F5
S214080480E0E7494650460F4B9847E0E700242146E8
S21408049020460C4B98470C4B1C600C4B1C60BDE868
S2140804A0F08700BFA1540800A0860100DC8308007E
S2140804B03D550800611208008D540800014F0800D9
S2140804C051540800451C0800840B0720880B072099
S2140804D00000C8C20000C84210B50446064B98473C
S2140804E0064901FB00F10648064B98470649204690
S2140804F0064B984710BD00BFA1540800A08601000F
S214080500D08308003D5508000000C84219040800BA
S2140805102DE9F04188461D46114C801AA04706462C
S2140805200F46A8EB0500A04732463B460D4CA047B1
S21408053009A3D3E900230C4CA04700220B4B0C4C14
S214080540A0470C4B9847B0F5B47F08BF0020BDE81D
S214080550F08100BFAFF30080F8C1631ADCA54C40F9
S214080560094808003D400800D54808000080664055
S21408057071450800094E08002DE9F04188461D46D9
S214080580174C801AA04706460F46A8EB0500A0475A
S21408059032463B46134CA0470FA3D3E90023124C20
S2140805A0A0470022114B124CA047124B9847069BB7
S2140805B0C01AB42808DC10F1B40FB8BF00F5B47040
S2140805C00D4B9847BDE8F081A0F5B4700A4B9847E4
S2140805D0BDE8F081AFF30080F8C1631ADCA54C4093
S2140805E0094808003D400800D548080000806640D5
S2140805F071450800094E08006D5008002DE9F04FB7
S2140806008BB0B94B98470990002303931C4666E0C5
S214080610012464E00294632461E0B448B44FB84708
S2140806200A20B44B9847DFF83C93C8470490DFF895
S2140806304483C0470790B048B847B049B048B14B64
S2140806409847B148B847C84781460590C04703460B
S21408065006904A4607990498DFF81C83C047014667
S2140806600490AA48B8476320B847029B002BCFD00F
S214080670042B08BF052432E0A5489D4FB847002044
S2140806809C4B98470120A34B9847A34B9847814615
S214080690A24B98478046A24B98478346A14B98475B
S2140806A0A9F10F0AA8F134050390A0F1640649469B
S2140806B09D48B84741469D48B8479D48B84759465B
S2140806C09C48B84703999C48B84749469B48B8474A
S2140806D041469B48B8479B48B847029463244FF066
S2140806E0C808994F414609A8B847632CFAD801A309
S2140806F053F824F07906080085080800A1090800C0
S214080700D3090800E30908002B0A0800A10A080014
S214080710BB0A0800E50A0800010B0800E506080001
S214080720E5060800E5060800E5060800E5060800F0
S214080730E5060800E5060800E5060800E5060800E0
S214080740E5060800E5060800E5060800E5060800D0
S214080750E5060800E5060800E5060800E5060800C0
S214080760E5060800E5060800E5060800E5060800B0
S214080770E5060800E5060800E5060800E5060800A0
S214080780E5060800E5060800E5060800E506080090
S214080790E5060800E5060800E5060800E506080080
S2140807A0E5060800E5060800E5060800E506080070
S2140807B0E5060800E5060800E5060800E506080060
S2140807C0E5060800E5060800E5060800E506080050
S2140807D0E5060800E5060800E5060800E506080040
S2140807E0E5060800E5060800E5060800E506080030
S2140807F0E5060800E5060800E5060800E506080020
S214080800E5060800E5060800E5060800E50608000F
S214080810E5060800E5060800E5060800E5060800FF
S214080820E5060800E5060800E5060800E5060800EF
S214080830E5060800E5060800E5060800E5060800DF
S214080840E5060800E5060800E5060800E5060800CF
S214080850E5060800E5060800E5060800E5060800BF
S214080860E5060800E5060800E5060800E5060800AF
S214080870E5060800E5060800E5060800E50608009F
S2140808801B06080031481A4B98470120194B984711
S214080890049B009306990B460598024614322C4F83
S2140808A0B8472C4B98472C4B98472C4B984741F207
S2140808B088302B4FB84741F28830B847294FDFF8C1
S2140808C0AC8002E028490846C047B8475845F9DBD7
S2140808D000200146254B98472548204B9847254F2A
S2140808E0DFF888804DE000BF412D0800E883080047
S2140808F03D55080061010800048408000000C8414E
S21408090000002041B503080014840800208408006D
S21408091030840800690C0800A50C0800B10C080013
S214080920750C0800810C08004C84080068840800D0
S21408093084840800A4840800BC840800D4840800C2
S214080940EC84080004850800A92F08000C85080018
S21408095079050800A15408006D500800D90408005D
S214080960353008008D0C08000000C84289030800CE
S2140809700000B442990C08001105080067490846AB
S214080980C047B847B042F9DB002739463846644BBB
S214080990984739463846634B9847029402249EE6A1
S2140809A06148624B98470220614B9847614B9847CD
S2140809B0039B181A1E38604B984700225F4B604FFF
S2140809C0B847604B98476049604B984702940324A1
S2140809D085E65F48554B98470320554B98470424AF
S2140809E07DE65C48514B98470420514B98470821B0
S2140809F02220594B9847012803D00820574B984780
S214080A006DE65748494B98470820544B98470128A5
S214080A107FF465AE534B1B78142B3FF4FBAD4A4965
S214080A2051484A4B9847032459E650483F4B984745
S214080A3005203F4B9847049B009306990B4605985C
S214080A40024614324A4FB8474A4B98474A4B98478B
S214080A504A4B9847DFF854813B4FDFF8C49002E0D2
S214080A6039463846C847C0475045F9DB0020014696
S214080A702B4B98474248414B9847DFF8B880324F8F
S214080A80DFF89C9002E039463846C847C047A84277
S214080A90F9DB00200146224B9847029406241EE6FE
S214080AA03848224B98470620214B9847264936480F
S214080AB0264B98470294072411E634481B4B984760
S214080AC007201B4B9847324B9847324B9847C3B280
S214080AD0052B7FF604AE581F274B98472E491B4B0D
S214080AE09847FCE52D48114B98470820104B984727
S214080AF008212520184B9847012808BF0924EEE549
S214080B0026480A4B98470920094B98472449254800
S214080B100E4B98472448194B9847E0E50000C84212
S214080B2089030800451C0800288508003D5508006C
S214080B3061010800990C0800094808000080364042
S214080B406D450800594E080000001643B503080016
S214080B50448508006085080075190800F119080022
S214080B607C850800580C072000002041A085080056
S214080B7079050800A15408006D500800D90408003B
S214080B800000B442BC85080000007041D885080003
S214080B90B9120800E91208000000A040F485080011
S214080BA00000E1430000F0C1000034438D0C08004B
S214080BB070B582B01E481F4B98471F4B9847019048
S214080BC01E4D1F4C1F4E12E01F4A93785B001F49AC
S214080BD00B60D3785B001E4A136008E01A4A9379C4
S214080BE05B001A490B60D3795B00194A1360C82169
S214080BF001A8A8471020A0470128F8D1124B1A7858
S214080C00520032605A78520012490A601A7A520024
S214080C1011490A605B7A5B00104A1360104B1B6828
S214080C20012BD1D0022BD9D00E48024B9847DEE7CD
S214080C30108608003D550800412D0800A92F080019
S214080C40F11908008C0B07205C0C0720980B07206E
S214080C509C0B0720900B0720A00B0720A40B07204F
S214080C60940B072028860800014B1860704700BFC1
S214080C70940B0720014B1868704700BF980B072095
S214080C80014B1868704700BF9C0B0720014B18687B
S214080C90704700BFA00B0720014B1868704700BFBD
S214080CA0A40B0720014B1868704700BF8C0B072061
S214080CB0014B1868704700BF900B07202DE9F04FCE
S214080CC08FB0054B98470D90DFF81490DFF814B0F6
S214080CD0DFF81480014E6CE0412D0800155108001D
S214080CE0A1540800480107206D5008008A4B1D686B
S214080CF08A4928468A4B9847002800F0F981874A8F
S214080D00854B1A600122874B1A60874B1968204664
S214080D10B047C8470546854B98470746DBF80000A6
S214080D20C047044601463846B047C84785421FD0E4
S214080D307F4B1D687F4B196828467F4B9847C847E6
S214080D400028B8BF4042C0477C4B1968744B984788
S214080D50002800F0D88129462046B047C8470546EF
S214080D60774B19682046B047C847854200F0CB81C4
S214080D706C4B1B687BB10021724B1868724B984706
S214080D80002800F0EB8100242046704B9847704BF3
S214080D901C60704B1C60704B1B68002B40F0C581B4
S214080DA00023604A13606C4A13604FF000636B4A76
S214080DB053634FF496710DA8694B98474FF000633C
S214080DC0664A1363674B98475E4B1860C847DBF85C
S214080DD0001001FB00F16448644CA047644B984738
S214080DE0544B1860C847DBF8001001FB00F1614857
S214080DF0A047614B9847614B18604C4B9847604B2F
S214080E001860604B9847604C2060604B9847DFF846
S214080E10CCA1CAF800005E4B1A6821680A441A601A
S214080E205C4A1368034413605B4B98475B4B1F6828
S214080E305B4B1868C04705462068C0473946B04728
S214080E402946584B98470446574B1860DAF800006E
S214080E50C0473946B0472946524B98470546534B34
S214080E601860534B1B681F46194620464D4B98473B
S214080E708246334B1860009739462846494B9847B0
S214080E802B4B02901860324F3A68324B1A60494C26
S214080E902268494B1A60284D51462A4B1868A847BD
S214080EA0824638600299234B1868A8470B90206042
S214080EB0424B19680D46424C424B1868A047CDE98C
S214080EC002010098A047CDE904013F4B1968079135
S214080ED03E4F3F4BD3E90023DDE90201B847DDE981
S214080EE00423B847CDE908010A9529465046B04775
S214080EF0A047384D02460B46DDE90801A847CDE96C
S214080F000801354B19680798B0470099254B98474C
S214080F10A04702460B4663E0040C07200080ED431A
S214080F208D540800F00B07200C0C0720691C0800DD
S214080F30FC0B0720000C0720014F08004C01072077
S214080F40F40B0720F80B07203D540800191A080070
S214080F50E00B0720D80B0720140C072000100E40C3
S214080F60A92F08009D030800588608003D5508006C
S214080F70A9030800708608005D1C0800080C0720F6
S214080F80100C07200D190800C80B072021190800A7
S214080F90D00B0720D40B0720E918080040010720CB
S214080FA0500107207D520800E80B0720EC0B0720AD
S214080FB03C010720E40B0720DC0B0720380107203C
S214080FC02D480800C40B0720C00B0720D54808008A
S214080FD0B00B072071450800A80B0720CC0B07208C
S214080FE0DDE90801A847CDE90801614B1868A04764
S214080FF002460B46DDE90801A847DFF8E4A1D0471A
S2140810005C4B089018605C4BD3E90023DDE90201CD
S214081010B847DDE90423B847CDE902010A990B98D9
S214081020B047A04702460B46DDE90201A847CDE9CE
S2140810300201524B19680798B0470099504B9847D9
S214081040A04702460B46DDE90201A847CDE90001A4
S2140810504C4B1868A04702460B46DDE90001A84736
S214081060D0470446484B186048490898484B984764
S21408107020B946492046464B984710B14548464B46
S2140810809847DBF80000C0473A4B1968B047C8478E
S2140810900546424B98470746DBF80000C04704461B
S2140810A001463846B047C84785423FF42EAE3C4B0B
S2140810B01D683C4B196828463B4B9847C84700288C
S2140810C0B8BF4042C047394B1968314B984700288B
S2140810D03FF40CAE29462046B047C8470546344B71
S2140810E019682046B047C84785427FF40EAEFDE52E
S2140810F030492846304B984700283FF403AE2D4A1F
S2140811001C4B1A60FEE5204B1C682C492046204BD9
S2140811109847C8B1294A1C4B1A600122284B1A6006
S214081120284B1B68002B7FF426AE0021264B186838
S214081130264B9847B8B100242046254B9847254BA0
S2140811401C60254B1C602BE61A4920461A4B98470C
S2140811500028E2D0174A0C4B1A60DEE7054B1868E1
S2140811601E4B984717E6084B1868194B984717E61A
S214081170080C0720040C0720B80B0720AC0B072028
S2140811807D520800100C07200C0C07200000964320
S2140811908D540800888608003D5508005D1C080028
S2140811A0F40B0720F80B0720014F08004C01072016
S2140811B0FC0B07200080EDC3515408000080ED4367
S2140811C0140C0720F00B0720000C07203D540800DD
S2140811D0391B0800E40B0720DC0B0720191A080047
S2140811E0594E080008B5044B1868044B9847044B3A
S2140811F01968044B984708BDD00B07206D500800A7
S214081200440107201551080008B5044B1868044B1C
S2140812109847044B1968044B984708BDD40B072019
S2140812206D500800440107201551080010B5074BFB
S21408123098470446064B984701462046054B98476C
S2140812404FF07C51044B984710BD00BFE5110800CD
S21408125009120800054F0800155108000000000094
S21408126010B50D4B984704460C4B98470146204648
S2140812700B4B98470B4B19680B4B98470B4B9847EB
S21408128003A3D3E900230A4CA0470A4B984710BD8E
S214081290F8C1631ADCA54C40E511080009120800DD
S2140812A0014F0800540107207D5208002D48080009
S2140812B0D5480800594E080070B5094C4FF080759F
S2140812C025602561C4F8A05065631E20054EB0470A
S2140812D025633C20B047656347F23050B04770BD81
S2140812E000120E4001000720064B1B68064880FBCC
S2140812F003201844DB17C3EB6010431E632B28BF7C
S214081300002070474CB0072009CB3D8DF0B48CB058
S21408131007460E4601AC114D0FCD0FC40FCD0FC4B6
S21408132095E8070084E8070001AA002352F8040B92
S214081330B6FBF0F0B0FBF7F0B0F5807F07D90133C5
S2140813400B2BF3D14FF6FF700CB0F0BC70470A2B8E
S21408135094BF40EA03204FF6FF70F5E79C86080026
S21408136070B506460D460C6844B1896820460C4B95
S214081370984704464FF6FF7398420CD0686840B109
S214081380A968074B98474FF6FF73984205D044EA7A
S214081390004434600024204670BD0446FBE700BFC6
S2140813A00D13080070B40A684B6803F00F038C8AA4
S2140813B023430C8923438C7A43EA44238C7D43EAEF
S2140813C00443CC7D43EA44430C7E43EA844300EB63
S2140813D04214C4F80032CB68C4F804320B69C4F867
S2140813E00C328B7D3BB18C8B4B8B43EA044300EB72
S2140813F04214C4F81832856C4FF001139340DB434F
S2140814001D40CC7F04FA02F68C7F944044EA0644DA
S2140814102C438464446C234091F8214004FA02F576
S21408142091F82040944044EA05442343436401234A
S214081430934091F8224034B3046A1C43046291F83E
S2140814402440012C846E0CBF1C439C43846691F890
S2140814502540012C846E0CBF44EA034324EA034368
S2140814608366032A14D9043AD200046FFF239340F4
S21408147024EA030491F8233003FA02F222430267AF
S214081480002070BC7047046A24EA03040462D6E7A6
S214081490D500C36EFF24AC4023EA040391F823204A
S2140814A0AA401A43C266EBE7012303FA01F141603A
S2140814B07047012303FA01F1816070472A4B99426D
S2140814C049D8A3F57A5399422BD910B4274CA4FBD4
S2140814D00234A40B043C264B0B449B00B2FBF3F2ED
S2140814E0043AFF2C39D9002101316408FF2C0DD9A4
S2140814F00729F9D113029BB2090401F4E0210B4332
S214081500E4B223430361002010BC7047FF2AF1D9D8
S2140815100629EFD801315208FF2AEBD90629F9D94E
S214081520E8E74900B2FBF1F2043AFF2A11D9002392
S21408153001335208FF2A01D9072BF9D1110289B2C3
S2140815401B0403F4E0230B43D2B21A4302610020C3
S21408155070470023F2E701207047FF2A88BF002162
S214081560D8D80021C6E700BF801A0600F11976050C
S2140815700012FD3F38B504460D464FF0FF33836230
S214081580036A80230360036B082303602023036039
S214081590042303600A684968054B9847012814BF66
S2140815A0002001206B7A012B04BF4023236038BD3E
S2140815B0BD1408000A4659B103780129C4BF41780A
S2140815C041EA0323022A04DD827842EA032300E084
S2140815D00023184670470000F8B5CC68002C4FD09A
S2140815E00B4605468E68002068604A68120202F4B8
S2140815F0407242F48052097C090401F4FE010A4351
S2140816006A60E86059681846224B9847E860012CDB
S2140816100FD001232B6000202B6A13F4807F36D16D
S21408162047F22F5147F230574FF0010E4FF0020C99
S21408163019E003232B600120EEE70A4670460CE00B
S21408164008B9C5F800C013F0020FF6D070462B6B29
S2140816503370013C01363A4664B12B6A13F4807F36
S21408166011D1511E8AB1012CEAD013F0020FEED127
S2140816700A46F1E72B6A13F0010FFBD02B6A00E04D
S21408168001242046F8BD0524FBE70924F9E70524CC
S214081690F7E700BFB515080070B5CD68002D35D042
S2140816A00B4604468E68002060600A7C120402F42A
S2140816B0FE024968090201F440710A436260E0606C
S2140816C059681846154B9847E060236A13F4807FDC
S2140816D006D005251BE05DB1236A13F4807F18D178
S2140816E013F0040FF7D033786363013D0136F2E751
S2140816F0236A13F4807F0ED113F0040FF8D0022368
S2140817002360236A13F0010FFBD000E0012528466A
S21408171070BD0525FBE70525F9E700BFB5150800E8
S21408172038B5134B9847002812DD124A1368013360
S2140817301360114C114D2B682360114B9847286095
S2140817402368104A126802FB13000F4B186038BD56
S214081750074B9847002806DB054B98470028E8D132
S2140817600A4B9847E5E7034A1368013B1360E0E72E
S214081770A91C0800440C07203C0C0720380C07203E
S214081780612D080058010720400C0720691C080036
S21408179038B5134B9847002812DD124A13680133F0
S2140817A01360114C114D2B682360114B9847286025
S2140817B02368104A126802FB13000F4B186038BDE6
S2140817C0074B9847002806DB054B98470028E8D1C2
S2140817D00A4B9847E5E7034A1368013B1360E0E7BE
S2140817E0A91C0800540C07204C0C0720480C07209E
S2140817F0612D080058010720500C0720691C0800B6
S21408180038B5144B9847002813DD134A136801337C
S2140818101360124C124D2B682360124B98472860B1
S2140818202368C01A104B1B6803FB00F00F4B1860A8
S21408183038BD084B9847002806DB064B9847002813
S214081840E7D10B4B9847E4E7034A1368013B13605C
S214081850DFE700BF751C0800240C07201C0C0720B7
S214081860180C0720612D080058010720200C0720B7
S2140818705D1C080038B5144B9847002813DD134A3A
S214081880136801331360124C124D2B682360124BF9
S214081890984728602368C01A104B1B6803FB00F0A3
S2140818A00F4B186038BD084B9847002806DB064BD8
S2140818B098470028E7D10B4B9847E4E7034A136894
S2140818C0013B1360DFE700BF751C0800340C0720D7
S2140818D02C0C0720280C0720612D0800580107202B
S2140818E0300C07205D1C08000023044A1360044AD5
S2140818F01360044A1360044A13607047240C0720D8
S214081900440C0720540C0720340C0720024B186898
S214081910024B1B6818447047340C0720240C072019
S214081920024B1868024B1B6818447047540C072073
S214081930440C072000B585B0094B0293094B019368
S21408194000238DF80D301720074B984701A9074844
S214081950074B9847B0FA80F0400905B05DF804FBDD
S214081960A086010000BD0105F93C080000000940FA
S2140819707515080070B58AB0082904D0102916D045
S21408198001200AB070BD144E30706C46134D0FCD52
S2140819900FC42B68236008238DF81030029669461A
S2140819A00F48104B9847B0FA80F04009E9E70E4E0A
S2140819B0307005AC0D4D0FCD0FC42B682360102377
S2140819C08DF82430079605A90548064B9847B0FABF
S2140819D080F04009D5E700BF680C07205C010720A7
S2140819E000000940991608006C0C072070010720B3
S2140819F008B508280CBF044904490548054B98470C
S214081A00B0FA80F0400908BD840107209801072035
S214081A1000000940D9150800F0B585B004464FF413
S214081A2080722B4B1A632B492B4B9847002847D1BB
S214081A302A4920462A4B9847002845D1294B1C603E
S214081A402046294B9847294B9847294E294B9847B3
S214081A5001462948294B9847294B984730604FF04C
S214081A6080511320274B98472420274B9847274C0C
S214081A7001212046264B9847264B019300270297BC
S214081A80254B039301A92046244B98472449012552
S214081A900D600B234B608D720F81326802F5A453DC
S214081AA002330B61CA6020461E4B984729462046DB
S214081AB01D4B98474FF48072054B5A6305B0F0BD2E
S214081AC01A481B4B9847B9E71A48194B9847B5E781
S214081AD000140E400080EDC3515408000080ED430A
S214081AE08D540800700C07202D4808009D3F0800FC
S214081AF0780C0720594E08000080BB44014F0800A8
S214081B00A154080095390800F93C0800004009402F
S214081B10B314080040420F0000BD01056113080019
S214081B2054B00720A5130800A9140800C8860800A2
S214081B303D5508000487080070B584B00446284957
S214081B40284B9847002843D127492046274B9847D3
S214081B50002841D1264B1C602046264B9847264B2A
S214081B609847264E264B984701462648264B9847C0
S214081B70264B984730604FF080514320244B9847B7
S214081B802420244B9847244C00212046234B984772
S214081B90234B019300250295224B039301A9204667
S214081BA0214B984721490D600B234B6001238B720C
S214081BB00D81326802F5A45302330B61CA602046D1
S214081BC01B4B9847294620461A4B984704B070BDC9
S214081BD019481A4B9847BDE71948184B9847B9E76C
S214081BE00080EDC3515408000080ED438D54080072
S214081BF0740C07202D4808009D3F0800780C072025
S214081C00594E08000080BB44014F0800A154080044
S214081C1095390800F93C080000400940B31408004C
S214081C2040420F0000BD01056113080054B00720AC
S214081C30A5130800A9140800408708003D550800A9
S214081C407C87080010B50C46024B98472046024B86
S214081C50984710BD191A0800391B0800014B186868
S214081C60704700BF700C0720014B1868704700BF0C
S214081C70740C072010B5094B1C6800212046084B39
S214081C80984708B1012010BD00212046054B98470B
S214081C90003018BF0120404210BD00BF700C07205E
S214081CA08D5408005154080010B5094B1C680021D3
S214081CB02046084B984708B1012010BD0021204651
S214081CC0054B9847003018BF0120404210BD00BFA2
S214081CD0740C07208D540800515408002DE9F04173
S214081CE080B90C469046002A0FDD8F18084E094D1D
S214081CF0306821462B6898470134BC42F8D14046E4
S214081D00BDE8F0814FF0FF38F9E78046F7E700BFF7
S214081D1084B007207CB007200138022815D82DE9A2
S214081D20F0410E4614469AB10D46DFF838800C4F3F
S214081D30D8F8000015F8011B3B68984700280ADB0E
S214081D40A81B013CF4D1BDE8F0814FF0FF30704786
S214081D501046BDE8F0814FF0FF30BDE8F08100BFC7
S214081D6080B0072084B0072010B4AC2303600B684B
S214081D704A68B3FBF2F31B095C1E4FF6FE729442E8
S214081D800BD803628B68436040F20223C0F8203108
S214081D9050230360002010BC70470120FBE743690E
S214081DA013F0020F1ABFC161002001207047436973
S214081DB013F0010F1DBF83690B70002001207047C8
S214081DC0436913F0020F1DBFC1F30801C16100206B
S214081DD001207047436913F0010F05D08369C3F3E8
S214081DE008030B600020704701207047F0B583B0E9
S214081DF004460D4600230193204B98420DD0204BF5
S214081E00984212D01F4B984219D01F4B9C4220D0A4
S214081E101E4B9C4227D003B0F0BD1F461C4E2946D9
S214081E203846B0470028FAD1EFE71F46194E01A9F1
S214081E303846B0470028FAD1019B2B70E8E71E46C3
S214081E40144C01A93046A0470028FAD1019B2B70F4
S214081E50E1E71E460F4C01A93046A0470028FAD1F4
S214081E60019B2B70D7E71E460A4C01A93046A047AF
S214081E700028FAD1019B2B70CDE700BF00080E4062
S214081E800080094000C0094000000A4000400A409F
S214081E90AF1D0800D51D080070B50C461E4B9842AD
S214081EA00DD01E4B984213D01D4B984219D01D4B8F
S214081EB098421FD01C4B984225D0002070BD1E4665
S214081EC01A4D21463046A8470028FAD1012070BD91
S214081ED01E46174D21463046A8470028FAD101204D
S214081EE070BD1E46124D21463046A8470028FAD136
S214081EF0012070BD1E460E4D21463046A8470028D4
S214081F00FAD1012070BD1E46094D21463046A84725
S214081F100028FAD1012070BD00080E400080094054
S214081F2000C0094000000A4000400A409F1D080003
S214081F30C11D080008B5244B9847244B4FF48072FF
S214081F401A61C3F8A020A3F580634FF000621A61F7
S214081F50C3F8A02003F500734FF000725A61C3F867
S214081F60A0204FF400025A61C3F8A020184A4FF088
S214081F7080515161C2F8A01004215161C2F8A01026
S214081F804FF480021A61C3F8A0204FF400125A6179
S214081F90C3F8A0204FF400421A61C3F8A0204FF4FB
S214081FA080421A61C3F8A0204FF400521A61C3F8A1
S214081FB0A0204FF480521A61C3F8A0206320054B76
S214081FC09847002008BD00BF3519080000140E40C9
S214081FD0000E0E406101080070B584B0002403941A
S214081FE0029401940126009623464FF400720E4987
S214081FF00E480F4DA8470394029401940096234672
S2140820004FF400720B490C48A847039402940194B5
S214082010009623464FF4007208490948A847094B1A
S2140820209847204604B070BDD8870800BD0C080045
S214082030C52A0800E4870800B10B0800F0870800E6
S214082040FD050800C92C080030B585B00820154DD8
S214082050A847154C154B1C60154A164B1A60164AAD
S214082060164B1A60164B01934FF4E13302934FF464
S214082070006303930820A84701A92046114B9847F8
S214082080114D2B6800219868104CA0472B6800213A
S2140820905868A0470E480F4CA0470F48A047002096
S2140820A005B030BDF93C080000080E4084B0072093
S2140820B0991E080080B00720ED1D08007CB0072098
S2140820C000BD0105691D0800BC010720ED56080083
S2140820D0B88708003D550800C8870800F0B583B0E3
S2140820E00D20274B9847274C00224FF40001204626
S2140820F0254FB847254B009320234FF400020D21A7
S2140821002046234EB0474FF400012046214DA847ED
S21408211000224FF000712046B8471F4B009320233B
S2140821204FF000720D212046B0474FF00071204650
S214082130A847002202212046B847184B00932023C0
S21408214002220D212046B04702212046A847002239
S2140821504FF000512046B847114B009320234FF00C
S21408216000520D212046B0474FF000512046A847A0
S2140821704FF400520B4B1A60002003B0F0BD00BFAE
S214082180F93C080000120E40033908002117080021
S214082190513B080089390800011808009117080003
S2140821A07518080000E100E000F1080343604FF0EE
S2140821B0FF328260C3600361002303607047002318
S2140821C00361704743685A684A6042688A605A687A
S2140821D09160596041600861036801330360704785
S2140821E010B40C68B4F1FF3F15D000F10803C268BC
S2140821F01268944204D35B685A6812689442FAD20A
S2140822005A684A6091608B605960086103680133B8
S214082210036010BC70470369F2E7436882689A60F7
S214082220836842685A6003695A68904204BF8268A5
S2140822305A60002202611A68013A1A6018687047E4
S21408224003480068006880F3088862B600DF00BFAD
S21408225008ED00E04FF0807340F8043C40F8081C96
S214082260002340F80C3C40F8202C4038704700000B
S214082270064B19680868B0E8F00F80F309884FF035
S214082280000080F311884EF00D0E704788AC0720CA
S2140822904FF08052014B1A60704700BF04ED00E013
S2140822A0EFF311804FF0A00181F3118870470020EA
S2140822B008B5034B9847034A13680133136008BDF3
S2140822C0A1220800AC01072080F31188704700009F
S2140822D008B5054A1368013B136003B108BD002022
S2140822E0024B9847FAE700BFAC010720C92208004E
S2140822F0EFF309800C4B1A6820E9F00F10602DE9FF
S21408230008404FF0A00080F3118800F0FDFE4FF063
S214082310000080F31188BDE8084019680868B0E82E
S214082320F00F80F30988704788AC072008B54FF08F
S2140823308052054B1A60054B9847054B9847002076
S214082340044B984708BD00BF04ED00E0A122080032
S214082350812D0800C9220800034A044B1A60072288
S214082360043B1A60704700BF1F48010014E000E0F5
S21408237010B5094B1A6842F470021A601A6842F0DF
S21408238070421A60054B98470024054B1C60054BA5
S2140823909847204610BD00BF20ED00E059230800EE
S2140823A0AC0107204122080010B4134A00E01A4680
S2140823B013688342FBD351685418A04209D0416879
S2140823C04418A3420AD00360904218BF106010BC9D
S2140823D070474068014451601046F0E7074C24688F
S2140823E0A34206D05B681944416013681B68036003
S2140823F0EAE70360E8E700BF80AC07207C0C07200C
S21408240038B504462A4B98472A4B1B688BB1002CD4
S21408241047D004F1100212F0070F1CBF22F0070283
S2140824200832511E49F6FE7399423CD822490C6878
S21408243016E0214A214B13600021516049F6F072DC
S21408244098181C4D286049F6F475595199505A60E9
S21408245018601B4A1368103B1360D8E721461C46D1
S21408246063689A4202D92368002BF7D1114B1B6880
S2140824709C421AD00D68103523680B6063689B1A57
S214082480202B08D80E4A136861685B1A13600D4B38
S2140824909847284638BDA018436062600A4B98479C
S2140824A0F0E70025F3E70025F1E70025EFE700BF92
S2140824B0312D08007C0C072080AC0720800C0720F4
S2140824C0B0010720A92E0800A923080080B110B57E
S2140824D00446084B9847084A54F80C3C11680B44C5
S2140824E01360A4F11000054B9847054B984710BD9C
S2140824F0704700BF312D0800B0010720A923080047
S214082500A92E080010B50446036C5BB903681BB116
S214082510A36B0133A36310BD4068124B9847002392
S2140825206360F5E76AB91A4680680F4B9847A36850
S214082530226C1344A36062689342E9D32368A360BD
S214082540E6E71A46C068084B9847226C5242E3688A
S2140825501344E36021688B42DAD263681A44E26067
S214082560D6E700BF353408006555080038B5034679
S214082570006858B11A6CDC681444DC605D68AC42CC
S21408258028BFD8600846D968014B984738BD00BFB1
S21408259065550800F8B504461F4B9847A36C002BF2
S2140825A014DD636A93B104F124061C4D1C4F07E042
S2140825B0A36C013BA364A36C002B07DD636A2BB1F5
S2140825C03046A8470028F3D0B847F1E74FF0FF3366
S2140825D0A364144B9847104B9847636C002B14DD84
S2140825E0236993B104F110060C4D0D4F07E0636C98
S2140825F0013B6364636C002B07DD23692BB130460F
S214082600A8470028F3D0B847F1E74FF0FF336364D4
S214082610044B9847F8BD00BFB12208004D320800A9
S2140826207D330800D122080038B508B30D460446A5
S214082630174B98472268216CE36B03FB01F3D0180D
S21408264060600020A063A2605B1A1344E3604FF04A
S214082650FF336364A36495B923692BB104F11000B2
S2140826600C4B9847012807D00B4B9847012038BDDC
S2140826700A4B984700BFFDE7094B9847F4E704F173
S2140826801000084DA84704F12400A847ECE700BF4F
S214082690B12208004D320800D1220800A122080005
S2140826A091220800A9210800F8B5D8B10D461746AA
S2140826B0064650200D4B9847044698B105FB06F091
S2140826C001300A4B9847206048B1E663256401212B
S2140826D02046074B984784F84D702046F8BD20469C
S2140826E0044B9847044B984700BFFDE701240800B1
S2140826F029260800CD240800A12208002DE9F04F5D
S21408270085B0019248B188469946044649B10027E3
S214082710384EDFF80CA1384D2EE0384B984700BFEE
S214082720FDE7036C1BB1354B984700BFFDE7002754
S214082730EEE74A4641462046314B9847636A2BB92E
S2140827402D4B9847012005B0BDE8F08F04F1240012
S2140827502C4B98470128F3D12B4B9847F0E7264B8C
S21408276098470020EFE702A8D0470FE02046274BFF
S2140827709847274B98470127B047A26BE36B9A42C6
S214082780D7D3019B002BEAD0002FECD0A847214BCB
S2140827909847B047636CB3F1FF3F04BF00236364F8
S2140827A0A36CB3F1FF3F04BF0023A364A84701A9A5
S2140827B002A8194B9847A8B9B047D4F838B0E76BC1
S2140827C0A847BB45D2D1019904F11000134B98478E
S2140827D020460E4B98470E4B98470028CBD10A4BFD
S2140827E09847C8E72046094B9847094B9847002062
S2140827F0A9E700BFB1220800D1220800A1220800DC
S214082800052508004D320800912208009525080085
S214082810A92E0800312D0800F9320800A931080051
S214082820D13208002DE9F04190B10E46154698467B
S214082830044689B11B4B98470746A26BE36B9A423E
S21408284011D300243846184B98472046BDE8F08137
S214082850144B984700BFFDE7036C002BEAD0114BDA
S214082860984700BFFDE74246314620460F4B98473B
S214082870A36CB3F1FF3F0AD1636A6BB104F124007D
S2140828800B4B984750B15DB101242C60DAE7A36C76
S2140828900133A3640124D5E70124D3E70124D1E753
S2140828A00124CFE7A1220800C92208000525080050
S2140828B04D3208002DE9F04784B0019248B18846A9
S2140828C09946044649B10027464EDFF84CA1464DC6
S2140828D04BE0464B984700BFFDE7036C1BB1434BE4
S2140828E0984700BFFDE70027EEE7E5684146204623
S2140828F03F4B9847B9F1000F17D1A36B013BA36371
S214082900236813B93B4B9847606023693BB104F1D1
S2140829101000394B9847012801D1384B9847324B5D
S2140829209847012004B0BDE8F087E560636A002B8D
S214082930F5D004F12400304B98470028EFD02F4BF1
S2140829409847ECE7284B98470020EBE702A8D047C3
S21408295014E0B04760682A4B9847A8472CE0204602
S214082960284B9847284B98470127B047A36B002B5E
S214082970BBD1019B002BE5D0002FE7D0A847234BFF
S2140829809847B047636CB3F1FF3F04BF0023636406
S214082990A36CB3F1FF3F04BF0023A364A84701A9B3
S2140829A002A81B4B9847B0B9B047A76BA847002F9B
S2140829B0D5D12368002BCCD0019904F12400154BFF
S2140829C0984720460F4B98470F4B98470028CBD17F
S2140829D00A4B9847C8E720460A4B98470A4B984739
S2140829E000209FE7B1220800D1220800A122080093
S2140829F06D250800893308004D320800912208002A
S214082A00B533080095250800A92E0800312D0800C2
S214082A10F9320800A9310800D132080038B5044652
S214082A200D460E4B9847636CB3F1FF3F04BF002377
S214082A306364A36CB3F1FF3F04BF0023A364084B91
S214082A409847A36B1BB12046064B984738BD2946C6
S214082A5004F12400044B9847F5E700BFB1220800AC
S214082A60D1220800952508000932080010B50F4B3A
S214082A701B6858600E4B1B6898420ED304460D4BD5
S214082A8018680A4B196804310B4B98470B4B1B68A0
S214082A909C423CBF094B1C6010BD094B1868034B91
S214082AA019680431044B984710BD00BF88AC07204E
S214082AB084AD07208CAC0720E1210800B40107206C
S214082AC090AC07202DE9F84F0A9FDDF82C900C9E55
S214082AD048B1884615469B468246042F07D9604B60
S214082AE0984700BFFDE75E4B984700BFFDE74C20C0
S214082AF05C4B98470446002854D0002E48D00663FE
S214082B00AA00A5213046584B984705F18045013D57
S214082B10236B03EB850323F007050A22414604F1DD
S214082B203400524B9847002384F83D30E762A76488
S214082B3004F1040840464E4EB04704F11800B0476A
S214082B402461C7F10503A36164625A4651462846C4
S214082B50484B9847206010F0070F27D1B9F1000FAF
S214082B6001D0C9F80040444B9847444A13680133DB
S214082B701360434B1B68EBB1424B1B68002B40D1DC
S214082B803F4B1B68DB6A9F4224BF3D4B1C6038E006
S214082B90A800344B9847064620630028B0D1204644
S214082BA0394B98474FF0FF30BDE8F88F2C4B9847C5
S214082BB000BFFDE7324B1C601368012B21D1334E52
S214082BC03046334DA84706F11400A84706F12800FA
S214082BD0A84706F13C00A84706F15000A847DFF8CA
S214082BE0E4904846A8472B4E3046A8472A48A847A8
S214082BF02A48A8472A48A8472A4BC3F800902A4BD1
S214082C001E60E06A294B1B68984284BF274B1860F1
S214082C10274A1368236401331360264B1B689842BF
S214082C2084BF244B186000EB80004146174B03EB2B
S214082C308000214B9847214B9847124B1B684BB195
S214082C400F4B1B68DB6A9F4207D91D4B984701202C
S214082C50BDE8F88F0120BDE8F88F0120BDE8F88FA1
S214082C60A12208000124080051560800E958080067
S214082C70BF21080055220800B1220800F8AC07203A
S214082C8088AC072058AD0720CD24080094AC072050
S214082C90A921080028AD072044AD072070AD0720FD
S214082CA05CAD07208CAC072090AC072010AD072041
S214082CB004AD07200CAD0720C5210800D122080066
S214082CC09122080014AD072010B584B000230393A2
S214082CD002930193009382220D490E480E4CA0479A
S214082CE0012802D080B104B010BD0C4B98470128CB
S214082CF0F8D10B4B984701220A4B1A6000220A4B60
S214082D001A600A4B9847EEE7054B984700BFFDE761
S214082D100088080081300800C52A08002D350800FC
S214082D20A122080058AD072084AD072071230800AB
S214082D30024A136801331360704700BF00AD0720CE
S214082D4010B5044B9847044B1C68044B984720461C
S214082D5010BD00BFB122080084AD0720D1220800AC
S214082D6010B5044B9847044B1C68044B98472046FC
S214082D7010BD00BFA122080084AD0720C9220800A4
S214082D803D4B1B68002B6FD12DE9F0413B4B1A6871
S214082D9001321A601B68ABB9394B1B681B68002BDD
S214082DA028D1374B1968374A1068186011603649B9
S214082DB00A6801320A601B681B68FBB94FF0FF32CD
S214082DC0324B1A602D4B1A68304B1B689A4250D308
S214082DD02B4B1B681B68CBB1294B1B68DB68DC6870
S214082DE06368264A1268934216D8294E294FDFF898
S214082DF0B4802FE0284B984700BFFDE7204B1B68A0
S214082E00DB68DB685A68214B1A60DBE74FF0FF3255
S214082E101E4B1A60BDE8F0811C4A1360BDE8F081BD
S214082E20E06A3B68984288BF386000EB8000294615
S214082E3008EB8000194B9847114B1B681B68002B42
S214082E40E4D00F4B1B68DB68DC6863680B4A1268C3
S214082E509342E1D8251D2846B047A36A002BDFD049
S214082E6004F11800B047DBE70D4A13680133136016
S214082E707047BDE8F08100BF00AD072084AD07208D
S214082E808CAC072090AC072040AD0720B401072083
S214082E901B2208000CAD0720A1220800C521080047
S214082EA0FCAC072094AC07202DE9F8432F4B1B6891
S214082EB01BB92F4B984700BFFDE72E4B98472B4B67
S214082EC01A68013A1A601B68002B4DD12A4B1B68FA
S214082ED02BB10024DFF8CC80284F294E23E00024AD
S214082EE0284B98472046BDE8F883D8F80C30DD68AC
S214082EF005F11800B84705F104094846B847E86AD6
S214082F003368984288BF306000EB800049461E4B05
S214082F1003EB80001D4B98471D4B1B68EA6ADB6A6B
S214082F209A4228BF0124D8F80030002BDDD1194B6F
S214082F301B6893B1174B1B6843B1174D154CA84730
S214082F402368013B23602368002BF8D10022134B2B
S214082F501A60134B98470124C2E7012CF6D00F4B92
S214082F601B68012BBCD1F1E70024B9E700AD0720A8
S214082F70A1220800B1220800F8AC07201B2208008E
S214082F800CAD0720D122080094AC0720C521080004
S214082F9088AC0720FCAC0720812D08003CAD072034
S214082FA09122080044AD072038B530B10C460546D6
S214082FB039B9184B984700BFFDE7164B984700BF2E
S214082FC0FDE7154B98472B681C44144A1268934231
S214082FD00AD9A3420ED9114B1B682C609C420FD805
S214082FE00F4B984740B138BDA34208D80B4B1B6817
S214082FF09C4204D82C60F3E70A4B984738BD2C60EF
S214083000094B18680430094B98472046084B9847E0
S214083010E6E700BFA1220800312D080084AD07208E
S214083020A92E08009122080088AC07201B22080059
S2140830306D2A080010B510B90A4B984710BD04460B
S214083040094B9847094B1B681C44094B1868043001
S214083050084B98472046084B9847084B984700283F
S214083060ECD1E9E791220800312D080084AD07204D
S21408307088AC07201B2208006D2A0800A92E080025
S21408308080B5164DDFF87880154E24E0154B1B6882
S214083090012B1ED82B68002BF8D0C0473468B847D9
S2140830A0002CF7D0104B9847F368DC68201D0F4BB0
S2140830B098470F4A1368013B13602B68013B2B6047
S2140830C00C4B9847206BDFF83C90C8472046C8470B
S2140830D0E0E7094B9847094FDCE700BF08AD072033
S2140830E070AD072094AC0720B12208001B22080008
S2140830F0F8AC0720D122080091220800A92E080063
S214083100312D0800CD240800214B1B68EBB910B5FB
S214083110204B1B6803EB83039B001F4AD358C3B995
S2140831201C4B1B686BB11B4A1B491368013B136099
S214083130136803EB830351F8233053B91368002B45
S214083140F3D1164B984700BFFDE70122144B1A60CF
S2140831507047104B1B68104A9900C81802EB80008D
S214083160446864684460194402460832944209D0A8
S21408317003EB8303084A02EB83035B68DA68094BB0
S2140831801A6010BD6068044A02EB81025060EFE7DF
S21408319000AD07200CAD072094AC0720A12208003C
S2140831A03CAD072088AC072038B590B10C460E4DCC
S2140831B0296818310D4B9847286804300C4B9847F7
S2140831C0B4F1FF3F09D00B4B186820440A4B9847C8
S2140831D038BD0A4B984700BFFDE729680431084800
S2140831E0084B984738BD00BF88AC0720E121080087
S2140831F01B22080084AD07206D2A0800A1220800BB
S2140832005CAD0720C521080038B578B10D46094CD5
S21408321021681831084B984720680430074B9847B0
S214083220074B18682844074B984738BD064B9847FD
S21408323000BFFDE788AC0720C52108001B22080050
S21408324084AD07206D2A0800A122080038B5C36897
S214083250DC681CB304F118052846154B9847154B2F
S2140832601B68FBB9251D2846114B9847E06A124B88
S2140832701B68984284BF104B186000EB80002946F4
S2140832800E4B03EB80000E4B98470E4B1B68E06A0C
S214083290DB6A984234BF0020012038BD0A4B9847A5
S2140832A000BFFDE729460948054B9847EDE700BFEC
S2140832B01B22080000AD07200CAD072094AC0720A1
S2140832C0C521080088AC0720A122080044AD0720C5
S2140832D008B530B1054A12680260054A12684260AD
S2140832E008BD044B984700BFFDE700BF40AD072068
S2140832F084AD0720A122080038B5E8B10D4604467B
S214083300F1B1184B98472B68B3F1FF3F26D0164A01
S21408331012682168914204D0144A12686168914282
S2140833201ED9124A12686168521A93420CD80124B0
S2140833300F4B9847204638BD0E4B984700BFFDE711
S2140833400C4B984700BFFDE7084A1268521A9B1AAA
S2140833502B602046084B98470024E9E70024E7E757
S2140833600124E5E7B122080040AD072084AD072018
S214083370D1220800A1220800D13208000122014B00
S2140833801A6070473CAD0720014B1868704700BFAD
S21408339088AC0720054B1B6833B1054B1B68002B10
S2140833A00CBF0120022070470020704758AD072048
S2140833B000AD0720002831D038B50546C36A18493D
S2140833C00968C96A8B4211D215490968C96AC1F1E8
S2140833D00501816103EB8303124901EB830341690D
S2140833E0994204D00E4B1B68DB6AC36238BD041DC5
S2140833F020460D4B98470A4B1B68D86AE8620B4B69
S2140834001B68984284BF094B186000EB8000214671
S214083410044B03EB8000064B984738BD704700BF47
S21408342088AC072094AC07201B2208000CAD0720A8
S214083430C5210800E8B138B50446C16A826C9142D5
S21408344016D0051D28460B4B9847A06CE062C0F1C5
S2140834500503A361084B1B68984284BF064B186097
S21408346000EB80002946054B03EB8000044B984789
S21408347038BD70471B2208000CAD072094AC072007
S214083480C521080008B54160006191420CD8D21ADF
S21408349083699A4201D3012008BD011D094B1868AB
S2140834A0094B9847002008BD9A4201D2994206D295
S2140834B0011D064B1868044B9847002008BD0120DC
S2140834C008BD00BF8CAD0720E121080088AD0720A5
S2140834D070B50D4B98470D4B1B6813B10C4B9847AE
S2140834E070BD0C4D28460C4EB0470C4C2046B047D5
S2140834F00B4B1D600B4B1C6000220C2105200A4B51
S2140835009847024B1860E9E7B1220800BCAD0720CF
S214083510D122080090AD0720A9210800A4AD0720F5
S21408352088AD07208CAD0720A926080010B584B002
S2140835300B4B98470B4B1B6873B1002303930293FE
S2140835400193042200924FF4827207490748084CF8
S214083550A04708B104B010BD064B984700BFFDE76A
S214083560D1340800BCAD0720088808007D3608005E
S214083570C52A0800A122080030B585B00F4C25687A
S214083580D5B11C460191029203903BB10023224616
S21408359001A928460A4CA04705B030BD094B9847F4
S2140835A001284FF000030CBF089A1A4601A90348E1
S2140835B00068054CA047EFE70020EDE7BCAD072004
S2140835C02528080095330800FD2608002DE9F04751
S2140835D082B08146214B98478046214B1B6898420B
S2140835E015D30023C9F800301D4BC3F800804046A9
S2140835F002B0BDE8F087002100910B4652462046EF
S214083600184CA04728B9184B984700BFFDE7174E37
S214083610174F33681A68C2B1DA68D2F800A0DB68B8
S214083620DC68251D2846B847636A20469847E3693C
S214083630012BEED1A36953449A45DCD2636024611A
S214083640294630680B4B9847E3E70B4A106807494A
S214083650086013600123C9F80030C5E7412D08004B
S214083660B8AD072079350800A122080088AD0720E4
S2140836701B220800E12108008CAD07202DE9F04147
S21408368086B0DFF868814D4B1B681A68002A00F080
S2140836908980DB681D684A4B984703A8494B9847BA
S2140836A00646039B002B40F08680A8420FD2A91B33
S2140836B0454B1868454B9847454B984708B9454BBE
S2140836C0984702A83F4B984707463F4E36E0404B80
S2140836D098473A4B1B68DB68DC68201DC047E369DF
S2140836E0012B14D1A1692B463246294420463A4E6E
S2140836F0B04701280BD1002100910B462A462046E8
S214083700364DA84718B9364B984700BFFDE7636A99
S21408371020469847D5E70025C9E70499A16131B145
S2140837203B463A46394420462B4CA04706E02C4BED
S214083730984700BFFDE720462A4B98472A4D0023A6
S2140837401A4603A93068A84700289CD0059C1CB1D7
S21408375063690BB1201DC047039B022BDDD0032BEA
S214083760E9D0002BEBD10499A0690B463A460144F0
S2140837702046194DA8470128E0D1636A2046984795
S214083780E369012BDAD1A269002100910B4604985F
S21408379002442046114CA0470028CFD1104B98472A
S2140837A000BFFDE7064B984703A8064B9847064612
S2140837B0039B002BAFD0064B984782E788AD0720BF
S2140837C0312D0800CD350800BCAD07201D2A08009D
S2140837D0A92E0800912208008534080079350800CB
S2140837E0A1220800CD240800B52808001B220800DE
S2140837F010B50E480E4B98473E2100200D4B9847B3
S2140838000D4CA0470028FCD00C4B98470C4A0D4B93
S2140838109A620D4CA0470028FCD010200B4B984706
S2140838200B4B98470148024B984710BD00BD010551
S214083830B1000720753C0800C93C0800D93C0800C0
S214083840013F0D2000060E40E93C0800113C080028
S214083850E93D080010B54FF40042124B5A600B20A1
S214083860114CA0470C20A0470D20A0470E20A047CB
S2140838704FF060513B200D4CA0474FF0605155204B
S214083880A0474FF060515620A04709496820A04736
S21408389008495C20A047084A4FF440710748084B7F
S2140838A0984710BD501A0E40F93C08009539080094
S2140838B0790000280100002801000008000E0E40CC
S2140838C0653A08004264B1F1805F16D00BD849B15A
S2140838D0B1F1006F05D1036F016F0B4023EA0203B5
S2140838E0036742607047B1F1405FFBD0B1F1605F9B
S2140838F0F8D0B1F1205FF4D17047036F1343036724
S214083900EFE7416412F0010F14BF4166016612F03A
S2140839100A0F14BF0162416212F0020F07D112F0BB
S214083920080F18BFC0F88410416101607047C0F8DE
S2140839308010F9E710B4019C416444B9016643B1AC
S214083940016542B941630161016010BC7047416678
S214083950F5E74165F5E70163F5E712F0100F10D0BB
S214083960C0F8B01012F0200F14BFC0F8D410C0F87A
S214083970D01012F0400F14BFC0F8C010C0F8C41022
S2140839807047C0F8B410704701647047C06C704741
S214083990806C704770B582B00D46430903F5001376
S2140839A003F207735C0201F0F043B3F1205F31D0F5
S2140839B016D8B3F1006F1BD0B3F1805F16D100F0B4
S2140839C01F000126864032464FF080512046224B83
S2140839D0984715F0010F14BF66662666012017E0A3
S2140839E0B3F1405F21D0B3F1605F1ED000200FE036
S2140839F000F01F000126864032464FF00061204640
S214083A00154B984715F0010F14BF66662666012009
S214083A1002B070BD00F01F0101262A4606FA01F121
S214083A2020460E4B98473046F2E705F0605200F005
S214083A301F01012605EA06030093C5F38003B2F1C9
S214083A40605F14BF0022012206FA01F12046044CEA
S214083A50A0473046DCE700BFC53808000339080031
S214083A603539080070B582B005460E46144602F091
S214083A70F043B3F1205F27D011D8B3F1006F16D00A
S214083A80B3F1805F11D10A464FF08051194B984721
S214083A9014F0010F14BF6E662E66012012E0B3F113
S214083AA0405F15D0B3F1605F12D000200AE00A46E6
S214083AB04FF000610F4B984714F0010F14BF6E6665
S214083AC02E66012002B070BD0B4B98470120F9E71F
S214083AD004F0605204F001030093C4F38003B2F1CB
S214083AE0605F14BF0022012231462846034CA047D7
S214083AF00120E7E7C538080003390800353908000B
S214083B002DE9F041044688460E4B98470546204660
S214083B100D4B9847054013D00C4C04F1600603E0A3
S214083B20B4420DD010345DB120684045F8D16168C4
S214083B302942F5D0E3689847636825EA0305EFE766
S214083B40BDE8F0818D39080091390800C0AD07201E
S214083B50F8B5184C2668062E29D84FF0000C64468F
S214083B60154F04E00134E4B2A446A64209D3A6469B
S214083B7025017D598D42F5D107EB04156D689542F0
S214083B80F0D10D4D4FEA0E1E05EB0E0445F80E104B
S214083B906260A3600699E1600136664504BF054980
S214083BA00E6011461A46054B98470020F8BD0120BE
S214083BB0F8BD00BF30AE0720C0AD07205B3908004F
S214083BC008B50B210148024B984708BD000E0E4069
S214083BD0013B080008B50C210148024B984708BD70
S214083BE000100E40013B080008B50D210148024BA5
S214083BF0984708BD00120E40013B080008B50E2184
S214083C000148024B984708BD00140E40013B0800C7
S214083C10174A136B23F0700318431063936E13F060
S214083C20080F0AD14FF4006311498A6E12F0080F84
S214083C3003D1013BF9D1012070470D4A136B23F0DD
S214083C40030343F002031363936E13F0080F0AD1BD
S214083C504FF4006306498A6E12F0080F05D1013B3F
S214083C60F9D101207047002070470020704700BF38
S214083C7000060E40C8B9114A136A090289B223F42D
S214083C805C1323F0030343F45C1343F001030B4374
S214083C901362936E13F0010FFBD0084A136A43F0C1
S214083CA09B7343F480331362704704490B6A044AD3
S214083CB01A40044B13430B62704700BF00060E40C1
S214083CC0FCFFC8FE02003701024B986E00F48030F5
S214083CD0704700BF00060E404FF00052014B9A6234
S214083CE0704700BF00060E40024B986E00F00200B8
S214083CF0704700BF00060E402C281ED81F280CD878
S214083D00114B9A6901238340934318D0012303FA81
S214083D1000F00D4B18610020704720380A4BD3F886
S214083D2008210123834093430BD0012303FA00F0B4
S214083D30054BC3F80001002070470120704700209B
S214083D4070470020704700BF00060E40FEE70000E0
S214083D5008B51C4B1C4A9A4210D01C4B194A9A426A
S214083D600CD2013B9B1A23F0030304331344164971
S214083D7051F8040B42F8040B9A42F9D1144B154A31
S214083D809A420AD2013B9B1A23F0030304331344D6
S214083D90002142F8041B9342FBD10F4B23F06042EC
S214083DA022F07F020D498A6003F16043B3F5801F55
S214083DB003D28B6843F000538B60094B9847094B36
S214083DC09847FEE700000720E4890800680B0720EC
S214083DD0B0B00720680B07200000080000ED00E0E0
S214083DE0ED540800513F08003D4B1B6B03F00303DE
S214083DF0032B0ED8DFE803F0021C3838394B5B6912
S214083E0013F0800F14BF4FF400424FF4FA42364BBB
S214083E101A60334B1B6B03F07003702B57D0304B74
S214083E201A6B3149C2F302120B68D3400B60704715
S214083E302B4B1B6A13F0807F03D02C4A2A4B1A6040
S214083E40E7E72B4A284B1A60254B1B6A03F07003DA
S214083E50102B05D0202BDCD1244A234B1A60D8E738
S214083E60244A214B1A60D4E71D4B1B6A13F0807F47
S214083E700CD01E4A1C4B1A60194B1B6B03F003032D
S214083E80022B16D01C4A184B1A60C2E7184A164B63
S214083E901A60134B1B6A03F07003102B05D0202BF7
S214083EA0EAD1124A104B1A60E6E7124A0E4B1A601D
S214083EB0E2E70B4A916A926A0B48C1F30A41036823
S214083EC001FB0333D2B2B3FBF2F30360A1E7064A61
S214083ED013680A49A1FB03135B081360704700BF09
S214083EE000060E40101A0E40B8010720001BB70047
S214083EF000093D0000127A00001C4E0EABAAAAAAC2
S214083F000A4B1B6853B1094B1B681A18084991429B
S214083F1008DB1046054A106018467047054A034BEA
S214083F201A60F0E74FF0FF30704700BF34AE072046
S214083F30FC7F0820B0D007204FF0FF3070474FF4C2
S214083F4000534B60002070470120704700207047E0
S214083F5010B50B4B98470B4B98470B200A4CA047BD
S214083F600C20A0470D20A0470E20A047074B9847D7
S214083F70074B9847074B9847074B9847002010BDB4
S214083F80F137080055380800F93C080049200800B1
S214083F90DD200800D91F0800351F0800F8B5C1F352
S214083FA00A56A6F2FF35132D0A460B46044611DCC0
S214083FB0002D2EDB8E46204929410A4225D04FF493
S214083FC0002300262B41734423EA0103194634468E
S214083FD02046F8BD332D05DDB5F5806F1FD0114698
S214083FE02046F8BD4FF0FF31A6F2134621FA06F632
S214083FF03042F4D00121C5F1330201FA02F2121858
S21408400028BF5B1822EA0606E0E70028D7D1114643
S214084010E6E7013501F0004307D00026D6E702465A
S2140840200B4600F0A5FA0446D2E743F07F5343F464
S21408403040130026CAE700BFFFFF0F0000F000B8D5
S2140840402DE9F84F5442144323F00049DFF8C0E145
S21408405049EAD474744506460D4640D8444204439B
S21408406021F0004B4BEAD47474458A4637D803F1DE
S214084070404404F5801414434AD09C1704F0020404
S21408408044EAD17450EA0B0131D052EA090137D01C
S214084090F14552D0F34533D0ABEB09094FEA29591D
S2140840A0B9F13C0F3BDC002B66DB3046294600F0B6
S2140840B03BFD00F053FA00F0AFF8012C58D0022C64
S2140840C048D0002C5ED040A3D3E9002300F04EFA77
S2140840D03FA3D3E9002300F049FABDE8F88F10465D
S2140840E0194632462B4600F043FABDE8F88F022CF4
S2140840F019D0032C10D138A1D1E90001BDE8F88FFA
S214084100BAF1000F14DB36A1D1E90001BDE8F88F3B
S214084110BDE8F84F00F080B82946BDE8F88F30A112
S214084120D1E90001C9E72AA1D1E90001BDE8F88F65
S2140841302DA1D1E90001BDE8F88FCB4524D0022C8B
S214084140F1D0032CD7D0012C4FF0000027D0002147
S214084150BDE8F88F1CA3D3E9002300F007FA02464F
S2140841600B461BA1D1E9000100F000FABDE8F88F64
S21408417001F10041BDE8F88F19F13C0F95DA0020EF
S21408418000219AE7BDE8F88F022C16D0032C0FD032
S214084190012C08D016A1D1E90001BDE8F88F4FF030
S2140841A00041BDE8F88F14A1D1E90001BDE8F88FF9
S2140841B013A1D1E90001BDE8F88F13A1D1E90001E8
S2140841C0BDE8F88FAFF30080075C143326A6A13C41
S2140841D0182D4454FB210940182D4454FB2109C0CE
S2140841E0182D4454FB21F93F182D4454FB21F9BFE0
S2140841F0182D4454FB21E93F182D4454FB21E9BFF0
S214084200D221337F7CD902C0D221337F7CD90240A9
S2140842100000F07F000000002DE9F84FC24B21F0A7
S21408422000469E420D468A46044610DDBF4B9E4217
S21408423000F3B58000F0B080BD4BBE49BE4CBAF165
S214084240000FD8BF0B4620461946BDE8F88FBB4B73
S2140842509E4200F3C180A3F1DE739E4240F3AB801A
S2140842604FF0FF3B22462B462046294600F032FBFD
S21408427002460B468046894600F02CFB92A3D3E9FB
S214084280002306460F4600F025FB91A3D3E900233A
S21408429000F06EF932463B4600F01CFB8EA3D3E9CD
S2140842A0002300F065F932463B4600F013FB8CA36A
S2140842B0D3E9002300F05CF932463B4600F00AFBDF
S2140842C089A3D3E9002300F053F932463B4600F0B1
S2140842D001FB87A3D3E9002300F04AF942464B4680
S2140842E000F0F8FA84A3D3E90023804689463046CE
S2140842F0394600F0EFFA82A3D3E9002300F036F936
S21408430032463B4600F0E6FA7FA3D3E9002300F0E6
S2140843102DF932463B4600F0DDFA7DA3D3E90023AB
S21408432000F024F932463B4600F0D4FA7AA3D3E9E3
S214084330002300F01BF932463B4600F0CBFABBF1EF
S214084340FF3F02460B466ED04046494600F010F93D
S21408435022462B4600F0BEFA794E7A4B4FEACB0B34
S2140843605E449B44DBE9002300F000F922462B4616
S21408437000F0FCF80B460246D6E9000100F0F6F815
S214084380BAF1000F04460B46BFF65DAF01F10043D5
S21408439020461946BDE8F88F00283FF44DAF224660
S2140843A02B462046294600F0E3F804460B462046EE
S2140843B01946BDE8F88F5AA3D3E9002300F0D8F8C9
S2140843C00022614B00F016FD00283FF449AF2B464B
S2140843D020461946BDE8F88F00F0C0F85B4B044647
S2140843E09E420D4630DCA3F550239E4255DC02461D
S2140843F00B4600F0BDF80022534B00F0B7F8002239
S21408440006460F464FF080432046294600F0B0F88F
S21408441002460B463046394600F086FB4FF0000B46
S21408442004460D461EE74046494600F0A1F82246D7
S2140844302B4600F04FFA0B4602462946204600F067
S21408444095F804460B46FEE6414B9E421ADC0022CF
S214084450404B00F08BF8002206460F463D4B2046A0
S214084460294600F037FA0022374B00F081F802465A
S2140844700B463046394600F057FB4FF0020B044611
S2140844800D46EFE602460B460020334900F04CFB8B
S2140844904FF0030B04460D46E4E600222A4B00F0D4
S2140844A065F8002206460F46274B2046294600F0A8
S2140844B05FF802460B463046394600F035FB4FF0AB
S2140844C0010B04460D46CDE611DA22E33AAD903FDD
S2140844D0EB0D76244B7BA93F513DD0A0660DB13F2E
S2140844E06E204CC5CD45B73FFF8300922449C23F96
S2140844F00D5555555555D53F2F6C6A2C44B4A2BF5B
S2140845009AFDDE522DDEAD3F6D9A74AFF2B0B33F22
S214084510711623FEC671BC3FC4EB98999999C93F9A
S2140845209C7500883CE4377EFFFF0F440000F07F50
S214084530FB21F93FFB21F9BF182D4454FFFFDB3F51
S21408454010880800308808000000F03FFFFFF23FA0
S214084550FF7F03400000F83F0000F0BF21F0004155
S214084560704700BF81F0004102E000BF83F00043BF
S21408457030B54FEA41044FEA430594EA050F08BFF1
S21408458090EA020F1FBF54EA000C55EA020C7FEAB5
S214084590645C7FEA655C00F0E2804FEA5454D4EB32
S2140845A05555B8BF6D420CDD2C4480EA020281EAFC
S2140845B0030382EA000083EA010180EA020281EA34
S2140845C00303362D88BF30BD11F0004F4FEA013186
S2140845D04FF4801C4CEA113102D0404261EB410195
S2140845E013F0004F4FEA03334CEA133302D052421B
S2140845F063EB430394EA050F00F0A780A4F10104D7
S214084600D5F1200E0DDB02FA0EFC22FA05F2801810
S21408461041F1000103FA0EF2801843FA05F35941F6
S2140846200EE0A5F120050EF1200E012A03FA0EFC75
S21408463028BF4CF0020C43FA05F3C01851EBE3719F
S21408464001F0004507D54FF0000EDCF1000C7EEBBC
S21408465000006EEB0101B1F5801F1BD3B1F5001FFA
S2140846600CD349085FEA30004FEA3C0C04F1010419
S2140846704FEA445212F5800F80F09A80BCF1004F42
S21408468008BF5FEA500C50F1000041EB045141EAC4
S214084690050130BD5FEA4C0C404141EB010111F4C5
S2140846A0801FA4F10104E9D191F0000F04BF014670
S2140846B00020B1FA81F308BF2033A3F10B03B3F14E
S2140846C020020CDA0C3208DD02F1140CC2F10C02DE
S2140846D001FA0CF021FA02F10CE002F11402D8BF3C
S2140846E0C2F1200C01FA02F120FA0CFCDCBF41EA08
S2140846F00C019040E41AA2BF01EB0451294330BDD7
S2140847006FEA04041F3C1CDA0C340EDC04F11404B3
S214084710C4F1200220FA04F001FA02F340EA03008A
S21408472021FA04F345EA030130BDC4F10C04C4F1D0
S214084730200220FA02F001FA04F340EA03002946B0
S21408474030BD21FA04F0294630BD94F0000F83F4FA
S214084750801306BF81F480110134013D4EE77FEADD
S214084760645C18BF7FEA655C29D094EA050F08BF29
S21408477090EA020F05D054EA000C04BF194610460A
S21408478030BD91EA030F1EBF0021002030BD5FEA4E
S214084790545C05D14000494128BF41F0004130BD76
S2140847A014F580043CBF01F5801130BD01F00045CA
S2140847B045F0FE4141F470014FF0000030BD7FEA3D
S2140847C0645C1ABF194610467FEA655C1CBF0B4638
S2140847D0024650EA013406BF52EA033591EA030F4F
S2140847E041F4002130BD00BF90F0000F04BF002147
S2140847F0704730B54FF4806404F132044FF000057A
S2140848004FF0000150E700BF90F0000F04BF0021F2
S214084810704730B54FF4806404F1320410F0004558
S21408482048BF40424FF000013EE700BF42004FEA53
S214084830E2014FEA31014FEA02701FBF12F07F43D0
S21408484093F07F4F81F06051704792F0000F14BFCD
S21408485093F07F4F704730B54FF4607401F0004511
S21408486021F0004120E700BF50EA010208BF704768
S21408487030B54FF000050AE050EA010208BF70475D
S21408488030B511F0004502D5404261EB41014FF4C6
S214084890806404F132045FEA915C3FF4DCAE4FF0CA
S2140848A003025FEADC0C18BF03325FEADC0C18BFB1
S2140848B0033202EBDC02C2F1200300FA03FC20FA02
S2140848C002F001FA03FE40EA0E0021FA02F114444F
S2140848D0C1E600BF70B54FF0FF0C4CF4E06C1CEA64
S2140848E011541DBF1CEA135594EA0C0F95EA0C0FD9
S2140848F000F0DEF82C4481EA030621EA4C5123EA4C
S2140849004C5350EA013518BF52EA033541F480117A
S21408491043F4801338D0A0FB02CE4FF00005E1FB2D
S21408492002E506F00042E0FB03E54FF00006E1FB77
S21408493003569CF0000F18BF4EF0010EA4F1FF04BA
S214084940B6F5007F64F5407404D25FEA4E0E6D41FA
S21408495046EB060642EAC62141EA55514FEAC5200B
S21408496040EA5E504FEACE2EB4F1FD0C88BFBCF587
S214084970E06F1ED8BEF1004F08BF5FEA500E50F138
S214084980000041EB045170BD06F0004646EA0101FE
S21408499040EA020081EA0301B4EB5C04C2BFD4EB30
S2140849A00C0541EA045170BD41F480114FF0000E29
S2140849B0013C00F3AB8014F1360FDEBF002001F097
S2140849C0004170BDC4F10004203C35DA0C341BDC11
S2140849D004F11404C4F1200500FA05F320FA04F0E3
S2140849E001FA05F240EA020001F0004221F0004117
S2140849F010EBD37021FA04F642EB06015EEA430E8A
S214084A0008BF20EAD37070BDC4F10C04C4F12005B9
S214084A1000FA04F320FA05F001FA04F240EA02006C
S214084A2001F0004110EBD37041F100015EEA430E3D
S214084A3008BF20EAD37070BDC4F1200500FA05F25D
S214084A404EEA020E20FA04F301FA05F243EA0203DC
S214084A5021FA04F001F0004121FA04F220EA0200EB
S214084A6000EBD3705EEA430E08BF20EAD37070BD31
S214084A7094F0000F0FD101F00046400041EB010111
S214084A8011F4801F08BF013CF7D041EA060195F0F3
S214084A90000F18BF704703F00046520043EB0303AD
S214084AA013F4801F08BF013DF7D043EA060370479A
S214084AB094EA0C0F0CEA135518BF95EA0C0F0CD0A5
S214084AC050EA410618BF52EA4306D1D181EA0301EB
S214084AD001F000414FF0000070BD50EA410606BFE5
S214084AE01046194652EA430619D094EA0C0F02D12A
S214084AF050EA013613D195EA0C0F05D152EA03366F
S214084B001CBF104619460AD181EA030101F000418C
S214084B1041F0FE4141F470014FF0000070BD41F0D5
S214084B20FE4141F4780170BD70B54FF0FF0C4CF4AF
S214084B30E06C1CEA11541DBF1CEA135594EA0C0FCE
S214084B4095EA0C0F00F0A7F8A4EB050481EA030E1B
S214084B5052EA03354FEA013100F088804FEA033302
S214084B604FF0805545EA131343EA12634FEA0222D0
S214084B7045EA111545EA10654FEA00260EF0004191
S214084B809D4208BF964244F1FD0404F5407402D2E3
S214084B905B084FEA3202B61A65EB03055B084FEA74
S214084BA032024FF480104FF4002CB6EB020E75EB71
S214084BB0030E22BFB61A754640EA0C005B084FEA99
S214084BC03202B6EB020E75EB030E22BFB61A754616
S214084BD040EA5C005B084FEA3202B6EB020E75EB61
S214084BE0030E22BFB61A754640EA9C005B084FEAD9
S214084BF03202B6EB020E75EB030E22BFB61A7546E6
S214084C0040EADC0055EA060E18D04FEA051545EAD4
S214084C1016754FEA06164FEAC30343EA52734FEA7D
S214084C20C2025FEA1C1CC0D111F4801F0BD141EAF6
S214084C3000014FF000004FF0004CB6E711F4801F5B
S214084C4004BF01430020B4F1FD0C88BFBCF5E06F3B
S214084C503FF6AFAEB5EB030C04BFB6EB020C5FEA4B
S214084C60500C50F1000041EB045170BD0EF0004EA0
S214084C704EEA113114EB5C04C2BFD4EB0C0541EAD2
S214084C80045170BD41F480114FF0000E013C90E6CF
S214084C9045EA060E8DE60CEA135594EA0C0F08BF93
S214084CA095EA0C0F3FF43BAF94EA0C0F0AD150EA92
S214084CB001347FF434AF95EA0C0F7FF425AF104625
S214084CC019462CE795EA0C0F06D152EA03353FF44D
S214084CD0FDAE1046194622E750EA410618BF52EACA
S214084CE043067FF4C5AE50EA41047FF40DAF52EA9E
S214084CF043057FF4EBAE12E74FF0FF3C06E000BF3B
S214084D004FF0010C02E000BF4FF0010C4DF804CD47
S214084D104FEA410C7FEA6C5C4FEA430C18BF7FEA07
S214084D206C5C1BD001B050EA410C0CBF52EA430C35
S214084D3091EA030F02BF90EA020F0020704710F1B5
S214084D40000F91EA030F58BF994208BF90422CBF44
S214084D50D8176FEAE37040F0010070474FEA410C3D
S214084D607FEA6C5C02D150EA013C07D14FEA430C5B
S214084D707FEA6C5CD6D152EA033CD3D05DF8040BCC
S214084D80704700BF8446104662468C4619466346FE
S214084D9000E000BF01B5FFF7B7FF002848BF10F1D5
S214084DA0000F01BD4DF808EDFFF7F4FF0CBF01201A
S214084DB000205DF808FB00BF4DF808EDFFF7EAFF96
S214084DC034BF012000205DF808FB00BF4DF808ED51
S214084DD0FFF7E0FF94BF012000205DF808FB00BF46
S214084DE04DF808EDFFF7CEFF94BF012000205DF8D0
S214084DF008FB00BF4DF808EDFFF7C4FF34BF0120DD
S214084E0000205DF808FB00BF4FEA410212F50012C9
S214084E1015D211D56FF47873B3EB625212D94FEAF4
S214084E20C12343F0004343EA505311F0004F23FADE
S214084E3002F018BF404270474FF00000704750EA33
S214084E40013005D111F0004008BF6FF000407047F0
S214084E504FF00000704700BF4FEA4102B2F1E0434E
S214084E6024BFB3F5001CDCF1FE5C0DD901F0004C44
S214084E704FEAC0024CEA5070B2F1004F40EB830094
S214084E8008BF20F00100704711F0804F21D113F1C0
S214084E903872BCBF01F00040704741F480114FEAF9
S214084EA05252C2F11802C2F1200C10FA0CF320FA82
S214084EB002F018BF40F001004FEAC1234FEAD3239F
S214084EC003FA0CFC40EA0C0023FA02F34FEA430309
S214084ED0CCE77FEA625307D150EA01331EBF4FF092
S214084EE0FE4040F44000704701F0004040F0FE40AD
S214084EF040F40000704700BF80F0004002E000BFAA
S214084F0081F0004142001FBF5FEA410392EA030FA7
S214084F107FEA226C7FEA236C6AD04FEA1262D2EBF1
S214084F201363C1BFD218414048404140B8BF5B42F6
S214084F30192B88BF704710F0004F40F4000020F08F
S214084F407F4018BF404211F0004F41F4000121F0A5
S214084F507F4118BF494292EA030F3FD0A2F10102EF
S214084F6041FA03FC10EB0C00C3F1200301FA03F12D
S214084F7000F0004302D5494260EB4000B0F5000F50
S214084F8013D3B0F1807F06D340084FEA310102F10F
S214084F900102FE2A51D2B1F1004F40EBC25008BFC1
S214084FA020F0010040EA03007047490040EB00008B
S214084FB010F4000FA2F10102EDD1B0FA80FCACF1BA
S214084FC0080CB2EB0C0200FA0CF0AABF00EBC250B9
S214084FD052421843BCBFD0401843704792F0000FA7
S214084FE081F4000106BF80F400000132013BB5E7FA
S214084FF04FEA41037FEA226C18BF7FEA236C21D070
S21408500092EA030F04D092F0000F08BF08467047D4
S21408501090EA010F1CBF0020704712F07F4F04D1A2
S214085020400028BF40F00040704712F100723CBFB5
S21408503000F50000704700F0004343F0FE4040F4DF
S214085040000070477FEA226216BF08467FEA23639D
S2140850500146420206BF5FEA412390EA010F40F488
S214085060800070474FF0000304E000BF10F00043D4
S21408507048BF40425FEA000C08BF704743F09643BB
S21408508001464FF000001CE050EA010208BF7047D6
S2140850904FF000030AE000BF50EA010208BF70475D
S2140850A011F0004302D5404261EB41015FEA010C72
S2140850B002BF84460146002043F0B64308BFA3F16A
S2140850C08053A3F50003BCFA8CF2083AA3EBC2534C
S2140850D010DB01FA02FC634400FA02FCC2F120026B
S2140850E0BCF1004F20FA02F243EB020008BF20F0A2
S2140850F00100704702F1200201FA02FCC2F1200208
S21408510050EA4C0021FA02F243EB020008BF20EAFC
S214085110DC7070474FF0FF0C1CEAD0521EBF1CEA2A
S214085120D15392EA0C0F93EA0C0F6FD01A4480EA18
S214085130010C400218BF5FEA41211ED04FF0006301
S21408514043EA501043EA5111A0FB01310CF000402D
S214085150B1F5000F3EBF490041EAD3715B0040EA53
S214085160010062F17F02FD2A1DD8B3F1004F40EB23
S214085170C25008BF20F00100704790F0000F0CF0F6
S214085180004C08BF49024CEA502040EA51207F3ABA
S214085190C2BFD2F1FF0340EAC250704740F4000095
S2140851A04FF00003013A5DDC12F1190FDCBF00F086
S2140851B000407047C2F10002410021FA02F1C2F134
S2140851C0200200FA02FC5FEA310040F1000053EAD0
S2140851D04C0308BF20EADC70704792F0000F00F01E
S2140851E0004C02BF400010F4000F013AF9D040EA24
S2140851F00C0093F0000F01F0004C02BF490011F4B8
S214085200000F013BF9D041EA0C018FE70CEAD153B5
S21408521092EA0C0F18BF93EA0C0F0AD030F0004C35
S21408522018BF31F0004CD8D180EA010000F00040E9
S214085230704790F0000F17BF90F0004F084691F0A7
S214085240000F91F0004F14D092EA0C0F01D14202E1
S2140852500FD193EA0C0F03D14B0218BF084608D1AA
S21408526080EA010000F0004040F0FE4040F40000F4
S214085270704740F0FE4040F4400070474FF0FF0C87
S2140852801CEAD0521EBF1CEAD15392EA0C0F93EACE
S2140852900C0F69D0A2EB030280EA010C49024FEA20
S2140852A0402037D04FF0805343EA111143EA1013D9
S2140852B00CF000408B4238BF5B0042F17D024FF491
S2140852C0000C8B4224BF5B1A40EA0C00B3EB510F6C
S2140852D024BFA3EB510340EA5C00B3EB910F24BF55
S2140852E0A3EB910340EA9C00B3EBD10F24BFA3EBDA
S2140852F0D10340EADC001B0118BF5FEA1C1CE0D1A2
S214085300FD2A3FF650AF8B4240EBC25008BF20F054
S214085310010070470CF0004C4CEA50207F32C2BFA8
S214085320D2F1FF0340EAC250704740F400004FF045
S2140853300003013A37E792F0000F00F0004C02BF76
S214085340400010F4000F013AF9D040EA0C0093F040
S214085350000F01F0004C02BF490011F4000F013B9A
S214085360F9D041EA0C0195E70CEAD15392EA0C0F02
S21408537008D142027FF47DAF93EA0C0F7FF470AF3A
S214085380084676E793EA0C0F04D14B023FF44CAF7D
S21408539008466EE730F0004C18BF31F0004CCAD112
S2140853A030F000427FF45CAF31F000437FF43CAF4E
S2140853B05FE700BF4FF0FF3C06E000BF4FF0010C70
S2140853C002E000BF4FF0010C4DF804CD4FEA400252
S2140853D04FEA41037FEA226C18BF7FEA236C11D09C
S2140853E001B052EA530C18BF90EA010F58BFB2EB4F
S2140853F0030088BFC81738BF6FEAE17018BF40F0CF
S214085400010070477FEA226C02D15FEA402C05D182
S2140854107FEA236CE4D15FEA412CE1D05DF8040B07
S214085420704700BF844608466146FFE70FB5FFF79A
S214085430C9FF002848BF10F1000F0FBD4DF808ED52
S214085440FFF7F4FF0CBF012000205DF808FB00BF43
S2140854504DF808EDFFF7EAFF34BF012000205DF89D
S21408546008FB00BF4DF808EDFFF7E0FF94BF0120EA
S21408547000205DF808FB00BF4DF808EDFFF7D2FFE7
S21408548094BF012000205DF808FB00BF4DF808ED2A
S214085490FFF7C8FF34BF012000205DF808FB00BFF7
S2140854A04FEA4002B2F1FE4F0FD34FF09E03B3EB24
S2140854B012620DD94FEA002343F0004310F0004F64
S2140854C023FA02F018BF404270474FF000007047BA
S2140854D012F1610F01D1420205D110F0004008BF59
S2140854E06FF0004070474FF00000704770B50F4EE1
S2140854F00F4D761BB61018BF002405D0013455F89A
S214085500043B9847A642F9D10A4E0B4D03F054FACD
S214085510761BB61018BF002406D0013455F8043B95
S2140855209847A642F9D170BD70BD00BFC48908006F
S214085530C4890800CC890800C48908000FB410B5CF
S214085540074B82B004AC54F8042B186823468168CD
S214085550019400F03BFA02B0BDE8104004B0704772
S214085560BC010720844641EA000313F0030349D12F
S214085570403A23D30B6803604B6843608B688360AC
S214085580CB68C3600B6903614B6943618B698361B0
S214085590CB69C3610B6A03624B6A43628B6A836298
S2140855A0CB6AC3620B6B03634B6B43638B6B836380
S2140855B0CB6BC36340304031403ADBD230320BD33A
S2140855C00B6803604B6843608B688360CB68C36076
S2140855D010301031103AF3D20C3205D351F8043B90
S2140855E040F8043B043AF9D2043208D0D2071CBF6C
S2140855F011F8013B00F8013B01D30B880380604695
S214085600704700BF082A13D38B07B1D010F00303E6
S214085610AED0C3F10403D21ADB071CBF11F8013B56
S21408562000F8013BA4D331F8023B20F8023B9FE781
S214085630043AD9D3013A11F8013B00F8013BF9D2F4
S2140856400B7803704B7843708B788370604670478E
S21408565070B4860746D0541E002A41D0CAB2034604
S21408566002E014F1FF343BD303F8012B9D07F8D171
S214085670032C2ED9CDB245EA05250F2C45EA05455B
S21408568019D9264603F11002103E0F2E42F8105C78
S21408569042F80C5C42F8085C42F8045C02F110021E
S2140856A0F2D8A4F1100222F00F0204F00F04103210
S2140856B0032C13440DD91E462246043A032A46F8FC
S2140856C0045BFAD8221F22F003020432134404F0C3
S2140856D003042CB1C9B21C4403F8011B9C42FBD13D
S2140856E070BC704714460346C2E700BF00290CBFCB
S2140856F0022200224FF4806300F000B82DE9F04340
S214085700614D83B02D6804460F4690461E4615B177
S214085710AB6B002B64D0B8F1020F06D0B8F1010FBE
S21408572000F29F80002EC0F29C80636ED80734D5A6
S2140857302146284601F0E2F8216B41B104F1400306
S214085740994202D0284601F057FA00232363002224
S214085750B4F90C30A26162601A063AD423F44A639C
S21408576023F00303B8F1020FA3811DD001AB6A46EC
S2140857702146284601F0DEFCA3891843A081002EA6
S21408578032D1009E304601F04DFD074600286BD00A
S214085790A38943F08003A38128E0A3899905C7D489
S2140857A0A06D01F0C3FCC3E7002500260120616E4A
S2140857B004F1430243F00203A660CE07A3816061AA
S2140857C02260226101D498053ED5284603B0BDE87C
S2140857D0F0832169284601F00FFAB4F90C30BDE7CA
S2140857E0284601F0E3F896E7002FCBD0AB6B002BEA
S2140857F033D0009BB4F90C209E421CBF42F40062D2
S214085800A281B8F1010F04BF42F00102A28192B250
S21408581012F008032760276166610ED0D1071AD5F3
S2140858200023656E764215F00105A661A36009D0CF
S2140858300025284603B0BDE8F083A360656E15F022
S2140858400105F5D19305C0D4A06D01F071FC28467A
S21408585003B0BDE8F083A660F0E7284601F0A6F896
S214085860C7E74FF0FF35B0E7DDF80090B14504D044
S214085870484601F0D7FC074620B9B4F90C304FF07B
S214085880FF3592E74E4683E7BC01072020F0030168
S21408589010F00300C0F1000051F8043B00F1040CBE
S2140858A04FEACC0C6FF000021CBF22FA0CF213432E
S2140858B04FF0010C4CEA0C2C4CEA0C4CA3EB0C02F7
S2140858C022EA030212EACC1204BF51F8043B043061
