:0200000280007C
:10000000B8D007205D3F0800593F0800593F08005D
:10001000593F0800593F0800593F08000000000000
:100020000000000000000000000000004D24080057
:10003000593F080000000000CD24080009250800F1
:10004000593F0800593F0800593F0800593F080030
:10005000593F0800593F0800593F0800593F080020
:10006000593F0800593F080000000000CD3D08003E
:10007000E13D0800F53D0800093E080000000000D1
:1000800000000000593F0800593F0800593F080090
:10009000593F0800593F0800593F0800593F0800E0
:1000A000593F080000000000593F0800593F080070
:1000B000593F0800593F0800593F0800593F0800C0
:1000C000593F0800593F0800593F0800593F0800B0
:1000D000593F0800593F0800593F0800593F0800A0
:1000E000593F0800593F0800593F0800593F080090
:1000F000593F080010B5054C237833B9044B13B1B0
:100100000448AFF300800123237010BD700B07205B
:1001100000000000EC8B08000C4B43B10C4810B5FC
:100120000C49AFF300800C48036823B910BD0A489E
:10013000036833B97047094B002BF7D0BDE8104076
:100140001847064B002BF5D0184700BF00000000F1
:10015000EC8B0800740B0720EC8B080000000000FB
:10016000632800F20D81DFE810F064007200800067
:100170008E009C00AA00B800C600D400E200F00087
:100180000B010B010B010B010B010B010B010B010F
:100190000B010B010B010B010B010B010B010B01FF
:1001A0000B010B010B010B010B010B010B010B01EF
:1001B0000B010B010B010B010B010B010B010B01DF
:1001C0000B010B010B010B010B010B010B010B01CF
:1001D0000B010B010B010B010B010B010B010B01BF
:1001E0000B010B010B010B010B010B010B010B01AF
:1001F0000B010B010B010B010B010B010B010B019F
:100200000B010B010B010B010B010B010B010B018E
:100210000B010B010B010B010B010B010B010B017E
:100220000B010B010B010B010B010B010B010B016E
:10023000FE00544B4FF400421A634FF480421A639D
:100240004FF400521A634FF480521A6370474D4BBB
:100250004FF400421A634FF480425A634FF4005245
:100260005A634FF480525A637047464B4FF4004232
:100270005A634FF480421A634FF400525A634FF4AA
:1002800080525A6370473F4B4FF400421A634FF459
:1002900080421A634FF400525A634FF480525A63FB
:1002A0007047384B4FF400425A634FF480425A6310
:1002B0004FF400521A634FF480525A637047314B27
:1002C0004FF400421A634FF480425A634FF40052D5
:1002D0001A634FF480525A6370472A4B4FF400421E
:1002E0005A634FF480421A634FF400521A634FF47A
:1002F00080525A637047234B4FF400421A634FF405
:1003000080421A634FF400521A634FF480525A63CA
:1003100070471C4B4FF400425A634FF480425A63BB
:100320004FF400525A634FF480521A637047154BD2
:100330004FF400421A634FF480425A634FF4005264
:100340005A634FF480521A6370470E4B4FF40042C9
:100350005A634FF480421A634FF400525A634FF4C9
:1003600080521A637047074B4FF400425A634FF4B0
:1003700080425A634FF400525A634FF480525A63DA
:10038000704700BF00120E40024B1860024B19600C
:10039000704700BF8C0B0720900B0720014B18689B
:1003A000704700BF8C0B0720014B1868704700BFD7
:1003B000900B07202DE9F84381460C460F4B9847D8
:1003C00080460E4F0E4E0F4D03E0214620460E4B49
:1003D0009847B8474146B047A8470028B8BF4042B1
:1003E0000A4B984749460A4B98470028EDD1002010
:1003F0000146054B9847BDE8F88300BF2912080065
:10040000D950080079560800ED1D08004552080033
:1004100029560800000000002DE9F047304B9847AE
:10042000304C29A3D3E90023A0472F4E00222F4BA5
:10043000B0472F4B984705462E4B984707462E4B03
:100440009847804628462D4B984721A3D3E900239F
:10045000A04700222A4BA0471FA3D3E90023B0479F
:10046000284B984700EBD07044100026DFF8A4A07A
:10047000DFF8A49004E031462846234B9847A8B9FA
:100480001C4B9847C01BA04215DA1B4B9847A0EBAA
:10049000080084420FDD314628461C4B984700284F
:1004A000E9D0494650461A4B9847E9E75146484635
:1004B000174B9847E4E700200146154B9847BDE8E5
:1004C000F08700BFAFF30080F1D4C853FB2109408F
:1004D0009A9999999999D93F5D36C891BF15E03F8E
:1004E000E1490800AD4A0800014D0800008066405F
:1004F00031500800C9110800D5110800054A08004C
:1005000000006240E14F08002956080065560800C7
:10051000ED1D08000000C8C20000C8420000000035
:100520002DE9F04188461D46114C801AA047064629
:100530000F46A8EB0500A04732463B460D4CA047AE
:1005400009A3D3E900230C4CA04700220B4B0C4C11
:10055000A0470C4B9847B0F5B47F08BF0020BDE81A
:10056000F08100BFAFF30080F8C1631ADCA54C40F6
:10057000E149080015420800AD4A080000806640C5
:1005800049470800E14F08002DE9F04188461D4623
:10059000174C801AA04706460F46A8EB0500A04757
:1005A00032463B46134CA0470FA3D3E90023124C1D
:1005B000A0470022114B124CA047124B9847069BB4
:1005C000C01AB42808DC10F1B40FB8BF00F5B4703D
:1005D0000D4B9847BDE8F081A0F5B4700A4B9847E1
:1005E000BDE8F081AFF30080F8C1631ADCA54C4090
:1005F000E149080015420800AD4A08000080664045
:1006000049470800E14F0800455208002DE9F04F26
:1006100089B0BB4B98470790002634464FF0C80876
:10062000B84F414607A8B847632CFAD801A353F83E
:1006300024F000BF41080800C1080800950908001F
:10064000C5090800D9090800210A08008D0A080018
:10065000A70A0800D10A0800ED0A080023060800CE
:1006600023060800230608002306080023060800C6
:1006700023060800230608002306080023060800B6
:1006800023060800230608002306080023060800A6
:100690002306080023060800230608002306080096
:1006A0002306080023060800230608002306080086
:1006B0002306080023060800230608002306080076
:1006C0002306080023060800230608002306080066
:1006D0002306080023060800230608002306080056
:1006E0002306080023060800230608002306080046
:1006F0002306080023060800230608002306080036
:100700002306080023060800230608002306080025
:100710002306080023060800230608002306080015
:100720002306080023060800230608002306080005
:1007300023060800230608002306080023060800F5
:1007400023060800230608002306080023060800E5
:1007500023060800230608002306080023060800D5
:1007600023060800230608002306080023060800C5
:1007700023060800230608002306080023060800B5
:1007800023060800230608002306080023060800A5
:100790002306080023060800230608002306080095
:1007A0002306080023060800230608002306080085
:1007B0002306080023060800230608002306080075
:1007C000CF070800012429E7A146632426E74E4805
:1007D0004E4FB8470A204E4B984741F288304D4B58
:1007E00098474D4DA8478246DFF8A081C047039047
:1007F0004A48B8474A494B484B4B98474B48B8473B
:10080000A8470546C0478046029029464848B84751
:1008100041464848B84743462A4603995046DFF8C0
:100820007081C047014603904348B8476320B847EA
:10083000B9F1000FC6D0B9F1040F08BF0524EDE6E9
:100840003E48DFF8C8A0D0470020314B9847012030
:100850003B4B98473B4B984780463B4B9847074656
:100860003A4B984704903A4B98470646A8F10F0B2D
:10087000A7F13402059241463648D04739463648FA
:10088000D047049B002B17DD002E15DDB8F1000FBB
:1008900012DD002F10DD3148D04704993048D04791
:1008A00031463048D04741462F48D04739462F4837
:1008B000D047A1466324B1E62D48144B9847ADE6D6
:1008C0002C48124CA0470120114B984741F2883028
:1008D000104B9847039B009302990B4605F11402B5
:1008E0002846254DA847254B9847054601462448EC
:1008F000A0472846234B98472348A047FEE700BF60
:100900001D2F080085310800A8850800155708002C
:1009100061010800113208006D0C0800C485080050
:100920000000C84200002041B5030800D48508003B
:10093000E0850800FC850800188608002886080065
:10094000490C0800850C0800910C0800550C0800A3
:10095000610C080044860800608608007C86080058
:100960009C860800B4860800CC860800E48608004F
:10097000FC860800288708008905080079560800C9
:10098000448708001904080048870800790C08000B
:10099000210508005C485D4B984702205C4B984756
:1009A0005C4B9847301A1E385B4B984700225B4BD4
:1009B0005B4FB8475B4B98475B495C4B9847A146F8
:1009C00003242BE65A48514B98470320504B984735
:1009D000584B9847042421E657484C4B984704202D
:1009E0004B4B984708212220544B9847012803D0AD
:1009F0000820534B984711E65248444B984708202B
:100A00004F4B984701287FF409AE4F4B1B78142BAE
:100A10003FF4DAAE44494D48444B98470324FDE582
:100A20004B483A4B98470520394B9847039B009316
:100A300002990B4605F114022846464FB847464B2B
:100A40009847464B9847DFF84481454F02E03649C6
:100A50000846B847C0478345F9DC00210846404BAB
:100A600098475A203D4B9847DFF8A8803C4F02E05A
:100A70002D490846B847C047059B8342F8DC002152
:100A80000846374B9847A1460624C7E535481F4B13
:100A9000984706201E4B984723493348234B9847D5
:100AA000A1460724BAE53148184B98470720184B50
:100AB00098472F4B98472F4B9847C3B2052B7FF68B
:100AC000ADAD581F2C4B98472C49184B9847A5E5BE
:100AD0002B480E4B984708200D4B9847082125209E
:100AE000164B9847012808BF092497E52448074B6F
:100AF00098470920064B9847224923480B4B9847B3
:100B0000B420164B984789E54C8708001557080014
:100B100061010800790C0800E149080000803640B6
:100B2000454708003150080000001643B50308008F
:100B3000688708007D130800848708001D1B0800D3
:100B4000991B0800A08708005C0C072000002041CA
:100B5000C4870800890508007956080019040800B0
:100B600089030800E087080000007041FC87080046
:100B70005912080089120800455208000000A040E0
:100B8000188808000000E1430000F0C16D0C080067
:100B900070B582B01E481F4B98471F4B9847019075
:100BA0001E4D1F4C1F4E12E01F4A93785B001F49D9
:100BB0000B60D3785B001E4A136008E01A4A9379F1
:100BC0005B001A490B60D3795B00194A1360C82196
:100BD00001A8A8471020A0470128F8D1124B1A7885
:100BE000520032605A78520012490A601A7A520052
:100BF00011490A605B7A5B00104A1360104B1B6856
:100C0000012BD1D0022BD9D00E48024B9847DEE7FA
:100C100034880800155708001D2F0800853108008A
:100C2000991B0800940B0720600C0720A00B0720DD
:100C3000A40B0720980B0720A80B0720AC0B07205C
:100C40009C0B07204C880800014B1860704700BFC0
:100C50009C0B0720014B1868704700BFA00B0720B2
:100C6000014B1868704700BFA40B0720014B1868A0
:100C7000704700BFA80B0720014B1868704700BFE2
:100C8000AC0B0720014B1868704700BF940B07207E
:100C9000014B1868704700BF980B07202DE9F04FF3
:100CA0008DB0024B98470B90014F5DE01D2F08005F
:100CB000ED520800904B1D6890492846904B98478C
:100CC000002800F01D828D4B8B4A136001228D4B52
:100CD0001A608D4B19682046B8478C4CA0470646D1
:100CE0008B4B984780468B4B18688B4B9847054633
:100CF00001464046B847A047864222D0874B1C6831
:100D0000874B19682046874B9847804B98470028A7
:100D1000B8BF4042804B9847834B1968784B98473F
:100D2000002800F0F88121462846B847774CA047B4
:100D300006467E4B19682846B847A047864200F011
:100D4000EA81704B1B68002B40F00482784B1B68D3
:100D5000002B40F0F08100236A4A1360744A13604C
:100D60004FF00063734A53634FF496710BA8724BB4
:100D700098474FF000636F4A1363704B9847704D6C
:100D80002860704B9847664E30606F4B9847DFF88D
:100D90001892C9F800006D4B9847DFF810A2CAF806
:100DA00000006B4B1A68D9F800100A441A60694AAF
:100DB000136803441360684B9847684BD3F800806E
:100DC000674B1868544B98470446D9F80000524BBB
:100DD00098474146B8472146624B98478146624B47
:100DE0001860DAF800004C4B98474146B847214656
:100DF0005C4B984704465D4B18605D4BD3F8008010
:100E000041464846574B98478346484B18604146F1
:100E10002046544B98478246404B1860554BD3F8B8
:100E20000090554BC3F80090544BD3F80080544BBE
:100E3000C3F800803B4C59462868A04705464D4BF7
:100E4000186051463068A04706464C4B1860DFF8E2
:100E500060B149462846A047CBF8000041463046DD
:100E6000A047484B1860484C2846A047DFF84491FB
:100E7000C847DFF84481454D02460B46D8E90001DA
:100E8000A847C8E900013046A047C847DFF82C91C1
:100E900002460B46D9E90001A847C9E900013C4BCD
:100EA0009847DFF81CA1CAF80000194B9847394B46
:100EB00007901860384B1B680293384B1868A0479E
:100EC000CDE900012A4B1B6803931846A047CDE9E2
:100ED0000401334B19680691324ED8E90023DDE94D
:100EE0000001B047DDE90423B047CDE90801214BFB
:100EF00019680298B84765E0040C07200080ED43AC
:100F000065560800F00B07200C0C072079560800E6
:100F1000111E08005001072045520800FC0B072055
:100F2000000C0720D950080054010720F40B0720BB
:100F3000140C072000100E40853108009D030800A6
:100F4000F80B0720A9030800B51A0800C91A080001
:100F5000D00B0720D40B0720911A08004801072066
:100F60005801072055540800E80B0720EC0B072018
:100F700044010720E00B0720D80B0720E40B0720D3
:100F8000DC0B0720B40B0720054A0800494708007E
:100F9000051E0800100C0720400107203C01072017
:100FA00038010720AD4A0800C80B0720CC0B0720EA
:100FB000B00B072075410800B80B0720C00B0720B5
:100FC000080C0720A04702460B46DDE90801A847A8
:100FD000CDE90801DBF800100698B8470399604B8B
:100FE0009847A04702460B46DDE90801A847CDE92E
:100FF0000801DAF80000A04702460B46DDE90801C7
:10100000A847DFF8C0B1D8478246564B1860D9E9E7
:101010000023DDE90001B047DDE90423B047804645
:101020008946514B19680298B847A04702460B46BB
:1010300040464946A847804689464C4B1968069861
:10104000B8470399464B9847A04702460B4640468F
:101050004946A847804689460798A04702460B465E
:1010600040464946A847D8470446414B1860414985
:101070005046414B984720B93E4920463E4B984741
:1010800010B13E483E4B98473E4C20683E4B984737
:10109000344B1968B8473D4DA84706463C4B984726
:1010A00080462068384B9847044601464046B8477A
:1010B000A84786423FF40DAE364B1D68364B196883
:1010C0002846364B9847314B98470028B8BF4042D6
:1010D0002D4B9847324B1968274B984700283FF40F
:1010E000E9AD29462046B847284DA84706462D4B6E
:1010F00019682046B847A84786427FF4EAADD9E58B
:1011000029492846294B984700283FF4DFAD264B54
:10111000144A1360DAE5164B1C6825492046164B25
:10112000984768B1224A124B1A600122214B1A607B
:10113000214B1B6873B90E4B1868204B98470AE681
:1011400019492046194B98470028EED0164A084BFB
:101150001A60EAE7034B1868194B9847F6E500BF99
:1011600055540800040C0720E40B0720B40B07209B
:101170000C0C072000009643655608007C88080088
:1011800015570800500107204552080079560800FD
:10119000051E0800F40B0720F80B0720D9500800A3
:1011A00054010720FC0B07200080EDC329560800DE
:1011B0000080ED43140C0720F00B0720E11C080011
:1011C000C11B080031500800014B1868704700BF70
:1011D000D00B0720014B1868704700BFD40B0720C5
:1011E00008B5044B1868044B9847044B1968044B26
:1011F000984708BDD00B0720455208004C01072036
:10120000ED52080008B5044B1868044B9847044B8E
:101210001968044B984708BDD40B072045520800B5
:101220004C010720ED52080010B5074B98470446C3
:10123000064B984701462046054B98474FF07C5196
:10124000044B984710BD00BFE111080005120800CB
:10125000DD500800ED52080070B5094C4FF0807564
:1012600025602561C4F8A05065631E20054EB04777
:1012700025633C20B047656347F23050B04770BDEE
:1012800000120E4001000720064B1B68064880FB39
:1012900003201844DB17C3EB6010431E632B28BFE9
:1012A0000020704754B0072009CB3D8D70B5094C24
:1012B0004FF4800525602561C4F8A05065631E20A9
:1012C000054EB04725633C20B047656347F2305078
:1012D000B04770BD00120E4001000720034B43F8D9
:1012E00020101E23013BFDD1704700BF64AF0720D3
:1012F00030B59FB0164B53F8204078220021684645
:10130000144B9847201F04F17405014651F8043F1F
:101310001EAA02EB830353F8782C013243F8782C91
:10132000A942F3D1009900252A4650F8043F0DF157
:10133000780E0EEB830353F8783C8B4284BF19463A
:10134000154601321E2AF0D114F825001FB030BD19
:1013500064AF072029580800064B1B68064880FB2D
:1013600003201844DB17C3EB6010431E632B28BF18
:101370000020704758B0072009CB3D8D2DE9F0477C
:101380009EB000233E4A13703E4A1370DFF820A13E
:10139000DFF8EC900EE001203B4B984799F80030C5
:1013A0000133DBB289F800301D2B39D099F80030B9
:1013B0003B2B3DD8782200216846D047ADF104048C
:1013C0001DAF324E324DB047A847C0B244F8040FAB
:1013D000A742F8D199F80040694620462D4B98471E
:1013E00020462D4B984701462C482D4B9847254BBE
:1013F0001B78002BCFD0012BD8D14FF0FF30224BE0
:10140000984799F800300133DBB289F800303B2B64
:10141000CCD11E201C4B984700221A4B1A70C5E7EE
:101420006FF01D00184B98470122164B1A70BDE74C
:101430000024FF26184F02E001343C2C0BD0E5B20B
:101440002846B847B042F7D2002818BFA84600285F
:1014500018BF0646F0E7B8F11D0F94BF4046A8F14B
:101460001D00094B9847A6F112000E4B98470E49F4
:101470000E4B98470322034B1A701EB0BDE8F0874D
:10148000190C0720180C072019040800AD120800D9
:1014900059130800DD120800F112080090880800B6
:1014A00015570800455208000000A040B503080089
:1014B00029580800F0B48CB007460E4601AC114D17
:1014C0000FCD0FC40FCD0FC495E8070084E80700C7
:1014D00001AA002352F8040BB6FBF0F0B0FBF7F0C2
:1014E000B0F5807F07D901330B2BF3D14FF6FF7096
:1014F0000CB0F0BC70470A2B94BF40EA03204FF6B3
:10150000FF70F5E7A088080070B506460D460C6828
:1015100044B1896820460C4B984704464FF6FF7348
:1015200098420CD0686840B1A968074B98474FF6BD
:10153000FF73984205D044EA0044346000242046FA
:1015400070BD0446FBE700BFB514080070B40A681C
:101550004B6803F00F038C8A23430C8923438C7A56
:1015600043EA44238C7D43EA0443CC7D43EA44436D
:101570000C7E43EA844300EB4214C4F80032CB688B
:10158000C4F804320B69C4F80C328B7D3BB18C8BF0
:101590004B8B43EA044300EB4214C4F81832856CC9
:1015A0004FF001139340DB431D40CC7F04FA02F659
:1015B0008C7F944044EA06442C438464446C23406A
:1015C00091F8214004FA02F591F82040944044EA51
:1015D0000544234343640123934091F8224034B3EC
:1015E000046A1C43046291F82440012C846E0CBFF1
:1015F0001C439C43846691F82540012C846E0CBFEB
:1016000044EA034324EA03438366032A14D9043AD1
:10161000D200046FFF23934024EA030491F823309F
:1016200003FA02F222430267002070BC7047046A8A
:1016300024EA03040462D6E7D500C36EFF24AC405D
:1016400023EA040391F82320AA401A43C266EBE779
:10165000012303FA01F141607047012303FA01F10C
:10166000816070472A4B994249D8A3F57A53994231
:101670002BD910B4274CA4FB0234A40B043C264BFA
:101680000B449B00B2FBF3F2043AFF2C39D9002142
:1016900001316408FF2C0DD90729F9D113029BB23F
:1016A000090401F4E0210B43E4B223430361002069
:1016B00010BC7047FF2AF1D90629EFD80131520832
:1016C000FF2AEBD90629F9D9E8E74900B2FBF1F284
:1016D000043AFF2A11D9002301335208FF2A01D905
:1016E000072BF9D1110289B21B0403F4E0230B4349
:1016F000D2B21A430261002070470023F2E70120B2
:101700007047FF2A88BF0021D8D80021C6E700BF54
:10171000801A0600F11976050012FD3F38B504461F
:101720000D464FF0FF338362036A80230360036B2F
:101730000823036020230360042303600A684968C8
:10174000054B9847012814BF002001206B7A012B1C
:1017500004BF4023236038BD651608000A4659B10E
:1017600003780129C4BF417841EA0323022A04DD3A
:10177000827842EA032300E0002318467047000005
:10178000F8B5CC68002C4FD00B4605468E6800207B
:1017900068604A68120202F4407242F48052097C86
:1017A000090401F4FE010A436A60E86059681846BA
:1017B000224B9847E860012C0FD001232B600020BA
:1017C0002B6A13F4807F36D147F22F5147F23057FE
:1017D0004FF0010E4FF0020C19E003232B600120A3
:1017E000EEE70A4670460CE008B9C5F800C013F0F1
:1017F000020FF6D070462B6B3370013C01363A462F
:1018000064B12B6A13F4807F11D1511E8AB1012C6F
:10181000EAD013F0020FEED10A46F1E72B6A13F07B
:10182000010FFBD02B6A00E001242046F8BD0524FF
:10183000FBE70924F9E70524F7E700BF5D17080077
:1018400070B5CD68002D35D00B4604468E6800205B
:1018500060600A7C120402F4FE024968090201F485
:1018600040710A436260E06059681846154B98471A
:10187000E060236A13F4807F06D005251BE05DB18C
:10188000236A13F4807F18D113F0040FF7D0337854
:101890006363013D0136F2E7236A13F4807F0ED1C2
:1018A00013F0040FF8D002232360236A13F0010F12
:1018B000FBD000E00125284670BD0525FBE7052586
:1018C000F9E700BF5D17080038B5134B98470028AB
:1018D00012DD124A136801331360114C114D2B684D
:1018E0002360114B984728602368104A126802FB56
:1018F00013000F4B186038BD074B9847002806DBD4
:10190000054B98470028E8D10A4B9847E5E7034A7A
:101910001368013B1360E0E7511E0800480C0720E4
:10192000400C07203C0C07203D2F08005C010720DD
:10193000440C0720111E080038B5134B98470028A7
:1019400012DD124A136801331360114C114D2B68DC
:101950002360114B984728602368104A126802FBE5
:1019600013000F4B186038BD074B9847002806DB63
:10197000054B98470028E8D10A4B9847E5E7034A0A
:101980001368013B1360E0E7511E0800580C072064
:10199000500C07204C0C07203D2F08005C0107204D
:1019A000540C0720111E080038B5144B9847002826
:1019B00013DD134A136801331360124C124D2B6868
:1019C0002360124B984728602368C01A104B1B688D
:1019D00003FB00F00F4B186038BD084B98470028F8
:1019E00006DB064B98470028E7D10B4B9847E4E706
:1019F000034A1368013B1360DFE700BF1D1E0800A8
:101A0000280C0720200C07201C0C07203D2F080065
:101A10005C010720240C0720051E080038B5144B74
:101A20009847002813DD134A136801331360124CE2
:101A3000124D2B682360124B984728602368C01A08
:101A4000104B1B6803FB00F00F4B186038BD084BB0
:101A50009847002806DB064B98470028E7D10B4B38
:101A60009847E4E7034A1368013B1360DFE700BFD0
:101A70001D1E0800380C0720300C07202C0C0720F6
:101A80003D2F08005C010720340C0720051E0800CC
:101A90000023044A1360044A1360044A1360044A92
:101AA00013607047280C0720480C0720580C0720AB
:101AB000380C0720024B1868024B1B68184470470B
:101AC000380C0720280C0720024B1868024B1B68B3
:101AD00018447047580C0720480C072000B585B003
:101AE000094B0293094B019300238DF80D30172009
:101AF000074B984701A90748074B9847B0FA80F071
:101B0000400905B05DF804FBA086010000BD010599
:101B1000053F0800000009401D17080070B58AB095
:101B2000082904D0102916D001200AB070BD144E27
:101B300030706C46134D0FCD0FC42B682360082303
:101B40008DF81030029669460F48104B9847B0FA4E
:101B500080F04009E9E70E4E307005AC0D4D0FCD19
:101B60000FC42B68236010238DF82430079605A935
:101B70000548064B9847B0FA80F04009D5E700BF0A
:101B80006C0C072060010720000009404118080084
:101B9000700C07207401072008B508280CBF044901
:101BA00004490548054B9847B0FA80F0400908BD44
:101BB000880107209C0107200000094081170800C8
:101BC000F0B585B004464FF480722B4B1A632B4955
:101BD0002B4B9847002847D12A4920462A4B984743
:101BE000002845D1294B1C602046294B9847294B9A
:101BF0009847294E294B984701462948294B984731
:101C0000294B984730604FF080511320274B98475D
:101C10002420274B9847274C01212046264B9847E4
:101C2000264B019300270297254B039301A92046D9
:101C3000244B9847244901250D600B234B608D727E
:101C40000F81326802F5A45302330B61CA6020464B
:101C50001E4B9847294620461D4B98474FF48072EB
:101C6000054B5A6305B0F0BD1A481B4B9847B9E7BE
:101C70001A48194B9847B5E700140E400080EDC391
:101C8000295608000080ED4365560800740C0720B3
:101C9000054A0800754108007C0C072031500800F7
:101CA0000080BB44D950080079560800A13B0800C9
:101CB000053F0800004009405B16080040420F0045
:101CC00000BD0105091508005CB007204D1508008E
:101CD00051160800CC88080015570800088908002C
:101CE00070B584B004462849284B9847002843D152
:101CF00027492046274B9847002841D1264B1C6096
:101D00002046264B9847264B9847264E264B984709
:101D100001462648264B9847264B984730604FF09F
:101D200080514320244B98472420244B9847244C2F
:101D300000212046234B9847234B01930025029511
:101D4000224B039301A92046214B984721490D605E
:101D50000B234B6001238B720D81326802F5A45373
:101D600002330B61CA6020461B4B98472946204628
:101D70001A4B984704B070BD19481A4B9847BDE7F5
:101D80001948184B9847B9E70080EDC32956080059
:101D90000080ED4365560800780C0720054A0800CE
:101DA000754108007C0C0720315008000080BB44BE
:101DB000D950080079560800A13B0800053F0800EB
:101DC000004009405B16080040420F0000BD0105BD
:101DD000091508005CB007204D15080051160800D1
:101DE00044890800155708008089080010B50C4682
:101DF000024B98472046024B984710BDC11B080074
:101E0000E11C0800014B1868704700BF740C0720E4
:101E1000014B1868704700BF780C072010B5094BBC
:101E20001C6800212046084B984708B1012010BDCE
:101E300000212046054B9847003018BF0120404242
:101E400010BD00BF740C0720655608002956080015
:101E500010B5094B1C6800212046084B984708B173
:101E6000012010BD00212046054B9847003018BFC7
:101E70000120404210BD00BF780C072065560800C5
:101E8000295608002DE9F04180B90C469046002AF9
:101E90000FDD8F18084E094D306821462B68984792
:101EA0000134BC42F8D14046BDE8F0814FF0FF3824
:101EB000F9E78046F7E700BF8CB0072084B0072021
:101EC0000138022815D82DE9F0410E4614469AB182
:101ED0000D46DFF838800C4FD8F8000015F8011BCC
:101EE0003B68984700280ADBA81B013CF4D1BDE8F9
:101EF000F0814FF0FF3070471046BDE8F0814FF0A1
:101F0000FF30BDE8F08100BF88B007208CB007200B
:101F100010B4AC2303600B684A68B3FBF2F31B09EF
:101F20005C1E4FF6FE7294420BD803628B684360CE
:101F300040F20223C0F8203150230360002010BC7F
:101F400070470120FBE7436913F0020F1ABFC1611C
:101F5000002001207047436913F0010F1DBF836902
:101F60000B70002001207047436913F0020F1DBF62
:101F7000C1F30801C161002001207047436913F0DB
:101F8000010F05D08369C3F308030B60002070477D
:101F900001207047F0B583B004460D46002301933D
:101FA000204B98420DD0204B984212D01F4B9842A4
:101FB00019D01F4B9C4220D01E4B9C4227D003B00F
:101FC000F0BD1F461C4E29463846B0470028FAD1BE
:101FD000EFE71F46194E01A93846B0470028FAD14D
:101FE000019B2B70E8E71E46144C01A93046A04720
:101FF0000028FAD1019B2B70E1E71E460F4C01A986
:102000003046A0470028FAD1019B2B70D7E71E4627
:102010000A4C01A93046A0470028FAD1019B2B7039
:10202000CDE700BF00080E400080094000C0094015
:1020300000000A4000400A40571F08007D1F0800AA
:1020400070B50C461E4B98420DD01E4B984213D0D3
:102050001D4B984219D01D4B98421FD01C4B9842E3
:1020600025D0002070BD1E461A4D21463046A84797
:102070000028FAD1012070BD1E46174D214630467A
:10208000A8470028FAD1012070BD1E46124D2146F6
:102090003046A8470028FAD1012070BD1E460E4DDB
:1020A00021463046A8470028FAD1012070BD1E46BF
:1020B000094D21463046A8470028FAD1012070BDBD
:1020C00000080E400080094000C0094000000A409E
:1020D00000400A40471F0800691F080070B584B01F
:1020E00000240394029401940126009623464FF4A1
:1020F00000720E490E480F4DA847039402940194B4
:10210000009623464FF400720B490C48A8470394ED
:1021100002940194009623464FF40072084909483E
:10212000A847094B9847204604B070BDDC890800D9
:102130009D0C0800A12C0800E8890800910B0800FC
:10214000F48908000D060800A52E080030B585B0FA
:102150000820154DA847154C154B1C60154A164B09
:102160001A60164A164B1A60164B01934FF4E1336E
:1021700002934FF4006303930820A84701A9204667
:10218000114B9847114D2B6800219868104CA047BF
:102190002B6800215868A0470E480F4CA0470F48F5
:1021A000A047002005B030BD053F080000080E40E4
:1021B0008CB007204120080088B00720951F080038
:1021C00084B0072000BD0105111F0800C0010720D1
:1021D000C5580800BC89080015570800CC890800BC
:1021E000F0B583B00D20274B9847274C00224FF4C1
:1021F00000012046254FB847254B009320234FF47C
:1022000000020D212046234EB0474FF40001204626
:10221000214DA84700224FF000712046B8471F4BC0
:10222000009320234FF000720D212046B0474FF05D
:1022300000712046A847002202212046B847184BCB
:102240000093202302220D212046B0470221204680
:10225000A84700224FF000512046B847114B009389
:1022600020234FF000520D212046B0474FF000517F
:102270002046A8474FF400520B4B1A60002003B0D1
:10228000F0BD00BF053F080000120E400F3B0800E4
:10229000C91808005D3D0800953B0800A919080011
:1022A000391908001D1A080000E100E010B52C4B98
:1022B00098472C4B98470B202B4CA0470C20A0474D
:1022C0000D20A0470E20A047284B9847284B984741
:1022D000284B9847284B4FF480721A61C3F8A0200E
:1022E000A3F580634FF000621A61C3F8A02003F5E4
:1022F00000734FF000725A61C3F8A0204FF400023F
:102300005A61C3F8A0201D4A4FF080515161C2F8B4
:10231000A01004215161C2F8A0104FF480021A618C
:10232000C3F8A0204FF400125A61C3F8A0204FF464
:1023300000421A61C3F8A0204FF480421A61C3F82A
:10234000A0204FF400521A61C3F8A0204FF480522D
:102350001A61C3F8A0206320094B9847002010BDE4
:10236000CD390800313A0800053F0800E121080096
:10237000DD1A0800DD20080000140E40000E0E409B
:102380006101080000F1080343604FF0FF328260F2
:10239000C36003610023036070470023036170473B
:1023A00043685A684A6042688A605A689160596016
:1023B00041600861036801330360704710B40C6822
:1023C000B4F1FF3F15D000F10803C26812689442CF
:1023D00004D35B685A6812689442FAD25A684A6019
:1023E00091608B605960086103680133036010BC21
:1023F00070470369F2E7436882689A6083684268BD
:102400005A6003695A68904204BF82685A60002289
:1024100002611A68013A1A60186870470348006838
:10242000006880F3088862B600DF00BF08ED00E0B6
:102430004FF0807340F8043C40F8081C002340F83B
:102440000C3C40F8202C403870470000064B1968BF
:102450000868B0E8F00F80F309884FF0000080F3BF
:1024600011884EF00D0E704790AC07204FF080524F
:10247000014B1A60704700BF04ED00E0EFF31180DC
:102480004FF0A00181F311887047002008B5034B7D
:102490009847034A13680133136008BD7D24080080
:1024A000B001072080F311887047000008B5054A85
:1024B0001368013B136003B108BD0020024B98472D
:1024C000FAE700BFB0010720A5240800EFF3098058
:1024D0000C4B1A6820E9F00F10602DE908404FF00E
:1024E000A00080F3118800F0FDFE4FF0000080F3A3
:1024F0001188BDE8084019680868B0E8F00F80F35B
:102500000988704790AC072008B54FF08052054B02
:102510001A60054B9847054B98470020044B984795
:1025200008BD00BF04ED00E07D2408005D2F080019
:10253000A5240800034A044B1A600722043B1A60D2
:10254000704700BF1F48010014E000E010B5094BC0
:102550001A6842F470021A601A6842F070421A60F7
:10256000054B98470024054B1C60054B98472046B7
:1025700010BD00BF20ED00E035250800B0010720A8
:102580001D24080010B4134A00E01A461368834261
:10259000FBD351685418A04209D041684418A342A3
:1025A0000AD00360904218BF106010BC70474068AA
:1025B000014451601046F0E7074C2468A34206D05E
:1025C0005B681944416013681B680360EAE70360B5
:1025D000E8E700BF88AC0720800C072038B5044628
:1025E0002A4B98472A4B1B688BB1002C47D004F12B
:1025F000100212F0070F1CBF22F007020832511E12
:1026000049F6FE7399423CD822490C6816E0214AEB
:10261000214B13600021516049F6F07298181C4D4F
:10262000286049F6F475595199505A6018601B4A50
:102630001368103B1360D8E721461C4663689A4232
:1026400002D92368002BF7D1114B1B689C421AD08A
:102650000D68103523680B6063689B1A202B08D81F
:102660000E4A136861685B1A13600D4B9847284641
:1026700038BDA018436062600A4B9847F0E7002518
:10268000F3E70025F1E70025EFE700BF0D2F080075
:10269000800C072088AC0720880C0720B401072095
:1026A000853008008525080080B110B50446084B28
:1026B0009847084A54F80C3C11680B441360A4F185
:1026C0001000054B9847054B984710BD704700BF59
:1026D0000D2F0800B401072085250800853008006B
:1026E00010B50446036C5BB903681BB1A36B0133DF
:1026F000A36310BD4068124B984700236360F5E761
:102700006AB91A4680680F4B9847A368226C134435
:10271000A36062689342E9D32368A360E6E71A46A0
:10272000C068084B9847226C5242E3681344E36048
:1027300021688B42DAD263681A44E260D6E700BFB0
:10274000113608003D57080038B50346006858B1F7
:102750001A6CDC681444DC605D68AC4228BFD86049
:102760000846D968014B984738BD00BF3D5708005F
:10277000F8B504461F4B9847A36C002B14DD636A21
:1027800093B104F124061C4D1C4F07E0A36C013BE0
:10279000A364A36C002B07DD636A2BB13046A84706
:1027A0000028F3D0B847F1E74FF0FF33A364144B90
:1027B0009847104B9847636C002B14DD236993B145
:1027C00004F110060C4D0D4F07E0636C013B636490
:1027D000636C002B07DD23692BB13046A847002826
:1027E000F3D0B847F1E74FF0FF336364044B9847E9
:1027F000F8BD00BF8D2408002934080059350800B1
:10280000AD24080038B508B30D460446174B984769
:102810002268216CE36B03FB01F3D0186060002099
:10282000A063A2605B1A1344E3604FF0FF3363645C
:10283000A36495B923692BB104F110000C4B9847A0
:10284000012807D00B4B9847012038BD0A4B984709
:1028500000BFFDE7094B9847F4E704F11000084D6D
:10286000A84704F12400A847ECE700BF8D24080026
:1028700029340800AD2408007D2408006D240800D8
:1028800085230800F8B5D8B10D46174606465020F6
:102890000D4B9847044698B105FB06F001300A4BF2
:1028A0009847206048B1E663256401212046074B24
:1028B000984784F84D702046F8BD2046044B984751
:1028C000044B984700BFFDE7DD25080005280800F8
:1028D000A92608007D2408002DE9F04F85B001925B
:1028E00048B188469946044649B10027384EDFF87A
:1028F0000CA1384D2EE0384B984700BFFDE7036C24
:102900001BB1354B984700BFFDE70027EEE74A466D
:1029100041462046314B9847636A2BB92D4B984767
:10292000012005B0BDE8F08F04F124002C4B98473E
:102930000128F3D12B4B9847F0E7264B984700200E
:10294000EFE702A8D0470FE02046274B9847274BD8
:1029500098470127B047A26BE36B9A42D7D3019BFC
:10296000002BEAD0002FECD0A847214B9847B04766
:10297000636CB3F1FF3F04BF00236364A36CB3F146
:10298000FF3F04BF0023A364A84701A902A8194B75
:102990009847A8B9B047D4F838B0E76BA847BB450B
:1029A000D2D1019904F11000134B984720460E4BE9
:1029B00098470E4B98470028CBD10A4B9847C8E759
:1029C0002046094B9847094B98470020A9E700BFCC
:1029D0008D240800AD2408007D240800E1260800AD
:1029E000293408006D24080071270800853008008C
:1029F0000D2F0800D534080085330800AD340800D9
:102A00002DE9F04190B10E4615469846044689B12D
:102A10001B4B98470746A26BE36B9A4211D30024E5
:102A20003846184B98472046BDE8F081144B98472C
:102A300000BFFDE7036C002BEAD0114B984700BFA5
:102A4000FDE74246314620460F4B9847A36CB3F151
:102A5000FF3F0AD1636A6BB104F124000B4B984726
:102A600050B15DB101242C60DAE7A36C0133A3649B
:102A70000124D5E70124D3E70124D1E70124CFE7DE
:102A80007D240800A5240800E12608002934080058
:102A90002DE9F04784B0019248B188469946044632
:102AA00049B10027464EDFF84CA1464D4BE0464B5E
:102AB000984700BFFDE7036C1BB1434B984700BF2D
:102AC000FDE70027EEE7E568414620463F4B984783
:102AD000B9F1000F17D1A36B013BA363236813B9AE
:102AE0003B4B9847606023693BB104F11000394BC0
:102AF0009847012801D1384B9847324B984701201D
:102B000004B0BDE8F087E560636A002BF5D004F1FE
:102B10002400304B98470028EFD02F4B9847ECE724
:102B2000284B98470020EBE702A8D04714E0B047B5
:102B300060682A4B9847A8472CE02046284B9847C6
:102B4000284B98470127B047A36B002BBBD1019BB3
:102B5000002BE5D0002FE7D0A847234B9847B0477C
:102B6000636CB3F1FF3F04BF00236364A36CB3F154
:102B7000FF3F04BF0023A364A84701A902A81B4B81
:102B80009847B0B9B047A76BA847002FD5D12368A5
:102B9000002BCCD0019904F12400154B9847204616
:102BA0000F4B98470F4B98470028CBD10A4B9847BB
:102BB000C8E720460A4B98470A4B984700209FE7F2
:102BC0008D240800AD2408007D2408004927080052
:102BD00065350800293408006D2408009135080087
:102BE00071270800853008000D2F0800D534080033
:102BF00085330800AD34080038B504460D460E4B49
:102C00009847636CB3F1FF3F04BF00236364A36C78
:102C1000B3F1FF3F04BF0023A364084B9847A36BA5
:102C20001BB12046064B984738BD294604F12400C5
:102C3000044B9847F5E700BF8D240800AD24080039
:102C400071270800E533080010B50F4B1B6858606A
:102C50000E4B1B6898420ED304460D4B18680A4B66
:102C6000196804310B4B98470B4B1B689C423CBFC7
:102C7000094B1C6010BD094B1868034B19680431DF
:102C8000044B984710BD00BF90AC07208CAD0720C7
:102C900094AC0720BD230800B801072098AC07209A
:102CA0002DE9F84F0A9FDDF82C900C9E48B188461C
:102CB00015469B468246042F07D9604B984700BFB4
:102CC000FDE75E4B984700BFFDE74C205C4B984703
:102CD0000446002854D0002E48D00663AA00A5213F
:102CE0003046584B984705F18045013D236B03EB77
:102CF000850323F007050A22414604F13400524BB4
:102D00009847002384F83D30E762A76404F1040883
:102D100040464E4EB04704F11800B0472461C7F159
:102D20000503A36164625A4651462846484B9847BA
:102D3000206010F0070F27D1B9F1000F01D0C9F8BA
:102D40000040444B9847444A136801331360434B97
:102D50001B68EBB1424B1B68002B40D13F4B1B68FB
:102D6000DB6A9F4224BF3D4B1C6038E0A800344B17
:102D70009847064620630028B0D12046394B984733
:102D80004FF0FF30BDE8F88F2C4B984700BFFDE7B0
:102D9000324B1C601368012B21D1334E3046334D2A
:102DA000A84706F11400A84706F12800A84706F135
:102DB0003C00A84706F15000A847DFF8E4904846D9
:102DC000A8472B4E3046A8472A48A8472A48A84774
:102DD0002A48A8472A4BC3F800902A4B1E60E06A95
:102DE000294B1B68984284BF274B1860274A1368F9
:102DF000236401331360264B1B68984284BF244B25
:102E0000186000EB80004146174B03EB8000214B1C
:102E10009847214B9847124B1B684BB10F4B1B68CF
:102E2000DB6A9F4207D91D4B98470120BDE8F88F08
:102E30000120BDE8F88F0120BDE8F88F7D2408004F
:102E4000DD25080029580800C15A08009B23080006
:102E5000312408008D24080000AD072090AC072025
:102E600060AD0720A92608009CAC07208523080038
:102E700030AD07204CAD072078AD072064AD0720AA
:102E800094AC072098AC072018AD07200CAD0720A4
:102E900014AD0720A1230800AD2408006D2408000C
:102EA0001CAD072010B584B0002303930293019357
:102EB000009382220D490E480E4CA047012802D0F3
:102EC00080B104B010BD0C4B98470128F8D10B4BD2
:102ED000984701220A4B1A6000220A4B1A600A4BDB
:102EE0009847EEE7054B984700BFFDE7048A0800C6
:102EF0005D320800A12C0800093708007D24080075
:102F000060AD07208CAD07204D250800024A1368EC
:102F100001331360704700BF08AD072010B5044BA4
:102F20009847044B1C68044B9847204610BD00BFCF
:102F30008D2408008CAD0720AD24080010B5044B8B
:102F40009847044B1C68044B9847204610BD00BFAF
:102F50007D2408008CAD0720A52408003D4B1B688C
:102F6000002B6FD12DE9F0413B4B1A6801321A60FA
:102F70001B68ABB9394B1B681B68002B28D1374B3A
:102F80001968374A10681860116036490A680132BA
:102F90000A601B681B68FBB94FF0FF32324B1A60A6
:102FA0002D4B1A68304B1B689A4250D32B4B1B6831
:102FB0001B68CBB1294B1B68DB68DC686368264A59
:102FC0001268934216D8294E294FDFF8B4802FE0BB
:102FD000284B984700BFFDE7204B1B68DB68DB6888
:102FE0005A68214B1A60DBE74FF0FF321E4B1A6024
:102FF000BDE8F0811C4A1360BDE8F081E06A3B68DF
:10300000984288BF386000EB8000294608EB8000BA
:10301000194B9847114B1B681B68002BE4D00F4BD2
:103020001B68DB68DC6863680B4A12689342E1D86E
:10303000251D2846B047A36A002BDFD004F11800F5
:10304000B047DBE70D4A1368013313607047BDE8F2
:10305000F08100BF08AD07208CAD072094AC07209D
:1030600098AC072048AD0720B8010720F7230800D7
:1030700014AD07207D240800A123080004AD07201B
:103080009CAC07202DE9F8432F4B1B681BB92F4B35
:10309000984700BFFDE72E4B98472B4B1A68013A23
:1030A0001A601B68002B4DD12A4B1B682BB10024E2
:1030B000DFF8CC80284F294E23E00024284B984786
:1030C0002046BDE8F883D8F80C30DD6805F118001B
:1030D000B84705F104094846B847E86A336898429A
:1030E00088BF306000EB800049461E4B03EB800038
:1030F0001D4B98471D4B1B68EA6ADB6A9A4228BF42
:103100000124D8F80030002BDDD1194B1B6893B196
:10311000174B1B6843B1174D154CA8472368013B5B
:1031200023602368002BF8D10022134B1A60134B45
:1031300098470124C2E7012CF6D00F4B1B68012BE6
:10314000BCD1F1E70024B9E708AD07207D240800D1
:103150008D24080000AD0720F723080014AD0720D8
:10316000AD2408009CAC0720A123080090AC0720E8
:1031700004AD07205D2F080044AD07206D24080032
:103180004CAD072038B530B10C46054639B9184B5F
:10319000984700BFFDE7164B984700BFFDE7154B6A
:1031A00098472B681C44144A126893420AD9A342D8
:1031B0000ED9114B1B682C609C420FD80F4B9847BF
:1031C00040B138BDA34208D80B4B1B689C4204D8C1
:1031D0002C60F3E70A4B984738BD2C60094B186800
:1031E0000430094B98472046084B9847E6E700BF54
:1031F0007D2408000D2F08008CAD072085300800C5
:103200006D24080090AC0720F7230800492C080023
:1032100010B510B90A4B984710BD0446094B9847A2
:10322000094B1B681C44094B18680430084B98472D
:103230002046084B9847084B98470028ECD1E9E70F
:103240006D2408000D2F08008CAD072090AC0720DE
:10325000F7230800492C08008530080080B5164D7A
:10326000DFF87880154E24E0154B1B68012B1ED823
:103270002B68002BF8D0C0473468B847002CF7D033
:10328000104B9847F368DC68201D0F4B98470F4A96
:103290001368013B13602B68013B2B600C4B984774
:1032A000206BDFF83C90C8472046C847E0E7094B51
:1032B0009847094FDCE700BF10AD072078AD072025
:1032C0009CAC07208D240800F723080000AD0720E0
:1032D000AD2408006D240800853008000D2F08007B
:1032E000A9260800214B1B68EBB910B5204B1B68C1
:1032F00003EB83039B001F4AD358C3B91C4B1B68C5
:103300006BB11B4A1B491368013B1360136803EB45
:10331000830351F8233053B91368002BF3D1164BB4
:10332000984700BFFDE70122144B1A607047104B0D
:103330001B68104A9900C81802EB80004468646852
:103340004460194402460832944209D003EB8303D7
:10335000084A02EB83035B68DA68094B1A6010BD08
:103360006068044A02EB81025060EFE708AD072075
:1033700014AD07209CAC07207D24080044AD072035
:1033800090AC072038B590B10C460E4D2968183125
:103390000D4B9847286804300C4B9847B4F1FF3F19
:1033A00009D00B4B186820440A4B984738BD0A4B8C
:1033B000984700BFFDE7296804310848084B984743
:1033C00038BD00BF90AC0720BD230800F7230800DC
:1033D0008CAD0720492C08007D24080064AD07202F
:1033E000A123080038B578B10D46094C2168183181
:1033F000084B984720680430074B9847074B1868DC
:103400002844074B984738BD064B984700BFFDE757
:1034100090AC0720A1230800F72308008CAD0720FB
:10342000492C08007D24080038B5C368DC681CB34B
:1034300004F118052846154B9847154B1B68FBB936
:10344000251D2846114B9847E06A124B1B6898428D
:1034500084BF104B186000EB800029460E4B03EB35
:1034600080000E4B98470E4B1B68E06ADB6A98425F
:1034700034BF0020012038BD0A4B984700BFFDE74C
:1034800029460948054B9847EDE700BFF723080098
:1034900008AD072014AD07209CAC0720A12308002D
:1034A00090AC07207D2408004CAD072008B530B152
:1034B000054A12680260054A1268426008BD044B62
:1034C000984700BFFDE700BF48AD07208CAD07203F
:1034D0007D24080038B5E8B10D460446F1B1184B1B
:1034E00098472B68B3F1FF3F26D0164A126821682F
:1034F000914204D0144A1268616891421ED9124A5E
:1035000012686168521A93420CD801240F4B9847F5
:10351000204638BD0E4B984700BFFDE70C4B98473F
:1035200000BFFDE7084A1268521A9B1A2B6020461A
:10353000084B98470024E9E70024E7E70124E5E782
:103540008D24080048AD07208CAD0720AD2408006D
:103550007D240800AD3408000122014B1A60704739
:1035600044AD0720014B1868704700BF90AC07209E
:10357000054B1B6833B1054B1B68002B0CBF0120AA
:10358000022070470020704760AD072008AD07207B
:10359000002831D038B50546C36A18490968C96A98
:1035A0008B4211D215490968C96AC1F105018161CF
:1035B00003EB8303124901EB83034169994204D071
:1035C0000E4B1B68DB6AC36238BD041D20460D4BE1
:1035D00098470A4B1B68D86AE8620B4B1B689842F5
:1035E00084BF094B186000EB80002146044B03EBBD
:1035F0008000064B984738BD704700BF90AC07204D
:103600009CAC0720F723080014AD0720A123080075
:10361000E8B138B50446C16A826C914216D0051DE6
:1036200028460B4B9847A06CE062C0F10503A361EC
:10363000084B1B68984284BF064B186000EB800063
:103640002946054B03EB8000044B984738BD704773
:10365000F723080014AD07209CAC0720A123080025
:1036600008B54160006191420CD8D21A83699A4230
:1036700001D3012008BD011D094B1868094B98476B
:10368000002008BD9A4201D2994206D2011D064B84
:103690001868044B9847002008BD012008BD00BFF2
:1036A00094AD0720BD23080090AD072070B50D4BE9
:1036B00098470D4B1B6813B10C4B984770BD0C4DD0
:1036C00028460C4EB0470C4C2046B0470B4B1D60B3
:1036D0000B4B1C6000220C2105200A4B9847024B23
:1036E0001860E9E78D240800C4AD0720AD24080068
:1036F00098AD072085230800ACAD072090AD0720CA
:1037000094AD07208528080010B584B00B4B98476E
:103710000B4B1B6873B100230393029301930422A4
:1037200000924FF4827207490748084CA04708B13D
:1037300004B010BD064B984700BFFDE7AD3608004A
:10374000C4AD07200C8A080059380800A12C0800D5
:103750007D24080030B585B00F4C2568D5B11C46D6
:103760000191029203903BB10023224601A9284611
:103770000A4CA04705B030BD094B984701284FF0CF
:1037800000030CBF089A1A4601A903480068054CBB
:10379000A047EFE70020EDE7C4AD0720012A0800AD
:1037A00071350800D92808002DE9F04782B081461C
:1037B000214B98478046214B1B68984215D3002324
:1037C000C9F800301D4BC3F80080404602B0BDE888
:1037D000F087002100910B4652462046184CA04726
:1037E00028B9184B984700BFFDE7174E174F3368AD
:1037F0001A68C2B1DA68D2F800A0DB68DC68251D5F
:103800002846B847636A20469847E369012BEED102
:10381000A36953449A45DCD2636024612946306829
:103820000B4B9847E3E70B4A1068074908601360A1
:103830000123C9F80030C5E71D2F0800C0AD0720DF
:10384000553708007D24080090AD0720F7230800B5
:10385000BD23080094AD07202DE9F04186B0DFF8C4
:1038600068814D4B1B681A68002A00F08980DB686C
:103870001D684A4B984703A8494B98470646039B47
:10388000002B40F08680A8420FD2A91B454B186838
:10389000454B9847454B984708B9454B984702A870
:1038A0003F4B984707463F4E36E0404B98473A4BD0
:1038B0001B68DB68DC68201DC047E369012B14D15D
:1038C000A1692B463246294420463A4EB04701288A
:1038D0000BD1002100910B462A462046364DA847C1
:1038E00018B9364B984700BFFDE7636A20469847F2
:1038F000D5E70025C9E70499A16131B13B463A46B5
:10390000394420462B4CA04706E02C4B984700BF7B
:10391000FDE720462A4B98472A4D00231A4603A963
:103920003068A84700289CD0059C1CB163690BB186
:10393000201DC047039B022BDDD0032BE9D0002BB9
:10394000EBD10499A0690B463A4601442046194D33
:10395000A8470128E0D1636A20469847E369012B14
:10396000DAD1A269002100910B4604980244204656
:10397000114CA0470028CFD1104B984700BFFDE75E
:10398000064B984703A8064B98470646039B002B17
:10399000AFD0064B984782E790AD07200D2F080067
:1039A000A9370800C4AD0720F92B080085300800AE
:1039B0006D24080061360800553708007D24080092
:1039C000A9260800912A0800F723080010B50E4820
:1039D0000E4B98473E2100200D4B98470D4CA047B9
:1039E0000028FCD00C4B98470C4A0D4B9A620D4CAA
:1039F000A0470028FCD010200B4B98470B4B984752
:103A00000148024B984710BD00BD0105B1000720D9
:103A1000813E0800D53E0800E53E0800013F0D202C
:103A200000060E40F53E08001D3E0800F53F080068
:103A300010B54FF400421E4B5A600B201D4CA0479E
:103A40000C20A0470D20A0470E20A0474FF060514A
:103A50003B20194CA0474FF060515520A0474FF034
:103A600060515620A04715496820A04714495C20A2
:103A7000A047144A4FF440711348144B98474FF035
:103A800000611120A0474FF000611220A0474FF0C5
:103A900000612C20A0474FF000612D20A0474FF07F
:103AA00000612B20A0474FF000612A20A04710BDE5
:103AB000501A0E40053F0800A13B0800790000287D
:103AC0000100002801000008000E0E40713C0800B3
:103AD0004264B1F1805F16D00BD849B1B1F1006FEB
:103AE00005D1036F016F0B4023EA020303674260B5
:103AF0007047B1F1405FFBD0B1F1605FF8D0B1F138
:103B0000205FF4D17047036F13430367EFE741640D
:103B100012F0010F14BF4166016612F00A0F14BFC4
:103B20000162416212F0020F07D112F0080F18BFB4
:103B3000C0F88410416101607047C0F88010F9E757
:103B400010B4019C416444B9016643B1016542B9B6
:103B500041630161016010BC70474166F5E7416552
:103B6000F5E70163F5E712F0100F10D0C0F8B010C0
:103B700012F0200F14BFC0F8D410C0F8D01012F00B
:103B8000400F14BFC0F8C010C0F8C4107047C0F890
:103B9000B410704701647047C06C7047806C704708
:103BA00070B582B00D46430903F5001303F20773A5
:103BB0005C0201F0F043B3F1205F31D016D8B3F1CD
:103BC000006F1BD0B3F1805F16D100F01F000126FB
:103BD000864032464FF080512046224B984715F0E0
:103BE000010F14BF66662666012017E0B3F1405F3F
:103BF00021D0B3F1605F1ED000200FE000F01F0065
:103C00000126864032464FF000612046154B98470A
:103C100015F0010F14BF66662666012002B070BD64
:103C200000F01F0101262A4606FA01F120460E4B3C
:103C300098473046F2E705F0605200F01F01012678
:103C400005EA06030093C5F38003B2F1605F14BF79
:103C50000022012206FA01F12046044CA04730461A
:103C6000DCE700BFD13A08000F3B0800413B0800E9
:103C700070B582B005460E46144602F0F043B3F12B
:103C8000205F27D011D8B3F1006F16D0B3F1805F59
:103C900011D10A464FF08051194B984714F0010F8B
:103CA00014BF6E662E66012012E0B3F1405F15D09E
:103CB000B3F1605F12D000200AE00A464FF00061C5
:103CC0000F4B984714F0010F14BF6E662E6601204B
:103CD00002B070BD0B4B98470120F9E704F0605229
:103CE00004F001030093C4F38003B2F1605F14BFDA
:103CF0000022012231462846034CA0470120E7E775
:103D0000D13A08000F3B0800413B08002DE9F04183
:103D1000044688460E4B9847054620460D4B98476B
:103D2000054013D00C4C04F1600603E0B4420DD002
:103D300010345DB120684045F8D161682942F5D062
:103D4000E3689847636825EA0305EFE7BDE8F0817B
:103D5000993B08009D3B0800C8AD0720F8B5184CFA
:103D60002668062E29D84FF0000C6446154F04E053
:103D70000134E4B2A446A64209D3A64625017D59E2
:103D80008D42F5D107EB04156D689542F0D10D4DCC
:103D90004FEA0E1E05EB0E0445F80E106260A3609C
:103DA0000699E1600136664504BF05490E6011467B
:103DB0001A46054B98470020F8BD0120F8BD00BF0A
:103DC00038AE0720C8AD0720673B080008B50B21B7
:103DD0000148024B984708BD000E0E400D3D0800FB
:103DE00008B50C210148024B984708BD00100E4051
:103DF0000D3D080008B50D210148024B984708BD4C
:103E000000120E400D3D080008B50E210148024B7E
:103E1000984708BD00140E400D3D0800174A136B6B
:103E200023F0700318431063936E13F0080F0AD148
:103E30004FF4006311498A6E12F0080F03D1013B61
:103E4000F9D1012070470D4A136B23F0030343F0AF
:103E500002031363936E13F0080F0AD14FF400634B
:103E600006498A6E12F0080F05D1013BF9D10120F5
:103E70007047002070470020704700BF00060E40CA
:103E8000C8B9114A136A090289B223F45C1323F0FA
:103E9000030343F45C1343F001030B431362936E7B
:103EA00013F0010FFBD0084A136A43F09B7343F4ED
:103EB00080331362704704490B6A044A1A40044B6A
:103EC00013430B62704700BF00060E40FCFFC8FEA4
:103ED00002003701024B986E00F48030704700BF3B
:103EE00000060E404FF00052014B9A62704700BF2F
:103EF00000060E40024B986E00F00200704700BFB3
:103F000000060E402C281ED81F280CD8114B9A6989
:103F100001238340934318D0012303FA00F00D4B93
:103F200018610020704720380A4BD3F8082101237C
:103F3000834093430BD0012303FA00F0054BC3F8F1
:103F400000010020704701207047002070470020CA
:103F5000704700BF00060E40FEE7000008B51C4B8E
:103F60001C4A9A4210D01C4B194A9A420CD2013B6F
:103F70009B1A23F0030304331344164951F8040B2E
:103F800042F8040B9A42F9D1144B154A9A420AD2CC
:103F9000013B9B1A23F0030304331344002142F82E
:103FA000041B9342FBD10F4B23F0604222F07F02AF
:103FB0000D498A6003F16043B3F5801F03D28B681B
:103FC00043F000538B60094B9847094B9847FEE735
:103FD00000000720EC8B0800700B0720B8B007200A
:103FE000700B07200000080000ED00E0C556080037
:103FF0005D4108003D4B1B6B03F00303032B0ED800
:10400000DFE803F0021C3838394B5B6913F0800F8E
:1040100014BF4FF400424FF4FA42364B1A60334B50
:104020001B6B03F07003702B57D0304B1A6B314968
:10403000C2F302120B68D3400B6070472B4B1B6A14
:1040400013F0807F03D02C4A2A4B1A60E7E72B4AF3
:10405000284B1A60254B1B6A03F07003102B05D008
:10406000202BDCD1244A234B1A60D8E7244A214B69
:104070001A60D4E71D4B1B6A13F0807F0CD01E4AD8
:104080001C4B1A60194B1B6B03F00303022B16D059
:104090001C4A184B1A60C2E7184A164B1A60134B99
:1040A0001B6A03F07003102B05D0202BEAD1124AB3
:1040B000104B1A60E6E7124A0E4B1A60E2E70B4A11
:1040C000916A926A0B48C1F30A41036801FB03330A
:1040D000D2B2B3FBF2F30360A1E7064A13680A49C0
:1040E000A1FB03135B081360704700BF00060E407E
:1040F000101A0E40BC010720001BB70000093D004C
:1041000000127A00001C4E0EABAAAAAA0A4B1B682A
:1041100053B1094B1B681A180849914208DB104635
:10412000054A106018467047054A034B1A60F0E7CD
:104130004FF0FF30704700BF3CAE0720FC7F0820E7
:10414000B8D007204FF0FF3070474FF400534B605A
:1041500000207047012070470020704708B5034BCE
:104160009847034B9847002008BD00BF4D21080029
:10417000AD220800F8B5C1F30A56A6F2FF35132D9B
:104180000A460B46044611DC002D2EDB8E462049E4
:1041900029410A4225D04FF4002300262B417344C5
:1041A00023EA0103194634462046F8BD332D05DDC8
:1041B000B5F5806F1FD011462046F8BD4FF0FF3196
:1041C000A6F2134621FA06F63042F4D00121C5F1D9
:1041D000330201FA02F2121828BF5B1822EA06061F
:1041E000E0E70028D7D11146E6E7013501F00043AA
:1041F00007D00026D6E702460B4600F0A5FA044693
:10420000D2E743F07F5343F440130026CAE700BFD0
:10421000FFFF0F0000F000B82DE9F84F544214439F
:1042200023F00049DFF8C0E149EAD474744506463A
:104230000D4640D84442044321F0004B4BEAD4746D
:1042400074458A4637D803F1404404F5801414437A
:104250004AD09C1704F0020444EAD17450EA0B01DE
:1042600031D052EA090137D0F14552D0F34533D06D
:10427000ABEB09094FEA2959B9F13C0F3BDC002BA4
:1042800066DB3046294600F03BFD00F053FA00F0B3
:10429000AFF8012C58D0022C48D0002C5ED040A39F
:1042A000D3E9002300F04EFA3FA3D3E9002300F046
:1042B00049FABDE8F88F1046194632462B4600F001
:1042C00043FABDE8F88F022C19D0032C10D138A185
:1042D000D1E90001BDE8F88FBAF1000F14DB36A177
:1042E000D1E90001BDE8F88FBDE8F84F00F080B8D3
:1042F0002946BDE8F88F30A1D1E90001C9E72AA11C
:10430000D1E90001BDE8F88F2DA1D1E90001BDE898
:10431000F88FCB4524D0022CF1D0032CD7D0012C20
:104320004FF0000027D00021BDE8F88F1CA3D3E98F
:10433000002300F007FA02460B461BA1D1E9000159
:1043400000F000FABDE8F88F01F10041BDE8F88FF8
:1043500019F13C0F95DA002000219AE7BDE8F88FAB
:10436000022C16D0032C0FD0012C08D016A1D1E9B5
:104370000001BDE8F88F4FF00041BDE8F88F14A1AF
:10438000D1E90001BDE8F88F13A1D1E90001BDE832
:10439000F88F13A1D1E90001BDE8F88FAFF30080D9
:1043A000075C143326A6A13C182D4454FB21094078
:1043B000182D4454FB2109C0182D4454FB21F93F0A
:1043C000182D4454FB21F9BF182D4454FB21E93F1B
:1043D000182D4454FB21E9BFD221337F7CD902C080
:1043E000D221337F7CD902400000F07F0000000022
:1043F0002DE9F84FC24B21F000469E420D468A46F9
:10440000044610DDBF4B9E4200F3B58000F0B08043
:10441000BD4BBE49BE4CBAF1000FD8BF0B4620467B
:104420001946BDE8F88FBB4B9E4200F3C180A3F153
:10443000DE739E4240F3AB804FF0FF3B22462B469B
:104440002046294600F032FB02460B46804689464C
:1044500000F02CFB92A3D3E9002306460F4600F0A0
:1044600025FB91A3D3E9002300F06EF932463B46C9
:1044700000F01CFB8EA3D3E9002300F065F932465F
:104480003B4600F013FB8CA3D3E9002300F05CF95A
:1044900032463B4600F00AFB89A3D3E9002300F033
:1044A00053F932463B4600F001FB87A3D3E90023D2
:1044B00000F04AF942464B4600F0F8FA84A3D3E9EB
:1044C0000023804689463046394600F0EFFA82A341
:1044D000D3E9002300F036F932463B4600F0E6FA15
:1044E0007FA3D3E9002300F02DF932463B4600F0CC
:1044F000DDFA7DA3D3E9002300F024F932463B46E0
:1045000000F0D4FA7AA3D3E9002300F01BF9324675
:104510003B4600F0CBFABBF1FF3F02460B466ED0A4
:104520004046494600F010F922462B4600F0BEFAFC
:10453000794E7A4B4FEACB0B5E449B44DBE9002378
:1045400000F000F922462B4600F0FCF80B4602462C
:10455000D6E9000100F0F6F8BAF1000F04460B4668
:10456000BFF65DAF01F1004320461946BDE8F88F64
:1045700000283FF44DAF22462B462046294600F046
:10458000E3F804460B4620461946BDE8F88F5AA3C7
:10459000D3E9002300F0D8F80022614B00F016FDAB
:1045A00000283FF449AF2B4620461946BDE8F88F56
:1045B00000F0C0F85B4B04469E420D4630DCA3F58C
:1045C00050239E4255DC02460B4600F0BDF8002207
:1045D000534B00F0B7F8002206460F464FF08043D9
:1045E0002046294600F0B0F802460B4630463946D0
:1045F00000F086FB4FF0000B04460D461EE74046D8
:10460000494600F0A1F822462B4600F04FFA0B462F
:1046100002462946204600F095F804460B46FEE681
:10462000414B9E421ADC0022404B00F08BF80022E6
:1046300006460F463D4B2046294600F037FA002239
:10464000374B00F081F802460B463046394600F001
:1046500057FB4FF0020B04460D46EFE602460B46B1
:104660000020334900F04CFB4FF0030B04460D468D
:10467000E4E600222A4B00F065F8002206460F46C9
:10468000274B2046294600F05FF802460B4630468D
:10469000394600F035FB4FF0010B04460D46CDE6E0
:1046A00011DA22E33AAD903FEB0D76244B7BA93F24
:1046B000513DD0A0660DB13F6E204CC5CD45B73FF2
:1046C000FF8300922449C23F0D5555555555D53F9E
:1046D0002F6C6A2C44B4A2BF9AFDDE522DDEAD3F92
:1046E0006D9A74AFF2B0B33F711623FEC671BC3F32
:1046F000C4EB98999999C93F9C7500883CE4377E32
:10470000FFFF0F440000F07FFB21F93FFB21F9BFC1
:10471000182D4454FFFFDB3F188A0800388A080030
:104720000000F03FFFFFF23FFF7F03400000F83F33
:104730000000F0BF21F00041704700BF81F0004150
:1047400002E000BF83F0004330B54FEA41044FEA76
:10475000430594EA050F08BF90EA020F1FBF54EA11
:10476000000C55EA020C7FEA645C7FEA655C00F0AD
:10477000E2804FEA5454D4EB5555B8BF6D420CDD7E
:104780002C4480EA020281EA030382EA000083EA01
:10479000010180EA020281EA0303362D88BF30BDA1
:1047A00011F0004F4FEA01314FF4801C4CEA1131F7
:1047B00002D0404261EB410113F0004F4FEA033356
:1047C0004CEA133302D0524263EB430394EA050FE1
:1047D00000F0A780A4F10104D5F1200E0DDB02FA50
:1047E0000EFC22FA05F2801841F1000103FA0EF2E4
:1047F000801843FA05F359410EE0A5F120050EF1AA
:10480000200E012A03FA0EFC28BF4CF0020C43FADA
:1048100005F3C01851EBE37101F0004507D54FF0E7
:10482000000EDCF1000C7EEB00006EEB0101B1F537
:10483000801F1BD3B1F5001F0CD349085FEA30007D
:104840004FEA3C0C04F101044FEA445212F5800F88
:1048500080F09A80BCF1004F08BF5FEA500C50F125
:10486000000041EB045141EA050130BD5FEA4C0C08
:10487000404141EB010111F4801FA4F10104E9D191
:1048800091F0000F04BF01460020B1FA81F308BF88
:104890002033A3F10B03B3F120020CDA0C3208DD54
:1048A00002F1140CC2F10C0201FA0CF021FA02F12F
:1048B0000CE002F11402D8BFC2F1200C01FA02F19F
:1048C00020FA0CFCDCBF41EA0C019040E41AA2BFC4
:1048D00001EB0451294330BD6FEA04041F3C1CDA8C
:1048E0000C340EDC04F11404C4F1200220FA04F0AC
:1048F00001FA02F340EA030021FA04F345EA030156
:1049000030BDC4F10C04C4F1200220FA02F001FA17
:1049100004F340EA0300294630BD21FA04F0294699
:1049200030BD94F0000F83F4801306BF81F4801132
:104930000134013D4EE77FEA645C18BF7FEA655CA5
:1049400029D094EA050F08BF90EA020F05D054EA77
:10495000000C04BF1946104630BD91EA030F1EBF7C
:104960000021002030BD5FEA545C05D14000494180
:1049700028BF41F0004130BD14F580043CBF01F573
:10498000801130BD01F0004545F0FE4141F4700159
:104990004FF0000030BD7FEA645C1ABF1946104634
:1049A0007FEA655C1CBF0B46024650EA013406BF35
:1049B00052EA033591EA030F41F4002130BD00BFF4
:1049C00090F0000F04BF0021704730B54FF48064B1
:1049D00004F132044FF000054FF0000150E700BF32
:1049E00090F0000F04BF0021704730B54FF4806491
:1049F00004F1320410F0004548BF40424FF000017E
:104A00003EE700BF42004FEAE2014FEA31014FEAC0
:104A100002701FBF12F07F4393F07F4F81F060510F
:104A2000704792F0000F14BF93F07F4F704730B57E
:104A30004FF4607401F0004521F0004120E700BF11
:104A400050EA010208BF704730B54FF000050AE098
:104A500050EA010208BF704730B511F0004502D599
:104A6000404261EB41014FF4806404F132045FEA9B
:104A7000915C3FF4DCAE4FF003025FEADC0C18BF40
:104A800003325FEADC0C18BF033202EBDC02C2F136
:104A9000200300FA03FC20FA02F001FA03FE40EAC8
:104AA0000E0021FA02F11444C1E600BF70B54FF0C8
:104AB000FF0C4CF4E06C1CEA11541DBF1CEA1355AA
:104AC00094EA0C0F95EA0C0F00F0DEF82C4481EA12
:104AD000030621EA4C5123EA4C5350EA013518BF32
:104AE00052EA033541F4801143F4801338D0A0FB1F
:104AF00002CE4FF00005E1FB02E506F00042E0FBCC
:104B000003E54FF00006E1FB03569CF0000F18BFD1
:104B10004EF0010EA4F1FF04B6F5007F64F5407479
:104B200004D25FEA4E0E6D4146EB060642EAC6210C
:104B300041EA55514FEAC52040EA5E504FEACE2E79
:104B4000B4F1FD0C88BFBCF5E06F1ED8BEF1004F7C
:104B500008BF5FEA500E50F1000041EB045170BDF8
:104B600006F0004646EA010140EA020081EA03013C
:104B7000B4EB5C04C2BFD4EB0C0541EA045170BD38
:104B800041F480114FF0000E013C00F3AB8014F1B2
:104B9000360FDEBF002001F0004170BDC4F10004FB
:104BA000203C35DA0C341BDC04F11404C4F120057C
:104BB00000FA05F320FA04F001FA05F240EA0200D7
:104BC00001F0004221F0004110EBD37021FA04F60D
:104BD00042EB06015EEA430E08BF20EAD37070BDC7
:104BE000C4F10C04C4F1200500FA04F320FA05F026
:104BF00001FA04F240EA020001F0004110EBD37028
:104C000041F100015EEA430E08BF20EAD37070BD97
:104C1000C4F1200500FA05F24EEA020E20FA04F370
:104C200001FA05F243EA020321FA04F001F000411F
:104C300021FA04F220EA020000EBD3705EEA430E90
:104C400008BF20EAD37070BD94F0000F0FD101F0BF
:104C50000046400041EB010111F4801F08BF013CF8
:104C6000F7D041EA060195F0000F18BF704703F036
:104C70000046520043EB030313F4801F08BF013DBD
:104C8000F7D043EA0603704794EA0C0F0CEA135579
:104C900018BF95EA0C0F0CD050EA410618BF52EA33
:104CA0004306D1D181EA030101F000414FF0000039
:104CB00070BD50EA410606BF1046194652EA430647
:104CC00019D094EA0C0F02D150EA013613D195EABB
:104CD0000C0F05D152EA03361CBF104619460AD103
:104CE00081EA030101F0004141F0FE4141F470010D
:104CF0004FF0000070BD41F0FE4141F4780170BDFD
:104D000070B54FF0FF0C4CF4E06C1CEA11541DBF61
:104D10001CEA135594EA0C0F95EA0C0F00F0A7F863
:104D2000A4EB050481EA030E52EA03354FEA013190
:104D300000F088804FEA03334FF0805545EA1313A3
:104D400043EA12634FEA022245EA111545EA10656B
:104D50004FEA00260EF000419D4208BF964244F102
:104D6000FD0404F5407402D25B084FEA3202B61A21
:104D700065EB03055B084FEA32024FF480104FF4F5
:104D8000002CB6EB020E75EB030E22BFB61A754669
:104D900040EA0C005B084FEA3202B6EB020E75EBFC
:104DA000030E22BFB61A754640EA5C005B084FEA64
:104DB0003202B6EB020E75EB030E22BFB61A754631
:104DC00040EA9C005B084FEA3202B6EB020E75EB3C
:104DD000030E22BFB61A754640EADC0055EA060EFD
:104DE00018D04FEA051545EA16754FEA06164FEA40
:104DF000C30343EA52734FEAC2025FEA1C1CC0D1EC
:104E000011F4801F0BD141EA00014FF000004FF078
:104E1000004CB6E711F4801F04BF01430020B4F139
:104E2000FD0C88BFBCF5E06F3FF6AFAEB5EB030CF1
:104E300004BFB6EB020C5FEA500C50F1000041EBEE
:104E4000045170BD0EF0004E4EEA113114EB5C04BB
:104E5000C2BFD4EB0C0541EA045170BD41F480118E
:104E60004FF0000E013C90E645EA060E8DE60CEA96
:104E7000135594EA0C0F08BF95EA0C0F3FF43BAFB3
:104E800094EA0C0F0AD150EA01347FF434AF95EA6A
:104E90000C0F7FF425AF104619462CE795EA0C0F4E
:104EA00006D152EA03353FF4FDAE1046194622E71B
:104EB00050EA410618BF52EA43067FF4C5AE50EAF5
:104EC00041047FF40DAF52EA43057FF4EBAE12E7E5
:104ED0004FF0FF3C06E000BF4FF0010C02E000BFC6
:104EE0004FF0010C4DF804CD4FEA410C7FEA6C5CA9
:104EF0004FEA430C18BF7FEA6C5C1BD001B050EA4C
:104F0000410C0CBF52EA430C91EA030F02BF90EA36
:104F1000020F0020704710F1000F91EA030F58BFF5
:104F2000994208BF90422CBFD8176FEAE37040F057
:104F3000010070474FEA410C7FEA6C5C02D150EAF5
:104F4000013C07D14FEA430C7FEA6C5CD6D152EAB0
:104F5000033CD3D05DF8040B704700BF8446104675
:104F600062468C461946634600E000BF01B5FFF774
:104F7000B7FF002848BF10F1000F01BD4DF808ED44
:104F8000FFF7F4FF0CBF012000205DF808FB00BF15
:104F90004DF808EDFFF7EAFF34BF012000205DF86F
:104FA00008FB00BF4DF808EDFFF7E0FF94BF0120BC
:104FB00000205DF808FB00BF4DF808EDFFF7CEFFBD
:104FC00094BF012000205DF808FB00BF4DF808EDFC
:104FD000FFF7C4FF34BF012000205DF808FB00BFCD
:104FE0004FEA410212F5001215D211D56FF4787311
:104FF000B3EB625212D94FEAC12343F0004343EAB4
:10500000505311F0004F23FA02F018BF404270478E
:105010004FF00000704750EA013005D111F0004018
:1050200008BF6FF0004070474FF00000704700BFAE
:105030004FEA4102B2F1E04324BFB3F5001CDCF1BA
:10504000FE5C0DD901F0004C4FEAC0024CEA5070F2
:10505000B2F1004F40EB830008BF20F00100704721
:1050600011F0804F21D113F13872BCBF01F0004024
:10507000704741F480114FEA5252C2F11802C2F156
:10508000200C10FA0CF320FA02F018BF40F00100D7
:105090004FEAC1234FEAD32303FA0CFC40EA0C0089
:1050A00023FA02F34FEA4303CCE77FEA625307D1C6
:1050B00050EA01331EBF4FF0FE4040F440007047FD
:1050C00001F0004040F0FE4040F40000704700BF97
:1050D00080F0004002E000BF81F0004142001FBFAD
:1050E0005FEA410392EA030F7FEA226C7FEA236CB6
:1050F0006AD04FEA1262D2EB1363C1BFD2184140AB
:1051000048404140B8BF5B42192B88BF704710F040
:10511000004F40F4000020F07F4018BF404211F0E3
:10512000004F41F4000121F07F4118BF494292EA4B
:10513000030F3FD0A2F1010241FA03FC10EB0C0077
:10514000C3F1200301FA03F100F0004302D5494204
:1051500060EB4000B0F5000F13D3B0F1807F06D3B1
:1051600040084FEA310102F10102FE2A51D2B1F1A9
:10517000004F40EBC25008BF20F0010040EA03009E
:105180007047490040EB000010F4000FA2F101024B
:10519000EDD1B0FA80FCACF1080CB2EB0C0200FAD5
:1051A0000CF0AABF00EBC25052421843BCBFD04023
:1051B0001843704792F0000F81F4000106BF80F49D
:1051C00000000132013BB5E74FEA41037FEA226C60
:1051D00018BF7FEA236C21D092EA030F04D092F02B
:1051E000000F08BF0846704790EA010F1CBF00205F
:1051F000704712F07F4F04D1400028BF40F00040BC
:10520000704712F100723CBF00F50000704700F0DB
:10521000004343F0FE4040F4000070477FEA226202
:1052200016BF08467FEA23630146420206BF5FEAD3
:10523000412390EA010F40F4800070474FF00003D3
:1052400004E000BF10F0004348BF40425FEA000C9A
:1052500008BF704743F0964301464FF000001CE042
:1052600050EA010208BF70474FF000030AE000BF98
:1052700050EA010208BF704711F0004302D54042D6
:1052800061EB41015FEA010C02BF84460146002048
:1052900043F0B64308BFA3F18053A3F50003BCFA63
:1052A0008CF2083AA3EBC25310DB01FA02FC634410
:1052B00000FA02FCC2F12002BCF1004F20FA02F217
:1052C00043EB020008BF20F00100704702F120020A
:1052D00001FA02FCC2F1200250EA4C0021FA02F26B
:1052E00043EB020008BF20EADC7070474FF0FF0C70
:1052F0001CEAD0521EBF1CEAD15392EA0C0F93EA6B
:105300000C0F6FD01A4480EA010C400218BF5FEA0C
:1053100041211ED04FF0006343EA501043EA51117F
:10532000A0FB01310CF00040B1F5000F3EBF490079
:1053300041EAD3715B0040EA010062F17F02FD2A7D
:105340001DD8B3F1004F40EBC25008BF20F0010060
:10535000704790F0000F0CF0004C08BF49024CEA77
:10536000502040EA51207F3AC2BFD2F1FF0340EA09
:10537000C250704740F400004FF00003013A5DDC7A
:1053800012F1190FDCBF00F000407047C2F10002BB
:10539000410021FA02F1C2F1200200FA02FC5FEAA8
:1053A000310040F1000053EA4C0308BF20EADC70F2
:1053B000704792F0000F00F0004C02BF400010F464
:1053C000000F013AF9D040EA0C0093F0000F01F011
:1053D000004C02BF490011F4000F013BF9D041EA33
:1053E0000C018FE70CEAD15392EA0C0F18BF93EA35
:1053F0000C0F0AD030F0004C18BF31F0004CD8D15F
:1054000080EA010000F00040704790F0000F17BFE5
:1054100090F0004F084691F0000F91F0004F14D02B
:1054200092EA0C0F01D142020FD193EA0C0F03D183
:105430004B0218BF084608D180EA010000F0004086
:1054400040F0FE4040F40000704740F0FE4040F461
:10545000400070474FF0FF0C1CEAD0521EBF1CEA00
:10546000D15392EA0C0F93EA0C0F69D0A2EB03021E
:1054700080EA010C49024FEA402037D04FF08053B8
:1054800043EA111143EA10130CF000408B4238BF7D
:105490005B0042F17D024FF4000C8B4224BF5B1A8B
:1054A00040EA0C00B3EB510F24BFA3EB510340EAD9
:1054B0005C00B3EB910F24BFA3EB910340EA9C0087
:1054C000B3EBD10F24BFA3EBD10340EADC001B01F7
:1054D00018BF5FEA1C1CE0D1FD2A3FF650AF8B429B
:1054E00040EBC25008BF20F0010070470CF0004CA8
:1054F0004CEA50207F32C2BFD2F1FF0340EAC250D3
:10550000704740F400004FF00003013A37E792F093
:10551000000F00F0004C02BF400010F4000F013AF1
:10552000F9D040EA0C0093F0000F01F0004C02BFEC
:10553000490011F4000F013BF9D041EA0C0195E755
:105540000CEAD15392EA0C0F08D142027FF47DAFEE
:1055500093EA0C0F7FF470AF084676E793EA0C0FDE
:1055600004D14B023FF44CAF08466EE730F0004CDC
:1055700018BF31F0004CCAD130F000427FF45CAF6C
:1055800031F000437FF43CAF5FE700BF4FF0FF3CDA
:1055900006E000BF4FF0010C02E000BF4FF0010C2D
:1055A0004DF804CD4FEA40024FEA41037FEA226CF6
:1055B00018BF7FEA236C11D001B052EA530C18BF18
:1055C00090EA010F58BFB2EB030088BFC81738BF7D
:1055D0006FEAE17018BF40F0010070477FEA226C6B
:1055E00002D15FEA402C05D17FEA236CE4D15FEA67
:1055F000412CE1D05DF8040B704700BF844608469B
:105600006146FFE70FB5FFF7C9FF002848BF10F15B
:10561000000F0FBD4DF808EDFFF7F4FF0CBF0120A0
:1056200000205DF808FB00BF4DF808EDFFF7EAFF2A
:1056300034BF012000205DF808FB00BF4DF808EDE5
:10564000FFF7E0FF94BF012000205DF808FB00BFDA
:105650004DF808EDFFF7D2FF94BF012000205DF860
:1056600008FB00BF4DF808EDFFF7C8FF34BF01206D
:1056700000205DF808FB00BF4FEA4002B2F1FE4F88
:105680000FD34FF09E03B3EB12620DD94FEA002304
:1056900043F0004310F0004F23FA02F018BF4042DD
:1056A00070474FF00000704712F1610F01D14202C4
:1056B00005D110F0004008BF6FF0004070474FF078
:1056C0000000704770B50F4E0F4D761BB61018BF17
:1056D000002405D0013455F8043B9847A642F9D17F
:1056E0000A4E0B4D03F06CFA761BB61018BF00245F
:1056F00006D0013455F8043B9847A642F9D170BD55
:1057000070BD00BFCC8B0800CC8B0800D48B080088
:10571000CC8B08000FB410B5074B82B004AC54F822
:10572000042B186823468168019400F03BFA02B00C
:10573000BDE8104004B07047C0010720844641EA2C
:10574000000313F0030349D1403A23D30B680360ED
:105750004B6843608B688360CB68C3600B690361EF
:105760004B6943618B698361CB69C3610B6A0362D7
:105770004B6A43628B6A8362CB6AC3620B6B0363BF
:105780004B6B43638B6B8363CB6BC36340304031A4
:10579000403ADBD230320BD30B6803604B68436076
:1057A0008B688360CB68C36010301031103AF3D23D
:1057B0000C3205D351F8043B40F8043B043AF9D2CB
:1057C000043208D0D2071CBF11F8013B00F8013B9E
:1057D00001D30B8803806046704700BF082A13D3AB
:1057E0008B07B1D010F00303AED0C3F10403D21A7B
:1057F000DB071CBF11F8013B00F8013BA4D331F8D3
:10580000023B20F8023B9FE7043AD9D3013A11F852
:10581000013B00F8013BF9D20B7803704B784370E1
:105820008B7883706046704770B4860746D0541EEC
:10583000002A41D0CAB2034602E014F1FF343BD340
:1058400003F8012B9D07F8D1032C2ED9CDB245EAE0
:1058500005250F2C45EA054519D9264603F1100206
:10586000103E0F2E42F8105C42F80C5C42F8085CC7
:1058700042F8045C02F11002F2D8A4F1100222F006
:105880000F0204F00F041032032C13440DD91E46EE
:105890002246043A032A46F8045BFAD8221F22F073
:1058A00003020432134404F003042CB1C9B21C44B3
:1058B00003F8011B9C42FBD170BC704714460346A1
:1058C000C2E700BF00290CBF022200224FF4806310
:1058D00000F000B82DE9F043614D83B02D68044617
:1058E0000F4690461E4615B1AB6B002B64D0B8F145
:1058F000020F06D0B8F1010F00F29F80002EC0F217
:105900009C80636ED80734D52146284601F0E2F822
:10591000216B41B104F14003994202D0284601F0C5
:1059200057FA002323630022B4F90C30A2616260AD
:105930001A063AD423F44A6323F00303B8F1020FA2
:10594000A3811DD001AB6A462146284601F0DEFC4A
:10595000A3891843A081002E32D1009E304601F069
:105960004DFD074600286BD0A38943F08003A38137
:1059700028E0A3899905C7D4A06D01F0C3FCC3E753
:10598000002500260120616E04F1430243F002036A
:10599000A660CE07A38160612260226101D49805D0
:1059A0003ED5284603B0BDE8F0832169284601F0C2
:1059B0000FFAB4F90C30BDE7284601F0E3F896E79A
:1059C000002FCBD0AB6B002B33D0009BB4F90C2055
:1059D0009E421CBF42F40062A281B8F1010F04BFD5
:1059E00042F00102A28192B212F0080327602761FF
:1059F00066610ED0D1071AD50023656E764215F088
:105A00000105A661A36009D00025284603B0BDE8C2
:105A1000F083A360656E15F00105F5D19305C0D440
:105A2000A06D01F071FC284603B0BDE8F083A660CC
:105A3000F0E7284601F0A6F8C7E74FF0FF35B0E7DA
:105A4000DDF80090B14504D0484601F0D7FC074688
:105A500020B9B4F90C304FF0FF3592E74E4683E79A
:105A6000C001072020F0030110F00300C0F1000086
:105A700051F8043B00F1040C4FEACC0C6FF000022B
:105A80001CBF22FA0CF213434FF0010C4CEA0C2C11
:105A90004CEA0C4CA3EB0C0222EA030212EACC12F1
:105AA00004BF51F8043B0430F4D0C2F1000102EA13
:105AB0000102B2FA82F2C2F11F0200EBD20070477B
:105AC00040EA010313F0030F70B4034624D0A2B1DF
:105AD0000C78013A1C70013101333CB16AB111F804
