S01000004672656552544F532E737265634A
S21408000080CE07200D3A0800093A0800093A080089
S214080010093A0800093A0800093A080000000000F2
S2140800200000000000000000000000002D2108006D
S214080030093A080000000000A5210800E121080090
S214080040093A0800093A0800093A0800093A080077
S214080050093A0800093A0800093A0800093A080067
S214080060093A0800093A080000000000CD380800E0
S214080070DD380800ED380800FD38080000000000EC
S21408008000000000093A0800093A0800093A080082
S214080090093A0800093A0800093A0800093A080027
S2140800A0093A080000000000093A0800093A080062
S2140800B0093A0800093A0800093A0800093A080007
S2140800C0093A0800093A0800093A0800093A0800F7
S2140800D0093A0800093A0800093A0800093A0800E7
S2140800E0093A0800093A0800093A0800093A0800D7
S2140800F0093A080010B5054C237833B9044B13B1F8
S2140801000448AFF300800123237010BD280B072096
S21408011000000000448708000C4B43B10C4810B59B
S2140801200C49AFF300800C48036823B910BD0A4891
S214080130036833B97047094B002BF7D0BDE8104069
S2140801401847064B002BF5D0184700BF00000000E4
S214080150448708002C0B072044870800000000008E
S21408016005284ED00BDC022830D003DCA8B10128C5
S21408017020D07047032833D0042835D07047082885
S2140801804ED004DC062840D0072845D070470A28F9
S21408019054D04FDB632858D0704701232E4A136388
S2140801A0A2F580221363A2F500321363A2F580320B
S2140801B013637047284B1863A3F580235863A3F589
S2140801C000335863A3F58033586370470123224AE7
S2140801D05363A2F580221363A2F5003253630CE042
S2140801E001231D4A1363F4E701231B4A5363A2F550
S2140801F080225363A2F500321363A2F5803253635C
S21408020070470123144A1363F1E70123124A536324
S214080210A2F580221363EDE701230F4A1363F7E77D
S21408022001230D4A5363A2F580225363A2F50032D8
S2140802305363BBE70123084A1363F4E70123064A1E
S2140802405363A2F580221363F0E70123024A53633F
S214080250A2F580225363BFE7000E1640024B1860D3
S214080260024B1960704700BF440B0720480B072055
S214080270014B1868704700BF440B0720014B1868ED
S214080280704700BF480B07202DE9F0470F4C06467D
S2140802900D46A0478146DFF844A0DFF844800C4F9F
S2140802A0A0474946D047C0470028B8BF4042B8478D
S2140802B0084B31469847084B20B90021BDE8F0475F
S2140802C008461847294628469847E9E7911108003E
S2140802D07D4C080061500800991A0800114B080068
S2140802E0B15008002DE9F047184C0E460546A047C1
S2140802F000278146DFF870A006F10048A047494667
S214080300D047134B98470028B8BF4042114B984730
S2140803102946114B984728B90021BDE8F0470846FA
S2140803200E4B1847394628460D4B984718B1414694
S21408033030460A4B9847394628460A4B98470028BD
S214080340DCD040463146054B9847D7E7C111080030
S214080350B15008007D4C080061500800991A080042
S214080360755008009D500800114B0800000000005A
S2140803702DE9F041801A124C1D468846A0470646CD
S2140803800F46A8EB0500A04732463B460D4CA04753
S21408039009A3D3E900230C4CA04700220B4B0C4CB6
S2140803A0A0470C4B9847B0F5B47F08BF0020BDE8BF
S2140803B0F08100BFAFF30080F8C1631ADCA54C409B
S2140803C019440800493C0800E544080000806640D7
S2140803D081410800194A08002DE9F041801A164C98
S2140803E01D468846A04706460F46A8EB0500A047C8
S2140803F032463B46114CA0470DA3D3E90023104CC8
S214080400A04700220F4B104CA047104B9847069B5E
S214080410C01AB4280E4B04DDA0F5B4709847BDE8A2
S214080420F08110F1B40FB8BF00F5B470F6E700BF5E
S214080430F8C1631ADCA54C4019440800493C08007A
S214080440E54408000080664081410800194A080013
S2140804507D4C08002DE9F04F934B89B098474FF034
S214080460FF3800240790DFF8DCA2C82107A8D04789
S214080470052C00F06B8169DC022C00F0F0803DDC76
S214080480002C00F0A580012CEFD1884B88489847AF
S2140804902046884B9847884C06F1140239463B4656
S2140804A0CDF800903046A047844B9847844B984731
S2140804B0844D8549A847DFF844A2844CDFF808B283
S2140804C0D047029B834200F3C28000210846A0471B
S2140804D07D497F48A847DFF8F0A17E4DA847039BD3
S2140804E0834200F3B88000210846A047012502246D
S2140804F0B9E70124B7E704256324B4E7032C00F022
S214080500C780042CB1D17448DFF8A0A1D047204694
S214080510684B984708212220704B9847012840F0DE
S214080520BF806F48D0474FF0000A08206D4B9847A9
S214080530012898D1BAF1000F95D16B4B1B78142B74
S214080540D9D0614969486A4B98479FE0082C00F063
S21408055044810BDC062C00F03381072C85D1534BE5
S214080560644898472046534B98477CE7092C00F088
S2140805704281632C7FF479AFDFF830A15E48D0471C
S2140805805E4E4C4B0A209847B047524F8146B847B4
S214080590574B4D49834655489847B0470646B8478F
S2140805A0074631465648D04739465648D0475946F2
S2140805B048463B46DFF890913246C8478146014692
S2140805C05148D047002D94D0042D08BF05244AE78B
S2140805D0DFF8D8A04D48D0472046364B984701202C
S2140805E04B4B98474B4B98474B4A039090474B4A80
S2140805F0804690474A4A02909047039B8346A3F159
S2140806000F020492A8F134020592A0F16402039244
S214080610029A0132524607D1B0F1FF3F04D10133A6
S21408062002D1B8F1FF3F04D03E4890470025D8468F
S21408063062E73D48D0476FF0640303936FF03403D6
S21408064005936FF00F03CDF8088004930BE759461F
S2140806501D48A04734E751461B48A0473EE7134BC2
S214080660324898472046134B98471A4B9847A8EBAA
S21408067000002F4B1E3898472E4D00222E4BA847B9
S2140806802E4B984710491A4B984725460324EAE606
S214080690064B2B4898472046064B98470424E2E624
S2140806A04FF0010A41E700BF752B08004D510800BE
S2140806B09980080061010800D9030800B1500800B5
S2140806C07D4C0800E5020800000016435D0208009D
S2140806D00000B44255090800EC800800E517080039
S2140806E00881080051180800180C0720000020414F
S2140806F08902080064810800E07F080049090800AC
S214080700FB7F08000F80080023800800328008005E
S21408071025090800610908006D0908003109080064
S2140807203D0908004E8008006E800800B580080065
S214080730194408007D41080000803640694A0800D0
S214080740D0800800992D080071030800314B324804
S21408075098472046314B9847314C06F114023946E3
S2140807603B46CDF800903046A0472E4B98472E4B78
S21408077098472E4D2E49A847DFF8E8A02D4CDFF8FD
S214080780B0B0D047049B984212DB00210846A04729
S21408079027492948A847DFF898A0284DA847059B69
S2140807A0984209DB00210846A047052506245AE694
S2140807B059461F48A047E4E751461D48A047EDE7BD
S2140807C0144B1F4898472046144B984718491D480D
S2140807D01D4B25469847072445E60E4B1B48984769
S2140807E020460E4B984721462520194B9847012846
S2140807F008BF092437E6074B144898472046074B96
S214080800984714491448104B984714491448074BFE
S214080810984728E64D5108002C8108006101080019
S214080820D9030800B15008007D4C0800E50208000E
S214080830000016435D0208000000B442550908008F
S214080840488108000000704189020800808108007D
S214080850E51708000000E1430000F0C10000484327
S21408086000003443490908002DE9F3411E4B984718
S2140808701E4E1F4FDFF8A8800190C82101A8B04778
S2140808801020B8470128F8D11A4C1B4A2378217A39
S2140808905B00C8F800306378184D5B001360184B8F
S2140808A04A001A60637A174A5B0017481360A8471D
S2140808B0617A1648A847164B1B68012B08D1A378FF
S2140808C0144A5B001360E378134A5B001360D4E7AE
S2140808D0022B05D1A3790F4A5B001360E379F3E78F
S2140808E00E48A847C9E700BF752B0800992D0800D1
S2140808F051180800190C0720500B07204D51080006
S214080900600B0720640B07209C810800A481080060
S214080910540B0720580B07205C0B0720AC810800F7
S2140809204C0B0720014B1860704700BF540B07207C
S214080930014B1868704700BF580B0720014B186812
S214080940704700BF5C0B0720014B1868704700BF54
S214080950600B0720014B1868704700BF640B072020
S214080960014B1868704700BF4C0B0720014B1868EE
S214080970704700BF500B07202DE9F04F8D4B8BB00A
S214080980984709904FF4967109A88B4B98474FF0F3
S21408099000638A4ADFF8D8A21363DAF80000884BA7
S2140809A09847884BDFF8CCB21968D847864B9847E3
S2140809B0DFF8C49201468548C847854B9847854B5B
S2140809C0854C1860854B9847854B864A1860029375
S2140809D09047854A20609047844A26681168844D67
S2140809E031441160834928600A68834E02440A60CD
S2140809F0824A904729688248C84721688148C8477C
S214080A00814F31688148C8476D4BDAF8000098472F
S214080A103968D8476C4B984701467D48C8473068C0
S214080A20674B984706463F682068654B984739469F
S214080A30D8473146774B9847DFF84082604BC8F86E
S214080A4000000090286898473946D8473146714BC9
S214080A509847714C5A4B2060DAF800009847009A7D
S214080A606E4F1146D847584B984701466C48C847BA
S214080A70534BDAF8000098472168D847524B9847F6
S214080A8001466848C8474F4BD8F800001E68614BB7
S214080A90314698473146804638605E4B206898470E
S214080AA0614D474B2860DAF8000098474146D8471A
S214080AB0454B984701465D48C847414BDAF8000061
S214080AC098472968D847404B984701465848C8472A
S214080AD0584BDFF8AC811A68574BC8F80020574EB9
S214080AE01A683C4B3260564C18683968A047514B18
S214080AF029681860029B07461868A0474E4B18607E
S214080B002F4BDAF8000098473946D8472E4B9847B7
S214080B1001464C48C847DAF80000294B9847464B28
S214080B20494F1968D847284B984701464748C84749
S214080B30404BD8F800101868A047454B3168186035
S214080B403D4B05461868A047424BDFF838811860C9
S214080B501B4BDAF8000098472946D8471A4B98479F
S214080B6001463D48C847DAF80000154B9847394B08
S214080B703A4E1968D847144B984701463848C8472C
S214080B802C4B384C1868C047B047D7E90023A04715
S214080B9004460D46284BC7E900451868C047B047C5
S214080BA00B4631490246D1E900012E4EB0472E4B7E
S214080BB02E4E69E0752B0800992D080000100E408F
S214080BC07D4C0800FC000720B1500800DC810800B6
S214080BD071020800B80B0720800B07207D0208006A
S214080BE0C00B07207D17080091170800880B072000
S214080BF0840B07208C0B07201001072059170800C4
S214080C000C8208001A8208000001072027820800C4
S214080C10308208008D4E0800AC0B0720B40B072066
S214080C203A8208004D820800BC0B07206182080043
S214080C3077820800980B07209C0B0720940B072048
S214080C40114B08008E820800700B07209E82080051
S214080C50680B07206C0B0720AE820800A93B08002B
S214080C60BE82080081410800780B0720194A080050
S214080C7008010720254D08004D510800A80B07203D
S214080C80900B07203D440800C3E90001DAF800008D
S214080C908E4B984722462B468D4CA047B0470146B8
S214080CA08C48C847DAF80000884B98478A4BD3E93F
S214080CB00023A047B04701468848C847884B98474E
S214080CC0884B1860884B9847884B1860DAF80000FD
S214080CD0874B9847834B1968D847864B98470146F1
S214080CE08548C847DAF80000814B98477F4B196853
S214080CF0D847804B984701468048C847804B1968B4
S214080D00804B1868D8477A4B0446DAF800009847AC
S214080D1001462046D847774B984701467A48C84741
S214080D207A4B19687A4B18687A4B98477A4B196841
S214080D30D8476F4B0446DAF8000098470146204625
S214080D40D8476C4B984701467448C847744B604C64
S214080D501868C047604BD3E90023A0476B4B04468E
S214080D6018680D46C04702460B4620462946584C8A
S214080D70A047564B0446DAF800000D469847024648
S214080D800B4620462946524CA047B04701466548C0
S214080D90C8475C4B1B680093614B1868C0475B4BA1
S214080DA0CDE902011D682846C0475B4BCDE9040122
S214080DB0DDE902011B680793D7E90023A047DDE9B0
S214080DC00423A0474E4B06460F4600981968D84796
S214080DD0C047554C02460B4630463946A0474C4B52
S214080DE006460F4607981968D8472946494B984734
S214080DF0C04702460B4630463946A047394B06469A
S214080E0018680F46C04702460B4630463946A04784
S214080E10464B9847464C304B0646D3E900232C4FA2
S214080E202060DDE90201B847DDE90423B847414BF5
S214080E30CDE9020119680098D847C0473A4F0246DC
S214080E400B46DDE90201B8473B4BCDE900011968BE
S214080E500798D84729462F4B9847C04702460B465F
S214080E60DDE90001B847214BCDE900011868C04705
S214080E7002460B46DDE90001B8472C4B98472F4A37
S214080E80029010602E4A30462E4900929047184F1E
S214080E905E46184DC84628B9029B2A491846009A45
S214080EA0904708B12848C047DAF80000B8472168D4
S214080EB0B047A84701462548C047DAF80000B847B3
S214080EC01E4B1968B047A84742E000BF19440800FF
S214080ED0E5440800CF820800780B0720DF82080068
S214080EE0B51A0800C80B0720C11A0800D00B07203F
S214080EF07D4C0800B1500800F08208000483080002
S214080F00980B0720F800072019830800FC00072024
S214080F10680B07208D4E0800F00007203C83080069
S214080F20F40007205C83080081410800694A08002D
S214080F30C40B07209C0B07206C0B0720CC0B072044
S214080F409D500800000096437D83080091830800A2
S214080F5001466748C047DAF80000B8472168B04736
S214080F60A847644B814698478346DAF80000B84796
S214080F70014604465846B047A847814531D05E4BDF
S214080F80DFF8BC91D3F800B05C4B584619685C4B48
S214080F909847A8470028B8BF4042B847594B196831
S214080FA0C84758B159462046B047A847564B8346C7
S214080FB019682046B047A847834512D1DFF864B1C0
S214080FC0524ADBF800301146184600930292C8478A
S214080FD0009B002875D0029ACBF8002001224C4BC3
S214080FE01A604C4B20461968B047A8474A4B8146BA
S214080FF098478346DAF80000B8470146044658463C
S214081000B047A84781452DD03F4BDFF83491D3F839
S21408101000B0424B58461968394B9847A8470028ED
S214081020B8BF4042B847374B1968C84758B1594601
S2140810302046B047A847304B834619682046B04735
S214081040A84783450ED1334BDFF8C0B01C68594615
S2140810502046C84700283FD02E4BC3F800B00122D0
S2140810602F4B1A60DFF8A8B02E4CDBF8003013B10F
S21408107020682D4B9847DFF8A890D9F800301BB1A8
S214081080244B1868294B98470023DAF80000CBF859
S2140810900030C9F80030B8472168B047A84701466D
S2140810A02348C047DAF80000B8471A4B1968B04713
S2140810B0A84701461F48C0474FF000631E4A5363BF
S2140810C060E4DFF88090184649461C4B984700288D
S2140810D084D0CBF8009081E7DFF868902046494630
S2140810E0164B98470028BAD00A4BC3F80090B6E7C4
S2140810F0AF830800B51A0800B40B0720B80B072002
S214081100114B08000C010720BC0B07200080ED439C
S214081110B00B0720CC0B0720C11A0800C00B07200D
S214081120D40B0720C40B07207D1808009519080063
S214081130CE830800EC83080000100E4061500800BB
S2140811409D5008000080EDC308B5044B1868044B92
S2140811509847044B1968044B984708BD880B072026
S2140811607D4C080004010720254D080008B5044BEF
S2140811701868044B9847044B1968044B984708BDF1
S2140811808C0B07207D4C080004010720254D08001D
S21408119010B5074B9847074B04469847064B014639
S2140811A0204698474FF07C51044B984710BD00BF27
S2140811B0491108006D110800154B0800254D080058
S2140811C010B50D4B0D4C19680D4B18680D4B98470C
S2140811D00D4B19680D4B98470D4B984704A3D3E958
S2140811E00023A0470B4B984710BD00BFAFF3008005
S2140811F0F8C1631ADCA54C40A40B0720E544080098
S214081200A00B0720114B0800140107208D4E08007C
S2140812103D440800694A0800F0B5114D8DB001AC90
S21408122006460F460FCD0FC40FCD0FC495E807002E
S214081230002384E8070001AA52F82300B7FBF0F061
S214081240B0FBF6F0B0F5807F06D901330B2BF3D14F
S2140812504FF6FF700DB0F0BD40EA0320FAE700BF76
S2140812600C84080070B50C6806460D4644B1204646
S2140812700C4B896898474FF6FF73984204460CD083
S214081280686840B1074BA96898474FF6FF739842BD
S21408129005D044EA004434600024204670BD044665
S2140812A0FBE700BF1912080070B54A688C8A02F07E
S2140812B00F0222430C890B6822438C7A42EA4422A6
S2140812C08C7D42EA0442CC7D42EA44420C7E42EAE5
S2140812D0844200EB4314C4F80022CA68C4F8042207
S2140812E00A69C4F80C228A7D1AB1D1F81A20C4F803
S2140812F018224FF001129A40D243CC7F856C04FA2C
S21408130003F68C7F15409C4044EA06442C438464CC
S214081310446C224091F8214004FA03F591F82040E5
S2140813209C4044EA054422434264012291F8224044
S2140813309A4024B3046A1443046291F82440012CAA
S214081340846E0CBF14439443846691F825401204B7
S214081350012C846E0CBF224324EA02028266032B09
S2140813604FF0FF0491F823200DD8DB00C16E9C4097
S21408137021EA04049A402243C266002070BD046A2B
S21408138024EA0204D8E7043BDB00016F9C4021EA0C
S214081390040402FA03F323430367EEE7012303FA80
S2140813A001F141607047012303FA01F1816070473B
S2140813B0214B10B599423CD8A3F57A53994223D9C4
S2140813C01E4B1F4C0B449B00B2FBF4F4B2FBF3F22B
S2140813D00023043C043AFF2C01D9072B0CD1FF2A22
S2140813E00DD812021B0492B203F4E0231A43E4B2A7
S2140813F022430261002010BD01336408EBE7062B88
S214081400EFD801335208EAE74900B2FBF1F20023AD
S214081410043AFF2A01D9072B08D111021B0489B206
S21408142003F4E0230B43D2B21A43E2E7013352082F
S214081430EFE7012010BD00BF801A06000012FD3F2E
S21408144000B80B0038B54FF0FF338362036A802379
S2140814500360036B082303602023036004230360F0
S2140814600D460A68064B496804469847431E584284
S21408147058416B7A012B04BF4023236038BD00BF58
S214081480B113080061B10129037807DD4278022903
S21408149042EA032302D0827842EA032318467047BA
S2140814A00B46FBE7F8B5CC6805460846002C3CD04A
S2140814B000268F686E604B680A7C1B0203F4407334
S2140814C0120402F4FE0243F4805313436B60EE608A
S2140814D0194B49689847012C0CBF03230123E86081
S2140814E006BF26462B602B60022147F230532A6A35
S2140814F0D0051CD4EBB1012C02D10EB926462960C2
S214081500920706D4013B3A4601E047F230531746A5
S214081510EDE72B6B013C07F101023B70F5D12B6A16
S214081520DB07FCD52B6A2046F8BD0124FBE705241B
S214081530F9E70924F7E700BF8514080070B5CE68F8
S214081540044608464EB38D6800216160037C4268F5
S2140815501B04120202F4407203F4FE031343636092
S214081560E16041680F4B98472E44E060AE420BD1CD
S214081570236AD90513D45A07FAD502232360236AA7
S214081580DB07FCD5002070BD236ADA0507D45807A8
S21408159044BF15F8013B6363E8E7012070BD0520EA
S2140815A070BD00BF8514080038B5124CA047002847
S2140815B012DD114A136801331360104D104C2B6866
S2140815C02360104B9847104A23681268286002FB6D
S2140815D013000E4B186038BDA047002803DA064AE9
S2140815E01368013BE8E7A0470028E6D1084B984770
S2140815F0E3E700BF011B0800040C0720F80B0720D0
S214081600FC0B0720952B080018010720000C072064
S214081610C11A080038B5124CA047002812DD114A36
S214081620136801331360104D104C2B682360104B61
S2140816309847104A23681268286002FB13000E4B6E
S214081640186038BDA047002803DA064A1368013B2D
S214081650E8E7A0470028E6D1084B9847E3E700BF2D
S214081660011B0800140C0720080C07200C0C072088
S214081670952B080018010720100C0720C11A08002F
S21408168038B5124CA047002812DD114A13680133FA
S2140816901360104D104C2B682360104B9847236836
S2140816A02860C01A0E4B1B6858430E4B186038BD8E
S2140816B0A047002803DA064A1368013BE8E7A04774
S2140816C00028E6D1084B9847E3E700BFCD1A080084
S2140816D0E40B0720D80B0720DC0B0720952B080007
S2140816E018010720E00B0720B51A080038B5124C79
S2140816F0A047002812DD114A136801331360104D05
S214081700104C2B682360104B984723682860C01A33
S2140817100E4B1B6858430E4B186038BDA047002870
S21408172003DA064A1368013BE8E7A0470028E6D133
S214081730084B9847E3E700BFCD1A0800F40B0720CC
S214081740E80B0720EC0B0720952B0800180107204C
S214081750F00B0720B51A08000023044A1360044A51
S2140817601360044A1360044A13607047E40B0720AA
S214081770040C0720140C0720F40B0720024B1868EB
S214081780024B1B6818447047E40B0720F40B07202D
S214081790024B1868024B1B6818447047040C072055
S2140817A0140C07201FB50A4B17200293094B019308
S2140817B000238DF80D30084B984701A9074B0848B9
S2140817C09847B0FA80F0400905B05DF804FB00BF02
S2140817D0A086010000BD0105C939080045140800A7
S2140817E000000940F0B508298BB00E4613D16C46A8
S2140817F0114F124D38700FCD0FC469462B680297EB
S21408180023608DF810600E480E4B9847B0FA80F0AB
S21408181040090BB0F0BD10290CD10B4F0B4D05AC91
S21408182038700FCD0FC42B680797236005A98DF86D
S2140818302460E8E70120ECE7230C07201C010720BA
S214081840000009403D150800240C07203001072039
S214081850082808B508BF0549054B18BF05490648B6
S2140818609847B0FA80F0400908BD00BF4401072039
S214081870A514080058010720000009404FF480739B
S214081880F0B52A4F85B03B6329492A4B044698474A
S214081890002842D02848294B9847294B20461C60E8
S2140818A0284B9847284B9847284B9847284B01467B
S2140818B028489847284B98470026284D4FF08051CF
S2140818C02860274B13209847264B24209847012149
S2140818D02548264B9847264B01A90193254B2248B5
S2140818E00393254B029698470B23012423492A681D
S2140818F04B6002F5A45302330B611B48204BCA60A9
S2140819000C608C720E819847214617481D4B9847E5
S2140819104FF480737B6305B0F0BD1B4920461B4B14
S21408192098470028B9D01A48B5E700BF00140E40FB
S2140819300080EDC361500800388408004D51080047
S214081940280C07203D440800A93B0800694A0800FF
S214081950114B08000080BB44B1500800300C07202B
S214081960CD360800C939080000400940A71308000A
S21408197040420F0000BD01056512080024AE07208E
S214081980A91208009D1308000080ED439D5008002A
S2140819907184080030B5274985B0274B0446984718
S2140819A000283FD02548264B9847264B20461C60E3
S2140819B0254B9847254B9847254B9847254B014676
S2140819C025489847254B98470024254D4FF08051C9
S2140819D02860244B43209847234B2420984700210F
S2140819E02248234B9847234B01A90193224B1F48B3
S2140819F00393224B029498470B2321492A684B608D
S214081A0001238B7202F5A45302330B6117481D4B52
S214081A10CA600C600C819847214614481A4B9847B0
S214081A2005B030BD19492046194B98470028BCD048
S214081A301848B8E70080EDC361500800AA8408007B
S214081A404D5108002C0C07203D440800A93B08000F
S214081A50694A0800114B08000080BB44B1500800D2
S214081A60300C0720CD360800C93908000040094068
S214081A70A713080040420F0000BD010565120800C4
S214081A8024AE0720A91208009D1308000080ED4325
S214081A909D500800E484080010B50C46034B984790
S214081AA02046BDE81040024B184700BF7D180800C6
S214081AB095190800014B1868704700BF280C0720C6
S214081AC0014B1868704700BF2C0C072010B5094B4F
S214081AD000211C68084B2046984740B9002120463C
S214081AE0064B9847003018BF0120404210BD012021
S214081AF010BD00BF280C07209D5008006150080044
S214081B0010B5094B00211C68084B2046984740B979
S214081B1000212046064B9847003018BF0120404257
S214081B2010BD012010BD00BF2C0C07209D500800DA
S214081B30615008002DE9F0410E46144688B915464E
S214081B400A4FDFF82C80611B002D314403DC24EAA1
S214081B50E470BDE8F0813868D8F800309847013D51
S214081B60F1E74FF0FF30BDE8F08100BF54AE072024
S214081B704CAE0720013802282DE9F0410E4612D84F
S214081B800C460B4FDFF82C808D18AC42A4EB0600F1
S214081B9001D1BDE8F081386814F8011BD8F8003088
S214081BA098470028F1DA4FF0FF30BDE8F08100BF13
S214081BB054AE072050AE0720AC2310B503604A6821
S214081BC00B68B3FBF2F34FF6FE721B095C1E9442D9
S214081BD00AD803628B68436040F20223C0F82031BB
S214081BE050230360002010BD012010BD43699B07E9
S214081BF046BFC1610020012070474369DB0743BF29
S214081C00836900200B700120704743699B0743BF18
S214081C10C1F30801C1610020012070474369DB0752
S214081C2041BF83690020C3F308030B6058BF012037
S214081C3070470000002373B501931B4B0446984277
S214081C400D4607D1194E29462046B0470028FAD136
S214081C5002B070BD164B984208D1164E01A9204610
S214081C60B0470028FAD1019B2B70F1E7124B984237
S214081C7006D1104E01A92046B0470028FAD1F2E74F
S214081C800E4B984206D10B4E01A92046B0470028B5
S214081C90FAD1E8E70A4B9842DAD1064E01A920465F
S214081CA0B0470028FAD1DEE700080E40FB1B080004
S214081CB0008009401D1C080000C0094000000A40BA
S214081CC000400A401B4B70B5984204460D4607D1A3
S214081CD0194E29462046B0470028FAD1012070BD83
S214081CE0164B984206D1164E29462046B04700287D
S214081CF0FAD1F3E7134B984206D1114E29462046EF
S214081D00B0470028FAD1E9E70F4B984206D10C4EA7
S214081D1029462046B0470028FAD1DFE70B4B984201
S214081D2006D1074E29462046B0470028FAD1D5E7FF
S214081D30002070BD00080E40ED1B0800008009401A
S214081D400B1C080000C0094000000A4000400A407A
S214081D507FB500240126124D23460394029401946D
S214081D6000964FF400720F490F48A847234603947D
S214081D700294019400964FF400720C490C48A84748
S214081D8023464FF400720B4903940294019400967C
S214081D900948A847094B9847204604B070BD00BFBD
S214081DA0052908003C8508007909080046850800CA
S214081DB0690808004F85080055040800F52A080039
S214081DC030B5082085B0154DA847154C154B164A52
S214081DD01C60164B08201A60154A164B1A60164BDC
S214081DE001934FF4E13302934FF400630393A8473B
S214081DF0124D01A92046124B98472B68114C98683B
S214081E000021A0472B6800215868A0470E4C0F48B1
S214081E10A0470F48A047002005B030BDC9390800C4
S214081E2000080E4054AE0720C51C080050AE072018
S214081E30351C08004CAE072000BD01057C010720B4
S214081E40B91B0800FD5208004D5108001E85080001
S214081E502D850800F7B5274C274B0D209847274FA8
S214081E60204600224FF40001B847254B254E009324
S214081E704FF4000220230D212046B047224D20466D
S214081E804FF40001A847204600224FF00071B847DB
S214081E901E4B4FF0007200930D2120232046B047BA
S214081EA020464FF00071A847204600220221B84776
S214081EB0174B022200930D2120232046B0472046C8
S214081EC00221A847204600224FF00051B847114B80
S214081ED04FF0005200930D2120232046B04720469D
S214081EE04FF00051A8474FF4005200200A4B1A60E2
S214081EF003B0F0BD00120E40C93908003F3608008E
S214081F00A9150800613808008F36080081160800F1
S214081F1015160800ED16080000E100E02DE9F0416E
S214081F20484B9847484B9847484C0B20A0470C20EE
S214081F30A0470D20A0470E20A047454B9847454B85
S214081F409847454B9847454B98474FF48072444B03
S214081F504FF080511A61C3F8A0204FF00062A3F535
S214081F6080631A61C3F8A0204FF00072C3F81422E9
S214081F70C3F8A0224FF400024FF00408C3F8142256
S214081F80C3F8A022374A01275161C2F8A010C2F848
S214081F901480C2F8A0804FF48002C3F81022C3F859
S214081FA0A0224FF40012C3F81422C3F8A02203F5A7
S214081FB0FF2303F5C0631F61C3F8A070A3F5802351
S214081FC01F61C3F8A070A3F50033274E1F61C3F83E
S214081FD0A070A3F580331F61244CC3F8A07063205B
S214081FE0234DA0473046A8470020A0473046A847BC
S214081FF03846A0473046A8470220A0473046A8479C
S2140820000320A0473046A8474046A0473046A84782
S2140820100520A0473046A8470620A0473046A847D0
S2140820200720A0473046A8470820A0473046A847BC
S2140820300920A0473046A8476320A0470020BDE8EF
S214082040F08100BF153508007D350800C93908003D
S214082050C11D0800551E0800A5170800511D0800D8
S21408206000140E40000E0E40001BB7006101080069
S214082070010007204FF0FF3200F10803826043603A
S214082080C360036100230360704700230361704741
S21408209043685A684A6042688A605A68916059601C
S2140820A04160086103680133036070470A6810B529
S2140820B0531C0AD103695A684A6091608B6059605C
S2140820C0086103680133036010BD00F108035C680B
S2140820D02468A242EFD35B68F9E7436882689A608F
S2140820E0836842685A6003695A68904204BF8268E7
S2140820F05A60002202611A68013A1A601868704726
S21408210003480068006880F3088862B600DF00BFEE
S21408211008ED00E04FF0807300E90A00002340F85D
S214082120202C40F80C3C403870470000064B1968D5
S2140821300868B0E8F00F80F309884FF0000080F3D5
S21408214011884EF00D0E704740AC07204FF08052B5
S214082150014B1A60704700BF04ED00E0EFF31180F2
S2140821604FF0A00181F311887047002008B5034B93
S2140821709847034A13680133136008BD5D210800B9
S2140821806C01072080F3118870470000034B18681D
S2140821900138186008B9024B184770476C010720C9
S2140821A085210800EFF309800C4B1A6820E9F00F28
S2140821B010602DE908404FF0A00080F3118800F069
S2140821C06DFE4FF0000080F31188BDE808401968DE
S2140821D00868B0E8F00F80F30988704740AC07201D
S2140821E04FF0805210B5054B1A60054B9847054BC3
S2140821F09847BDE810400020034B184704ED00E060
S2140822005D210800B52B080085210800034A044B09
S2140822101A60072243F8042C704700BF1F480100C5
S21408222014E000E008B5084B1A6842F470021A6019
S2140822301A6842F070421A60044B98470020044B14
S2140822401860044B984708BD20ED00E00D220800F2
S2140822506C0107200121080010B5104B1A6882424D
S21408226019D35C681919884201BF416818460919CC
S214082270596041684418A24208D1094C2468A24211
S21408228004D052680A4442601A681268984202608B
S21408229018BF186010BD1346E0E700BF38AC07202B
S2140822A0340C072070B5254B04469847244A116815
S2140822B089B949F6F07549F6F476224B22489951C1
S2140822C00360416059512148214983E821000B6881
S2140822D01060103B0B602CB1103463071CBF24F051
S2140822E00704083449F6FE73611E994207D8164B50
S2140822F01D6869688C4204D81268954207D1002682
S21408230017E029680029F7D02B460D46F1E72A681A
S2140823101E681A606B6810361B1B202B04D92819F8
S21408232043606C600B4B9847094A696813685B1AE8
S2140823301360094B9847304670BD00BF652B0800F0
S214082340340C0720380C072038AC072028AC0720A8
S2140823507001072059220800A92C080010B5044669
S21408236078B1084B9847084A54F80C3C1168A4F111
S21408237010000B441360054B9847BDE81040044B0B
S214082380184710BD652B0800700107205922080061
S214082390A92C080038B504461046226C4AB92568A8
S2140823A01DB96068114B98476560A36B0133A3633A
S2140823B038BD0F4B58B9A0689847A368226C1344D9
S2140823C06268A3609342F0D32368A360EDE7E068F1
S2140823D09847236CE2685B4221681A448A42E260A6
S2140823E03EBF62689B18E360DFE700BF75310800F0
S2140823F075510800034630B41C6808465CB1D968B5
S2140824001A6C5D681144A942D96028BFDC60D96897
S21408241030BC024B184730BC704700BF75510800E7
S2140824202DE9F04104461A4EB0471A4FDFF86C8083
S21408243004F12405A36C002B14DC4FF0FF33164D73
S214082440A364144FDFF85480A847B04704F1100679
S214082450636C002B11DC4FF0FF3363642B46BDE83A
S214082460F0411847636A002BE7D02846B84700B102
S214082470C047A36C013BA364DCE72369002BEAD0C2
S2140824803046B84700B1C047636C013B6364DFE77A
S2140824906D210800B92F08008D210800CD300800EE
S2140824A038B50D46044618B9164B984700BFFDE7E1
S2140824B0154B9847206CE36B22684343D1181B1AC8
S2140824C013446160E36000214FF0FF33A163A2600C
S2140824D06364A3646DB923693BB104F110000B4B28
S2140824E09847012801D10A4B98470A4B984701207C
S2140824F038BD04F11000084DA84704F12400A84789
S214082500F3E700BF5D2108006D210800B92F080019
S2140825104D2108008D210800752008002DE9F0419E
S2140825200E469046054668B150200E4FB8470446FA
S21408253040B106FB05F00130B847206030B92046A8
S214082540094B9847094B984700BFFDE7E5632664A3
S21408255001212046064B984784F84D802046BDE862
S214082560F08100BFA52208005D2308005D21080051
S214082570A12408002DE9F04F87B00F4603929A462B
S214082580044618B9364B984700BFFDE711B9036CE7
S214082590002B60D1DFF8F0804FF0000BC146314EBB
S2140825A0C047A26BE36B9A4213D22F4B524639466A
S2140825B020469847636A3BB104F124002B4B9847A2
S2140825C0012801D12A4B9847B047012007B0BDE83B
S2140825D0F08F039D15B9B0470020F7E7BBF1000F51
S2140825E002D104A8234B9847B047234B9847C847BF
S2140825F0636CDFF898B0013304BF00236364A36CF0
S2140826001E4D013304BF0023A364B04703A904A8E2
S2140826101B4B9847D8B9C847A26BE36B0292019345
S214082620B047019B029A9A420DD1039904F1100013
S214082630144B98472046D847A84708B90C4B9847E4
S2140826404FF0010BACE72046D847A847F8E72046E6
S214082650D847A847C0E7024B984700BFFDE700BF2A
S2140826605D2108008D21080095230800B92F080071
S2140826704D21080031300800652B0800A92C0800F9
S21408268059300800112F08006D2108002124080081
S2140826902DE9F04104460D4616469846194814B9E1
S2140826A0804700BFFDE721BB236C13B3804700BFFC
S2140826B0FDE7154B4246294620469847A36C01334A
S2140826C013D1636A0BB9012409E004F124000F4B07
S2140826D098470028F7D0002EF5D0012434603846F5
S2140826E00B4B98472046BDE8F081A36C0133A364E2
S2140826F0E9E78047E16B0746A06B8842D9D30024F8
S214082700EDE700BF5D21080095230800B92F0800F3
S214082710852108002DE9F04F85B00F4601929A46AC
S214082720044618B9424B984700BFFDE711B9036C39
S214082730002B78D1DFF828914FF0000BC8463D4EA5
S214082740C847A36B002B29D0394620463A4BE56884
S2140827509847BAF1000F16D1A36B013BA363236811
S21408276013B9364B9847606023693BB104F11000F3
S214082770334B9847012801D1324B9847B047012080
S21408278005B0BDE8F08F636AE560002BF6D004F16B
S21408279024002B4B98470028F0D0EDE7019D15B98B
S2140827A0B0470020ECE7BBF1000F02D102A8264B89
S2140827B09847B047254B9847C047636CDFF8A4B0E6
S2140827C0013304BF00236364A36C214D013304BFA7
S2140827D00023A364B04701A902A81E4B9847F0B986
S2140827E0C047A36B0093B047009BA3B9236823B9DF
S2140827F0C0476068184B9847B047019904F1240011
S214082800164B98472046D847A84708B90D4B98470F
S2140828104FF0010B94E72046D847A847F8E720462C
S214082820D847A847BDE7024B984700BFFDE700BF5B
S2140828305D2108008D210800F5230800D93008001E
S214082840B92F08004D21080031300800652B080014
S214082850A92C08005930080001310800112F08007B
S2140828606D2108002124080070B504460D4B0D465E
S2140828709847636C013304BF00236364A36C013379
S21408288004BF0023A364084B9847A36B23B92946C3
S21408289004F12400054B98472046BDE87040044BD9
S2140828A0184700BF6D2108008D210800712F080009
S2140828B02124080010B50D4B04461A6850600C4ACF
S2140828C0126890420B4A06D2BDE810400A490868CA
S2140828D0196804311047094908681968043190478F
S2140828E0074B1A68944238BF1C6010BD40AC0720DE
S2140828F03CAD0720AD20080048AC072044AC0720B4
S214082900740107202DE9F84F0A9F8A46154699460E
S214082910DDF830B0804618B9584B984700BFFDE739
S214082920042F03D9554B984700BFFDE74C20544E5B
S214082930B047044668B1BBF1000F02D1A800B04703
S2140829408346C4F830B0BBF1000F06D120464D4B85
S21408295098474FF0FF30BDE8F88FAD002A46A5210E
S2140829605846494B9847206B043D51460A22054471
S214082970464B04F134009847002304F1040A84F80F
S2140829803D305046DFF85CB1E762A764D84704F1EB
S2140829901800D84725F00705C7F10503A361246189
S2140829A03B4B64624A4641462846984743072060A0
S2140829B003D0324B984700BFFDE70B9B03B11C6062
S2140829C0344B9847344B354E1A68DFF81C81013271
S2140829D01A603268002A47D134601B68012B1ED162
S2140829E02F4D3048A8473048A8473048A847DFF852
S2140829F0FCB02F48A847DFF8F8902E48A847584656
S214082A00A8474846A8472C48A8472C48A8472C4813
S214082A10A8472C4BC3F800B02B4BC3F800901420E3
S214082A202A4AE36A11688B42294988BF13600A68F4
S214082A30226401320A60274A11688B4288BF1360F5
S214082A40184A514600FB0320234B9847234B9847C8
S214082A50D8F800302BB13368DB6A9F4201D9204B87
S214082A6098470120BDE8F88FD8F80030002BD6D15B
S214082A703368DB6A9F4228BF3460D0E75D210800D0
S214082A80A52208005D23080061520800F9540800D2
S214082A90152108006D210800B0AC072040AC0720BF
S214082AA0752008004CAC072060AC072074AC0720E3
S214082AB088AC07209CAC0720FCAC072028AD072074
S214082AC014AD072044AC072048AC0720C8AC072044
S214082AD0BCAC0720C4AC0720912008008D21080054
S214082AE04D2108008B20080010AD0720CCAC07202D
S214082AF0E0AC072030B5002485B0124D039402944C
S214082B0001940094234682220F491048A8470128BA
S214082B1005460FD10E4B9847012805460AD10D4B9E
S214082B2098470D4B1D600D4B1C600D4B05B0BDE85E
S214082B30304018471DB9074B984700BFFDE705B05A
S214082B4030BD00BF052908005D8508001D2E080059
S214082B50653208005D21080010AD07203CAD07204F
S214082B6025220800024A136801331360704700BF25
S214082B70B8AC072010B5044B9847044B1C68044BA8
S214082B809847204610BD00BF6D2108003CAD0720C1
S214082B908D21080010B5044B9847044B1C68044B5D
S214082BA09847204610BD00BF5D2108003CAD0720B1
S214082BB0852108002DE9F0472F4B1B68002B55D1BF
S214082BC02E4E3268013232603268BAB92C4B1A6817
S214082BD012681AB12B4B984700BFFDE72A4A1968B6
S214082BE010681860116029490A6801320A601A6874
S214082BF01168274AB1B94FF0FF331360244C326886
S214082C0023689A4236D3DFF87880DFF89490DFF8A6
S214082C1094A0D8F800301B684BB94FF0FF332360F8
S214082C20BDE8F0871B68DB68DB685B68E5E7D8F813
S214082C300030DB68DD6832686B689342EFD82F1D7A
S214082C403846C847AB6A13B105F11800C8471420C0
S214082C50EB6ADAF80020394693420E4A88BFCAF86B
S214082C60003000FB03200C4B9847D2E70B4A13684A
S214082C7001331360BDE8F087B8AC07203CAD0720E9
S214082C8044AC07205D21080048AC0720F8AC0720B4
S214082C90740107204CAC072091200800B4AC07202C
S214082CA0DB200800C4AC07202DE9F8432B4C23682A
S214082CB01BB92B4B984700BFFDE72A4B984723685C
S214082CC0013B236024682CB10024274B98472046F4
S214082CD0BDE8F883254B1B68002BF5D0244E254FFE
S214082CE0DFF8B080336853B9234D2B68002B33D1F7
S214082CF0012C2AD0214B1B68012BE5D125E0F3686F
S214082D00DD6805F1040905F11800B8474846B847D4
S214082D101420EB6AD8F8002049469342184A88BF20
S214082D20C8F8003000FB0320164B9847164BEA6A93
S214082D301B68DB6A9A4228BF0124D3E7A0472B68A2
S214082D40013B2B602B68002BF8D100220B4B01248B
S214082D501A600E4B9847B8E70D4CF3E7B8AC072057
S214082D605D2108006D2108008D210800B0AC072001
S214082D70FCAC0720DB200800B4AC0720F4AC072026
S214082D804CAC07209120080040AC07204D210800D5
S214082D90B52B0800C4AC072010B518B9174B9847D0
S214082DA000BFFDE719B9154B984700BFFDE7144B60
S214082DB09847144A0368CC1811688B4217D9A3425F
S214082DC019D913689C4294BF0023012304603BB1C1
S214082DD00D4B18680D4B0430984720460C4B984707
S214082DE00C4B984748B9BDE810400B4B1847A34210
S214082DF0E7D90123EAE70023E8E710BD5D210800CC
S214082E00652B08003CAD072040AC0720DB200800F7
S214082E10B5280800A92C08004D21080080B5144CD8
S214082E20144E154D236833B9144B1B68012BF8D97B
S214082E30134B9847F5E7B0472F68124B9847002F73
S214082E40F0D0114B9847EB68104FDD68104B281DE3
S214082E509847104A1368013B13602368013B2360B8
S214082E600D4B9847286BB8472846B847D9E700BFA0
S214082E70C0AC0720652B080028AD07204CAC0720FF
S214082E804D210800A92C08006D2108005D230800C4
S214082E90DB200800B0AC07208D21080038B5164B9B
S214082EA01B68D3B9154A14231546154908685843AC
S214082EB01058B0B109684B43D018446808336468A2
S214082EC0134444609C4204BF63684360142303FBB6
S214082ED001514B68DA680B4B01E001220A4B1A6075
S214082EE038BD086818B9094B984700BFFDE7086859
S214082EF001380860DAE700BFB8AC07204CAC0720FA
S214082F00C4AC072040AC0720F4AC07205D210800BD
S214082F1070B50D4618B90E4B984700BFFDE70D4C27
S214082F200D4B21681831984720680C4B0430984799
S214082F306B1C06D121680A4804310A4BBDE870406C
S214082F401847094B1868094B2844BDE870401847CD
S214082F505D21080040AC0720AD200800DB200800F3
S214082F6014AD0720912008003CAD0720B5280800BE
S214082F7070B50D4618B90A4B984700BFFDE7094CCF
S214082F80094B2168183198472068084B0430984741
S214082F90074B1868074B2844BDE87040184700BF21
S214082FA05D21080040AC072091200800DB200800BF
S214082FB03CAD0720B5280800F8B5C368DC681CB91E
S214082FC0134B984700BFFDE704F118063046114F2B
S214082FD0B847114B114D1B68BBB9261D3046B8477C
S214082FE00F4A14201168E36A8B42314688BF136083
S214082FF00C4A00FB0320A8470B4BE06A1B68DB6AF9
S214083000984234BF00200120F8BD31460748F2E751
S2140830105D210800DB200800B8AC072091200800D6
S214083020C4AC07204CAC072040AC0720FCAC0720FB
S21408303008B518B9054B984700BFFDE7044B1B6851
S2140830400360044B1B68436008BD00BF5D21080091
S214083050F8AC07203CAD072038B50D46044618B92D
S214083060144B984700BFFDE719B9124B984700BFA5
S214083070FDE7114B98472B685A1C14D00F4A216855
S214083080126891420E4A616802D0106881420FD9D0
S2140830901068401A83420BD912682046521A9B1AA7
S2140830A02B60084B98470024074B9847204638BDA6
S2140830B00124F9E75D2108006D210800F8AC072017
S2140830C03CAD0720313008008D2108000122014B55
S2140830D01A607047F4AC0720014B1868704700BFA9
S2140830E040AC0720044B186828B1044B1B68002B1B
S2140830F00CBF01200220704710AD0720B8AC07208F
S2140831002DE9F041044640B3154DC36A2A68D26AD1
S214083110934222D22A68134ED26AC2F1050282610D
S214083120142202FB036342699A4213D1071D3846EC
S2140831300D4B984714202B680C4ADB6A1168E3622B
S2140831408B4288BF136000FB03603946BDE8F04138
S214083150074B18472B68DB6AC362BDE8F08100BFDF
S21408316040AC07204CAC0720DB200800C4AC072086
S2140831709120080070B50446D0B1C26A836C9A42A2
S21408318016D0051D28460B4B98471420A36CC3F190
S2140831900502A261084AE36211688B4288BF136081
S2140831A0064A2946BDE8704000FB0320044B184732
S2140831B070BD00BFDB200800C4AC07204CAC07205D
S2140831C0912008002DE9F0410D4C0E4B98472568D4
S2140831D08DB90D4F0D4E3846DFF84480C04730464F
S2140831E0C0470B4B2A461F600A4B0C211E60052061
S2140831F0094B98472060094BBDE8F041184700BFC7
S21408320074AD07206D21080048AD07205CAD072087
S21408321040AD072044AD07201D2508008D21080075
S21408322075200800914208B5416000610AD8D21A94
S21408323083699A420DD2084B011D1868074B9847B8
S214083240002008BD9A4201D2994202D2011D044BC1
S214083250F3E7012008BD00BF44AD0720AD200800F5
S21408326040AD07201FB50C4B98470C4B1B681BB985
S2140832700B4B984700BFFDE70023042203930092F8
S214083280029301934FF4827206490748074CA047F9
S2140832900028EDD004B010BDC531080074AD072075
S2140832A05D210800628508007D33080005290800AE
S2140832B07FB50E4D064628681C4670B101910292ED
S2140832C0039663B90A4B984701282346094E0CBF54
S2140832D0089A224601A92868B04704B070BD22465D
S2140832E0002301A9044CA047F7E700BF74AD0720E8
S2140832F0E530080075250800912608002DE9F341F9
S214083300184D194F2B681A6832B9184A1168136095
S214083310296002B0BDE8F081DA681668DB68DC6808
S21408332004F104084046B847636A20469847E369AC
S214083330012BE7D1A36933449E4206D26360246119
S214083340414628680A4B9847DCE700232046009346
S21408335032461946074CA0470028D3D1064B984753
S21408336000BFFDE740AD0720DB20080044AD07207E
S214083370AD200800B13208005D2108002DE9F04FA5
S214083380DFF8888189B0DFF888B1DBF80020D2F84A
S2140833900090B9F1000F39D0D26815684E4A4F4CE4
S2140833A09047A0474E4F06463A68039490422FD25D
S2140833B04C4A90474FF0010A3E604B4CBAF1000F5A
S2140833C076D1B9F1000F68D0B54266D8A047DBF8C9
S2140833D00030DB68DC68201DC047E369012B1AD182
S2140833E0A16932462B4629442046404EB04701285C
S2140833F011D12A46CDF800A05346514620463C4DEA
S214083400A84740B93B4B984700BFFDE74D46C5E780
S2140834104FF0000AD0E7636A20469847039B984710
S2140834203B680546984201D22E4B9847DFF8CC9069
S2140834303D60314F002305A91A46D9F80000B84761
S2140834400028A0D0079C1CB163690BB1201DC0479B
S214083450059E022E2ED0032E3AD0002EEAD1A16960
S214083460069B2A4619442046204FB8470128E0D133
S214083470636A20469847E369012BDAD1A269069960
S21408348020460A44009633463146194CA047002881
S214083490CFD1184B984700BFFDE7184BA91B1868F3
S2140834A0174B9847A0470028B8D1164B9847B5E75A
S2140834B0A047B3E70699A16119B90E4B984700BF14
S2140834C0FDE72B462A4629442046084CA047B0E785
S2140834D020460D4B9847ACE7652B0800752B08006F
S2140834E070AD0720FD320800A92C08002532080018
S2140834F0B13208005D2108001527080074AD0720C2
S214083500692808004D2108005D230800DB20080014
S21408351040AD072070B50F480F4CA0473E2100204D
S2140835200E4B98470E4DA8470028FCD00D4B9847E1
S2140835300D4A0E4B0E4D9A62A8470028FCD00D4B3C
S214083540102098470C4B98472346BDE87040014822
S214083550184700BF00BD01058D0007205139080037
S21408356099390800A9390800013F0D2000060E40C9
S214083570B93908000D390800893A08004FF40042A6
S214083580174B10B50B205A60164CA0470C20A047C6
S2140835900D20A0470E20A047134C4FF060513B204B
S2140835A0A0474FF060515520A0474FF06051562075
S2140835B0A0470E496820A0470D495C20A0470D4B40
S2140835C00D4A4FF440710D4898474FF000612B2084
S2140835D0A0472346BDE810404FF000612A20184750
S2140835E0501A0E40C9390800CD3608007900002860
S2140835F0010000289137080001000008000E0E4060
S214083600B1F1805F426417D005D819B1B1F1006FE7
S2140836100BD042607047B1F1405FFBD0B1F1605FFC
S214083620F8D0B1F1205FF4D17047036F016F0B40FB
S21408363023EA02030367ECE7036F1343FAE7D307AB
S21408364041644CBF4166016612F00A0F14BF01625E
S2140836504162930704D5C0F8801041610160704745
S214083660130748BFC0F88410F7E710B5029C4164FA
S2140836703CB141663BB101653AB101630161016045
S21408368010BD0166F6E74165F6E74163F6E70164B3
S2140836907047C06C7047806C7047D3060ED593068B
S2140836A0C0F8B0104CBFC0F8D410C0F8D0105306FD
S2140836B04CBFC0F8C010C0F8C4107047C0F8B410AB
S2140836C070470000004B18479B360800F7B54509B9
S2140836D00E4605F5001501F0F04105F20775B1F143
S2140836E0205F4FEA452542D007D8B1F1006F1ED0BB
S2140836F0B1F1805F2BD0002027E0B1F1405F02D007
S214083700B1F1605FF7D1012406F0605200F01F01A6
S21408371002F1484006EA0403424200934241C6F3D7
S2140837208003284604FA01F1164DA84728E0012729
S21408373000F01F0407FA04F428462246124B98475E
S2140837403846F6074CBF6C662C6603B0F0BD00F032
S2140837501F01012000FA01F169642B6FF40743EAA0
S21408376001032B6769604CBF69662966EDE701248B
S21408377000F01F01324604FA01F12846034B984729
S2140837802046E2E76B360800013608003F36080098
S21408379002F0F043B3F1205F73B504460D461646B3
S2140837A02FD007D8B3F1006F1AD0B3F1805F22D0BC
S2140837B000201EE0B3F1405F02D0B3F1605FF7D19E
S2140837C006F0605202F1484106F001034A420093AF
S2140837D04A412046C6F3800329460B4CA04707E01B
S2140837E00A461946094B9847F0074CBF6566256692
S2140837F0012002B070BD6164036F0B43036761600C
S214083800F2E7034B9847F3E76B36080001360800E3
S2140838103F360800F8B50F4B04460E4698470E4B41
S214083820054620469847054013D00C4C04F160071F
S2140838302368B34208D16168294205D0E368304658
S2140838409847636825EA0305BC4202D01034002D69
S214083850EED1F8BD933608009736080078AD0720F5
S2140838602DE9F843164E894634681146062CB446A8
S21408387023D80026134F5FFA86F8444510D2089AD4
S2140838800134AB60EA6044451A46C5F800906960A2
S2140838900D4B08BFCCF8008098470020BDE8F88399
S2140838A04FEA081E57F80E2007EB0E054A4502D1C8
S2140838B06A688A42E3D00136DDE70120BDE8F8836E
S2140838C0E8AD072078AD0720C53608000B2101486B
S2140838D0014B1847000E0E40153808000C21014809
S2140838E0014B184700100E40153808000D210148F6
S2140838F0014B184700120E40153808000E210148E3
S214083900014B184700140E40153808000F4B1A6B69
S21408391022F07002104340F601021863996E0807F9
S2140839200CD51A6B22F0030242F002021A6340F624
S2140839300102996E090705D500207047013AEDD1B6
S21408394001207047013AF4D1FAE700BF00060E409E
S2140839500E4A136A28B10E4919400E4B0B431362E0
S214083960704723F45C1323F00303090243F45C1343
S21408397089B243F001030B431362936EDB07FCD551
S214083980136A43F09B7343F48033E8E700060E405F
S214083990FCFFC8FE02003701024B986E00F4803028
S2140839A0704700BF00060E404FF00052014B9A6267
S2140839B0704700BF00060E40024B986E00F00200EB
S2140839C0704700BF00060E402C2818D81F280D4A3E
S2140839D04FF0010308D8916903FA00F030EA0103B2
S2140839E000D01061002070472038D2F8081103FA7A
S2140839F000F030EA0103F5D0C2F80001F2E7012032
S214083A00704700BF00060E40FEE7000008B5154ADE
S214083A10154B9A4219D10021144B154A93421DD3CF
S214083A20144B154A23F0604121F07F0103F16043EF
S214083A30B3F5801F91603EBF936843F000539360D0
S214083A400E4B98470E4B9847FEE70E49043A8B42B2
S214083A50E1D252F8040F43F8040BF8E743F8041BC6
S214083A60DCE700BF4487080000000720280B072073
S214083A7080AE07200000080000ED00E0FD500800BA
S214083A80993B0800280B072010B52B4A136B03F048
S214083A900303012B294B0FD004D3116ACC012CD574
S214083AA0274946E02749496908064CBF4FF40041B4
S214083AB04FF4FA4119600DE0116AC90101D5204991
S214083AC0F8E721491960116A01F07001102912D02F
S214083AD02029F4D0116B01F07001702905BF03216D
S214083AE01A68116BB2FBF1F21EBF1A68C1F3021115
S214083AF0CA401A6010BD1549DCE713491960116AF7
S214083B0001F07001102913D02029C9D0116B01F0DB
S214083B100301022901BF946A1968C4F30A4404FB26
S214083B20011109BF906A0A49C0B2B1FBF0F1C1E7BA
S214083B3006491960EAE700BF00060E40780107202C
S214083B40001BB700101A0E4000093D0000127A004C
S214083B50001C4E0E074B1A680AB9074A1A601A68FC
S214083B60064910448142A6BF186010464FF0FF3041
S214083B70704700BFECAD072080CE0720FC7F0820EA
S214083B804FF0FF3070474FF4005300204B607047EB
S214083B90012070470020704708B5024B9847002060
S214083BA008BD00BF1D1F0800F8B5C1F30A56A6F2E7
S214083BB0FF35132D0A460B46044611DC002D2EDB76
S214083BC08E46204929410A4225D04FF40023002674
S214083BD02B41734423EA0103194634462046F8BDB0
S214083BE0332D05DDB5F5806F1FD011462046F8BD8C
S214083BF04FF0FF31A6F2134621FA06F63042F4D00B
S214083C000121C5F1330201FA02F2121828BF5B1827
S214083C1022EA0606E0E70028D7D11146E6E701358E
S214083C2001F0004307D00026D6E702460B4600F010
S214083C30A7FA0446D2E743F07F5343F4401300261E
S214083C40CAE700BFFFFF0F0000F002B80000000040
S214083C502DE9F84F5442144323F00049DFF8C0E139
S214083C6049EAD474744506460D4640D8444204438F
S214083C7021F0004B4BEAD47474458A4637D803F1D2
S214083C80404404F5801414434AD09C1704F00204F8
S214083C9044EAD17450EA0B0131D052EA090137D010
S214083CA0F14552D0F34533D0ABEB09094FEA295911
S214083CB0B9F13C0F3BDC002B66DB3046294600F0AA
S214083CC03BFD00F053FA00F0AFF8012C58D0022C58
S214083CD048D0002C5ED040A3D3E9002300F04EFA6B
S214083CE03FA3D3E9002300F049FABDE8F88F104651
S214083CF0194632462B4600F043FABDE8F88F022CE8
S214083D0019D0032C10D138A1D1E90001BDE8F88FED
S214083D10BAF1000F14DB36A1D1E90001BDE8F88F2F
S214083D20BDE8F84F00F080B82946BDE8F88F30A106
S214083D30D1E90001C9E72AA1D1E90001BDE8F88F59
S214083D402DA1D1E90001BDE8F88FCB4524D0022C7F
S214083D50F1D0032CD7D0012C4FF0000027D000213B
S214083D60BDE8F88F1CA3D3E9002300F007FA024643
S214083D700B461BA1D1E9000100F000FABDE8F88F58
S214083D8001F10041BDE8F88F19F13C0F95DA0020E3
S214083D9000219AE7BDE8F88F022C16D0032C0FD026
S214083DA0012C08D016A1D1E90001BDE8F88F4FF024
S214083DB00041BDE8F88F14A1D1E90001BDE8F88FED
S214083DC013A1D1E90001BDE8F88F13A1D1E90001DC
S214083DD0BDE8F88FAFF30080075C143326A6A13C35
S214083DE0182D4454FB210940182D4454FB2109C0C2
S214083DF0182D4454FB21F93F182D4454FB21F9BFD4
S214083E00182D4454FB21E93F182D4454FB21E9BFE3
S214083E10D221337F7CD902C0D221337F7CD902409D
S214083E200000F07F000000002DE9F84FC24B21F09B
S214083E3000469E420D468A46044610DDBF4B9E420B
S214083E4000F3B58000F0B080BD4BBE49BE4CBAF159
S214083E50000FD8BF0B4620461946BDE8F88FBB4B67
S214083E609E4200F3C180A3F1DE739E4240F3AB800E
S214083E704FF0FF3B22462B462046294600F032FBF1
S214083E8002460B468046894600F02CFB92A3D3E9EF
S214083E90002306460F4600F025FB91A3D3E900232E
S214083EA000F06EF932463B4600F01CFB8EA3D3E9C1
S214083EB0002300F065F932463B4600F013FB8CA35E
S214083EC0D3E9002300F05CF932463B4600F00AFBD3
S214083ED089A3D3E9002300F053F932463B4600F0A5
S214083EE001FB87A3D3E9002300F04AF942464B4674
S214083EF000F0F8FA84A3D3E90023804689463046C2
S214083F00394600F0EFFA82A3D3E9002300F036F929
S214083F1032463B4600F0E6FA7FA3D3E9002300F0DA
S214083F202DF932463B4600F0DDFA7DA3D3E900239F
S214083F3000F024F932463B4600F0D4FA7AA3D3E9D7
S214083F40002300F01BF932463B4600F0CBFABBF1E3
S214083F50FF3F02460B466ED04046494600F010F931
S214083F6022462B4600F0BEFA794E7A4B4FEACB0B28
S214083F705E449B44DBE9002300F000F922462B460A
S214083F8000F0FCF80B460246D6E9000100F0F6F809
S214083F90BAF1000F04460B46BFF65DAF01F10043C9
S214083FA020461946BDE8F88F00283FF44DAF224654
S214083FB02B462046294600F0E3F804460B462046E2
S214083FC01946BDE8F88F5AA3D3E9002300F0D8F8BD
S214083FD00022614B00F016FD00283FF449AF2B463F
S214083FE020461946BDE8F88F00F0C0F85B4B04463B
S214083FF09E420D4630DCA3F550239E4255DC024611
S2140840000B4600F0BDF80022534B00F0B7F800222C
S21408401006460F464FF080432046294600F0B0F883
S21408402002460B463046394600F086FB4FF0000B3A
S21408403004460D461EE74046494600F0A1F82246CB
S2140840402B4600F04FFA0B4602462946204600F05B
S21408405095F804460B46FEE6414B9E421ADC0022C3
S214084060404B00F08BF8002206460F463D4B204694
S214084070294600F037FA0022374B00F081F802464E
S2140840800B463046394600F057FB4FF0020B044605
S2140840900D46EFE602460B460020334900F04CFB7F
S2140840A04FF0030B04460D46E4E600222A4B00F0C8
S2140840B065F8002206460F46274B2046294600F09C
S2140840C05FF802460B463046394600F035FB4FF09F
S2140840D0010B04460D46CDE611DA22E33AAD903FD1
S2140840E0EB0D76244B7BA93F513DD0A0660DB13F22
S2140840F06E204CC5CD45B73FFF8300922449C23F8A
S2140841000D5555555555D53F2F6C6A2C44B4A2BF4E
S2140841109AFDDE522DDEAD3F6D9A74AFF2B0B33F16
S214084120711623FEC671BC3FC4EB98999999C93F8E
S2140841309C7500883CE4377EFFFF0F440000F07F44
S214084140FB21F93FFB21F9BF182D4454FFFFDB3F45
S21408415070850800908508000000F03FFFFFF23FDA
S214084160FF7F03400000F83F0000F0BF21F0004149
S214084170704700BF81F0004102E000BF83F00043B3
S21408418030B54FEA41044FEA430594EA050F08BFE5
S21408419090EA020F1FBF54EA000C55EA020C7FEAA9
S2140841A0645C7FEA655C00F0E2804FEA5454D4EB26
S2140841B05555B8BF6D420CDD2C4480EA020281EAF0
S2140841C0030382EA000083EA010180EA020281EA28
S2140841D00303362D88BF30BD11F0004F4FEA01317A
S2140841E04FF4801C4CEA113102D0404261EB410189
S2140841F013F0004F4FEA03334CEA133302D052420F
S21408420063EB430394EA050F00F0A780A4F10104CA
S214084210D5F1200E0DDB02FA0EFC22FA05F2801804
S21408422041F1000103FA0EF2801843FA05F35941EA
S2140842300EE0A5F120050EF1200E012A03FA0EFC69
S21408424028BF4CF0020C43FA05F3C01851EBE37193
S21408425001F0004507D54FF0000EDCF1000C7EEBB0
S21408426000006EEB0101B1F5801F1BD3B1F5001FEE
S2140842700CD349085FEA30004FEA3C0C04F101040D
S2140842804FEA445212F5800F80F09A80BCF1004F36
S21408429008BF5FEA500C50F1000041EB045141EAB8
S2140842A0050130BD5FEA4C0C404141EB010111F4B9
S2140842B0801FA4F10104E9D191F0000F04BF014664
S2140842C00020B1FA81F308BF2033A3F10B03B3F142
S2140842D020020CDA0C3208DD02F1140CC2F10C02D2
S2140842E001FA0CF021FA02F10CE002F11402D8BF30
S2140842F0C2F1200C01FA02F120FA0CFCDCBF41EAFC
S2140843000C019040E41AA2BF01EB0451294330BDCA
S2140843106FEA04041F3C1CDA0C340EDC04F11404A7
S214084320C4F1200220FA04F001FA02F340EA03007E
S21408433021FA04F345EA030130BDC4F10C04C4F1C4
S214084340200220FA02F001FA04F340EA03002946A4
S21408435030BD21FA04F0294630BD94F0000F83F4EE
S214084360801306BF81F480110134013D4EE77FEAD1
S214084370645C18BF7FEA655C29D094EA050F08BF1D
S21408438090EA020F05D054EA000C04BF19461046FE
S21408439030BD91EA030F1EBF0021002030BD5FEA42
S2140843A0545C05D14000494128BF41F0004130BD6A
S2140843B014F580043CBF01F5801130BD01F00045BE
S2140843C045F0FE4141F470014FF0000030BD7FEA31
S2140843D0645C1ABF194610467FEA655C1CBF0B462C
S2140843E0024650EA013406BF52EA033591EA030F43
S2140843F041F4002130BD00BF90F0000F04BF00213B
S214084400704730B54FF4806404F132044FF000056D
S2140844104FF0000150E700BF90F0000F04BF0021E6
S214084420704730B54FF4806404F1320410F000454C
S21408443048BF40424FF000013EE700BF42004FEA47
S214084440E2014FEA31014FEA02701FBF12F07F43C4
S21408445093F07F4F81F06051704792F0000F14BFC1
S21408446093F07F4F704730B54FF4607401F0004505
S21408447021F0004120E700BF50EA010208BF70475C
S21408448030B54FF000050AE050EA010208BF704751
S21408449030B511F0004502D5404261EB41014FF4BA
S2140844A0806404F132045FEA915C3FF4DCAE4FF0BE
S2140844B003025FEADC0C18BF03325FEADC0C18BFA5
S2140844C0033202EBDC02C2F1200300FA03FC20FAF6
S2140844D002F001FA03FE40EA0E0021FA02F1144443
S2140844E0C1E600BF70B54FF0FF0C4CF4E06C1CEA58
S2140844F011541DBF1CEA135594EA0C0F95EA0C0FCD
S21408450000F0DEF82C4481EA030621EA4C5123EA3F
S2140845104C5350EA013518BF52EA033541F480116E
S21408452043F4801338D0A0FB02CE4FF00005E1FB21
S21408453002E506F00042E0FB03E54FF00006E1FB6B
S21408454003569CF0000F18BF4EF0010EA4F1FF04AE
S214084550B6F5007F64F5407404D25FEA4E0E6D41EE
S21408456046EB060642EAC62141EA55514FEAC520FF
S21408457040EA5E504FEACE2EB4F1FD0C88BFBCF57B
S214084580E06F1ED8BEF1004F08BF5FEA500E50F12C
S214084590000041EB045170BD06F0004646EA0101F2
S2140845A040EA020081EA0301B4EB5C04C2BFD4EB24
S2140845B00C0541EA045170BD41F480114FF0000E1D
S2140845C0013C00F3AB8014F1360FDEBF002001F08B
S2140845D0004170BDC4F10004203C35DA0C341BDC05
S2140845E004F11404C4F1200500FA05F320FA04F0D7
S2140845F001FA05F240EA020001F0004221F000410B
S21408460010EBD37021FA04F642EB06015EEA430E7D
S21408461008BF20EAD37070BDC4F10C04C4F12005AD
S21408462000FA04F320FA05F001FA04F240EA020060
S21408463001F0004110EBD37041F100015EEA430E31
S21408464008BF20EAD37070BDC4F1200500FA05F251
S2140846504EEA020E20FA04F301FA05F243EA0203D0
S21408466021FA04F001F0004121FA04F220EA0200DF
S21408467000EBD3705EEA430E08BF20EAD37070BD25
S21408468094F0000F0FD101F00046400041EB010105
S21408469011F4801F08BF013CF7D041EA060195F0E7
S2140846A0000F18BF704703F00046520043EB0303A1
S2140846B013F4801F08BF013DF7D043EA060370478E
S2140846C094EA0C0F0CEA135518BF95EA0C0F0CD099
S2140846D050EA410618BF52EA4306D1D181EA0301DF
S2140846E001F000414FF0000070BD50EA410606BFD9
S2140846F01046194652EA430619D094EA0C0F02D11E
S21408470050EA013613D195EA0C0F05D152EA033662
S2140847101CBF104619460AD181EA030101F0004180
S21408472041F0FE4141F470014FF0000070BD41F0C9
S214084730FE4141F4780170BD70B54FF0FF0C4CF4A3
S214084740E06C1CEA11541DBF1CEA135594EA0C0FC2
S21408475095EA0C0F00F0A7F8A4EB050481EA030E0F
S21408476052EA03354FEA013100F088804FEA0333F6
S2140847704FF0805545EA131343EA12634FEA0222C4
S21408478045EA111545EA10654FEA00260EF0004185
S2140847909D4208BF964244F1FD0404F5407402D2D7
S2140847A05B084FEA3202B61A65EB03055B084FEA68
S2140847B032024FF480104FF4002CB6EB020E75EB65
S2140847C0030E22BFB61A754640EA0C005B084FEA8D
S2140847D03202B6EB020E75EB030E22BFB61A75460A
S2140847E040EA5C005B084FEA3202B6EB020E75EB55
S2140847F0030E22BFB61A754640EA9C005B084FEACD
S2140848003202B6EB020E75EB030E22BFB61A7546D9
S21408481040EADC0055EA060E18D04FEA051545EAC8
S21408482016754FEA06164FEAC30343EA52734FEA71
S214084830C2025FEA1C1CC0D111F4801F0BD141EAEA
S21408484000014FF000004FF0004CB6E711F4801F4F
S21408485004BF01430020B4F1FD0C88BFBCF5E06F2F
S2140848603FF6AFAEB5EB030C04BFB6EB020C5FEA3F
S214084870500C50F1000041EB045170BD0EF0004E94
S2140848804EEA113114EB5C04C2BFD4EB0C0541EAC6
S214084890045170BD41F480114FF0000E013C90E6C3
S2140848A045EA060E8DE60CEA135594EA0C0F08BF87
S2140848B095EA0C0F3FF43BAF94EA0C0F0AD150EA86
S2140848C001347FF434AF95EA0C0F7FF425AF104619
S2140848D019462CE795EA0C0F06D152EA03353FF441
S2140848E0FDAE1046194622E750EA410618BF52EABE
S2140848F043067FF4C5AE50EA41047FF40DAF52EA92
S21408490043057FF4EBAE12E74FF0FF3C06E000BF2E
S2140849104FF0010C02E000BF4FF0010C4DF804CD3B
S2140849204FEA410C7FEA6C5C4FEA430C18BF7FEAFB
S2140849306C5C1BD001B050EA410C0CBF52EA430C29
S21408494091EA030F02BF90EA020F0020704710F1A9
S214084950000F91EA030F58BF994208BF90422CBF38
S214084960D8176FEAE37040F0010070474FEA410C31
S2140849707FEA6C5C02D150EA013C07D14FEA430C4F
S2140849807FEA6C5CD6D152EA033CD3D05DF8040BC0
S214084990704700BF8446104662468C4619466346F2
S2140849A000E000BF01B5FFF7B7FF002848BF10F1C9
S2140849B0000F01BD4DF808EDFFF7F4FF0CBF01200E
S2140849C000205DF808FB00BF4DF808EDFFF7EAFF8A
S2140849D034BF012000205DF808FB00BF4DF808ED45
S2140849E0FFF7E0FF94BF012000205DF808FB00BF3A
S2140849F04DF808EDFFF7CEFF94BF012000205DF8C4
S214084A0008FB00BF4DF808EDFFF7C4FF34BF0120D0
S214084A1000205DF808FB00BF4FEA410212F50012BD
S214084A2015D211D56FF47873B3EB625212D94FEAE8
S214084A30C12343F0004343EA505311F0004F23FAD2
S214084A4002F018BF404270474FF00000704750EA27
S214084A50013005D111F0004008BF6FF000407047E4
S214084A604FF00000704700BF4FEA4102B2F1E04342
S214084A7024BFB3F5001CDCF1FE5C0DD901F0004C38
S214084A804FEAC0024CEA5070B2F1004F40EB830088
S214084A9008BF20F00100704711F0804F21D113F1B4
S214084AA03872BCBF01F00040704741F480114FEAED
S214084AB05252C2F11802C2F1200C10FA0CF320FA76
S214084AC002F018BF40F001004FEAC1234FEAD32393
S214084AD003FA0CFC40EA0C0023FA02F34FEA4303FD
S214084AE0CCE77FEA625307D150EA01331EBF4FF086
S214084AF0FE4040F44000704701F0004040F0FE40A1
S214084B0040F40000704700BF80F0004002E000BF9D
S214084B1081F0004142001FBF5FEA410392EA030F9B
S214084B207FEA226C7FEA236C6AD04FEA1262D2EBE5
S214084B301363C1BFD218414048404140B8BF5B42EA
S214084B40192B88BF704710F0004F40F4000020F083
S214084B507F4018BF404211F0004F41F4000121F099
S214084B607F4118BF494292EA030F3FD0A2F10102E3
S214084B7041FA03FC10EB0C00C3F1200301FA03F121
S214084B8000F0004302D5494260EB4000B0F5000F44
S214084B9013D3B0F1807F06D340084FEA310102F103
S214084BA00102FE2A51D2B1F1004F40EBC25008BFB5
S214084BB020F0010040EA03007047490040EB00007F
S214084BC010F4000FA2F10102EDD1B0FA80FCACF1AE
S214084BD0080CB2EB0C0200FA0CF0AABF00EBC250AD
S214084BE052421843BCBFD0401843704792F0000F9B
S214084BF081F4000106BF80F400000132013BB5E7EE
S214084C004FEA41037FEA226C18BF7FEA236C21D063
S214084C1092EA030F04D092F0000F08BF08467047C8
S214084C2090EA010F1CBF0020704712F07F4F04D196
S214084C30400028BF40F00040704712F100723CBFA9
S214084C4000F50000704700F0004343F0FE4040F4D3
S214084C50000070477FEA226216BF08467FEA236391
S214084C600146420206BF5FEA412390EA010F40F47C
S214084C70800070474FF0000304E000BF10F00043C8
S214084C8048BF40425FEA000C08BF704743F09643AF
S214084C9001464FF000001CE050EA010208BF7047CA
S214084CA04FF000030AE000BF50EA010208BF704751
S214084CB011F0004302D5404261EB41015FEA010C66
S214084CC002BF84460146002043F0B64308BFA3F15E
S214084CD08053A3F50003BCFA8CF2083AA3EBC25340
S214084CE010DB01FA02FC634400FA02FCC2F120025F
S214084CF0BCF1004F20FA02F243EB020008BF20F096
S214084D000100704702F1200201FA02FCC2F12002FB
S214084D1050EA4C0021FA02F243EB020008BF20EAF0
S214084D20DC7070474FF0FF0C1CEAD0521EBF1CEA1E
S214084D30D15392EA0C0F93EA0C0F6FD01A4480EA0C
S214084D40010C400218BF5FEA41211ED04FF00063F5
S214084D5043EA501043EA5111A0FB01310CF0004021
S214084D60B1F5000F3EBF490041EAD3715B0040EA47
S214084D70010062F17F02FD2A1DD8B3F1004F40EB17
S214084D80C25008BF20F00100704790F0000F0CF0EA
S214084D90004C08BF49024CEA502040EA51207F3AAE
S214084DA0C2BFD2F1FF0340EAC250704740F4000089
S214084DB04FF00003013A5DDC12F1190FDCBF00F07A
S214084DC000407047C2F10002410021FA02F1C2F128
S214084DD0200200FA02FC5FEA310040F1000053EAC4
S214084DE04C0308BF20EADC70704792F0000F00F012
S214084DF0004C02BF400010F4000F013AF9D040EA18
S214084E000C0093F0000F01F0004C02BF490011F4AB
S214084E10000F013BF9D041EA0C018FE70CEAD153A9
S214084E2092EA0C0F18BF93EA0C0F0AD030F0004C29
S214084E3018BF31F0004CD8D180EA010000F00040DD
S214084E40704790F0000F17BF90F0004F084691F09B
S214084E50000F91F0004F14D092EA0C0F01D14202D5
S214084E600FD193EA0C0F03D14B0218BF084608D19E
S214084E7080EA010000F0004040F0FE4040F40000E8
S214084E80704740F0FE4040F4400070474FF0FF0C7B
S214084E901CEAD0521EBF1CEAD15392EA0C0F93EAC2
S214084EA00C0F69D0A2EB030280EA010C49024FEA14
S214084EB0402037D04FF0805343EA111143EA1013CD
S214084EC00CF000408B4238BF5B0042F17D024FF485
S214084ED0000C8B4224BF5B1A40EA0C00B3EB510F60
S214084EE024BFA3EB510340EA5C00B3EB910F24BF49
S214084EF0A3EB910340EA9C00B3EBD10F24BFA3EBCE
S214084F00D10340EADC001B0118BF5FEA1C1CE0D195
S214084F10FD2A3FF650AF8B4240EBC25008BF20F048
S214084F20010070470CF0004C4CEA50207F32C2BF9C
S214084F30D2F1FF0340EAC250704740F400004FF039
S214084F400003013A37E792F0000F00F0004C02BF6A
S214084F50400010F4000F013AF9D040EA0C0093F034
S214084F60000F01F0004C02BF490011F4000F013B8E
S214084F70F9D041EA0C0195E70CEAD15392EA0C0FF6
S214084F8008D142027FF47DAF93EA0C0F7FF470AF2E
S214084F90084676E793EA0C0F04D14B023FF44CAF71
S214084FA008466EE730F0004C18BF31F0004CCAD106
S214084FB030F000427FF45CAF31F000437FF43CAF42
S214084FC05FE700BF4FF0FF3C06E000BF4FF0010C64
S214084FD002E000BF4FF0010C4DF804CD4FEA400246
S214084FE04FEA41037FEA226C18BF7FEA236C11D090
S214084FF001B052EA530C18BF90EA010F58BFB2EB43
S214085000030088BFC81738BF6FEAE17018BF40F0C2
S214085010010070477FEA226C02D15FEA402C05D176
S2140850207FEA236CE4D15FEA412CE1D05DF8040BFB
S214085030704700BF844608466146FFE70FB5FFF78E
S214085040C9FF002848BF10F1000F0FBD4DF808ED46
S214085050FFF7F4FF0CBF012000205DF808FB00BF37
S2140850604DF808EDFFF7EAFF34BF012000205DF891
S21408507008FB00BF4DF808EDFFF7E0FF94BF0120DE
S21408508000205DF808FB00BF4DF808EDFFF7D2FFDB
S21408509094BF012000205DF808FB00BF4DF808ED1E
S2140850A0FFF7C8FF34BF012000205DF808FB00BFEB
S2140850B04FEA4002B2F1FE4F0FD34FF09E03B3EB18
S2140850C012620DD94FEA002343F0004310F0004F58
S2140850D023FA02F018BF404270474FF000007047AE
S2140850E012F1610F01D1420205D110F0004008BF4D
S2140850F06FF0004070474FF00000704770B50F4ED5
S2140851000F4D761BB61018BF002405D0013455F88D
S214085110043B9847A642F9D10A4E0B4D03F0FCFA19
S214085120761BB61018BF002406D0013455F8043B89
S2140851309847A642F9D170BD70BD00BF2487080005
S214085140248708002C870800248708000FB410B5A9
S214085150074B82B004AC54F8042B186823468168C1
S214085160019400F03BFA02B0BDE8104004B0704766
S2140851707C010720844641EA000313F0030349D163
S214085180403A23D30B6803604B6843608B688360A0
S214085190CB68C3600B6903614B6943618B698361A4
S2140851A0CB69C3610B6A03624B6A43628B6A83628C
S2140851B0CB6AC3620B6B03634B6B43638B6B836374
S2140851C0CB6BC36340304031403ADBD230320BD32E
S2140851D00B6803604B6843608B688360CB68C3606A
S2140851E010301031103AF3D20C3205D351F8043B84
S2140851F040F8043B043AF9D2043208D0D2071CBF60
S21408520011F8013B00F8013B01D30B880380604688
S214085210704700BF082A13D38B07B1D010F00303DA
S214085220AED0C3F10403D21ADB071CBF11F8013B4A
S21408523000F8013BA4D331F8023B20F8023B9FE775
S214085240043AD9D3013A11F8013B00F8013BF9D2E8
S2140852500B7803704B7843708B7883706046704782
S21408526070B4860746D0541E002A41D0CAB20346F8
S21408527002E014F1FF343BD303F8012B9D07F8D165
S214085280032C2ED9CDB245EA05250F2C45EA05454F
S21408529019D9264603F11002103E0F2E42F8105C6C
S2140852A042F80C5C42F8085C42F8045C02F1100212
S2140852B0F2D8A4F1100222F00F0204F00F04103204
S2140852C0032C13440DD91E462246043A032A46F8F0
S2140852D0045BFAD8221F22F003020432134404F0B7
S2140852E003042CB1C9B21C4403F8011B9C42FBD131
S2140852F070BC704714460346C2E700BF00290CBFBF
S214085300022200224FF4806300F000B82DE9F04333
S214085310614D83B02D6804460F4690461E4615B16B
S214085320AB6B002B64D0B8F1020F06D0B8F1010FB2
S21408533000F29F80002EC0F29C80636ED80734D59A
S2140853402146284601F0E2F8216B41B104F14003FA
S214085350994202D0284601F057FA00232363002218
S214085360B4F90C30A26162601A063AD423F44A6390
S21408537023F00303B8F1020FA3811DD001AB6A46E0
S2140853802146284601F0DEFCA3891843A081002E9A
S21408539032D1009E304601F04DFD074600286BD0FE
S2140853A0A38943F08003A38128E0A3899905C7D47D
S2140853B0A06D01F0C3FCC3E7002500260120616E3E
S2140853C004F1430243F00203A660CE07A38160619E
S2140853D02260226101D498053ED5284603B0BDE870
S2140853E0F0832169284601F00FFAB4F90C30BDE7BE
S2140853F0284601F0E3F896E7002FCBD0AB6B002BDE
S21408540033D0009BB4F90C209E421CBF42F40062C5
S214085410A281B8F1010F04BF42F00102A28192B244
S21408542012F008032760276166610ED0D1071AD5E7
S2140854300023656E764215F00105A661A36009D0C3
S2140854400025284603B0BDE8F083A360656E15F016
S2140854500105F5D19305C0D4A06D01F071FC28466E
S21408546003B0BDE8F083A660F0E7284601F0A6F88A
S214085470C7E74FF0FF35B0E7DDF80090B14504D038
S214085480484601F0D7FC074620B9B4F90C304FF06F
S214085490FF3592E74E4683E77C01072020F003019C
S2140854A010F00300C0F1000051F8043B00F1040CB2
S2140854B04FEACC0C6FF000021CBF22FA0CF2134322
S2140854C04FF0010C4CEA0C2C4CEA0C4CA3EB0C02EB
S2140854D022EA030212EACC1204BF51F8043B043055
S2140854E0F4D0C2F1000102EA0102B2FA82F2C2F175
S2140854F01F0200EBD200704740EA010313F0030FC7
S21408550070B4034624D0A2B10C78013A1C7001315D
S21408551001333CB16AB111F8014B013A03F8014B6B
S214085520002CF7D12AB100211A4403F8011B9A422D
S214085530FBD170BC70470E4651F8045BA5F10134E8
S21408554024EA050414F0803F05D1043A43F8045BC6
S214085550032AF0D8D7E73146D6E700BF2DE9F84F3B
S2140855604B6E93469C042FD59368126853B30E4629
S214085570074602F1080919E920045FEA9A0817D0D5
S2140855800024043D01E0A04510D0324655F8041F1B
S214085590384601F0B5F8431C04F10104F3D10023A2
S2140855A0CBF80830CBF80430BDE8F88FDBF80830C5
S2140855B02AF0030AA3EB0A03CBF8083009F1080916
S2140855C0002BD8D10020EAE701F004FA0023CBF834
S2140855D00830CBF80430BDE8F88F00BF2DE9F04F4F
S2140855E0ADB01D468B4690460793069018B1836B60
S2140855F0002B00F0F380DBF86430BBF90C00DF0703
S21408560081B202D48E0540F1FC808C040AD4DBF803
S214085610643040F4005123F40053ABF80C10CBF878
S214085620643089B2080740F1B380DBF81030002BED
S21408563000F0AE8001F01A030A2B00F0B5800023B4
S2140856400DF1700AD1460B93039311931093CDF87E
S2140856503CA0CDF810B098F800304446FBB1252B96
S21408566002D11CE0252B03D014F8013F002BF9D1FA
S214085670A4EB08059DB1109B119A01332A44072B09
S214085680C9F80080C9F80450119210937ADD002AF0
S21408569040F0B584D146039B10922B44039323789D
S2140856A0002B00F0E58300204FF0000304F101080A
S2140856B08DF8373062780646054603464FF0FF34C5
S2140856C008F10108A2F12001582900F2D982DFE882
S2140856D011F02802D702D7023002D702D702D70223
S2140856E0D702D702D702A0008802D702A800B802BD
S2140856F0D702A601AB01AB01AB01AB01AB01AB0115
S214085700AB01AB01AB01D702D702D702D702D7024B
S214085710D702D702D702D702D702B901D702D702D3
S214085720D702D702D702D702D702D702D702D702A4
S2140857309E01D702D702D702D702D702A201D70204
S214085740D7025A02D702D702D702D702D702D70201
S214085750D702D702D702D70261022202D702D7029F
S214085760D70276022202D702D7027B02D702FC01B2
S21408577089011002D202D7029502D702AD00D702DD
S214085780D702350209F10809039B2B44039386E7E1
S2140857905946069800F0AAFD18BBBBF80C1001F095
S2140857A01A030A2B7FF44BAFBBF90E30002BFFF61B
S2140857B046AFDBF86430DB0705D48F0503D4DBF887
S2140857C0580001F0BDFA2B4642465946069800F0A6
S2140857D049FD039003982DB0BDE8F08F00F0EEFE6B
S2140857E009E7DBF86430D90704D4BBF80C309A050F
S2140857F040F1AE844FF0FF33039303982DB0BDE815
S214085800F08FDBF8580001F099FABBF90C0081B26A
S214085810FBE607990A460D680432002D079202DA5D
S2140858206D4243F0040398F8002049E708959E0661
S21408583000F15A840799DD060A4600F1EF835806F8
S21408584040F1EC83002701220E88043107914FF0BF
S214085850000100258DF83710611C00F0178123F031
S2140858608001029156EA070140F01581002C40F0AD
S2140858705B83002A40F0B68313F00103059300F01B
S214085880558430230DF1B00B0BF8413D059BA34220
S214085890B8BF234601930DB101330193029B13F061
S2140858A00203099302D0019B02330193029B13F073
S2140858B084030A9340F01582089B019A9D1A002DCE
S2140858C040F30F82102D40F38484109BCE46102799
