S01000004672656552544F532E737265634A
S21408000088CD0720D1240800CD240800CD24080078
S214080010CD240800CD240800CD24080000000000E8
S214080020000000000000000000000000B10A080000
S214080030CD24080000000000310B08006D0B0800F6
S214080040CD240800CD240800CD240800CD240800BF
S214080050CD240800CD240800CD240800CD240800AF
S214080060CD240800CD240800000000004123080025
S21408007055230800692308007D23080000000000B7
S21408008000000000CD240800CD240800CD24080078
S214080090CD240800CD240800CD240800CD2408006F
S2140800A0CD24080000000000CD240800CD24080058
S2140800B0CD240800CD240800CD240800CD2408004F
S2140800C0CD240800CD240800CD240800CD2408003F
S2140800D0CD240800CD240800CD240800CD2408002F
S2140800E0CD240800CD240800CD240800CD2408001F
S2140800F0CD24080010B5054C237833B9044B13B14A
S2140801000448AFF300800123237010BDF80A0720C7
S21408011000000000C45808000C4B43B10C4810B54A
S2140801200C49AFF300800C48036823B910BD0A4891
S214080130036833B97047094B002BF7D0BDE8104069
S2140801401847064B002BF5D0184700BF00000000E4
S214080150C4580800FC0A0720C4580800000000001D
S21408016010B54FF400124FF020510D480D4B98472C
S21408017080B90D4C022120460C4B984740080C4B82
S214080180A3FB003080080B4B1860022120460A4B60
S214080190984710BD02210448084B984710BD00BF79
S2140801A000120E402D20080000000840C302080078
S2140801B0310CC330140B0720BB020800B30208003A
S2140801C030B583B01D20154B9847154C00220221E8
S2140801D02046144B984700212046134B984704F5B1
S2140801E0C22404F5007400224FF4001120460F4B79
S2140801F098470F4B009340234FF400120D212046DA
S2140802000C4DA8474FF4001120460B4B98474FF467
S21408021000520A4B1A6003B030BD00BF79240800AC
S2140802200000084095020800AD0208008320080078
S21408023061010800D12208000921080000E100E059
S21408024070B5094C4FF4800525602561C4F8A050A8
S21408025065631E20054EB04725633C20B04765639E
S21408026047F23050B04770BD00120E40010007201C
S214080270064B1B68064880FB03201844DB17C3EBB5
S2140802806010431E632B28BF00207047140B0720FE
S21408029009CB3D8D10B489014318022444504FF011
S2140802A0FF319962196A5A6010BC7047C0F8C410CA
S2140802B0704789010523435070478901022343503C
S2140802C0704700EB811108697047000038B5144B79
S2140802D09847002812DD134A136801331360124C3E
S2140802E0124D2B682360124B98472860114B1A78DA
S2140802F0236802FB1300104B188038BD084B98473C
S214080300002807DB064B98470028E8D10B480C4B1B
S2140803109847E4E7034A1368013B1360DFE700BF2A
S214080320150608000CAD072038AD072028AD0720B5
S214080330A115080030AD072024AD07206456080034
S2140803405127080038B5144B9847002812DD134A81
S214080350136801331360124C124D2B682360124B3E
S21408036098472860114B1A78236802FB1300104B35
S214080370188038BD084B9847002807DB064B984777
S2140803800028E8D10B480C4B9847E4E7034A136863
S214080390013B1360DFE700BF1506080018AD07200D
S2140803A020AD072040AD0720A115080030AD072076
S2140803B014AD0720645608005127080038B5144BBA
S2140803C09847002813DD134A136801331360124C4C
S2140803D0124D2B682360124B984728602368C01A72
S2140803E0104B1B7803FB00F00F4B188038BD084BEA
S2140803F09847002807DB064B98470028E7D10B48A4
S2140804000B4B9847E3E7034A1368013B1360DEE7A4
S214080410090608002CAD07201CAD072048AD0720AC
S214080420A115080030AD07204CAD0720E45508009C
S2140804305127080038B5144B9847002813DD134A8F
S214080440136801331360124C124D2B682360124B4D
S214080450984728602368C01A104B1B7803FB00F0E7
S2140804600F4B188038BD084B9847002807DB064B0B
S21408047098470028E7D10B480B4B9847E3E7034A11
S2140804801368013B1360DEE7090608003CAD072049
S21408049010AD072034AD0720A115080030AD0720A1
S2140804A044AD0720E4550800512708002DE9F0411F
S2140804B082B00024394B1C60394B1C60394B1C60D9
S2140804C0394B1C60394B1C60394B1C60394B1C601F
S2140804D0394B1C60394B1C60394B1C80394B1C60EF
S2140804E0394B1C80394B1C60394B1C80394B1C60BF
S2140804F0394B1C800122394B1A700D20384B98470F
S214080500384D22464FF400012846DFF8F880C047E9
S214080510354B009320234FF400020D212846334F15
S214080520B8474FF400012846314EB04722464FF0F0
S21408053000712846C0472F4B009320234FF00072C7
S2140805400D212846B8474FF000712846B047224686
S21408055002212846C047284B0093202302220D215B
S2140805602846B84702212846B04722464FF0005191
S2140805702846C047214B009320234FF000520D21F8
S2140805802846B8474FF000512846B0474FF4005267
S2140805901B4B1A6002B0BDE8F08100BF1CAD0720F7
S2140805A038AD072048AD072028AD072010AD072036
S2140805B020AD072034AD072040AD07202CAD07201E
S2140805C04CAD07200CAD072024AD07203CAD072016
S2140805D044AD072018AD072014AD072030AD07201E
S2140805E07924080000120E40CD020800D122080027
S2140805F009210800BD030800450308003504080063
S21408060000E100E083200800014B93F900007047E2
S214080610180B0720014B93F900007047190B0720A9
S2140806202DE9F04180B90C469046002A0FDD8F1858
S214080630084E094D306821462B6898470134BC425D
S214080640F8D14046BDE8F0814FF0FF38F9E780461C
S214080650F7E700BF58AD072050AD0720013802283D
S21408066015D82DE9F0410E4614469AB10D46DFF826
S21408067038800C4FD8F8000015F8011B3B689847DF
S21408068000280ADBA81B013CF4D1BDE8F0814FF036
S214080690FF3070471046BDE8F0814FF0FF30BDE8E8
S2140806A0F08100BF54AD072058AD072010B4AC2326
S2140806B003600B684A68B3FBF2F31B095C1E4FF62F
S2140806C0FE7294420BD803628B68436040F20223A2
S2140806D0C0F8203150230360002010BC704701206A
S2140806E0FBE7436913F0020F1ABFC161002001201F
S2140806F07047436913F0010F1DBF83690B70002014
S21408070001207047436913F0020F1DBFC1F30801AB
S214080710C161002001207047436913F0010F05D01E
S2140807208369C3F308030B600020704701207047F5
S214080730F0B583B004460D4600230193204B98423B
S2140807400DD0204B984212D01F4B984219D01F4B01
S2140807509C4220D01E4B9C4227D003B0F0BD1F46BB
S2140807601C4E29463846B0470028FAD1EFE71F4600
S214080770194E01A93846B0470028FAD1019B2B70BC
S214080780E8E71E46144C01A93046A0470028FAD1CF
S214080790019B2B70E1E71E460F4C01A93046A04787
S2140807A00028FAD1019B2B70D7E71E460A4C01A9F0
S2140807B03046A0470028FAD1019B2B70CDE700BF32
S2140807C000080E400080094000C0094000000A40AA
S2140807D000400A40F30608001907080070B50C46E2
S2140807E01E4B98420DD01E4B984213D01D4B984274
S2140807F019D01D4B98421FD01C4B984225D000207C
S21408080070BD1E461A4D21463046A8470028FAD124
S214080810012070BD1E46174D21463046A8470028C1
S214080820FAD1012070BD1E46124D21463046A84713
S2140808300028FAD1012070BD1E460E4D21463046CE
S214080840A8470028FAD1012070BD1E46094D21464A
S2140808503046A8470028FAD1012070BD00080E408F
S2140808600080094000C0094000000A4000400A40D5
S214080870E30608000507080010B5194B9847194BFA
S21408088098470B20184CA0470C20A0470D20A047DF
S2140808900E20A047154B4FF000721A61C3F8A0202F
S2140808A003F500735A61C3F8A0204FF400025A619A
S2140808B0C3F8A02003F1FF7303F5FE3301225A6143
S2140808C0C3F8A02003F17E434FF080525A61C3F864
S2140808D0A02004225A61C3F8A020002010BD00BF43
S2140808E0591F0800BD1F08007924080000100E4094
S2140808F030B585B000240394029401940123009334
S21408090023464FF4007204490448054DA847054B92
S2140809109847204605B030BD08570800BD090800AE
S214080920051308000915080030B585B00820154DD0
S214080930A847154C154B1C60154A164B1A60164AE4
S214080940164B1A60164B01934FF4E13302934FF49B
S214080950006303930820A84701A92046114B98472F
S214080960114D2B6800219868104CA0472B68002171
S2140809705868A0470E480F4CA0470F48A0470020CD
S21408098005B030BD7924080000080E4058AD072091
S214080990DD07080054AD07203107080050AD0720D2
S2140809A000BD0105AD06080048010720012908001A
S2140809B0E856080051270800F856080070B5054E96
S2140809C0054D064CB047A847A04701460448054BC6
S2140809D09847F7E7811508004102080071020800E9
S2140809E0105708005127080000F1080343604FF02D
S2140809F0FF328260C36003610023036070470023F0
S214080A000361704743685A684A6042688A605A6851
S214080A10916059604160086103680133036070475C
S214080A2010B40C68B4F1FF3F15D000F10803C26893
S214080A301268944204D35B685A6812689442FAD2E1
S214080A405A684A6091608B60596008610368013390
S214080A50036010BC70470369F2E7436882689A60CF
S214080A60836842685A6003695A68904204BF82687D
S214080A705A60002202611A68013A1A6018687047BC
S214080A8003480068006880F3088862B600DF00BF85
S214080A9008ED00E04FF0807340F8043C40F8081C6E
S214080AA0002340F80C3C40F8202C403870470000E3
S214080AB0064B19680868B0E8F00F80F309884FF00D
S214080AC0000080F311884EF00D0E704728AB072003
S214080AD04FF08052014B1A60704700BF04ED00E0EB
S214080AE0EFF311804FF0A00181F3118870470020C2
S214080AF008B5034B9847034A13680133136008BDCB
S214080B00E10A08003801072080F3118870470000C2
S214080B1008B5054A1368013B136003B108BD0020F9
S214080B20024B9847FAE700BF38010720090B080070
S214080B30EFF309800C4B1A6820E9F00F10602DE9D6
S214080B4008404FF0A00080F3118800F091FE4FF0A7
S214080B50000080F31188BDE8084019680868B0E806
S214080B60F00F80F30988704728AB072008B54FF0C8
S214080B708052054B1A60054B9847054B984700204E
S214080B80044B984708BD00BF04ED00E0E10A0800E2
S214080B90C1150800090B0800034A044B1A6007220F
S214080BA0043B1A60704700BF1F48010014E000E0CD
S214080BB010B5094B1A6842F470021A601A6842F0B7
S214080BC070421A60054B98470024054B1C60054B7D
S214080BD09847204610BD00BF20ED00E0990B08009E
S214080BE038010720810A080010B4134A00E01A46A4
S214080BF013688342FBD351685418A04209D0416851
S214080C004418A3420AD00360904218BF106010BC74
S214080C1070474068014451601046F0E7074C246866
S214080C20A34206D05B681944416013681B680360DA
S214080C30EAE70360E8E700BF20AB07201C0B0720A5
S214080C4038B504462A4B98472A4B1B688BB1002CAC
S214080C5047D004F1100212F0070F1CBF22F007025B
S214080C600832511E49F6FE7399423CD822490C6850
S214080C7016E0214A214B13600021516049F6F072B4
S214080C8098181C4D286049F6F475595199505A60C1
S214080C9018601B4A1368103B1360D8E721461C46A9
S214080CA063689A4202D92368002BF7D1114B1B6858
S214080CB09C421AD00D68103523680B6063689B1A2F
S214080CC0202B08D80E4A136861685B1A13600D4B10
S214080CD09847284638BDA018436062600A4B984774
S214080CE0F0E70025F3E70025F1E70025EFE700BF6A
S214080CF0711508001C0B072020AB0720200B0720C7
S214080D003C010720E9160800E90B080080B110B579
S214080D100446084B9847084A54F80C3C11680B449C
S214080D201360A4F11000054B9847054B984710BD73
S214080D30704700BF711508003C010720E90B080042
S214080D40E916080010B50446036C5BB903681BB1C6
S214080D50A36B0133A36310BD4068124B984700236A
S214080D606360F5E76AB91A4680680F4B9847A36828
S214080D70226C1344A36062689342E9D32368A36095
S214080D80E6E71A46C068084B9847226C5242E36862
S214080D901344E36021688B42DAD263681A44E2603F
S214080DA0D6E700BF9D1B08007927080038B503461C
S214080DB0006858B11A6CDC681444DC605D68AC42A4
S214080DC028BFD8600846D968014B984738BD00BF89
S214080DD079270800F8B504461F4B9847A36C002BE4
S214080DE014DD636A93B104F124061C4D1C4F07E01A
S214080DF0A36C013BA364A36C002B07DD636A2BB1CD
S214080E003046A8470028F3D0B847F1E74FF0FF333D
S214080E10A364144B9847104B9847636C002B14DD5B
S214080E20236993B104F110060C4D0D4F07E0636C6F
S214080E30013B6364636C002B07DD23692BB13046E6
S214080E40A8470028F3D0B847F1E74FF0FF336364AC
S214080E50044B9847F8BD00BFF10A0800B51908000A
S214080E60E51A0800110B080038B508B30D46044605
S214080E70174B98472268216CE36B03FB01F3D018E5
S214080E8060600020A063A2605B1A1344E3604FF022
S214080E90FF336364A36495B923692BB104F110008A
S214080EA00C4B9847012807D00B4B9847012038BDB4
S214080EB00A4B984700BFFDE7094B9847F4E704F14B
S214080EC01000084DA84704F12400A847ECE700BF27
S214080ED0F10A0800B5190800110B0800E10A080015
S214080EE0D10A0800E9090800F8B5D8B10D46174632
S214080EF0064650200D4B9847044698B105FB06F069
S214080F0001300A4B9847206048B1E6632564012102
S214080F102046074B984784F84D702046F8BD204673
S214080F20044B9847044B984700BFFDE7410C080060
S214080F30690E08000D0D0800E10A08002DE9F04FBB
S214080F4085B0019248B188469946044649B10027BB
S214080F50384EDFF80CA1384D2EE0384B984700BFC6
S214080F60FDE7036C1BB1354B984700BFFDE700272C
S214080F70EEE74A4641462046314B9847636A2BB906
S214080F802D4B9847012005B0BDE8F08F04F12400EA
S214080F902C4B98470128F3D12B4B9847F0E7264B64
S214080FA098470020EFE702A8D0470FE02046274BD7
S214080FB09847274B98470127B047A26BE36B9A429E
S214080FC0D7D3019B002BEAD0002FECD0A847214BA3
S214080FD09847B047636CB3F1FF3F04BF00236364D0
S214080FE0A36CB3F1FF3F04BF0023A364A84701A97D
S214080FF002A8194B9847A8B9B047D4F838B0E76B99
S214081000A847BB45D2D1019904F11000134B984765
S21408101020460E4B98470E4B98470028CBD10A4BD4
S2140810209847C8E72046094B9847094B9847002039
S214081030A9E700BFF10A0800110B0800E10A08003A
S214081040450D0800B5190800D10A0800D50D080096
S214081050E916080071150800611A08001119080039
S214081060391A08002DE9F04190B10E461546984603
S214081070044689B11B4B98470746A26BE36B9A4216
S21408108011D300243846184B98472046BDE8F0810F
S214081090144B984700BFFDE7036C002BEAD0114BB2
S2140810A0984700BFFDE74246314620460F4B984713
S2140810B0A36CB3F1FF3F0AD1636A6BB104F1240055
S2140810C00B4B984750B15DB101242C60DAE7A36C4E
S2140810D00133A3640124D5E70124D3E70124D1E72B
S2140810E00124CFE7E10A0800090B0800450D0800AF
S2140810F0B51908002DE9F04784B0019248B1884632
S2140811009946044649B10027464EDFF84CA1464D9D
S2140811104BE0464B984700BFFDE7036C1BB1434BBB
S214081120984700BFFDE70027EEE7E56841462046FA
S2140811303F4B9847B9F1000F17D1A36B013BA36348
S214081140236813B93B4B9847606023693BB104F1A9
S2140811501000394B9847012801D1384B9847324B35
S2140811609847012004B0BDE8F087E560636A002B65
S214081170F5D004F12400304B98470028EFD02F4BC9
S2140811809847ECE7284B98470020EBE702A8D0479B
S21408119014E0B04760682A4B9847A8472CE02046DA
S2140811A0284B9847284B98470127B047A36B002B36
S2140811B0BBD1019B002BE5D0002FE7D0A847234BD7
S2140811C09847B047636CB3F1FF3F04BF00236364DE
S2140811D0A36CB3F1FF3F04BF0023A364A84701A98B
S2140811E002A81B4B9847B0B9B047A76BA847002F73
S2140811F0D5D12368002BCCD0019904F12400154BD7
S214081200984720460F4B98470F4B98470028CBD156
S2140812100A4B9847C8E720460A4B98470A4B984710
S21408122000209FE7F10A0800110B0800E10A0800F1
S214081230AD0D0800F11A0800B5190800D10A080013
S2140812401D1B0800D50D0800E916080071150800D2
S214081250611A080011190800391A080038B504463A
S2140812600D460E4B9847636CB3F1FF3F04BF00234F
S2140812706364A36CB3F1FF3F04BF0023A364084B69
S2140812809847A36B1BB12046064B984738BD29469E
S21408129004F12400044B9847F5E700BFF10A08005C
S2140812A0110B0800D50D08007119080010B50F4B72
S2140812B01B6858600E4B1B6898420ED304460D4BAD
S2140812C018680A4B196804310B4B98470B4B1B6878
S2140812D09C423CBF094B1C6010BD094B1868034B69
S2140812E019680431044B984710BD00BF28AB072087
S2140812F024AC07202CAB0720210A08004001072051
S21408130030AB07202DE9F84F0A9FDDF82C900C9E8D
S21408131048B1884615469B468246042F07D9604B37
S214081320984700BFFDE75E4B984700BFFDE74C2097
S2140813305C4B98470446002854D0002E48D00663D5
S214081340AA00A5213046584B984705F18045013D2F
S214081350236B03EB850323F007050A22414604F1B5
S2140813603400524B9847002384F83D30E762A76460
S21408137004F1040840464E4EB04704F11800B04742
S2140813802461C7F10503A36164625A46514628469C
S214081390484B9847206010F0070F27D1B9F1000F87
S2140813A001D0C9F80040444B9847444A13680133B3
S2140813B01360434B1B68EBB1424B1B68002B40D1B4
S2140813C03F4B1B68DB6A9F4224BF3D4B1C6038E0DE
S2140813D0A800344B9847064620630028B0D120461C
S2140813E0394B98474FF0FF30BDE8F88F2C4B98479D
S2140813F000BFFDE7324B1C601368012B21D1334E2A
S2140814003046334DA84706F11400A84706F12800D1
S214081410A84706F13C00A84706F15000A847DFF8A1
S214081420E4904846A8472B4E3046A8472A48A8477F
S2140814302A48A8472A48A8472A4BC3F800902A4BA8
S2140814401E60E06A294B1B68984284BF274B1860C9
S214081450274A1368236401331360264B1B68984297
S21408146084BF244B186000EB80004146174B03EB03
S2140814708000214B9847214B9847124B1B684BB16D
S2140814800F4B1B68DB6A9F4207D91D4B9847012004
S214081490BDE8F88F0120BDE8F88F0120BDE8F88F79
S2140814A0E10A0800410C080065280800FD2A080023
S2140814B0FF090800950A0800F10A080098AB0720FB
S2140814C028AB0720F8AB07200D0D080034AB072023
S2140814D0E9090800C8AB0720E4AB072010AC0720D2
S2140814E0FCAB07202CAB072030AB0720B0AB07209F
S2140814F0A4AB0720ACAB0720050A0800110B0800B0
S214081500D10A0800B4AB072010B584B000230393B3
S21408151002930193009382220D490E480E4CA04771
S214081520012802D080B104B010BD0C4B98470128A2
S214081530F8D10B4B984701220A4B1A6000220A4B37
S2140815401A600A4B9847EEE7054B984700BFFDE739
S21408155020570800E917080005130800951C08001E
S214081560E10A0800F8AB072024AC0720B10B0800F6
S214081570024A136801331360704700BFA0AB072008
S21408158010B5044B9847044B1C68044B98472046F4
S21408159010BD00BFF10A080024AC0720110B080094
S2140815A010B5044B9847044B1C68044B98472046D4
S2140815B010BD00BFE10A080024AC0720090B08008C
S2140815C03D4B1B68002B6FD12DE9F0413B4B1A6849
S2140815D001321A601B68ABB9394B1B681B68002BB5
S2140815E028D1374B1968374A106818601160364991
S2140815F00A6801320A601B681B68FBB94FF0FF32A5
S214081600324B1A602D4B1A68304B1B689A4250D3DF
S2140816102B4B1B681B68CBB1294B1B68DB68DC6847
S2140816206368264A1268934216D8294E294FDFF86F
S214081630B4802FE0284B984700BFFDE7204B1B6877
S214081640DB68DB685A68214B1A60DBE74FF0FF322D
S2140816501E4B1A60BDE8F0811C4A1360BDE8F08195
S214081660E06A3B68984288BF386000EB80002946ED
S21408167008EB8000194B9847114B1B681B68002B1A
S214081680E4D00F4B1B68DB68DC6863680B4A12689B
S2140816909342E1D8251D2846B047A36A002BDFD021
S2140816A004F11800B047DBE70D4A136801331360EE
S2140816B07047BDE8F08100BFA0AB072024AC072028
S2140816C02CAB072030AB0720E0AB072040010720F3
S2140816D05B0A0800ACAB0720E10A0800050A080008
S2140816E09CAB072034AB07202DE9F8432F4B1B682B
S2140816F01BB92F4B984700BFFDE72E4B98472B4B3F
S2140817001A68013A1A601B68002B4DD12A4B1B68D1
S2140817102BB10024DFF8CC80284F294E23E0002484
S214081720284B98472046BDE8F883D8F80C30DD6883
S21408173005F11800B84705F104094846B847E86AAD
S2140817403368984288BF306000EB800049461E4BDD
S21408175003EB80001D4B98471D4B1B68EA6ADB6A43
S2140817609A4228BF0124D8F80030002BDDD1194B47
S2140817701B6893B1174B1B6843B1174D154CA84708
S2140817802368013B23602368002BF8D10022134B03
S2140817901A60134B98470124C2E7012CF6D00F4B6A
S2140817A01B68012BBCD1F1E70024B9E7A0AB0720E2
S2140817B0E10A0800F10A080098AB07205B0A08004F
S2140817C0ACAB0720110B080034AB0720050A08004D
S2140817D028AB07209CAB0720C1150800DCAB072008
S2140817E0D10A0800E4AB072080B5164DDFF87880EC
S2140817F0154E24E0154B1B68012B1ED82B68002BB2
S214081800F8D0C0473468B847002CF7D0104B984734
S214081810F368DC68201D0F4B98470F4A1368013B96
S21408182013602B68013B2B600C4B9847206BDFF846
S2140818303C90C8472046C847E0E7094B9847094FF9
S214081840DCE700BFA8AB072010AC072034AB0720A6
S214081850F10A08005B0A080098AB0720110B08007D
S214081860D10A0800E9160800711508000D0D0800D1
S214081870214B1B68EBB910B5204B1B6803EB8303A1
S2140818809B001F4AD358C3B91C4B1B686BB11B4A35
S2140818901B491368013B1360136803EB830351F875
S2140818A0233053B91368002BF3D1164B984700BF63
S2140818B0FDE70122144B1A607047104B1B68104A4C
S2140818C09900C81802EB80004468646844601944AC
S2140818D002460832944209D003EB8303084A02EB17
S2140818E083035B68DA68094B1A6010BD6068044AAF
S2140818F002EB81025060EFE7A0AB0720ACAB0720F5
S21408190034AB0720E10A0800DCAB072028AB072029
S21408191038B590B10C460E4D296818310D4B9847CE
S214081920286804300C4B9847B4F1FF3F09D00B4B9E
S214081930186820440A4B984738BD0A4B984700BF9A
S214081940FDE7296804310848084B984738BD00BFAA
S21408195028AB0720210A08005B0A080024AC0720E9
S214081960AD120800E10A0800FCAB0720050A0800CB
S21408197038B578B10D46094C21681831084B984798
S21408198020680430074B9847074B18682844074BCD
S214081990984738BD064B984700BFFDE728AB072099
S2140819A0050A08005B0A080024AC0720AD120800E8
S2140819B0E10A080038B5C368DC681CB304F11805EA
S2140819C02846154B9847154B1B68FBB9251D284616
S2140819D0114B9847E06A124B1B68984284BF104B1D
S2140819E0186000EB800029460E4B03EB80000E4B78
S2140819F098470E4B1B68E06ADB6A984234BF0020A3
S214081A00012038BD0A4B984700BFFDE7294609481C
S214081A10054B9847EDE700BF5B0A0800A0AB072018
S214081A20ACAB072034AB0720050A080028AB072014
S214081A30E10A0800E4AB072008B530B1054A126889
S214081A400260054A1268426008BD044B984700BF0A
S214081A50FDE700BFE0AB072024AC0720E10A08003A
S214081A6038B5E8B10D460446F1B1184B98472B68CF
S214081A70B3F1FF3F26D0164A12682168914204D077
S214081A80144A1268616891421ED9124A126861683F
S214081A90521A93420CD801240F4B9847204638BD5B
S214081AA00E4B984700BFFDE70C4B984700BFFDE775
S214081AB0084A1268521A9B1A2B602046084B984709
S214081AC00024E9E70024E7E70124E5E7F10A08002F
S214081AD0E0AB072024AC0720110B0800E10A080039
S214081AE0391A08000122014B1A607047DCAB072040
S214081AF0014B1868704700BF28AB0720054B1B68CA
S214081B0033B1054B1B68002B0CBF01200220704721
S214081B1000207047F8AB0720A0AB0720002831D07C
S214081B2038B50546C36A18490968C96A8B4211D28E
S214081B3015490968C96AC1F10501816103EB830388
S214081B40124901EB83034169994204D00E4B1B6886
S214081B50DB6AC36238BD041D20460D4B98470A4B06
S214081B601B68D86AE8620B4B1B68984284BF094B0F
S214081B70186000EB80002146044B03EB8000064B00
S214081B80984738BD704700BF28AB072034AB0720FE
S214081B905B0A0800ACAB0720050A0800E8B138B5B0
S214081BA00446C16A826C914216D0051D28460B4B26
S214081BB09847A06CE062C0F10503A361084B1B6858
S214081BC0984284BF064B186000EB80002946054BF8
S214081BD003EB8000044B984738BD70475B0A080043
S214081BE0ACAB072034AB0720050A080008B54160EF
S214081BF0006191420CD8D21A83699A4201D3012017
S214081C0008BD011D094B1868094B9847002008BDF8
S214081C109A4201D2994206D2011D064B1868044B17
S214081C209847002008BD012008BD00BF2CAC07203F
S214081C30210A080028AC072070B50D4B98470D4BB5
S214081C401B6813B10C4B984770BD0C4D28460C4EBC
S214081C50B0470C4C2046B0470B4B1D600B4B1C6026
S214081C6000220C2105200A4B9847024B1860E9E72A
S214081C70F10A08005CAC0720110B080030AC0720FE
S214081C80E909080044AC072028AC07202CAC07203C
S214081C90E90E080010B584B00B4B98470B4B1B6831
S214081CA073B10023039302930193042200924FF426
S214081CB0827207490748084CA04708B104B010BD0F
S214081CC0064B984700BFFDE7391C08005CAC0720A8
S214081CD028570800E51D080005130800E10A080053
S214081CE030B585B00F4C2568D5B11C4601910292D7
S214081CF003903BB10023224601A928460A4CA04778
S214081D0005B030BD094B984701284FF000030CBFBB
S214081D10089A1A4601A903480068054CA047EFE749
S214081D200020EDE75CAC072065100800FD1A0800E7
S214081D303D0F08002DE9F04782B08146214B9847B1
S214081D408046214B1B68984215D30023C9F80030FB
S214081D501D4BC3F80080404602B0BDE8F08700215E
S214081D6000910B4652462046184CA04728B9184BF7
S214081D70984700BFFDE7174E174F33681A68C2B179
S214081D80DA68D2F800A0DB68DC68251D2846B84764
S214081D90636A20469847E369012BEED1A36953444A
S214081DA09A45DCD263602461294630680B4B984715
S214081DB0E3E70B4A10680749086013600123C9F86F
S214081DC00030C5E78115080058AC0720E11C08005C
S214081DD0E10A080028AC07205B0A0800210A080068
S214081DE02CAC07202DE9F04186B0DFF868814D4B12
S214081DF01B681A68002A00F08980DB681D684A4B51
S214081E00984703A8494B98470646039B002B40F083
S214081E108680A8420FD2A91B454B1868454B9847A1
S214081E20454B984708B9454B984702A83F4B9847F3
S214081E3007463F4E36E0404B98473A4B1B68DB68F0
S214081E40DC68201DC047E369012B14D1A1692B4625
S214081E503246294420463A4EB04701280BD1002185
S214081E6000910B462A462046364DA84718B9364BE9
S214081E70984700BFFDE7636A20469847D5E70025E0
S214081E80C9E70499A16131B13B463A463944204630
S214081E902B4CA04706E02C4B984700BFFDE7204692
S214081EA02A4B98472A4D00231A4603A93068A847A4
S214081EB000289CD0059C1CB163690BB1201DC04747
S214081EC0039B022BDDD0032BE9D0002BEBD1049922
S214081ED0A0690B463A4601442046194DA8470128F2
S214081EE0E0D1636A20469847E369012BDAD1A269F4
S214081EF0002100910B46049802442046114CA04746
S214081F000028CFD1104B984700BFFDE7064B9847EF
S214081F1003A8064B98470646039B002BAFD0064BF4
S214081F20984782E728AC072071150800351D080079
S214081F305CAC07205D120800E9160800D10A080004
S214081F40ED1B0800E11C0800E10A08000D0D08005A
S214081F50F51008005B0A080010B50E480E4B9847A7
S214081F603E2100200D4B98470D4CA0470028FCD07A
S214081F700C4B98470C4A0D4B9A620D4CA04700280C
S214081F80FCD010200B4B98470B4B98470148024B48
S214081F90984710BD00BD0105B1000720F5230800CD
S214081FA04924080059240800013F0D2000060E4069
S214081FB069240800912308006925080010B54FF425
S214081FC00042124B5A600B20114CA0470C20A04729
S214081FD00D20A0470E20A0474FF060513B200D4C27
S214081FE0A0474FF060515520A0474FF0605156204B
S214081FF0A04709496820A04708495C20A047084A26
S2140820004FF440710748084B984710BD501A0E40C9
S2140820107924080015210800790000280100002806
S21408202001000008000E0E40E521080021F00061BE
S214082030B1F1405F0CBF836BC36B134214BF012022
S214082040002070474264B1F1805F16D00BD849B1C2
S214082050B1F1006F05D1036F016F0B4023EA02034D
S214082060036742607047B1F1405FFBD0B1F1605F33
S214082070F8D0B1F1205FF4D17047036F13430367BC
S214082080EFE7416412F0010F14BF4166016612F0D3
S2140820900A0F14BF0162416212F0020F07D112F054
S2140820A0080F18BFC0F88410416101607047C0F877
S2140820B08010F9E710B4019C416444B9016643B145
S2140820C0016542B941630161016010BC7047416611
S2140820D0F5E74165F5E70163F5E712F0100F10D054
S2140820E0C0F8B01012F0200F14BFC0F8D410C0F813
S2140820F0D01012F0400F14BFC0F8C010C0F8C410BB
S2140821007047C0F8B410704701647047C06C7047D9
S214082110806C704770B582B00D46430903F500130E
S21408212003F207735C0201F0F043B3F1205F31D08D
S21408213016D8B3F1006F1BD0B3F1805F16D100F04C
S2140821401F000126864032464FF080512046224B1B
S214082150984715F0010F14BF66662666012017E03B
S214082160B3F1405F21D0B3F1605F1ED000200FE0CE
S21408217000F01F000126864032464FF000612046D8
S214082180154B984715F0010F14BF666626660120A2
S21408219002B070BD00F01F0101262A4606FA01F1BA
S2140821A020460E4B98473046F2E705F0605200F09E
S2140821B01F01012605EA06030093C5F38003B2F162
S2140821C0605F14BF0022012206FA01F12046044C83
S2140821D0A0473046DCE700BF4520080083200800FB
S2140821E0B520080070B582B005460E46144602F0C3
S2140821F0F043B3F1205F27D011D8B3F1006F16D0A3
S214082200B3F1805F11D10A464FF08051194B9847B9
S21408221014F0010F14BF6E662E66012012E0B3F1AB
S214082220405F15D0B3F1605F12D000200AE00A467E
S2140822304FF000610F4B984714F0010F14BF6E66FD
S2140822402E66012002B070BD0B4B98470120F9E7B7
S21408225004F0605204F001030093C4F38003B2F163
S214082260605F14BF0022012231462846034CA0476F
S2140822700120E7E74520080083200800B52008006D
S2140822802DE9F041044688460E4B984705462046F9
S2140822900D4B9847054013D00C4C04F1600603E03C
S2140822A0B4420DD010345DB120684045F8D161685D
S2140822B02942F5D0E3689847636825EA0305EFE7FF
S2140822C0BDE8F0810D2108001121080060AC072048
S2140822D0F8B5184C2668062E29D84FF0000C644628
S2140822E0154F04E00134E4B2A446A64209D3A64634
S2140822F025017D598D42F5D107EB04156D68954289
S214082300F0D10D4D4FEA0E1E05EB0E0445F80E10E3
S2140823106260A3600699E1600136664504BF054918
S2140823200E6011461A46054B98470020F8BD012056
S214082330F8BD00BFD0AC072060AC0720DB20080043
S21408234008B50B210148024B984708BD000E0E4001
S2140823508122080008B50C210148024B984708BDA1
S21408236000100E408122080008B50D210148024BD6
S214082370984708BD00120E408122080008B50E21B5
S2140823800148024B984708BD00140E4081220800F9
S214082390174A136B23F0700318431063936E13F0F9
S2140823A0080F0AD14FF4006311498A6E12F0080F1D
S2140823B003D1013BF9D1012070470D4A136B23F076
S2140823C0030343F002031363936E13F0080F0AD156
S2140823D04FF4006306498A6E12F0080F05D1013BD8
S2140823E0F9D101207047002070470020704700BFD1
S2140823F000060E40C8B9114A136A090289B223F4C6
S2140824005C1323F0030343F45C1343F001030B430C
S2140824101362936E13F0010FFBD0084A136A43F059
S2140824209B7343F480331362704704490B6A044A6B
S2140824301A40044B13430B62704700BF00060E4059
S214082440FCFFC8FE02003701024B986E00F480308D
S214082450704700BF00060E404FF00052014B9A62CC
S214082460704700BF00060E40024B986E00F0020050
S214082470704700BF00060E402C281ED81F280CD810
S214082480114B9A6901238340934318D0012303FA1A
S21408249000F00D4B18610020704720380A4BD3F81F
S2140824A008210123834093430BD0012303FA00F04D
S2140824B0054BC3F800010020704701207047002034
S2140824C070470020704700BF00060E40FEE7000079
S2140824D008B51C4B1C4A9A4210D01C4B194A9A4203
S2140824E00CD2013B9B1A23F003030433134416490A
S2140824F051F8040B42F8040B9A42F9D1144B154ACA
S2140825009A420AD2013B9B1A23F00303043313446E
S214082510002142F8041B9342FBD10F4B23F0604284
S21408252022F07F020D498A6003F16043B3F5801FED
S21408253003D28B6843F000538B60094B9847094BCE
S2140825409847FEE700000720C4580800F80A072046
S21408255084AD0720F80A07200000080000ED00E018
S21408256001270800D12608003D4B1B6B03F0030328
S214082570032B0ED8DFE803F0021C3838394B5B69AA
S21408258013F0800F14BF4FF400424FF4FA42364B54
S2140825901A60334B1B6B03F07003702B57D0304B0D
S2140825A01A6B3149C2F302120B68D3400B607047AE
S2140825B02B4B1B6A13F0807F03D02C4A2A4B1A60D9
S2140825C0E7E72B4A284B1A60254B1B6A03F0700373
S2140825D0102B05D0202BDCD1244A234B1A60D8E7D1
S2140825E0244A214B1A60D4E71D4B1B6A13F0807FE0
S2140825F00CD01E4A1C4B1A60194B1B6B03F00303C6
S214082600022B16D01C4A184B1A60C2E7184A164BFB
S2140826101A60134B1B6A03F07003102B05D0202B8F
S214082620EAD1124A104B1A60E6E7124A0E4B1A60B5
S214082630E2E70B4A916A926A0B48C1F30A410368BB
S21408264001FB0333D2B2B3FBF2F30360A1E7064AF9
S21408265013680A49A1FB03135B081360704700BFA1
S21408266000060E40101A0E4044010720001BB70053
S21408267000093D0000127A00001C4E0EABAAAAAA5A
S2140826800A4B1B6853B1094B1B681A180849914234
S21408269008DB1046054A106018467047054A034B83
S2140826A01A60F0E74FF0FF30704700BFD4AC072041
S2140826B0FC7F082088CD07204FF0FF3070474FF486
S2140826C000534B6000207047012070470020704779
S2140826D008B5064B9847064B9847064B9847064B4F
S2140826E09847064B9847002008BD00BF79080800A1
S2140826F029090800C1010800AD040800F10808000F
S21408270070B50F4E0F4D761BB61018BF002405D0B7
S214082710013455F8043B9847A642F9D10A4E0B4DAA
S21408272003F0BAF8761BB61018BF002406D001349A
S21408273055F8043B9847A642F9D170BD70BD00BF56
S214082740A4580800A4580800AC580800A458080064
S2140827500FB410B5074B82B004AC54F8042B1868B5
S21408276023468168019400F03BFA02B0BDE81040A9
S21408277004B0704748010720844641EA000313F076
S214082780030349D1403A23D30B6803604B68436080
S2140827908B688360CB68C3600B6903614B694361D0
S2140827A08B698361CB69C3610B6A03624B6A4362B8
S2140827B08B6A8362CB6AC3620B6B03634B6B4363A0
S2140827C08B6B8363CB6BC36340304031403ADBD2BC
S2140827D030320BD30B6803604B6843608B688360AA
S2140827E0CB68C36010301031103AF3D20C3205D3E0
S2140827F051F8043B40F8043B043AF9D2043208D0B6
S214082800D2071CBF11F8013B00F8013B01D30B8827
S21408281003806046704700BF082A13D38B07B1D0E1
S21408282010F00303AED0C3F10403D21ADB071CBFB3
S21408283011F8013B00F8013BA4D331F8023B20F81D
S214082840023B9FE7043AD9D3013A11F8013B00F856
S214082850013BF9D20B7803704B7843708B78837002
S2140828606046704770B4860746D0541E002A41D08A
S214082870CAB2034602E014F1FF343BD303F8012B37
S2140828809D07F8D1032C2ED9CDB245EA05250F2C85
S21408289045EA054519D9264603F11002103E0F2EC3
S2140828A042F8105C42F80C5C42F8085C42F8045C9B
S2140828B002F11002F2D8A4F1100222F00F0204F07E
S2140828C00F041032032C13440DD91E462246043A30
S2140828D0032A46F8045BFAD8221F22F003020432C1
S2140828E0134404F003042CB1C9B21C4403F8011BBA
S2140828F09C42FBD170BC704714460346C2E700BF33
S21408290000290CBF022200224FF4806300F000B8B2
S2140829102DE9F043614D83B02D6804460F46904676
S2140829201E4615B1AB6B002B64D0B8F1020F06D06B
S214082930B8F1010F00F29F80002EC0F29C80636EF3
S214082940D80734D52146284601F0E2F8216B41B174
S21408295004F14003994202D0284601F057FA0023B2
S21408296023630022B4F90C30A26162601A063AD4D6
S21408297023F44A6323F00303B8F1020FA3811DD0A2
S21408298001AB6A462146284601F0DEFCA3891843B7
S214082990A081002E32D1009E304601F04DFD07463C
S2140829A000286BD0A38943F08003A38128E0A3897D
S2140829B09905C7D4A06D01F0C3FCC3E7002500261F
S2140829C00120616E04F1430243F00203A660CE07BD
S2140829D0A38160612260226101D498053ED528460D
S2140829E003B0BDE8F0832169284601F00FFAB4F970
S2140829F00C30BDE7284601F0E3F896E7002FCBD069
S214082A00AB6B002B33D0009BB4F90C209E421CBF46
S214082A1042F40062A281B8F1010F04BF42F001023D
S214082A20A28192B212F008032760276166610ED071
S214082A30D1071AD50023656E764215F00105A66102
S214082A40A36009D00025284603B0BDE8F083A3603C
S214082A50656E15F00105F5D19305C0D4A06D01F09B
S214082A6071FC284603B0BDE8F083A660F0E7284668
S214082A7001F0A6F8C7E74FF0FF35B0E7DDF800909D
S214082A80B14504D0484601F0D7FC074620B9B4F94A
S214082A900C304FF0FF3592E74E4683E74801072093
S214082AA020F0030110F00300C0F1000051F8043BC9
S214082AB000F1040C4FEACC0C6FF000021CBF22FA9F
S214082AC00CF213434FF0010C4CEA0C2C4CEA0C4C5D
S214082AD0A3EB0C0222EA030212EACC1204BF51F856
S214082AE0043B0430F4D0C2F1000102EA0102B2FA53
S214082AF082F2C2F11F0200EBD200704740EA0103DF
S214082B0013F0030F70B4034624D0A2B10C78013A30
S214082B101C70013101333CB16AB111F8014B013A1E
S214082B2003F8014B002CF7D12AB100211A4403F808
S214082B30011B9A42FBD170BC70470E4651F8045BE5
S214082B40A5F1013424EA050414F0803F05D1043ABF
S214082B5043F8045B032AF0D8D7E73146D6E700BF28
S214082B602DE9F84F4B6E93469C042FD59368126850
S214082B7053B30E46074602F1080919E920045FEA2E
S214082B809A0817D00024043D01E0A04510D032462C
S214082B9055F8041F384601F0B5F8431C04F1010443
S214082BA0F3D10023CBF80830CBF80430BDE8F88F13
S214082BB0DBF808302AF0030AA3EB0A03CBF8083040
S214082BC009F10809002BD8D10020EAE701F004FA39
S214082BD00023CBF80830CBF80430BDE8F88F00BFE8
S214082BE02DE9F04FADB01D468B46904607930690EC
S214082BF018B1836B002B00F0F380DBF86430BBF968
S214082C000C00DF0781B202D48E0540F1FC808C04EC
S214082C100AD4DBF8643040F4005123F40053ABF8D0
S214082C200C10CBF8643089B2080740F1B380DBF8A3
S214082C301030002B00F0AE8001F01A030A2B00F0CB
S214082C40B58000230DF1700AD1460B9303931193B8
S214082C501093CDF83CA0CDF810B098F80030444654
S214082C60FBB1252B02D11CE0252B03D014F8013F1D
S214082C70002BF9D1A4EB08059DB1109B119A0133DE
S214082C802A44072BC9F80080C9F8045011921093FB
S214082C907ADD002A40F0B584D146039B10922B4477
S214082CA003932378002B00F0E58300204FF0000301
S214082CB004F101088DF83730627806460546034663
S214082CC04FF0FF3408F10108A2F12001582900F25C
S214082CD0D982DFE811F02802D702D7023002D702DD
S214082CE0D702D702D702D702D702A0008802D70297
S214082CF0A800B802D702A601AB01AB01AB01AB0135
S214082D00AB01AB01AB01AB01AB01D702D702D702CF
S214082D10D702D702D702D702D702D702D702B901FD
S214082D20D702D702D702D702D702D702D702D702CE
S214082D30D702D7029E01D702D702D702D702D702F8
S214082D40A201D702D7025A02D702D702D702D70261
S214082D50D702D702D702D702D702D70261022202C9
S214082D60D702D702D70276022202D702D7027B0200
S214082D70D702FC0189011002D202D7029502D702B7
S214082D80AD00D702D702350209F10809039B2B4488
S214082D90039386E75946069800F0AAFD18BBBBF8C9
S214082DA00C1001F01A030A2B7FF44BAFBBF90E3058
S214082DB0002BFFF646AFDBF86430DB0705D48F053B
S214082DC003D4DBF8580001F0BDFA2B4642465946B4
S214082DD0069800F049FD039003982DB0BDE8F08FE3
S214082DE000F0EEFE09E7DBF86430D90704D4BBF838
S214082DF00C309A0540F1AE844FF0FF3303930398E6
S214082E002DB0BDE8F08FDBF8580001F099FABBF951
S214082E100C0081B2FBE607990A460D680432002DBD
S214082E20079202DA6D4243F0040398F8002049E757
S214082E3008959E0600F15A840799DD060A4600F1B1
S214082E40EF83580640F1EC83002701220E880431F0
S214082E5007914FF0000100258DF83710611C00F02F
S214082E60178123F08001029156EA070140F0158188
S214082E70002C40F05B83002A40F0B68313F0010371
S214082E80059300F0558430230DF1B00B0BF8413D47
S214082E90059BA342B8BF234601930DB101330193A6
S214082EA0029B13F00203099302D0019B023301939D
S214082EB0029B13F084030A9340F01582089B019A3C
S214082EC09D1A002D40F30F82102D40F38484109B2A
S214082ED0CE461027A146119AC54E1946069C07E00D
S214082EE001F1020C01460EF1080E103D102D11DD01
S214082EF0481C1032072811928EE8C0001090EFDDAB
S214082F00002A40F0D981103D102D11464FF0010CD3
S214082F10D646EDDC4C466146F1462A44072911920E
S214082F20C9F80060C9F80450109100F3EB829DF8C8
S214082F30375009F10809481C002D40F0DC81099B30
S214082F40002B00F0F68102210EAB0A4407281192E6
S214082F501090C9F80410C9F8003040F3E681002A3A
S214082F6040F095830A9B0120802B1146D14640F0FD
S214082F70E481089B019D5E1B002E40F3DE81102E27
S214082F8040F33C84CC461027A1469A4D069C07E0A1
S214082F9001F1020E01460CF1080C103E102E11DD50
S214082FA0481C1032072811928CE8A0001090EFDD1C
S214082FB0002A40F09B82103E102E4FF0010E11465C
S214082FC0D446EDDC4C46E1463244BEF1070F11927A
S214082FD089E86000CDF840E000F3668309F1080947
S214082FE00EF101007146A8E1089513F0200240F0A2
S214082FF0898313F0100140F0198313F0400200F0A3
S214083000158307980A460146043106880027079163
S2140830101FE7089543F01003E7E7089543F0100309
S21408302007E743F0800398F800204BE60025A2F156
S214083030300118F8012B05EB850501EB4505A2F1D3
S21408304030010929F5D93FE60895002840F00284A2
S21408305043F010039E0600F13D830799DD060A46F5
S21408306000F1F082580640F1ED82B1F900600432B2
S214083070F717304639460792002871F10002C0F269
S2140830805A83611C9DF837504FF001027FF4E9AE71
S21408309056EA070100F04B820293012A00F08A8262
S2140830A0022A40F05A82D3460B98330943EA07733C
S2140830B0390906F00F020F461E46835C0BF8013DE1
S2140830C056EA0703F1D1AAEB0B030593E0E60028BE
S2140830D040F0BD83990600F15983DA0600F1E580D1
S2140830E05B0640F1E280079A136804320792BDF83F
S2140830F00C201A80B1E5782230210895079D8DF8B6
S21408310039202A1D07923C4A2E680B9243F0020388
S2140831108DF83810002702229BE60895002899D0DB
S2140831208DF8376096E798F80020002E7FF4CAAD31
S21408313001202026C6E543F0010398F80020C1E5E3
S2140831400895002840F080832B490B919F0600F1D4
S214083150E5820798DE06014600F16F825D0640F1BB
S2140831606C820027043106880791D80740F1208230
S21408317056EA070100F01C8230218DF8392043F00A
S21408318002038DF83810022263E60895002840F0FE
S21408319055831A490B91D9E70122079811460192DF
S2140831A002684FF000048DF848200246043208955D
S2140831B08DF83740059107920DF1480B02930024CD
S2140831C06EE643F0400398F800207BE598F8002068
S2140831D06C2A03BF98F8012043F0200308F1010881
S2140831E043F010036EE598F8002001202B2669E5C9
S2140831F064570800745708004857080034570800F2
S2140832004FF0000207990895D1F800B08DF83720DE
S2140832100D1DBBF1000F00F0E482671C00F0C382AE
S214083220224600215846019301F0C6FB019B002860
S21408323000F0E882A0EB0B020795059202939DF832
S2140832403750002424E698F8002008F101072A2AB7
S21408325000F0E982A2F130010929B8464FF00004CF
S2140832603FF632AD18F8012B04EB840401EB440456
S214083270A2F130010929F5D926E543F0200398F88C
S21408328000201FE50895002840F0DB82002A00F0A1
S214083290F18001218DF848204FF0000201918DF849
S2140832A0372005910DF1480B88E7079A1368043212
S2140832B00792039A1A60D0E40FAA04992046FFF7EB
S2140832C04FFC002840F043811099D646119A01F128
S2140832D0010C0AE60FAA04990698FFF741FC002895
S2140832E040F03581D14610999DF83750119A481C00
S2140832F0002D3FF424AE01210DF137050A440728B6
S21408330011921090C9F80410C9F8005040F30981CA
S214083310002A40F0AF81099B002B3FF423AE02221F
S2140833200846D1460EAB1D921C93014609F10809C2
S21408333001300A9B802B3FF41CAE059BE41A002C38
S2140833402FDD102C40F32082CE461026B24D069F65
S214083350DDF8109006E0881C19460EF1080E103CA1
S214083360102C10DD4B1C1032072B11928EE86000D3
S2140833701093F0DD002A65D1103C102C4FF00100A8
S2140833801146D646EEDCF146224407281192C9F8C3
S2140833900050C9F80440109000F3858009F1080928
S2140833A00130059907280A441192C9F800B0C9F8EF
S2140833B00410109040F38280002A40F01881029B87
S2140833C01092580735D5089B01995C1A002C40F3D3
S2140833D0E780D146102C40F30D82102510998F4EA9
S2140833E0069FDDF810B006E0881C194609F10809A2
S2140833F0103C102C11DD4B1C1032072B1192C9F80B
S2140834000060C9F804501093EEDD42BB103C102C47
S2140834104FF001001146D146EDDC224407281192F0
S214083420C9F80060C9F80440109051DD002A40F041
S2140834309A81039B089A01998A42ACBF9B185B182D
S21408344003934EE00FAA49463846FFF789FB002843
S21408345040F03E811099D646119A481C7FE70FAA7D
S21408346059463846FFF77CFB60B91099D146119A41
S214083470481CBDE7119BDDF810B0002B40F0CA8150
S21408348000231093DBF8643013F0010FBBF80C3000
S21408349002D19A0540F1DD805B063FF5ADAC039896
S2140834A02DB0BDE8F08F002A40F005810123D146F3
S2140834B0059ACDF870B01D921192109309F108097B
S2140834C0029B590704D5089B01995C1A002C81DCDD
S2140834D0039B089901988142ACBF5B181B1803939D
S2140834E072BB0023D1461093FFF7B7BB0FAA049907
S2140834F02046FFF735FB50BB1099D446119A01F1C8
S214083500010E4AE5002A7FF4E5AE9DF8371000293B
S21408351000F01A810122D14610460DF137011D929E
S2140835201C91014609F10809013008E5029B012AA9
S21408353000F09780022A0DD1029300260027B2E5F4
S2140835400FAA04990698FFF70BFB0028C9D0DDF8E8
S21408355010B097E7002600270293514600E0594628
S214083560F20842EA4772F80806F0070307461646C6
S214083570303356EA070201F8013C01F1FF3BEED171
S214083580029AD6077FF59FAD302B3FF49CAD3023CB
S21408359002390BF8013CAAEB010305938B4677E446
S2140835A0039B089A8A42ACBF9B185B18039398E75C
S2140835B002224EE4002F08BF0A2E51D3D3463046C7
S2140835C039460A22002301F085FE30320BF8012D19
S2140835D03046394600230A2201F07CFE06460F468E
S2140835E056EA0703EBD16EE50594D34650E40FAAD6
S2140835F004990698FFF7B4FA0028A8D1D146119A7C
S2140836005EE70FAA04990698FFF7AAFA00289ED143
S214083610D146FFF7BBBB00BF7457080064570800C5
S2140836200431166800270122079112E4079800273C
S21408363001460431066807910BE40E6804310791C9
S214083640002792E516680432F7170792304639467F
S21408365012E5DBF8580000F075FEBBF80C301BE7E7
S214083660029B029301230DF1B00B30360BF8416D27
S21408367005930DE40FAA04990698FFF771FA002837
S2140836807FF465AF1099D146119A481C57E40FAAE3
S21408369004990698FFF764FA00287FF458AF109943
S2140836A0D146119A481C44E6002A40F0878001203B
S2140836B01146D14641E60FAA04990698FFF750FA34
S2140836C000287FF444AF1098D146119A013068E676
S2140836D0CB46D7E6079D073525F0070505F108020E
S2140836E0D5E90001079206460F46C5E4079D07354B
S2140836F025F0070202F10801D2E9006707910122C6
S214083700FFF7A7BB079D073525F0070202F108015A
S214083710D2E9006707910022FFF79BBB079D073594
S21408372025F0070101F108000790D1E900671CE5BC
S214083730D346FFF7ADBB2D25764267EB47078DF8D6
S21408374037500122FFF78ABB099BB3B911460120FF
S214083750D146F2E5DBF8580000F0F4FD4FF0FF33F1
S2140837600393FFF74CBB0FAA04990698FFF7F8F9DE
S21408377000287FF4ECAE119AAAE602220EAB1D9240
S2140837801C930120D146D0E5344DFDE5079A134633
S21408379004330793039B1168DD171A462B46C1E9C5
S2140837A00023FFF75ABA584607950293FFF778F9A9
S2140837B0002405909DF83750FFF76ABB0FAA0499B6
S2140837C00698FFF7CDF900287FF4C1AE1099D146C8
S2140837D0119A481CB1E51099119A0131204EFFF74D
S2140837E09CBB062C28BF0624079505940194DFF891
S2140837F074B0E3E410981A4E01300EE68646174D6C
S214083800FFF7E2BB05940795029304469DF83750E8
S214083810FFF73EBB06980FAA5946FFF7A1F90028FE
S2140838203FF42EAE2EE6079998F801200C6804316E
S21408383044EAE474B8460791FFF744BA8DF837604F
S214083840A7E48DF8376021E58DF837607CE48DF8BD
S21408385037603FE48DF83760FFF7FABB7457080007
S214083860645708005C5708002DE9F0410C464FF0F5
S214083870000E4FF48065064617469846626EE38942
S2140838808989ADF58D6D21F002011992ADF80E30DB
S214083890E269636AADF80C1016A81AA9CDF818E004
S2140838A007920993009104910295059500F044FD4E
S2140838B043463A4669463046FFF792F9051E07DB47
S2140838C03046694600F024F9002818BF4FF0FF3547
S2140838D0BDF80C305B0603D5A38943F04003A381EB
S2140838E0169800F02BFD28460DF58D6DBDE8F08185
S2140838F038B5304B054618680C4610B1836B002B5C
S21408390038D0B4F90C2093B218070CD52069A8B1A2
S21408391013F001021ED000226369A2605B42A36115
S214083920F0B1002038BDD9063BD5580725D4206904
S21408393042F00803A3819BB20028E9D103F4207261
S214083940B2F5007FE4D02846214600F02BFDA38977
S2140839502069DDE7990758BF6269A2600028E0D1B0
S214083960B4F90C301A06DDD543F04003A3814FF0B6
S214083970FF3038BD00F024F9C3E7216B51B104F1DC
S2140839804003994204D0284600F040FAB4F90C20C7
S214083990002323630023206922F0240284E8090018
S2140839A0C6E7092342F040022B604FF0FF30A281A1
S2140839B038BD00BF48010720024B13B1024800F08B
S2140839C005B8704700000000393C0800002301468F
S2140839D01A46184601F056BBB1F90C302DE9F041ED
S2140839E09AB20D46110780463AD46A6843F40063D3
S2140839F0002AAB8170DDAC6A002C4AD000229BB24C
S214083A00D8F80060C8F8002013F4805268D02A6DF1
S214083A105F0705D569682B6B521A0BB1EB6BD21A88
S214083A200023E9694046A047441C3DD00021B5F96B
S214083A300C302A6923F40063AB81DB0469602A60D2
S214083A4048D4296BC8F8006019B305F140039942B9
S214083A5002D0404600F0DAF900202863BDE8F0817D
S214083A602E69B6B1910718BF00232C6808BF6B698A
S214083A702E60A41BAB600AE0234632466F6AE969EB
S214083A804046B8470028A4EB0004064404DD002C92
S214083A90F2DC0020BDE8F081AB894FF0FF3043F040
S214083AA04003AB81BDE8F081D8F800401D2CF3D860
S214083AB0164BE340DB4313F00103EDD1B5F90C20B8
S214083AC0296922F40062AA81D2046B602960B8D5FD
S214083AD0002CB6D12865B4E7EA6B002A8BDCD8E759
S214083AE00123E9694046A047431C024602D0AB8939
S214083AF0AC6A8DE7D8F80030002BF8D01D2B01D023
S214083B00162BC9D1C8F80060C3E700BF01004020E3
S214083B1038B50D46044608B1836BBBB1B5F90C0041
S214083B2088B16B6EDB0701D4810517D52046294678
S214083B30FFF752FF6B6E0446DA0702D4AB899B0583
S214083B4007D5204638BD0446204638BD00F038F86C
S214083B50E4E7A86D00F0F6FB204638BDA86D00F037
S214083B60EFFBE3E7014900F0B1BB00BF6D51080069
S214083B70002310B504468181C281036043608360D8
S214083B804366036143618361194608225C30FEF789
S214083B9069FE07480749084A084B2062E4616162E3
S214083BA0A262E36204F15800BDE8104000F0C4BB0E
S214083BB0B54E0800D94E0800154F0800354F0800C6
S214083BC010B50446144800F0BBFBA26BFAB90320F4
S214083BD0124904F53B73C4F8E832C4F8E022C4F886
S214083BE0E402E16360680421FFF7C2FFA0680122CF
S214083BF00921FFF7BDFFE06802221221FFF7B8FF90
S214083C0001230548A363BDE8104000F09BBB0248AB
S214083C10BDE8104000F096BB68AD0720653B08007D
S214083C20014800F08DBB00BF7CAD0720014800F0BE
S214083C3089BB00BF7CAD072038B50A4C0A4D641B0B
S214083C40A4100AD004F18043013B05EB8305013C30
S214083C5055F804399847002CF9D1BDE8384001F0EA
S214083C6025BE00BFBC580800B85808002DE9F04328
S214083C7083B007468846144600F050FB012833D028
S214083C80424604F15C0301A9384601F0AFF9421C2C
S214083C90064622D090B39DF8041000250DF10409BD
S214083CA008E023685A1C226019700135B54225D2EF
S214083CB015F80910A368013B002BA360F1DAA26986
S214083CC0934201DB0A29ECD12246384601F036F940
S214083CD0431CEAD103B0BDE8F083A38943F0400350
S214083CE0A38103B0BDE8F08308F1FF33FE2BC7D8E5
S214083CF05FFA88F106468DF80410CEE7404603B012
S214083D00BDE8F08330B5536E144613F0010FB2F9D0
S214083D100C3083B005469AB201D190051CD59004A4
S214083D2006D4626E43F4005342F40052A3816266DE
S214083D3028462246FFF79AFF636E0546DA0702D43E
S214083D40A3899B0502D5284603B030BDA06D00F0B8
S214083D50F9FA284603B030BDA06D019100F0F0FADC
S214083D60B4F90C3001999AB2D9E700BFF8B50C46F9
S214083D70234F064600F0CAFEBB68C4F57E615D6840
S214083D800F3125F00305294421F47F6121F00F0146
S214083D90A1F58054B4F5805F07DB0021304601F0BA
S214083DA077F8BB682B44984204D0304600F0B4FE3F
S214083DB00020F8BD6142304601F06AF801300DD0A7
S214083DC0104BBA6819682D1B45F001053046091BCB
S214083DD05560196000F0A0FE0120F8BD00213046AD
S214083DE001F056F8BA68831A0F2BDEDD064C054933
S214083DF0246843F00103001B53600860D5E700BF42
S214083E00E8060720D8AC0720F00A0720002944D087
S214083E102DE9F0410D46804600F078FE55F8047C02
S214083E206949A5F1080427F00103E2188E6850686E
S214083E30B24220F003005ED0FE0750600BD455F85F
S214083E40087C01F1080EE41BA5683B4475456DD057
S214083E50E768EF60BD6015186D68ED073ED543F05E
S214083E6001026260E350B3F5007F17D20122DB0837
S214083E7098104D68134451F83370824001EBC30024
S214083E802A430838E060A7604A6041F83340FC607F
S214083E904046BDE8F04100F03FBE70475A0A042A83
S214083EA052D89A0902F13907FF0002F13805C819F5
S214083EB0CA59083890424FD0516821F003018B4206
S214083EC032D292689042F7D1C368A060E3609C60E3
S214083ED0C4604046BDE8F04100F01EBE95683B4F02
S214083EE00344BD4240D0D06843F00102E8608560D4
S214083EF06260E350B7E7FF07034407D455F8085C49
S214083F00641BE268A0682B44C2609060304A43F0A5
S214083F1001001268606093428C60B9D32D4B40460E
S214083F201968FFF723FFB3E71046CDE7111849686D
S214083F30C90744D491680344D26843F00100CA60B4
S214083F4091606060E350A3E7142A16D802F15C0774
S214083F50FF0002F15B05AAE70123AA104D6893400B
S214083F602B434B600346B0E743F001024C610C61FB
S214083F70E560A5606260E3508AE7542A06D81A0B03
S214083F8002F16F07FF0002F16E0590E7B2F5AA7F0F
S214083F9006D8DA0B02F17807FF0002F1770586E704
S214083FA040F25450824206D89A0C02F17D07FF0070
S214083FB002F17C057BE74FF47E777E2577E743F0B2
S214083FC001016160136063E7E8060720F006072032
S214083FD0F40A072008AD07209368002B71D02DE956
S214083FE0F04F8B8983B00C4619070090164625D5E6
S214083FF022691AB313F0020035682BD04FF0000977
S214084000B0464F46DFF8C0A2002F55D057453B466E
S2140840104A4628BF5346E1690098666AB0470028B2
S21408402056DDD8F8083081441B1A3F1AC8F80830FD
S214084030002BE9D1002003B0BDE8F08F2146009898
S214084040FFF756FC002840F03581A389356813F041
S2140840500200D3D113F0010944D14F46019637B375
S2140840609A05D4F8088040F185804745C346C0F0D5
S214084070AD8013F4906F40F0AE80BA4620685A467A
S214084080494600F0DFFCA2682368A2EB08025B44FE
S214084090A2602360019AD1449368A7EB0A07A3EBB2
S2140840A00A039360002BC5D0A389002FD8D1D5F872
S2140840B000906F680835D2E7D5F800906F68083525
S2140840C0A2E70020704721460098FFF721FD78B345
S2140840D0B4F90C304FF0FF3043F04003A38103B02F
S2140840E0BDE8F08F814633464E46A8469A464D466A
S2140840F056B3002832D0B145CB4628BFB346206811
S21408410023695F469842626904D9A36813449B45AD
S21408411000F3A88093454DDB1346676A2A46E16993
S2140841200098B847071ED3DDB9EB0709CBD00120A6
S214084130DAF808303D44DB1BF61BCAF80830002BBB
S2140841403FF478AF002ED4D108F1080353F8046C76
S214084150984653F8085C0833002EF7D032460A21F2
S214084160284600F029FC002800F0A1800130A0EBCA
S2140841700509C0E720682369984202D863699F4208
S2140841805DD2B84528BFB8464946424600F05AFCB4
S214084190A3682268A3EB08034244A36022600BB11D
S2140841A0C24677E721460098FFF7B2FC00288FD171
S2140841B0C2466FE75A46294600F044FCA2682368C0
S2140841C0A2EB0B025B44A2602360ADE7B846BA4692
S2140841D0BB46206853E762692068216902EB4208FB
S2140841E0A0EB010A08EBD8780AF101004FEA680844
S2140841F038444045424684BF804642465B0544D51F
S2140842001146009800F020F98346002855D05246FB
S2140842102169FEF7B1FAA38923F4906343F080037B
S214084220A3810BEB0A00A8EB0A03C4F810B0C4F885
S21408423014802060A360B846BA46BB461FE76FF0F6
S2140842400042BA4228BF3A4692FBF3F2E16903FB02
S21408425002F300984A46666AB047B0F1000A3FF78C
S21408426019AF35E71A462946019300F0EBFB22689A
S214084270019B21461A4422600098FFF749FC019BDF
S21408428000287FF425AF1F464EE7009800F04AFC4A
S21408429083460028C5D1009D21692846FFF7B6FD4C
S2140842A00C22B4F90C302A6023F0800312E706F1DA
S2140842B0010920E74FF0FF30BDE60C220099B4F95B
S2140842C00C300A6006E700BF00FCFF7F2DE9F843C4
S2140842D010F538761ED0884607464FF000097568F0
S2140842E0B468013D10D4A389013D012B08D9B4F95F
S2140842F00E30013304D021463846C04749EA000943
S2140843006B1C04F16804EED13668002EE7D14846E7
S214084310BDE8F883B1464846BDE8F883044B054A2D
S2140843201B685B6B002B08BF134693F82801704781
S214084330480107207C050720704700BF704700BF6C
S214084340704700BF704700BF70B50C46B1F90E1035
S21408435090B0002915461E4614DB01AA00F068FF37
S21408436000280FDB029A4FF4806302F47042A2F52D
S2140843700052B2FA82F24FF40060520932602B60A3
S21408438010B070BD0023A289336012F0800004D0FC
S214084390402218462A6010B070BD4FF480632B6028
S2140843A010B070BD8A890B46920706D5012103F125
S2140843B0430259611A601A617047F0B583B001ABC1
S2140843C06A460C460646FFF7BFFF00990546304684
S2140843D000F03AF8B4F90C30D8B19DE80600154F4D
S2140843E043F08003F763A3812060206161611AB9F6
S2140843F02B43A38103B0F0BD3046B4F90E1000F08D
S2140844002BFFA0B1A38923F0030343F001031BB2DB
S214084410EEE79A05EED4012123F0030304F14302E4
S21408442043F00203A381616122602261E2E7B4F9E6
S2140844300C30DDE7653B0800024B0146186800F0C3
S21408444003B800BF480107202DE9F04F01F10B061D
S214084450162E83B0054640F29E8036F0070600F119
S214084460BD80B14200F2BA8000F050FBB6F5FC7F82
S214084470C0F08582730A00F0B880042B00F26C81C5
S214084480B30903F1390003F1380EC100B84F3944B7
S2140844904C680839A14206D10CE0002A80F2AB80AD
S2140844A0E468A14206D0636823F003039A1B0F2A28
S2140844B0F3DD70463C69DFF8CCE2744500F09E8177
S2140844C0636823F003039A1B0F2A00F38381002AEC
S2140844D0C7F814E0C7F810E080F29180B3F5007FC3
S2140844E080F054810122DB0879684FEAA30C134454
S2140844F057F8338002FA0CF207EBC30C0A43ACF108
S2140845000801E160C4F808807A6047F83340C8F8C4
S2140845100C40012483109C4094427DD8144206D156
S21408452020F003006400144200F10400FAD007EB00
S214084530C009CC468046DCF80C309C4507D15FE1C4
S214084540002A80F26D81DB689C4500F05981596825
S21408455021F003018A1B0F2AF2DDDC68D3F808C0B5
S21408456046F0010828461E4442F00105C3F80480B8
S214084570CCF80C40C4F808C07E613E61C6F80CE072
S214084580C6F808E075605A50009300F0C5FA009B1C
S21408459003F108041EE0102920D800F0B7FA102608
S2140845A018230220724F3B445C68A3F10802944229
S2140845B000F02F816368E16823F0030323445A68F8
S2140845C0A66842F00102F16028468E605A6000F044
S2140845D0A3FA0834204603B0BDE8F08F00240C2365
S2140845E020462B6003B0BDE8F08F40204FF40071E2
S2140845F04FF03F0E4AE723445A68E168E0E7234451
S2140846005A68284642F001025A60083400F084FAD4
S214084610204603B0BDE8F08FBC68636823F0030843
S214084620B04504D3A8EB06030F2B00F38580DFF80C
S2140846305891504BD9F800201B680132334404EBDC
S214084640080A00F0548103F580530F3323F47F6B78
S2140846502BF00F0B5946284600F01AFC411C024660
S21408466000F0FB80824500F2F680434B19685944F7
S214084670196000F04C81D9F8000001301BBFA2EB8E
S2140846800A0A5144C9F80020196012F0070100F020
S2140846901481C1F10800C1F580510244083102EBCB
S2140846A00B09C9F30B09A1EB0909494628460193EA
S2140846B0009200F0EDFB431C9DE80C0000F04281E0
S2140846C0801A484440F001001968BC424944BA6060
S2140846D01960506017D0B8F10F0F40F2FA804FF00B
S2140846E0050C6268A8F10C0020F0070002F0010231
S2140846F004EB000E02430F286260CEF804C0CEF822
S21408470008C000F216811D4BBC681A68914288BF23
S21408471019601B4B1A689142626888BF196022F0BC
S21408472003029642A2EB060301D80F2B04DC2846A8
S21408473000F0F2F900244DE746F0010243F00103C9
S214084740264462602846BE600834736000F0E4F9C8
S214084750204603B0BDE8F08F142B70D9542B00F216
S214084760A280330B03F16F0003F16E0EC1008DE6D5
S214084770E806072008AD0720D8AC072000AD0720BC
S21408478004AD0720F0060720F00A07205A0A042A74
S2140847905BD9142A00F2AE8002F15C01C9005B32D4
S2140847A007EB010C7958ACF1080C8C4500F08880B2
S2140847B04A6822F00302934273D289688C45F7D17F
S2140847C0DCF80C307A68E360C4F808C09C60CCF863
S2140847D00C409EE646F0010C42F001012644C4F85F
S2140847E004C028467E613E61C6F80CE0C6F808E0BC
S2140847F07160E25000F090F90834EBE67A6888E6D3
S21408480008F1010818F0030F0CF1080C7FF493AEBA
S2140848102DE0DC68A34208BF02303FF44BAEC9E681
S2140848201C4619444A68DB6854F8086F42F00102CF
S2140848304A602846F3609E6000F06EF9CAE603F107
S2140848405C0003F15B0EC10020E69A0902F139010B
S214084850C9003832A4E7BC4254D0BC68626822F06B
S21408486003025EE759F80839994540F0868010F04B
S214084870030F00F1FF30F5D17B6823EA04037B6061
S21408488064009C423FF6C8AE002C3FF4C5AE1C42FE
S21408489040467FF44CAE64001C4200F10400FAD097
S2140848A045E68C468CE7B3F5AA7F15D8F30B03F1DB
S2140848B0780003F1770EC100E8E54FF48051EEE684
S2140848C001217B68921001FA02F21A437A60634665
S2140848D079E7012353602AE740F25452934222D8DC
S2140848E0B30C03F17D0003F17C0EC100CEE503F1A5
S2140848F0100BAFE6542A29D81A0B02F16F01C9002B
S2140849006E324DE7204B196859441960B3E6CAF36E
S2140849100B0000287FF4AFAE08EB0B03BA6843F031
S21408492001035360EFE67F204FF47E714FF07E0E52
S214084930ACE504F1080128460093FFF767FA009BE8
S2140849401968E0E601204FF00009BDE6B2F5AA7F37
S21408495005D8DA0B02F17801C900773220E740F271
S21408496054518A4205D89A0C02F17D01C9007C325E
S21408497016E74FF47E717E2212E77B6880E7F00820
S21408498006F108030EE600BFD8AC072082B049B18E
S2140849905AB16BB113780B601278101C18BF01203F
S2140849A002B0704701A9002AF3D1104602B070473A
S2140849B06FF00100F4E700BF830770B4CDB23DD0B6
S2140849C0541E0AB30378AB421FD0431C05E014F10B
S2140849D0FF3419D30278AA4217D013F0030F1846EB
S2140849E003F10103F3D1032C11D84CB30378AB427F
S2140849F00BD00444431C02E00278AA4205D09C422D
S214084A00184603F10103F7D1002070BC704709026D
S214084A1089B2294341EA0141036806464B40A3F19F
S214084A20013222EA030313F0803F00F1040003D1A9
S214084A30043C032CF0D8D8E73046D7E71446D2E72C
S214084A402046E2E78842F0B50DD98B1898420AD27C
S214084A508418002A51D0224613F8014D994202F8CC
S214084A60014DF9D1F0BD0F2A48D941EA00039B074A
S214084A7046D1154600F1100401F1100353F8106CE6
S214084A80103D44F8106C53F80C6C0F2D44F80C6C61
S214084A9053F8086C04F1100444F8186C53F8046CC6
S214084AA003F1100344F8146CE8D8A2F1100323F0BD
S214084AB00F0302F00F0E1033BEF1030F1944034420
S214084AC021D90E4674461D1F56F8047B043C032C59
S214084AD045F8047FF8D8AEF1040424F0030404343F
S214084AE02144234402F0030262B1013B0A4411F850
S214084AF0014B8A4203F8014FF9D1F0BD0346F3E7AC
S214084B000346F2E7F0BD7246EEE700BF0148FFF73E
S214084B1017BC00BF6CAD07200148FFF713BC00BFE9
S214084B206CAD0720002900F094802DE9F04F0C4664
S214084B30154683B0804605F10B06FFF7E7FF54F8E5
S214084B4004EC162E2EF00307A4F108093CD8102210
S214084B501646B5423DD8974243DAC64B09EB0700DE
S214084B609968884200F0C380436823F00101014435
S214084B704968C9074DD51EF0010F00F09B802946ED
S214084B804046FFF761FC054600283BD054F8043C35
S214084B90A0F1080223F001034B449A4200F02B814F
S214084BA03A1F242A00F21881132A00F2EB800346E3
S214084BB02246116819605168596092689A602146C1
S214084BC04046FFF723F91DE026F00706002E32467A
S214084BD0BFDA00250C232846C8F8003003B0BDE825
S214084BE0F08F2546BB1B0F2BD9F804201DD802F0E2
S214084BF001023A4309EB0701C9F804204B6843F061
S214084C0001034B604046FFF787FF284603B0BDE820
S214084C10F08F23F00303F91891421DDBC3688268FE
S214084C202546D3600F469A60DCE702F0010209EBDE
S214084C30060143F001033243C9F804204F444B6091
S214084C407B68083143F001037B604046FFF7DEF8D7
S214084C50D8E71146FFF7F8BB1EF0010F8FD154F8BE
S214084C60081CA9EB010ADAF8041021F003010B442A
S214084C703B44934226DB5546C16880683A1FC160AC
S214084C80886055F8080FDAF80C10242AC160886086
S214084C9026D8132A40F2818021681B2ACAF80810F1
S214084CA06168CAF80C1000F2AD8004F108000AF139
S214084CB0100274E054F8083CA9EB030ADAF804106A
S214084CC021F003017B189342FFF659AF5546DAF8F0
S214084CD00C1055F8080F3A1F242AC1608860D8D9E6
S214084CE0214628461F46D146FFF7ACFE7AE74168BC
S214084CF006F1100021F0030BBB44834558DA1EF07A
S214084D00010F7FF43CAF54F8081CA9EB010ADAF847
S214084D10041021F003018B445845D3DC5546DAF8D5
S214084D200C1055F8080F3A1F242AC160886000F254
S214084D308D80132A40F2878021681B2ACAF808103B
S214084D406168CAF80C1000F2888004F108010AF1BC
S214084D501002086810604868506089689160ABEB7C
S214084D6006020AEB060142F0010299604A60DAF888
S214084D700430404603F001031E43CAF80460FFF7F8
S214084D80CBFE42E723681B2A03606368436027D884
S214084D9000F1080304F108020BE720462A460168DA
S214084DA01F4611604168D14651608368936019E7D1
S214084DB0ABEB060B09EB06014BF0010299604A6063
S214084DC054F8043C404603F001031E4344F8046CC0
S214084DD0FFF7A2FE254618E72146FFF733FEEEE664
S214084DE0A368242A8360E368C36018D000F1100320
S214084DF004F11002DDE650F8043C254623F00303D0
S214084E001F44EFE6A168242ACAF81010E168CAF819
S214084E1014100DD004F110000AF11802BFE7226939
S214084E2000F118030261616904F118024161C0E6E5
S214084E30226904F11800CAF8182061690AF12002EC
S214084E40CAF81C10ABE721462A4682E721462846C0
S214084E500193FFF7F7FD019B81E7A168242ACAF8AA
S214084E601010E168CAF8141006D004F110010AF10F
S214084E7018026EE7E8060720226904F11801CAF846
S214084E80182060690AF12002CAF81C0061E700BF12
S214084E9038B50023064C054608462360FDF7F0FBA8
S214084EA0431C00D038BD2368002BFBD02B6038BDD0
S214084EB080AD072010B50C46B1F90E1000F0F4F9D5
S214084EC0002803DB236D0344236510BDA38923F460
S214084ED08053A38110BD00BF2DE9F0410C46B1F9FF
S214084EE00C101F46CB051646054607D5B4F90E1016
S214084EF00223002200F0C2F9B4F90C1021F4805104
S214084F00A1813B463246B4F90E102846BDE8F0416A
S214084F1000F0A2B810B50C46B1F90E1000F0AEF9C4
S214084F20A389421C0EBF23F4805343F480532065A4
S214084F30A38110BDB1F90E1000F006B9F8B50D46FC
S214084F401446064610B1836B002B4BD0B4F90C20E0
S214084F50A36991B20807A36039D52369002B36D018
S214084F60EDB289042F4615D522686169D31A8B429B
S214084F701CDA0133A168501C0139A1602060157045
S214084F8062699A421AD0A389DB0701D50A2D15D083
S214084F903846F8BD616E42F4005221F40051A281F1
S214084FA0226861666169D31A8B42E2DB2146304685
S214084FB0FEF7AEFD40B901232268DBE721463046FE
S214084FC0FEF7A6FD0028E3D04FF0FF37E0E72146BE
S214084FD03046FEF78DFC0028F6D1B4F90C2023697C
S214084FE091B2BDE7FEF7ECFDB0E700BFF0B50646A8
S214084FF085B01F4689B1104C104D2468646B002C90
S21408500008BF2C46D4F8E040A047431C03D1002232
S2140850108A233A60336005B0F0BD0C46064A074D51
S214085020116822464C6B01A9002C08BF2C46D4F800
S214085030E040A047E9E700BF480107207C050720B5
S21408504019B1FF2A03D80A700121084670478A2337
S2140850504FF0FF310360F8E7F8B50E460025084C18
S214085060114607461A4630462560FBF7F7FA431CF2
S21408507000D0F8BD2368002BFBD03B60F8BD00BF0E
S21408508080AD07202DE9F8432C4D0646286898463B
S2140850900F469146FFF754F9294B1C68D4F8483157
S2140850A0002B3ED05A681F2A1CDC02F1010E76B18E
S2140850B0012103EB8204C4F88890D3F88801914054
S2140850C00843022EC3F88801C4F8088123D00232A8
S2140850D0C3F804E0286843F82270FFF733F9002085
S2140850E0BDE8F883174B0BB34FF4C870FFF7A4F965
S2140850F00346D8B10020D4F848114FF0010E586086
S21408510019600246C4F84831C3F88801C3F88C0110
S214085110002EDCD0CCE7D3F88C010143C3F88C1101
S214085120D5E704F5A673C4F84831BBE72868FFF747
S21408513009F94FF0FF30BDE8F88300BF780507206F
S214085140305708003944080038B50023064C054691
S21408515008462360FDF7B0FA431C00D038BD236824
S214085160002BFBD02B6038BD80AD072070B559B139
S21408517005460C4610B1836B002B3CD0636ED807EF
S21408518005D5B4F90C302BB90026304670BDA38976
S21408519099053CD521462846FEF71EFCE36A0646D6
S2140851A033B1E169284698470028B8BF4FF0FF3664
S2140851B0A3891A0622D4216B41B104F1400399420F
S2140851C002D02846FEF722FE00232363616C21B135
S2140851D02846FEF71BFE00236364FEF721FD002227
S2140851E0636EA281DB070ED5A06DFFF7A7F8FEF762
S2140851F01DFD304670BDFEF7E3FCBFE72169284673
S214085200FEF704FED7E7A06DFFF79CF8ECE7A06D65
S214085210FFF796F8B4F90C30002BBBD1666E16F083
S2140852200106B1D1A06DFFF78DF8304670BD00BFFE
S21408523070B50D460023074C0646114628462360DF
S214085240FDF73DFA431C00D070BD2368002BFBD049
S214085250336070BD80AD072038B50023064C054680
S21408526008462360FDF730FA431C00D038BD236893
S214085270002BFBD02B6038BD80AD0720F8B50E4656
S2140852800025084C114607461A4630462560FDF7A5
S2140852901DFA431C00D0F8BD2368002BFBD03B60EA
S2140852A0F8BD00BF80AD0720F8B50E460025084CAF
S2140852B0114607461A4630462560FBF7B1F9431CE7
S2140852C000D0F8BD2368002BFBD03B60F8BD00BFBC
S2140852D080AD072053B94AB9002908BF00281CBF6B
S2140852E04FF0FF314FF0FF3000F07AB9ADF1080CFF
S2140852F06DE904CE00F006F8DDF804E0DDE90223E7
S21408530004B070472DE9F0478C460E460446089DC3
S214085310002B50D18A4217466CD9B2FA82FEBEF1EB
S214085320000F0BD0CEF1200C01FA0EF620FA0CFC7A
S21408533002FA0EF74CEA060C00FA0EF43A0CBCFB1E
S214085340F2F9BBB202FB19CC09FB03FA4FEA144880
S21408535048EA0C46B2450AD9F61909F1FF3180F039
S2140853602581B24540F22281A9F102093E44A6EB06
S2140853700A06B6FBF2F002FB106600FB03F3A4B2C3
S21408538044EA0644A34209D9E41900F1FF3280F042
S2140853900B81A34240F2088102383C440021E41AFB
S2140853A040EA0940002D62D0002324FA0EF42C604F
S2140853B06B60BDE8F0878B4207D9002D55D00021D9
S2140853C085E841000846BDE8F087B3FA83F100296E
S2140853D040F08F80B34202D3824200F2FC80841AE7
S2140853E066EB03060120B446002D40D085E8101071
S2140853F0BDE8F08712B90127B7FBF2F7B7FA87FEC0
S214085400BEF1000F35D10121F61B4FEA174C1FFAE3
S21408541087F8B6FBFCF20CFB126608FB02F0230CBE
S21408542043EA0646B04207D9F61902F1FF3302D21C
S214085430B04200F2D2801A46361AB6FBFCF00CFBD5
S214085440106608FB00F8A3B243EA0644A04507D94D
S214085450E41900F1FF3302D2A04500F2B9801846DD
S214085460A4EB080440EA02409CE729462846BDE823
S214085470F08707FA0EF7CEF1200326FA03F24FEA72
S214085480174CB2FBFCF11FFA87F80CFB112206FA40
S2140854900EF620FA03F301FB08F933431E0C46EA1E
S2140854A00246B14500FA0EF409D9F61901F1FF32A1
S2140854B080F08C80B14540F2898002393E44A6EBE4
S2140854C00906B6FBFCF00CFB106200FB08F99EB25E
S2140854D046EA0246B14507D9F61900F1FF3371D2FC
S2140854E0B1456FD902383E44A6EB090640EA0141A9
S2140854F08FE7C1F1200722FA07F88B4048EA030332
S21408550026FA07F44FEA134EB4FBFEF91FFA83FC9B
S2140855100EFB19448E4020FA07F809FB0CFA48EAF5
S21408552006084FEA184646EA0444A24502FA01F27B
S21408553000FA01F608D9E41809F1FF3044D2A2456A
S21408554042D9A9F102091C44A4EB0A04B4FBFEF0F4
S2140855500EFB104400FB0CFC1FFA88F848EA0444CB
S214085560A44507D9E41800F1FF3E29D2A44527D957
S21408557002381C4440EA0940A0FB0289A4EB0C0C44
S214085580CC45C246CE4615D312D055B1B6EB0A0363
S2140855906CEB0E0606FA07F7CB401F43CE402F608B
S2140855A06E600021BDE8F0871046F7E68946DEE61D
S2140855B04645EAD2B8EB020A69EB030E0138E4E77F
S2140855C07046D7E718468FE78146BDE7114676E767
S2140855D002383C4444E7084606E7023A3E442BE7CE
S2140855E0704700BF4552524F523A206E6F2064698A
S2140855F072656374696F6E20636F756C642062658C
S21408560020666574636865642066726F6D207468CA
S21408561065206C656674206D6F746F722062757491
S2140856202070756C736520776173207374696C6C71
S214085630207472696767657265642E20456E636FAD
S2140856406465722070756C73652064617461207778
S214085650696C6C20626520756E72656C6961626C37
S214085660652E0A004552524F523A206E6F206469E2
S21408567072656374696F6E20636F756C642062650B
S21408568020666574636865642066726F6D2074684A
S21408569065207269676874206D6F746F7220627512
S2140856A0742070756C736520776173207374696CE9
S2140856B06C207472696767657265642E20456E6330
S2140856C06F6465722070756C736520646174612000
S2140856D077696C6C20626520756E72656C696162AC
S2140856E06C652E0A00000000436F6E736F6C6520B1
S2140856F072656164790A00003D3D3D3D3D3D3D3D96
S2140857003D3D3D3D3D0A00007461736B310000006D
S21408571061767374E56E643A20256C69200A000089
S21408572049444C4500000000546D722053766300CF
S2140857305001072030313233343536373839414254
S214085740434445460000000030313233343536379E
S214085750383961626364656600000000286E756CFF
S2140857606C29000020202020202020202020202017
S214085770202020203030303030303030303030305C
S2140857803030303043000000504F53495800000076
S2140857902E0000000020202020202020202028285E
S2140857A028282820202020202020202020202020D4
S2140857B02020202020881010101010101010101014
S2140857C01010101010040404040404040404041044
S2140857D010101010101041414141414101010101D2
S2140857E0010101010101010101010101010101019C
S2140857F010101010101042424242424202020202A8
S214085800020202020202020202020202020202026B
S214085810101010102000000000000000000000001B
S214085820000000000000000000000000000000006B
S214085830000000000000000000000000000000005B
S214085840000000000000000000000000000000004B
S214085850000000000000000000000000000000003B
S214085860000000000000000000000000000000002B
S214085870000000000000000000000000000000001B
S214085880000000000000000000000000000000000B
S2140858900000000000000000F8B500BFF8BC08BC17
S2140858A09E467047B939080019010800F8B500BFC8
S2100858B0F8BC08BC9E467047F5000800CF
S20C0858BC48FAFF7F0100000016
