S01000004672656552544F532E737265634A
S214080000682C07202D100800291008002910080061
S2140800102910080029100800291008000000000010
S2140800200000000000000000000000000D090800A5
S214080030291008000000000045090800810908008A
S214080040291008002910080029100800291008009F
S214080050291008002910080029100800291008008F
S214080060291008002910080000000000ED0E0800FE
S214080070FD0E08000D0F08001D0F08000000000008
S21408008000000000291008002910080029100800A0
S214080090291008002910080029100800291008004F
S2140800A02910080000000000291008002910080080
S2140800B0291008002910080029100800291008002F
S2140800C0291008002910080029100800291008001F
S2140800D0291008002910080029100800291008000F
S2140800E029100800291008002910080029100800FF
S2140800F02910080010B5054C237833B9044B13B102
S2140801000448AFF300800123237010BD980A072027
S21408011000000000104308000C4B43B10C4810B513
S2140801200C49AFF300800C48036823B910BD0A4891
S214080130036833B97047094B002BF7D0BDE8104069
S2140801401847064B002BF5D0184700BF00000000E4
S214080150104308009C0A072010430800000000000F
S214080160214B10B599423CD8A3F57A53994223D926
S2140801701E4B1F4C0B449B00B2FBF4F4B2FBF3F28D
S2140801800023043C043AFF2C01D9072B0CD1FF2A84
S2140801900DD812021B0492B203F4E0231A43E4B209
S2140801A022430261002010BD01336408EBE7062BEA
S2140801B0EFD801335208EAE74900B2FBF1F2002310
S2140801C0043AFF2A01D9072B08D111021B0489B269
S2140801D003F4E0230B43D2B21A43E2E70133520892
S2140801E0EFE7012010BD00BF801A06000012FD3F91
S2140801F000B80B0038B54FF0FF338362036A8023DC
S2140802000360036B08230360202303600423036052
S2140802100D460A68064B496804469847431E5842E6
S21408022058416B7A012B04BF4023236038BD00BFBA
S2140802306101080038B5124CA047002812DD114AA3
S214080240136801331360104D104C2B682360104B55
S2140802509847104B28601A78236802FB13000E4B49
S214080260188038BDA047002803DA064A1368013B01
S214080270E8E7A0470028E6D1084B09489847E2E790
S21408028099050800EC0B0720080C0720180C072017
S214080290AD090800100C0720040C07202D120800D2
S2140802A0DC40080038B5124CA047002812DD114A79
S2140802B0136801331360104D104C2B682360104BE5
S2140802C09847104B28601A78236802FB13000E4BD9
S2140802D0188038BDA047002803DA064A1368013B91
S2140802E0E8E7A0470028E6D1084B09489847E2E720
S2140802F099050800F80B0720200C0720000C07209B
S214080300AD090800100C0720F40B07202D12080072
S214080310DC40080038B5124CA047002812DD114A08
S214080320136801331360104D104C2B682360104B74
S214080330984723682860C01A0E4B1B7858430E4B04
S214080340188038BDA047002803DA064A1368013B20
S214080350E8E7A0470028E6D1084B09489847E2E7AF
S2140803608D0508000C0C0720280C0720FC0B07201E
S214080370AD090800100C07202C0C07202D120800C9
S2140803805C40080038B5124CA047002812DD114A18
S214080390136801331360104D104C2B682360104B04
S2140803A0984723682860C01A0E4B1B7858430E4B94
S2140803B0188038BDA047002803DA064A1368013BB0
S2140803C0E8E7A0470028E6D1084B09489847E2E73F
S2140803D08D0508001C0C0720140C0720F00B0720BE
S2140803E0AD090800100C0720240C07202D12080061
S2140803F05C4008002DE9F3410024394B01221C60BB
S214080400384B394D1C60394B0D201C60384BDFF8D3
S21408041038811C60374B384F1C60384B384E1C6090
S214080420384B1C60384B1C60384B1C60384B1C80A3
S214080430384B1C60384B1C80384B1C60384B1C8073
S214080440384B1C60384B1C80384B1A70384B984712
S214080450224628464FF40001C047364B4FF40002A8
S21408046000930D2120232846B84728464FF400015C
S214080470B047224628464FF00071C0472E4B4FF033
S214080480007200930D2120232846B84728464FF0CF
S2140804900071B047224628460221C047274B022251
S2140804A000930D2120232846B84728460221B04746
S2140804B0224628464FF00051C047214B4FF00052C5
S2140804C000930D2120232846B8474FF000512846B0
S2140804D0B0474FF400521B4B1A6002B0BDE8F081DB
S2140804E0FC0B0720180C072000120E40280C0720CB
S2140804F0080C0720F00B0720810E0800000C0720C8
S214080500AF0C0800140C0720200C07200C0C072042
S2140805102C0C0720EC0B0720040C07201C0C0720CB
S214080520240C0720F80B0720F40B0720100C0720D4
S214080530E90F08003502080015030800A5020800A0
S2140805408503080000E100E05F0C08001FB50A4BB1
S21408055017200293094B019300238DF80D30084BA2
S214080560984701A9074B08489847B0FA80F0400911
S21408057005B05DF804FB00BFA086010000BD0105BC
S214080580E90F0800F501080000000940014B93F93F
S21408059000007047B40A0720014B93F90000704723
S2140805A0B50A07202DE9F0410E46144688B91546C7
S2140805B00A4FDFF82C80611B002D314403DC24EA47
S2140805C0E470BDE8F0813868D8F800309847013DF7
S2140805D0F1E74FF0FF30BDE8F08100BF380C072088
S2140805E0300C0720013802282DE9F0410E4612D8B3
S2140805F00C460B4FDFF82C808D18AC42A4EB060097
S21408060001D1BDE8F081386814F8011BD8F800302D
S21408061098470028F1DA4FF0FF30BDE8F08100BFB8
S214080620380C0720340C0720AC2310B503604A6842
S2140806300B68B3FBF2F34FF6FE721B095C1E94427E
S2140806400AD803628B68436040F20223C0F8203160
S21408065050230360002010BD012010BD43699B078E
S21408066046BFC1610020012070474369DB0743BFCE
S214080670836900200B700120704743699B0743BFBE
S214080680C1F30801C1610020012070474369DB07F8
S21408069041BF83690020C3F308030B6058BF0120DD
S2140806A070470000002373B501931B4B044698421D
S2140806B00D4607D1194E29462046B0470028FAD1DC
S2140806C002B070BD164B984208D1164E01A92046B6
S2140806D0B0470028FAD1019B2B70F1E7124B9842DD
S2140806E006D1104E01A92046B0470028FAD1F2E7F5
S2140806F00E4B984206D10B4E01A92046B04700285B
S214080700FAD1E8E70A4B9842DAD1064E01A9204604
S214080710B0470028FAD1DEE700080E406B0608004E
S214080720008009408D06080000C0094000000A4005
S21408073000400A401B4B70B5984204460D4607D148
S214080740194E29462046B0470028FAD1012070BD28
S214080750164B984206D1164E29462046B047002822
S214080760FAD1F3E7134B984206D1114E2946204694
S214080770B0470028FAD1E9E70F4B984206D10C4E4D
S21408078029462046B0470028FAD1DFE70B4B9842A7
S21408079006D1074E29462046B0470028FAD1D5E7A5
S2140807A0002070BD00080E405D0608000080094065
S2140807B07B06080000C0094000000A4000400A40C6
S2140807C010B5184B9847184B9847184C0B20A0475D
S2140807D00C20A0470D20A0470E20A0474FF000721F
S2140807E0134B00201A61C3F8A020C3F81422C3F8DC
S2140807F0A0224FF40002C3F81422C3F8A0224FF434
S2140808008002C3F81422C3F8A0224FF08052A3F542
S21408081000735A61C3F8A02004225A61C3F8A020C6
S21408082010BD00BF350B08009D0B0800E90F080037
S21408083000100E4030B5082085B0154DA847154C59
S214080840154B164A1C60164B08201A60154A164B9C
S2140808501A60164B01934FF4E13302934FF400638A
S2140808600393A847124D01A92046124B98472B68B8
S214080870114C98680021A0472B6800215868A047AB
S2140808800E4C0F48A0470F48A047002005B030BDC3
S214080890E90F080000080E40380C07203507080046
S2140808A0340C0720A5060800300C072000BD0105FB
S2140808B0EC00072029060800DD1308002D120800A2
S2140808C05D4108006C41080043685A684A604268FF
S2140808D08A605A689160596041600861036801330C
S2140808E003607047436882689A60836842685A6003
S2140808F003695A68904204BF82685A6000220261FF
S2140809001A68013A1A60186870470000064B19689A
S2140809100868B0E8F00F80F309884FF0000080F30D
S21408092011884EF00D0E7047B80A0720EFF31180B5
S2140809304FF0A00181F311887047002080F31188DA
S21408094070470000EFF309800C4B1A6820E9F00F97
S21408095010602DE908404FF0A00080F3118800F0E1
S214080960AFF84FF0000080F31188BDE8084019681A
S2140809700868B0E8F00F80F309887047B80A0720BF
S2140809804FF0805210B5054B1A60054B9847054B3B
S2140809909847BDE810400020034B184704ED00E0D8
S2140809A02D090800CD0908003D09080010B5044BBC
S2140809B09847044B1C68044B9847204610BD00BF58
S2140809C02D0908003C0B07203D0908002DE9F047D3
S2140809D02F4B1B68002B55D12E4E326801323260E1
S2140809E03268BAB92C4B1A6812681AB12B4B98475A
S2140809F000BFFDE72A4A196810681860116029497F
S214080A000A6801320A601A681168274AB1B94FF0B5
S214080A10FF331360244C326823689A4236D3DFF8D3
S214080A207880DFF89490DFF894A0D8F800301B6838
S214080A304BB94FF0FF332360BDE8F0871B68DB68CF
S214080A40DB685B68E5E7D8F80030DB68DD683268A5
S214080A506B689342EFD82F1D3846C847AB6A13B168
S214080A6005F11800C8471420EB6ADAF80020394662
S214080A7093420E4A88BFCAF8003000FB03200C4B8E
S214080A809847D2E70B4A136801331360BDE8F0872E
S214080A902C0B07203C0B0720BC0A07202D09080052
S214080AA0C00A0720380B0720E4000720C40A0720DE
S214080AB0C9080800280B0720E5080800300B07209F
S214080AC038B5164B1B68D3B9154A1423154615496D
S214080AD0086858431058B0B109684B43D0184468A2
S214080AE008336468134444609C4204BF63684360E8
S214080AF0142303FB01514B68DA680B4B01E0012213
S214080B000A4B1A6038BD086818B9094B984700BFE1
S214080B10FDE7086801380860DAE700BF2C0B0720F5
S214080B20C40A0720300B0720B80A0720340B072012
S214080B302D09080070B50F480F4CA0473E2100202D
S214080B400E4B98470E4DA8470028FCD00D4B9847EB
S214080B500D4A0E4B0E4D9A62A8470028FCD00D4B46
S214080B60102098470C4B98472346BDE8704001482C
S214080B70184700BF00BD010581000720710F080057
S214080B80B90F0800C90F0800013F0D2000060E40E7
S214080B90D90F08002D0F0800A91008004FF40042CE
S214080BA0174B10B50B205A60164CA0470C20A047D0
S214080BB00D20A0470E20A047134C4FF060513B2055
S214080BC0A0474FF060515520A0474FF0605156207F
S214080BD0A0470E496820A0470D495C20A0470D4B4A
S214080BE00D4A4FF440710D4898474FF000612B208E
S214080BF0A0472346BDE810404FF000612A2018475A
S214080C00501A0E40E90F0800ED0C0800790000287D
S214080C1001000028B10D080001000008000E0E4073
S214080C20B1F1805F426417D005D819B1B1F1006FF1
S214080C300BD042607047B1F1405FFBD0B1F1605F06
S214080C40F8D0B1F1205FF4D17047036F016F0B4005
S214080C5023EA02030367ECE7036F1343FAE7D307B5
S214080C6041644CBF4166016612F00A0F14BF016268
S214080C704162930704D5C0F880104161016070474F
S214080C80130748BFC0F88410F7E710B5029C416404
S214080C903CB141663BB101653AB10163016101604F
S214080CA010BD0166F6E74165F6E74163F6E70164BD
S214080CB07047C06C7047806C7047D3060ED5930695
S214080CC0C0F8B0104CBFC0F8D410C0F8D010530607
S214080CD04CBFC0F8C010C0F8C4107047C0F8B410B5
S214080CE070470000004B1847BB0C0800F7B54509CD
S214080CF00E4605F5001501F0F04105F20775B1F14D
S214080D00205F4FEA452542D007D8B1F1006F1ED0C4
S214080D10B1F1805F2BD0002027E0B1F1405F02D010
S214080D20B1F1605FF7D1012406F0605200F01F01B0
S214080D3002F1484006EA0403424200934241C6F3E1
S214080D408003284604FA01F1164DA84728E0012733
S214080D5000F01F0407FA04F428462246124B984768
S214080D603846F6074CBF6C662C6603B0F0BD00F03C
S214080D701F01012000FA01F169642B6FF40743EAAA
S214080D8001032B6769604CBF69662966EDE7012495
S214080D9000F01F01324604FA01F12846034B984733
S214080DA02046E2E78B0C0800210C08005F0C0800C0
S214080DB002F0F043B3F1205F73B504460D461646BD
S214080DC02FD007D8B3F1006F1AD0B3F1805F22D0C6
S214080DD000201EE0B3F1405F02D0B3F1605FF7D1A8
S214080DE006F0605202F1484106F001034A420093B9
S214080DF04A412046C6F3800329460B4CA04707E025
S214080E000A461946094B9847F0074CBF656625669B
S214080E10012002B070BD6164036F0B430367616015
S214080E20F2E7034B9847F3E78B0C0800210C080001
S214080E305F0C0800F8B50F4B04460E4698470E4B55
S214080E40054620469847054013D00C4C04F1600729
S214080E502368B34208D16168294205D0E368304662
S214080E609847636825EA0305BC4202D01034002D73
S214080E70EED1F8BDB30C0800B70C0800400B0720ED
S214080E802DE9F843164E894634681146062CB446B2
S214080E9023D80026134F5FFA86F8444510D2089ADE
S214080EA00134AB60EA6044451A46C5F800906960AC
S214080EB00D4B08BFCCF8008098470020BDE8F883A3
S214080EC04FEA081E57F80E2007EB0E054A4502D1D2
S214080ED06A688A42E3D00136DDE70120BDE8F88378
S214080EE0B00B0720400B0720E50C08000B21014833
S214080EF0014B1847000E0E40350E08000C2101481D
S214080F00014B184700100E40350E08000D21014809
S214080F10014B184700120E40350E08000E210148F6
S214080F20014B184700140E40350E08000F4B1A6B7D
S214080F3022F07002104340F601021863996E080703
S214080F400CD51A6B22F0030242F002021A6340F62E
S214080F500102996E090705D500207047013AEDD1C0
S214080F6001207047013AF4D1FAE700BF00060E40A8
S214080F700E4A136A28B10E4919400E4B0B431362EA
S214080F80704723F45C1323F00303090243F45C134D
S214080F9089B243F001030B431362936EDB07FCD55B
S214080FA0136A43F09B7343F48033E8E700060E4069
S214080FB0FCFFC8FE02003701024B986E00F4803032
S214080FC0704700BF00060E404FF00052014B9A6271
S214080FD0704700BF00060E40024B986E00F00200F5
S214080FE0704700BF00060E402C2818D81F280D4A48
S214080FF04FF0010308D8916903FA00F030EA0103BC
S21408100000D01061002070472038D2F8081103FA83
S21408101000F030EA0103F5D0C2F80001F2E701203B
S214081020704700BF00060E40FEE7000008B5154AE8
S214081030154B9A4219D10021144B154A93421DD3D9
S214081040144B154A23F0604121F07F0103F16043F9
S214081050B3F5801F91603EBF936843F000539360DA
S2140810600E4B98470E4B9847FEE70E49043A8B42BC
S214081070E1D252F8040F43F8040BF8E743F8041BD0
S214081080DCE700BF1043080000000720980A072086
S214081090640C07200000080000ED00E0DD110800E1
S2140810A0B9110800980A072010B52B4A136B03F0ED
S2140810B00303012B294B0FD004D3116ACC012CD57E
S2140810C0274946E02749496908064CBF4FF40041BE
S2140810D04FF4FA4119600DE0116AC90101D520499B
S2140810E0F8E721491960116A01F07001102912D039
S2140810F02029F4D0116B01F07001702905BF032177
S2140811001A68116BB2FBF1F21EBF1A68C1F302111E
S214081110CA401A6010BD1549DCE713491960116A00
S21408112001F07001102913D02029C9D0116B01F0E5
S2140811300301022901BF946A1968C4F30A4404FB30
S214081140011109BF906A0A49C0B2B1FBF0F1C1E7C4
S21408115006491960EAE700BF00060E40E8000720C7
S214081160001BB700101A0E4000093D0000127A0056
S214081170001C4E0E074B1A680AB9074A1A601A6806
S214081180064910448142A6BF186010464FF0FF304B
S214081190704700BFB40B0720682C0720FC7F082088
S2140811A04FF0FF3070474FF4005300204B607047F5
S2140811B0012070470020704708B5044B9847044B39
S2140811C09847044B9847044B9847FEE7C107080022
S2140811D035080800F50308004D05080070B50F4EE1
S2140811E00F4D761BB61018BF002405D0013455F8ED
S2140811F0043B9847A642F9D10A4E0B4D03F072F805
S214081200761BB61018BF002406D0013455F8043BE8
S2140812109847A642F9D170BD70BD00BFF0420800DD
S214081220F0420800F8420800F04208000FB410B573
S214081230074B82B004AC54F8042B18682346816820
S214081240019400F009FA02B0BDE8104004B07047F7
S214081250EC000720844641EA000313F0030349D153
S214081260403A23D30B6803604B6843608B688360FF
S214081270CB68C3600B6903614B6943618B69836103
S214081280CB69C3610B6A03624B6A43628B6A8362EB
S214081290CB6AC3620B6B03634B6B43638B6B8363D3
S2140812A0CB6BC36340304031403ADBD230320BD38D
S2140812B00B6803604B6843608B688360CB68C360C9
S2140812C010301031103AF3D20C3205D351F8043BE3
S2140812D040F8043B043AF9D2043208D0D2071CBFBF
S2140812E011F8013B00F8013B01D30B8803806046E8
S2140812F0704700BF082A13D38B07B1D010F003033A
S214081300AED0C3F10403D21ADB071CBF11F8013BA9
S21408131000F8013BA4D331F8023B20F8023B9FE7D4
S214081320043AD9D3013A11F8013B00F8013BF9D247
S2140813300B7803704B7843708B78837060467047E1
S21408134070B4860746D0541E002A41D0CAB2034657
S21408135002E014F1FF343BD303F8012B9D07F8D1C4
S214081360032C2ED9CDB245EA05250F2C45EA0545AE
S21408137019D9264603F11002103E0F2E42F8105CCB
S21408138042F80C5C42F8085C42F8045C02F1100271
S214081390F2D8A4F1100222F00F0204F00F04103263
S2140813A0032C13440DD91E462246043A032A46F84F
S2140813B0045BFAD8221F22F003020432134404F016
S2140813C003042CB1C9B21C4403F8011B9C42FBD190
S2140813D070BC704714460346C2E700BF00290CBF1E
S2140813E0022200224FF4806300F000B82DE9F04393
S2140813F0614D83B02D6804460F4690461E4615B1CB
S214081400AB6B002B64D0B8F1020F06D0B8F1010F11
S21408141000F29F80002EC0F29C80636ED80734D5F9
S2140814202146284601F0B0F8216B41B104F140038B
S214081430994202D0284601F025FA002323630022A9
S214081440B4F90C30A26162601A063AD423F44A63EF
S21408145023F00303B8F1020FA3811DD001AB6A463F
S2140814602146284601F0ACFCA3891843A081002E2B
S21408147032D1009E304601F01BFD074600286BD08F
S214081480A38943F08003A38128E0A3899905C7D4DC
S214081490A06D01F091FCC3E7002500260120616ECF
S2140814A004F1430243F00203A660CE07A3816061FD
S2140814B02260226101D498053ED5284603B0BDE8CF
S2140814C0F0832169284601F0DDF9B4F90C30BDE750
S2140814D0284601F0B1F896E7002FCBD0AB6B002B6F
S2140814E033D0009BB4F90C209E421CBF42F4006225
S2140814F0A281B8F1010F04BF42F00102A28192B2A4
S21408150012F008032760276166610ED0D1071AD546
S2140815100023656E764215F00105A661A36009D022
S2140815200025284603B0BDE8F083A360656E15F075
S2140815300105F5D19305C0D4A06D01F03FFC2846FF
S21408154003B0BDE8F083A660F0E7284601F074F81B
S214081550C7E74FF0FF35B0E7DDF80090B14504D097
S214081560484601F0A5FC074620B9B4F90C304FF000
S214081570FF3592E74E4683E7EC00072020F003018C
S21408158010F00300C0F1000051F8043B00F1040C11
S2140815904FEACC0C6FF000021CBF22FA0CF2134381
S2140815A04FF0010C4CEA0C2C4CEA0C4CA3EB0C024A
S2140815B022EA030212EACC1204BF51F8043B0430B4
S2140815C0F4D0C2F1000102EA0102B2FA82F2C2F1D4
S2140815D01F0200EBD20070472DE9F84F4B6E93467A
S2140815E09C042FD59368126853B30E46074602F13B
S2140815F0080919E920045FEA9A0817D00024043D70
S21408160001E0A04510D0324655F8041F384601F0D0
S214081610B5F8431C04F10104F3D10023CBF80830D5
S214081620CBF80430BDE8F88FDBF808302AF0030A58
S214081630A3EB0A03CBF8083009F10809002BD8D128
S2140816400020EAE701F004FA0023CBF80830CBF8CC
S2140816500430BDE8F88F00BF2DE9F04FADB01D4649
S2140816608B4690460793069018B1836B002B00F0C4
S214081670F380DBF86430BBF90C00DF0781B202D4D4
S2140816808E0540F1FC808C040AD4DBF8643040F404
S214081690005123F40053ABF80C10CBF8643089B231
S2140816A0080740F1B380DBF81030002B00F0AE805E
S2140816B001F01A030A2B00F0B58000230DF1700A1A
S2140816C0D1460B93039311931093CDF83CA0CDF815
S2140816D010B098F800304446FBB1252B02D11CE028
S2140816E0252B03D014F8013F002BF9D1A4EB0805ED
S2140816F09DB1109B119A01332A44072BC9F8008024
S214081700C9F80450119210937ADD002A40F0B58487
S214081710D146039B10922B4403932378002B00F0AA
S214081720E58300204FF0000304F101088DF83730F8
S21408173062780646054603464FF0FF3408F101086E
S214081740A2F12001582900F2D982DFE811F0280218
S214081750D702D7023002D702D702D702D702D7025B
S214081760D702A0008802D702A800B802D702A601AE
S214081770AB01AB01AB01AB01AB01AB01AB01AB01FC
S214081780AB01D702D702D702D702D702D702D702B1
S214081790D702D702D702B901D702D702D702D70293
S2140817A0D702D702D702D702D702D7029E01D7029E
S2140817B0D702D702D702D702A201D702D7025A0207
S2140817C0D702D702D702D702D702D702D702D70244
S2140817D0D702D70261022202D702D702D7027602C0
S2140817E02202D702D7027B02D702FC018901100227
S2140817F0D202D7029502D702AD00D702D702350229
S21408180009F10809039B2B44039386E75946069873
S21408181000F0AAFD18BBBBF80C1001F01A030A2B3F
S2140818207FF44BAFBBF90E30002BFFF646AFDBF864
S2140818306430DB0705D48F0503D4DBF8580001F0C5
S214081840BDFA2B4642465946069800F049FD0390D5
S21408185003982DB0BDE8F08F00F0EEFE09E7DBF840
S2140818606430D90704D4BBF80C309A0540F1AE842E
S2140818704FF0FF33039303982DB0BDE8F08FDBF8E5
S214081880580001F099FABBF90C0081B2FBE60799FB
S2140818900A460D680432002D079202DA6D4243F0BC
S2140818A0040398F8002049E708959E0600F15A8434
S2140818B00799DD060A4600F1EF83580640F1EC83E7
S2140818C0002701220E88043107914FF000010025F9
S2140818D08DF83710611C00F0178123F08001029103
S2140818E056EA070140F01581002C40F05B83002A79
S2140818F040F0B68313F00103059300F055843023B7
S2140819000DF1B00B0BF8413D059BA342B8BF23462B
S21408191001930DB101330193029B13F0020309935F
S21408192002D0019B02330193029B13F084030A93AF
S21408193040F01582089B019A9D1A002D40F30F82ED
S214081940102D40F38484109BCE461027A146119A8A
S214081950C54E1946069C07E001F1020C01460EF139
S214081960080E103D102D11DD481C10320728119264
S2140819708EE8C0001090EFDD002A40F0D981103DB7
S214081980102D11464FF0010CD646EDDC4C4661464C
S214081990F1462A4407291192C9F80060C9F804508C
S2140819A0109100F3EB829DF8375009F10809481C9E
S2140819B0002D40F0DC81099B002B00F0F681022107
S2140819C00EAB0A44072811921090C9F80410C9F8FB
S2140819D0003040F3E681002A40F095830A9B0120F8
S2140819E0802B1146D14640F0E481089B019D5E1B82
S2140819F0002E40F3DE81102E40F33C84CC461027A0
S214081A00A1469A4D069C07E001F1020E01460CF12C
S214081A10080C103E102E11DD481C103207281192B3
S214081A208CE8A0001090EFDD002A40F09B82103E64
S214081A30102E4FF0010E1146D446EDDC4C46E1461A
S214081A403244BEF1070F119289E86000CDF840E0F5
S214081A5000F3668309F108090EF101007146A8E152
S214081A60089513F0200240F0898313F0100140F027
S214081A70198313F0400200F0158307980A460146BA
S214081A8004310688002707911FE7089543F01003DE
S214081A90E7E7089543F0100307E743F0800398F854
S214081AA000204BE60025A2F1300118F8012B05EBC3
S214081AB0850501EB4505A2F130010929F5D93FE670
S214081AC00895002840F0028443F010039E0600F1B3
S214081AD03D830799DD060A4600F1F082580640F174
S214081AE0ED82B1F900600432F7173046394607929E
S214081AF0002871F10002C0F25A83611C9DF8375025
S214081B004FF001027FF4E9AE56EA070100F04B8277
S214081B100293012A00F08A82022A40F05A82D346AB
S214081B200B98330943EA0773390906F00F020F4684
S214081B301E46835C0BF8013D56EA0703F1D1AAEB73
S214081B400B030593E0E6002840F0BD83990600F1F4
S214081B505983DA0600F1E5805B0640F1E280079AD1
S214081B60136804320792BDF80C201A80B1E5782273
S214081B7030210895079D8DF839202A1D07923C4A82
S214081B802E680B9243F002038DF8381000270222C5
S214081B909BE60895002899D08DF8376096E798F860
S214081BA00020002E7FF4CAAD01202026C6E543F0AB
S214081BB0010398F80020C1E50895002840F08083C6
S214081BC02B490B919F0600F1E5820798DE06014631
S214081BD000F16F825D0640F16C82002704310688AA
S214081BE00791D80740F1208256EA070100F01C82C8
S214081BF030218DF8392043F002038DF83810022280
S214081C0063E60895002840F055831A490B91D9E7F2
S214081C10012207981146019202684FF000048DF8D9
S214081C2048200246043208958DF8374005910792F9
S214081C300DF1480B029300246EE643F0400398F833
S214081C4000207BE598F800206C2A03BF98F801204E
S214081C5043F0200308F1010843F010036EE598F8F6
S214081C60002001202B2669E5B0410800C041080085
S214081C7094410800804108004FF000020799089533
S214081C80D1F800B08DF837200D1DBBF1000F00F01D
S214081C90E482671C00F0C38222460021584601935E
S214081CA001F0C6FB019B002800F0E882A0EB0B02BF
S214081CB00795059202939DF83750002424E698F875
S214081CC0002008F101072A2A00F0E982A2F1300173
S214081CD00929B8464FF000043FF632AD18F8012B34
S214081CE004EB840401EB4404A2F130010929F5D978
S214081CF026E543F0200398F800201FE508950028FD
S214081D0040F0DB82002A00F0F18001218DF848209F
S214081D104FF0000201918DF8372005910DF1480B20
S214081D2088E7079A136804320792039A1A60D0E481
S214081D300FAA04992046FFF74FFC002840F043817D
S214081D401099D646119A01F1010C0AE60FAA0499D1
S214081D500698FFF741FC002840F03581D1461099D7
S214081D609DF83750119A481C002D3FF424AE0121E7
S214081D700DF137050A44072811921090C9F8041087
S214081D80C9F8005040F30981002A40F0AF81099B4A
S214081D90002B3FF423AE02220846D1460EAB1D9216
S214081DA01C93014609F1080901300A9B802B3FF471
S214081DB01CAE059BE41A002C2FDD102C40F3208265
S214081DC0CE461026B24D069FDDF8109006E0881C19
S214081DD019460EF1080E103C102C10DD4B1C103264
S214081DE0072B11928EE860001093F0DD002A65D16B
S214081DF0103C102C4FF001001146D646EEDCF1469A
S214081E00224407281192C9F80050C9F804401090D7
S214081E1000F3858009F108090130059907280A4466
S214081E201192C9F800B0C9F80410109040F38280E7
S214081E30002A40F01881029B1092580735D5089B57
S214081E4001995C1A002C40F3E780D146102C40F329
S214081E500D82102510998F4E069FDDF810B006E00B
S214081E60881C194609F10809103C102C11DD4B1C7A
S214081E701032072B1192C9F80060C9F80450109365
S214081E80EEDD42BB103C102C4FF001001146D14647
S214081E90EDDC224407281192C9F80060C9F804400E
S214081EA0109051DD002A40F09A81039B089A019908
S214081EB08A42ACBF9B185B1803934EE00FAA4946AC
S214081EC03846FFF789FB002840F03E811099D64631
S214081ED0119A481C7FE70FAA59463846FFF77CFB3D
S214081EE060B91099D146119A481CBDE7119BDDF8D8
S214081EF010B0002B40F0CA8100231093DBF8643042
S214081F0013F0010FBBF80C3002D19A0540F1DD80C2
S214081F105B063FF5ADAC03982DB0BDE8F08F002A00
S214081F2040F005810123D146059ACDF870B01D9280
S214081F301192109309F10809029B590704D5089BCA
S214081F4001995C1A002C81DC039B08990198814250
S214081F50ACBF5B181B18039372BB0023D1461093C3
S214081F60FFF7B7BB0FAA04992046FFF735FB50BB0F
S214081F701099D446119A01F1010E4AE5002A7FF419
S214081F80E5AE9DF83710002900F01A810122D146E7
S214081F9010460DF137011D921C91014609F10809FA
S214081FA0013008E5029B012A00F09780022A0DD12D
S214081FB0029300260027B2E50FAA04990698FFF7B1
S214081FC00BFB0028C9D0DDF810B097E700260027DD
S214081FD00293514600E05946F20842EA4772F8086A
S214081FE006F0070307461646303356EA070201F896
S214081FF0013C01F1FF3BEED1029AD6077FF59FAD73
S214082000302B3FF49CAD302302390BF8013CAAEB89
S214082010010305938B4677E4039B089A8A42ACBF74
S2140820209B185B18039398E702224EE4002F08BF1C
S2140820300A2E51D3D346304639460A22002301F0E9
S21408204085FE30320BF8012D3046394600230A2229
S21408205001F07CFE06460F4656EA0703EBD16EE50E
S2140820600594D34650E40FAA04990698FFF7B4FAE5
S2140820700028A8D1D146119A5EE70FAA04990698B7
S214082080FFF7AAFA00289ED1D146FFF7BBBB00BFD0
S214082090C0410800B0410800043116680027012234
S2140820A0079112E40798002701460431066807914D
S2140820B00BE40E6804310791002792E5166804328F
S2140820C0F71707923046394612E5DBF8580000F055
S2140820D075FEBBF80C301BE7029B029301230DF13B
S2140820E0B00B30360BF8416D05930DE40FAA049932
S2140820F00698FFF771FA00287FF465AF1099D14665
S214082100119A481C57E40FAA04990698FFF764FA30
S21408211000287FF458AF1099D146119A481C44E617
S214082120002A40F0878001201146D14641E60FAAD2
S21408213004990698FFF750FA00287FF444AF1098E1
S214082140D146119A013068E6CB46D7E6079D073593
S21408215025F0070505F10802D5E9000107920646AD
S2140821600F46C5E4079D073525F0070202F108016A
S214082170D2E9006707910122FFF7A7BB079D07353D
S21408218025F0070202F10801D2E90067079100224C
S214082190FFF79BBB079D073525F0070101F10800EF
S2140821A00790D1E900671CE5D346FFF7ADBB2D25A0
S2140821B0764267EB47078DF837500122FFF78ABB50
S2140821C0099BB3B911460120D146F2E5DBF8580061
S2140821D000F0F4FD4FF0FF330393FFF74CBB0FAA54
S2140821E004990698FFF7F8F900287FF4ECAE119AE0
S2140821F0AAE602220EAB1D921C930120D146D0E51A
S214082200344DFDE5079A134604330793039B11687C
S214082210DD171A462B46C1E90023FFF75ABA584677
S21408222007950293FFF7AAF9002405909DF8375002
S214082230FFF76ABB0FAA04990698FFF7CDF900289E
S2140822407FF4C1AE1099D146119A481CB1E5109991
S214082250119A0131204EFFF79CBB062C28BF062496
S214082260079505940194DFF874B0E3E410981A4EC5
S21408227001300EE68646174DFFF7E2BB0594079534
S214082280029304469DF83750FFF73EBB06980FAA00
S2140822905946FFF7A1F900283FF42EAE2EE6079917
S2140822A098F801200C68043144EAE474B8460791AB
S2140822B0FFF744BA8DF83760A7E48DF8376021E554
S2140822C08DF837607CE48DF837603FE48DF837602A
S2140822D0FFF7FABBC0410800B0410800A841080053
S2140822E02DE9F0410C464FF0000E4FF48065064687
S2140822F017469846626EE3898989ADF58D6D21F09B
S21408230002011992ADF80E30E269636AADF80C1056
S21408231016A81AA9CDF818E0079209930091049117
S2140823200295059500F044FD43463A466946304610
S214082330FFF792F9051E07DB3046694600F024F9D8
S214082340002818BF4FF0FF35BDF80C305B0603D5E4
S214082350A38943F04003A381169800F02BFD284676
S2140823600DF58D6DBDE8F08138B5304B054618681B
S2140823700C4610B1836B002B38D0B4F90C2093B2FE
S21408238018070CD52069A8B113F001021ED0002248
S2140823906369A2605B42A361F0B1002038BDD9062C
S2140823A03BD5580725D4206942F00803A3819BB281
S2140823B00028E9D103F42072B2F5007FE4D028465D
S2140823C0214600F02BFDA3892069DDE7990758BF51
S2140823D06269A2600028E0D1B4F90C301A06DDD58F
S2140823E043F04003A3814FF0FF3038BD00F024F9D6
S2140823F0C3E7216B51B104F14003994204D0284643
S21408240000F040FAB4F90C20002323630023206967
S21408241022F0240284E80900C6E7092342F04002B5
S2140824202B604FF0FF30A28138BD00BFEC000720BC
S214082430024B13B1024800F005B8704700000000D0
S214082440B1260800002301461A46184601F056BB76
S214082450B1F90C302DE9F0419AB20D4611078046C5
S2140824603AD46A6843F40063002AAB8170DDAC6A2C
S214082470002C4AD000229BB2D8F80060C8F800208A
S21408248013F4805268D02A6D5F0705D569682B6BF0
S214082490521A0BB1EB6BD21A0023E9694046A047E3
S2140824A0441C3DD00021B5F90C302A6923F400639A
S2140824B0AB81DB0469602A6048D4296BC8F80060E1
S2140824C019B305F14003994202D0404600F0DAF904
S2140824D000202863BDE8F0812E69B6B1910718BFC1
S2140824E000232C6808BF6B692E60A41BAB600AE04B
S2140824F0234632466F6AE9694046B8470028A4EB87
S2140825000004064404DD002CF2DC0020BDE8F0815F
S214082510AB894FF0FF3043F04003AB81BDE8F08154
S214082520D8F800401D2CF3D8164BE340DB4313F0D5
S2140825300103EDD1B5F90C20296922F40062AA81BD
S214082540D2046B602960B8D5002CB6D12865B4E7EC
S214082550EA6B002A8BDCD8E70123E9694046A047E6
S214082560431C024602D0AB89AC6A8DE7D8F8003027
S214082570002BF8D01D2B01D0162BC9D1C8F8006047
S214082580C3E700BF0100402038B50D46044608B131
S214082590836BBBB1B5F90C0088B16B6EDB0701D451
S2140825A0810517D520462946FFF752FF6B6E04466D
S2140825B0DA0702D4AB899B0507D5204638BD044602
S2140825C0204638BD00F038F8E4E7A86D00F0F6FBC2
S2140825D0204638BDA86D00F0EFFBE3E7014900F0A0
S2140825E0B1BB00BFE53B0800002310B50446818157
S2140825F0C28103604360836043660361436183610D
S214082600194608225C30FEF79BFE07480749084A29
S214082610084B2062E4616162A262E36204F158003A
S214082620BDE8104000F0C4BB2D3908005139080039
S2140826308D390800AD39080010B50446144800F076
S214082640BBFBA26BFAB90320124904F53B73C4F826
S214082650E832C4F8E022C4F8E402E16360680421C2
S214082660FFF7C2FFA06801220921FFF7BDFFE06857
S21408267002221221FFF7B8FF01230548A363BDE82D
S214082680104000F09BBB0248BDE8104000F096BB27
S214082690480C0720DD250800014800F08DBB00BF68
S2140826A05C0C0720014800F089BB00BF5C0C0720C3
S2140826B038B50A4C0A4D641BA4100AD004F18043AE
S2140826C0013B05EB8305013C55F804399847002C77
S2140826D0F9D1BDE8384001F00FBE00BF0843080036
S2140826E0044308002DE9F04383B00746884614469D
S2140826F000F050FB012833D0424604F15C0301A9E0
S214082700384601F0AFF9421C064622D090B39DF831
S214082710041000250DF1040908E023685A1C2260FD
S21408272019700135B54225D215F80910A368013B82
S214082730002BA360F1DAA269934201DB0A29ECD1E7
S2140827402246384601F036F9431CEAD103B0BDE804
S214082750F083A38943F04003A38103B0BDE8F08368
S21408276008F1FF33FE2BC7D85FFA88F106468DF8C6
S2140827700410CEE7404603B0BDE8F08330B5536E8C
S214082780144613F0010FB2F90C3083B005469AB21E
S21408279001D190051CD5900406D4626E43F400530C
S2140827A042F40052A381626628462246FFF79AFF43
S2140827B0636E0546DA0702D4A3899B0502D5284628
S2140827C003B030BDA06D00F0F9FA284603B030BD5E
S2140827D0A06D019100F0F0FAB4F90C3001999AB2A4
S2140827E0D9E700BFF8B50C46234F064600F0CAFEE8
S2140827F0BB68C4F57E615D680F3125F00305294482
S21408280021F47F6121F00F01A1F58054B4F5805FB3
S21408281007DB0021304601F077F8BB682B44984266
S21408282004D0304600F0B4FE0020F8BD61423046C1
S21408283001F06AF801300DD0104BBA6819682D1BE4
S21408284045F001053046091B5560196000F0A0FEEA
S2140828500120F8BD0021304601F056F8BA68831A00
S2140828600F2BDEDD064C0549246843F00103001BE8
S21408287053600860D5E700BF88060720B80B072016
S214082880900A0720002944D02DE9F0410D468046DD
S21408289000F078FE55F8047C6949A5F1080427F08D
S2140828A00103E2188E685068B24220F003005ED03A
S2140828B0FE0750600BD455F8087C01F1080EE41B9F
S2140828C0A5683B4475456DD0E768EF60BD60151890
S2140828D06D68ED073ED543F001026260E350B3F53C
S2140828E0007F17D20122DB0898104D68134451F870
S2140828F03370824001EBC3002A430838E060A760C3
S2140829004A6041F83340FC604046BDE8F04100F0BC
S2140829103FBE70475A0A042A52D89A0902F1390764
S214082920FF0002F13805C819CA59083890424FD036
S214082930516821F003018B4232D292689042F7D157
S214082940C368A060E3609C60C4604046BDE8F04190
S21408295000F01EBE95683B4F0344BD4240D0D06889
S21408296043F00102E86085606260E350B7E7FF075E
S214082970034407D455F8085C641BE268A0682B4437
S214082980C2609060304A43F001001268606093426B
S2140829908C60B9D32D4B40461968FFF723FFB3E781
S2140829A01046CDE711184968C90744D4916803440E
S2140829B0D26843F00100CA6091606060E350A3E704
S2140829C0142A16D802F15C07FF0002F15B05AAE795
S2140829D00123AA104D6893402B434B600346B0E78B
S2140829E043F001024C610C61E560A5606260E3504B
S2140829F08AE7542A06D81A0B02F16F07FF0002F17D
S214082A006E0590E7B2F5AA7F06D8DA0B02F17807CA
S214082A10FF0002F1770586E740F25450824206D856
S214082A209A0C02F17D07FF0002F17C057BE74FF464
S214082A307E777E2577E743F001016160136063E7E0
S214082A408806072090060720940A0720E80B072028
S214082A509368002B71D02DE9F04F8B8983B00C4614
S214082A6019070090164625D522691AB313F00200F6
S214082A7035682BD04FF00009B0464F46DFF8C0A2A5
S214082A80002F55D057453B464A4628BF5346E1696E
S214082A900098666AB047002856DDD8F808308144A2
S214082AA01B1A3F1AC8F80830002BE9D1002003B0DB
S214082AB0BDE8F08F21460098FFF756FC002840F046
S214082AC03581A389356813F00200D3D113F00109C4
S214082AD044D14F46019637B39A05D4F8088040F19A
S214082AE085804745C346C0F0AD8013F4906F40F02C
S214082AF0AE80BA4620685A46494600F0DFFCA2680F
S214082B002368A2EB08025B44A2602360019AD144C2
S214082B109368A7EB0A07A3EB0A039360002BC5D0BC
S214082B20A389002FD8D1D5F800906F680835D2E76A
S214082B30D5F800906F680835A2E700207047214650
S214082B400098FFF721FD78B3B4F90C304FF0FF304A
S214082B5043F04003A38103B0BDE8F08F81463346B7
S214082B604E46A8469A464D4656B3002832D0B1453A
S214082B70CB4628BFB346206823695F4698426269F9
S214082B8004D9A36813449B4500F3A88093454DDBFE
S214082B901346676A2A46E1690098B847071ED3DDD8
S214082BA0B9EB0709CBD00120DAF808303D44DB1B27
S214082BB0F61BCAF80830002B3FF478AF002ED4D1A5
S214082BC008F1080353F8046C984653F8085C083371
S214082BD0002EF7D032460A21284600F029FC0028A5
S214082BE000F0A1800130A0EB0509C0E72068236942
S214082BF0984202D863699F425DD2B84528BFB84656
S214082C004946424600F05AFCA3682268A3EB08032C
S214082C104244A36022600BB1C24677E7214600987B
S214082C20FFF7B2FC00288FD1C2466FE75A462946FE
S214082C3000F044FCA2682368A2EB0B025B44A26087
S214082C402360ADE7B846BA46BB46206853E76269D4
S214082C502068216902EB4208A0EB010A08EBD87845
S214082C600AF101004FEA680838444045424684BFE6
S214082C70804642465B0544D51146009800F020F988
S214082C808346002855D052462169FEF7E3FAA38901
S214082C9023F4906343F08003A3810BEB0A00A8EBB0
S214082CA00A03C4F810B0C4F814802060A360B846BD
S214082CB0BA46BB461FE76FF00042BA4228BF3A46FC
S214082CC092FBF3F2E16903FB02F300984A46666A50
S214082CD0B047B0F1000A3FF719AF35E71A4629465C
S214082CE0019300F0EBFB2268019B21461A44226000
S214082CF00098FFF749FC019B00287FF425AF1F4684
S214082D004EE7009800F04AFC83460028C5D1009D8F
S214082D1021692846FFF7B6FD0C22B4F90C302A6064
S214082D2023F0800312E706F1010920E74FF0FF3091
S214082D30BDE60C220099B4F90C300A6006E700BF1D
S214082D4000FCFF7F2DE9F84310F538761ED088463C
S214082D5007464FF000097568B468013D10D4A3898A
S214082D60013D012B08D9B4F90E30013304D02146B1
S214082D703846C04749EA00096B1C04F16804EED1DE
S214082D803668002EE7D14846BDE8F883B14648467F
S214082D90BDE8F883044B054A1B685B6B002B08BF2D
S214082DA0134693F828017047EC0007201C050720F7
S214082DB0704700BF704700BF704700BF704700BF2E
S214082DC070B50C46B1F90E1090B0002915461E468F
S214082DD014DB01AA00F068FF00280FDB029A4FF404
S214082DE0806302F47042A2F50052B2FA82F24FF4FF
S214082DF00060520932602B6010B070BD0023A289B3
S214082E00336012F0800004D0402218462A6010B0C2
S214082E1070BD4FF480632B6010B070BD8A890B4676
S214082E20920706D5012103F1430259611A601A6117
S214082E307047F0B583B001AB6A460C460646FFF706
S214082E40BFFF00990546304600F03AF8B4F90C3052
S214082E50D8B19DE80600154F43F08003F763A381B9
S214082E602060206161611AB92B43A38103B0F0BDCD
S214082E703046B4F90E1000F02BFFA0B1A38923F05A
S214082E80030343F001031BB2EEE79A05EED40121D3
S214082E9023F0030304F1430243F00203A3816161B4
S214082EA022602261E2E7B4F90C30DDE7DD25080090
S214082EB0024B0146186800F003B800BFEC00072074
S214082EC02DE9F04F01F10B06162E83B0054640F2A9
S214082ED09E8036F0070600F1BD80B14200F2BA8047
S214082EE000F050FBB6F5FC7FC0F08582730A00F050
S214082EF0B880042B00F26C81B30903F1390003F1A2
S214082F00380EC100B84F39444C680839A14206D17A
S214082F100CE0002A80F2AB80E468A14206D0636821
S214082F2023F003039A1B0F2AF3DD70463C69DFF88B
S214082F30CCE2744500F09E81636823F003039A1B75
S214082F400F2A00F38381002AC7F814E0C7F810E0B8
S214082F5080F29180B3F5007F80F054810122DB086F
S214082F6079684FEAA30C134457F8338002FA0CF238
S214082F7007EBC30C0A43ACF10801E160C4F808800B
S214082F807A6047F83340C8F80C40012483109C4008
S214082F9094427DD8144206D120F0030064001442FF
S214082FA000F10400FAD007EBC009CC468046DCF8EE
S214082FB00C309C4507D15FE1002A80F26D81DB6802
S214082FC09C4500F05981596821F003018A1B0F2A95
S214082FD0F2DDDC68D3F808C046F0010828461E442F
S214082FE042F00105C3F80480CCF80C40C4F808C0C9
S214082FF07E613E61C6F80CE0C6F808E075605A5077
S214083000009300F0C5FA009B03F108041EE010299F
S21408301020D800F0B7FA102618230220724F3B4437
S2140830205C68A3F10802944200F02F816368E168A7
S21408303023F0030323445A68A66842F00102F160AD
S21408304028468E605A6000F0A3FA0834204603B07B
S214083050BDE8F08F00240C2320462B6003B0BDE8A3
S214083060F08F40204FF400714FF03F0E4AE723449C
S2140830705A68E168E0E723445A68284642F00102A5
S2140830805A60083400F084FA204603B0BDE8F08F92
S214083090BC68636823F00308B04504D3A8EB0603AE
S2140830A00F2B00F38580DFF85891504BD9F8002095
S2140830B01B680132334404EB080A00F0548103F518
S2140830C080530F3323F47F6B2BF00F0B594628469B
S2140830D000F01AFC411C024600F0FB80824500F214
S2140830E0F680434B19685944196000F04C81D9F8AA
S2140830F0000001301BBFA2EB0A0A5144C9F80020A1
S214083100196012F0070100F01481C1F10800C1F53A
S21408311080510244083102EB0B09C9F30B09A1EBF5
S2140831200909494628460193009200F0EDFB431C26
S2140831309DE80C0000F04281801A484440F00100E7
S2140831401968BC424944BA601960506017D0B8F193
S2140831500F0F40F2FA804FF0050C6268A8F10C00D9
S21408316020F0070002F0010204EB000E02430F28CD
S2140831706260CEF804C0CEF808C000F216811D4B77
S214083180BC681A68914288BF19601B4B1A6891423E
S214083190626888BF196022F003029642A2EB060313
S2140831A001D80F2B04DC284600F0F2F900244DE77E
S2140831B046F0010243F00103264462602846BE60DA
S2140831C00834736000F0E4F9204603B0BDE8F08FD9
S2140831D0142B70D9542B00F2A280330B03F16F0026
S2140831E003F16E0EC1008DE688060720E80B07205F
S2140831F0B80B0720E00B0720E40B072090060720F3
S214083200900A07205A0A042A5BD9142A00F2AE80CC
S21408321002F15C01C9005B3207EB010C7958ACF18E
S214083220080C8C4500F088804A6822F00302934216
S21408323073D289688C45F7D1DCF80C307A68E3607D
S214083240C4F808C09C60CCF80C409EE646F0010C1A
S21408325042F001012644C4F804C028467E613E6157
S214083260C6F80CE0C6F808E07160E25000F090F985
S2140832700834EBE67A6888E608F1010818F0030FC8
S2140832800CF1080C7FF493AE2DE0DC68A34208BF6F
S21408329002303FF44BAEC9E61C4619444A68DB6860
S2140832A054F8086F42F001024A602846F3609E60B0
S2140832B000F06EF9CAE603F15C0003F15B0EC1008C
S2140832C020E69A0902F13901C9003832A4E7BC425F
S2140832D054D0BC68626822F003025EE759F80839E1
S2140832E0994540F0868010F0030F00F1FF30F5D1C5
S2140832F07B6823EA04037B6064009C423FF6C8AE02
S214083300002C3FF4C5AE1C4240467FF44CAE640029
S2140833101C4200F10400FAD045E68C468CE7B3F56B
S214083320AA7F15D8F30B03F1780003F1770EC100D6
S214083330E8E54FF48051EEE601217B68921001FA29
S21408334002F21A437A60634679E7012353602AE754
S21408335040F25452934222D8B30C03F17D0003F195
S2140833607C0EC100CEE503F1100BAFE6542A29D82F
S2140833701A0B02F16F01C9006E324DE7204B19682F
S21408338059441960B3E6CAF30B0000287FF4AFAEC1
S21408339008EB0B03BA6843F001035360EFE67F209F
S2140833A04FF47E714FF07E0EACE504F10801284616
S2140833B00093FFF767FA009B1968E0E601204FF0D4
S2140833C00009BDE6B2F5AA7F05D8DA0B02F1780146
S2140833D0C900773220E740F254518A4205D89A0C41
S2140833E002F17D01C9007C3216E74FF47E717E2219
S2140833F012E77B6880E7F00806F108030EE600BFD0
S214083400B80B072082B049B15AB16BB113780B607C
S2140834101278101C18BF012002B0704701A9002AB4
S214083420F3D1104602B070476FF00100F4E700BF12
S214083430830770B4CDB23DD0541E0AB30378AB42AE
S2140834401FD0431C05E014F1FF3419D30278AA42B2
S21408345017D013F0030F184603F10103F3D1032C1A
S21408346011D84CB30378AB420BD00444431C02E09B
S2140834700278AA4205D09C42184603F10103F7D108
S214083480002070BC7047090289B2294341EA01410D
S214083490036806464B40A3F1013222EA030313F001
S2140834A0803F00F1040003D1043C032CF0D8D8E791
S2140834B03046D7E71446D2E72046E2E78842F0B51A
S2140834C00DD98B1898420AD28418002A51D0224661
S2140834D013F8014D994202F8014DF9D1F0BD0F2AB3
S2140834E048D941EA00039B0746D1154600F1100467
S2140834F001F1100353F8106C103D44F8106C53F8A3
S2140835000C6C0F2D44F80C6C53F8086C04F110047E
S21408351044F8186C53F8046C03F1100344F8146C60
S214083520E8D8A2F1100323F00F0302F00F0E1033B1
S214083530BEF1030F1944034421D90E4674461D1FD5
S21408354056F8047B043C032C45F8047FF8D8AEF103
S214083550040424F0030404342144234402F0030240
S21408356062B1013B0A4411F8014B8A4203F8014F45
S214083570F9D1F0BD0346F3E70346F2E7F0BD72461D
S214083580EEE700BF0148FFF717BC00BF4C0C07204A
S2140835900148FFF713BC00BF4C0C0720002900F0B9
S2140835A094802DE9F04F0C46154683B0804605F109
S2140835B00B06FFF7E7FF54F804EC162E2EF0030769
S2140835C0A4F108093CD810221646B5423DD89742C1
S2140835D043DAC64B09EB07009968884200F0C380B7
S2140835E0436823F0010101444968C9074DD51EF018
S2140835F0010F00F09B8029464046FFF761FC054610
S21408360000283BD054F8043CA0F1080223F001033C
S2140836104B449A4200F02B813A1F242A00F2188164
S214083620132A00F2EB800346224611681960516897
S214083630596092689A6021464046FFF723F91DE0D4
S21408364026F00706002E3246BFDA00250C23284649
S214083650C8F8003003B0BDE8F08F2546BB1B0F2B1B
S214083660D9F804201DD802F001023A4309EB0701F5
S214083670C9F804204B6843F001034B604046FFF747
S21408368087FF284603B0BDE8F08F23F00303F91838
S21408369091421DDBC36882682546D3600F469A6050
S2140836A0DCE702F0010209EB060143F001033243AE
S2140836B0C9F804204F444B607B68083143F0010387
S2140836C07B604046FFF7DEF8D8E71146FFF7F8BB01
S2140836D01EF0010F8FD154F8081CA9EB010ADAF87E
S2140836E0041021F003010B443B44934226DB554665
S2140836F0C16880683A1FC160886055F8080FDAF814
S2140837000C10242AC160886026D8132A40F28180CB
S21408371021681B2ACAF808106168CAF80C1000F25B
S214083720AD8004F108000AF1100274E054F8083C71
S214083730A9EB030ADAF8041021F003017B18934278
S214083740FFF659AF5546DAF80C1055F8080F3A1F29
S214083750242AC1608860D8D9214628461F46D14603
S214083760FFF7ACFE7AE7416806F1100021F0030B7C
S214083770BB44834558DA1EF0010F7FF43CAF54F87B
S214083780081CA9EB010ADAF8041021F003018B449F
S2140837905845D3DC5546DAF80C1055F8080F3A1F8A
S2140837A0242AC160886000F28D80132A40F2878040
S2140837B021681B2ACAF808106168CAF80C1000F2BB
S2140837C0888004F108010AF1100208681060486849
S2140837D0506089689160ABEB06020AEB060142F07E
S2140837E0010299604A60DAF80430404603F00103A3
S2140837F01E43CAF80460FFF7CBFE42E723681B2A7D
S21408380003606368436027D800F1080304F10802E0
S2140838100BE720462A4601681F4611604168D146D4
S21408382051608368936019E7ABEB060B09EB06015A
S2140838304BF0010299604A6054F8043C404603F095
S21408384001031E4344F8046CFFF7A2FE254618E75A
S2140838502146FFF733FEEEE6A368242A8360E36872
S214083860C36018D000F1100304F11002DDE650F82A
S214083870043C254623F003031F44EFE6A168242AE8
S214083880CAF81010E168CAF814100DD004F1100038
S2140838900AF11802BFE7226900F11803026161699C
S2140838A004F118024161C0E6226904F11800CAF85A
S2140838B0182061690AF12002CAF81C10ABE72146F5
S2140838C02A4682E7214628460193FFF7F7FD019B23
S2140838D081E7A168242ACAF81010E168CAF814100B
S2140838E006D004F110010AF118026EE788060720D0
S2140838F0226904F11801CAF8182060690AF1200242
S214083900CAF81C0061E700BF38B50023064C054618
S21408391008462360FDF72EFC431C00D038BD2368FC
S214083920002BFBD02B6038BD600C072010B50C466A
S214083930B1F90E1000F0F4F9002803DB236D0344F8
S214083940236510BDA38923F48053A38110BD00BF4F
S2140839502DE9F0410C46B1F90C101F46CB0516466A
S214083960054607D5B4F90E100223002200F0C2F966
S214083970B4F90C1021F48051A1813B463246B4F9C3
S2140839800E102846BDE8F04100F0A2B810B50C4667
S214083990B1F90E1000F0AEF9A389421C0EBF23F44D
S2140839A0805343F480532065A38110BDB1F90E10EF
S2140839B000F006B9F8B50D461446064610B1836BF6
S2140839C0002B4BD0B4F90C20A36991B20807A3606A
S2140839D039D52369002B36D0EDB289042F4615D584
S2140839E022686169D31A8B421CDA0133A168501C1D
S2140839F00139A1602060157062699A421AD0A389BD
S214083A00DB0701D50A2D15D03846F8BD616E42F49D
S214083A10005221F40051A281226861666169D31AB6
S214083A208B42E2DB21463046FEF7AEFD40B9012365
S214083A302268DBE721463046FEF7A6FD0028E3D0DD
S214083A404FF0FF37E0E721463046FEF78DFC0028AA
S214083A50F6D1B4F90C20236991B2BDE7FEF7ECFD68
S214083A60B0E700BFF0B5064685B01F4689B1104CD2
S214083A70104D2468646B002C08BF2C46D4F8E04030
S214083A80A047431C03D100228A233A60336005B05E
S214083A90F0BD0C46064A074D116822464C6B01A934
S214083AA0002C08BF2C46D4F8E040A047E9E700BF42
S214083AB0EC0007201C05072019B1FF2A03D80A7056
S214083AC00121084670478A234FF0FF310360F8E764
S214083AD0F8B50E460025084C114607461A463046E5
S214083AE02560FCF77FFD431C00D0F8BD2368002B3B
S214083AF0FBD03B60F8BD00BF600C07202DE9F843FB
S214083B002C4D0646286898460F469146FFF754F906
S214083B10294B1C68D4F84831002B3ED05A681F2A17
S214083B201CDC02F1010E76B1012103EB8204C4F815
S214083B308890D3F8880191400843022EC3F888017C
S214083B40C4F8088123D00232C3F804E0286843F892
S214083B502270FFF733F90020BDE8F883174B0BB344
S214083B604FF4C870FFF7A4F90346D8B10020D4F87C
S214083B7048114FF0010E586019600246C4F84831E3
S214083B80C3F88801C3F88C01002EDCD0CCE7D3F844
S214083B908C010143C3F88C11D5E704F5A673C4F865
S214083BA04831BBE72868FFF709F94FF0FF30BDE852
S214083BB0F88300BF180507207C410800B12E0800CE
S214083BC038B50023064C054608462360FDF7E8FA94
S214083BD0431C00D038BD2368002BFBD02B6038BDB3
S214083BE0600C072070B559B105460C4610B1836BBA
S214083BF0002B3CD0636ED80705D5B4F90C302BB92A
S214083C000026304670BDA38999053CD5214628462E
S214083C10FEF71EFCE36A064633B1E1692846984774
S214083C200028B8BF4FF0FF36A3891A0622D4216BA6
S214083C3041B104F14003994202D02846FEF722FE1D
S214083C4000232363616C21B12846FEF71BFE002380
S214083C506364FEF721FD0022636EA281DB070ED5A2
S214083C60A06DFFF7A7F8FEF71DFD304670BDFEF7FE
S214083C70E3FCBFE721692846FEF704FED7E7A06DF8
S214083C80FFF79CF8ECE7A06DFFF796F8B4F90C3050
S214083C90002BBBD1666E16F00106B1D1A06DFFF7FA
S214083CA08DF8304670BD00BF70B50D460023074C32
S214083CB00646114628462360FDF775FA431C00D0D1
S214083CC070BD2368002BFBD0336070BD600C0720E6
S214083CD038B50023064C054608462360FDF768FA03
S214083CE0431C00D038BD2368002BFBD02B6038BDA2
S214083CF0600C0720F8B50E460025084C1146074606
S214083D001A4630462560FDF755FA431C00D0F8BD24
S214083D102368002BFBD03B60F8BD00BF600C072073
S214083D20F8B50E460025084C114607461A46304692
S214083D302560FCF737FC431C00D0F8BD2368002B31
S214083D40FBD03B60F8BD00BF600C072053B94AB9EA
S214083D50002908BF00281CBF4FF0FF314FF0FF3086
S214083D6000F07AB9ADF1080C6DE904CE00F006F85B
S214083D70DDF804E0DDE9022304B070472DE9F047DA
S214083D808C460E460446089D002B50D18A4217469C
S214083D906CD9B2FA82FEBEF1000F0BD0CEF1200C21
S214083DA001FA0EF620FA0CFC02FA0EF74CEA060C9C
S214083DB000FA0EF43A0CBCFBF2F9BBB202FB19CCC3
S214083DC009FB03FA4FEA144848EA0C46B2450AD9F2
S214083DD0F61909F1FF3180F02581B24540F22281BB
S214083DE0A9F102093E44A6EB0A06B6FBF2F002FB6E
S214083DF0106600FB03F3A4B244EA0644A34209D9BA
S214083E00E41900F1FF3280F00B81A34240F20881EA
S214083E1002383C440021E41A40EA0940002D62D0EA
S214083E20002324FA0EF42C606B60BDE8F0878B4202
S214083E3007D9002D55D0002185E841000846BDE881
S214083E40F087B3FA83F1002940F08F80B34202D39B
S214083E50824200F2FC80841A66EB03060120B44610
S214083E60002D40D085E81010BDE8F08712B901276C
S214083E70B7FBF2F7B7FA87FEBEF1000F35D101217E
S214083E80F61B4FEA174C1FFA87F8B6FBFCF20CFB3A
S214083E90126608FB02F0230C43EA0646B04207D92E
S214083EA0F61902F1FF3302D2B04200F2D2801A4667
S214083EB0361AB6FBFCF00CFB106608FB00F8A3B23B
S214083EC043EA0644A04507D9E41900F1FF3302D2B5
S214083ED0A04500F2B9801846A4EB080440EA024060
S214083EE09CE729462846BDE8F08707FA0EF7CEF184
S214083EF0200326FA03F24FEA174CB2FBFCF11FFA2E
S214083F0087F80CFB112206FA0EF620FA03F301FBDB
S214083F1008F933431E0C46EA0246B14500FA0EF489
S214083F2009D9F61901F1FF3280F08C80B14540F2CC
S214083F30898002393E44A6EB0906B6FBFCF00CFB6A
S214083F40106200FB08F99EB246EA0246B14507D958
S214083F50F61900F1FF3371D2B1456FD902383E44E5
S214083F60A6EB090640EA01418FE7C1F1200722FACD
S214083F7007F88B4048EA030326FA07F44FEA134E7D
S214083F80B4FBFEF91FFA83FC0EFB19448E4020FA98
S214083F9007F809FB0CFA48EA06084FEA184646EA04
S214083FA00444A24502FA01F200FA01F608D9E41818
S214083FB009F1FF3044D2A24542D9A9F102091C44AE
S214083FC0A4EB0A04B4FBFEF00EFB104400FB0CFC4A
S214083FD01FFA88F848EA0444A44507D9E41800F10B
S214083FE0FF3E29D2A44527D902381C4440EA094096
S214083FF0A0FB0289A4EB0C0CCC45C246CE4615D3D2
S21408400012D055B1B6EB0A036CEB0E0606FA07F7A4
S214084010CB401F43CE402F606E600021BDE8F0877E
S2140840201046F7E68946DEE64645EAD2B8EB020AC7
S21408403069EB030E0138E4E77046D7E718468FE7C2
S2140840408146BDE7114676E702383C4444E7084611
S21408405006E7023A3E442BE7704700BF4552524FE8
S214084060523A206E6F20646972656374696F6E20B9
S214084070636F756C64206265206665746368656442
S2140840802066726F6D20746865206C656674206D96
S2140840906F746F72206275742070756C7365207704
S2140840A06173207374696C6C2074726967676572D3
S2140840B065642E20456E636F6465722070756C7338
S2140840C06520646174612077696C6C206265207570
S2140840D06E72656C6961626C652E0A004552524FB5
S2140840E0523A206E6F20646972656374696F6E2039
S2140840F0636F756C642062652066657463686564C2
S2140841002066726F6D20746865207269676874200F
S2140841106D6F746F72206275742070756C7365208D
S214084120776173207374696C6C207472696767654D
S2140841307265642E20456E636F6465722070756CB8
S214084140736520646174612077696C6C20626520F1
S214084150756E72656C6961626C652E0A00436F6ED7
S214084160736F6C652072656164790A003D3D3D3D5C
S2140841703D3D3D3D3D3D3D3D3D0A0000F0000720EC
S2140841803031323334353637383941424344454680
S2140841900000000030313233343536373839616242
S2140841A06364656600000000286E756C6C29000064
S2140841B020202020202020202020202020202020F2
S2140841C030303030303030303030303030303030E2
S2140841D043000000504F5349580000002E000000CE
S2140841E000202020202020202020282828282820BA
S2140841F020202020202020202020202020202020B2
S2140842002088101010101010101010101010101019
S2140842101004040404040404040404101010101009
S21408422010104141414141410101010101010101D3
S2140842300101010101010101010101011010101025
S21408424010104242424242420202020202020202A5
S21408425002020202020202020202020210101010F9
S2140842602000000000000000000000000000000021
S2140842700000000000000000000000000000000031
S2140842800000000000000000000000000000000021
S2140842900000000000000000000000000000000011
S2140842A00000000000000000000000000000000001
S2140842B000000000000000000000000000000000F1
S2140842C000000000000000000000000000000000E1
S2140842D000000000000000000000000000000000D1
S2140842E000000000F8B500BFF8BC08BC9E46704742
S2140842F03124080019010800F8B500BFF8BC08BC4E
S20C0843009E467047F500080010
S20C08430874FAFF7F01000000B3
S2140843104FF48063174A1360C2F80032164B1A6AC5
S214084320D20120D5154A1A629A6ED103FCD51A6BAB
S21408433022F0030242F001021A639A6E1207FCD5B5
S2140843400F4A9A629A6E9007FCD511221A639A6EE3
S2140843501107FCD512221A639A6E1207FCD5094A71
S214084360094B1A607047094A1A629A6ED007FCD53C
S214084370D8E700BF000A0E4000060E4009083701BD
S214084380013F0D2000BD0105E80007200908370099
S214084390114B124A9842124B03D80021116019603B
S2140843A070471049884202D84FF48071F6E70E49E4
S2140843B0884202D84FF40071F0E70C49884202D8C8
S2140843C04FF44071EAE70A49884294BF4FF4806187
S2140843D04FF4A061E2E700BFBFEA2101000A0E40E1
S2140843E0000C0E407FF0FA02FF8FD003FFB3C40420
S2140843F07F4A5D05FFFFFFFF00093D00F00007202C
S21408440000000000DC03072044040720AC04072053
S214084410000000000000000000000000000000008F
S214084420000000000000000000000000000000007F
S214084430000000000000000000000000000000006F
S214084440000000000000000000000000000000005F
S214084450000000000000000000000000000000004F
S214084460000000000000000000000000000000003F
S214084470000000000000000000000000000000002F
S214084480000000000000000000000000000000001F
S214084490000000000000000000000000000000000F
S2140844A000000000000000000100000000000000FE
S2140844B00E33CDAB34126DE6ECDE05000B000000C3
S2140844C000000000000000000000000000000000DF
S2140844D000000000000000000000000000000000CF
S2140844E000000000000000000000000000000000BF
S2140844F000000000000000000000000000000000AF
S21408482000000000000000003C0C072043000000C9
S214084830000000000000000000000000000000006B
S2140848400000000000000000000000004300000018
S214084850000000000000000000000000000000004B
S21408486000000000000000000000000043000000F8
S214084870000000000000000000000000000000002B
S21408488000000000000000000000000043000000D8
S214084890000000000000000000000000000000000B
S2140848A000000000000000000000000043000000B8
S2140848B000000000000000000000000000000000EB
S2140848C00000000000000000000000004300000098
S2140848D000000000000000000000000000000000CB
S2140848E00000000000000000000000004300000078
S2140848F000000000000000000000000000000000AB
S214084900000000000000000000000000B93A08009F
S2140849100534080000000000E0410800DC410800FB
S2140849209041080090410800904108009041080016
S2140849309041080090410800904108009041080006
S21408494090410800FFFFFFFFFFFFFFFFFFFFFFFF8D
S214084950FFFF0000010041534349490000000000E2
S214084960000000000000000000000000000000003A
S21408497000000000000041534349490000000000C1
S214084980000000000000000000000000000000001A
S214084990000000000000000000000000000000000A
S2140849A08806072088060720900607209006072016
S2140849B09806072098060720A0060720A0060720C6
S2140849C0A8060720A8060720B0060720B006072076
S2140849D0B8060720B8060720C0060720C006072026
S2140849E0C8060720C8060720D0060720D0060720D6
S2140849F0D8060720D8060720E0060720E006072086
S214084A00E8060720E8060720F0060720F006072035
S214084A10F8060720F80607200007072000070720E3
S214084A200807072008070720100707201007072091
S214084A301807072018070720200707202007072041
S214084A4028070720280707203007072030070720F1
S214084A5038070720380707204007072040070720A1
S214084A604807072048070720500707205007072051
S214084A705807072058070720600707206007072001
S214084A8068070720680707207007072070070720B1
S214084A907807072078070720800707208007072061
S214084AA08807072088070720900707209007072011
S214084AB09807072098070720A0070720A0070720C1
S214084AC0A8070720A8070720B0070720B007072071
S214084AD0B8070720B8070720C0070720C007072021
S214084AE0C8070720C8070720D0070720D0070720D1
S214084AF0D8070720D8070720E0070720E007072081
S214084B00E8070720E8070720F0070720F007072030
S214084B10F8070720F80707200008072000080720DE
S214084B20080807200808072010080720100807208C
S214084B30180807201808072020080720200807203C
S214084B4028080720280807203008072030080720EC
S214084B50380807203808072040080720400807209C
S214084B60480807204808072050080720500807204C
S214084B7058080720580807206008072060080720FC
S214084B8068080720680807207008072070080720AC
S214084B90780807207808072080080720800807205C
S214084BA0880807208808072090080720900807200C
S214084BB09808072098080720A0080720A0080720BC
S214084BC0A8080720A8080720B0080720B00807206C
S214084BD0B8080720B8080720C0080720C00807201C
S214084BE0C8080720C8080720D0080720D0080720CC
S214084BF0D8080720D8080720E0080720E00807207C
S214084C00E8080720E8080720F0080720F00807202B
S214084C10F8080720F80807200009072000090720D9
S214084C200809072008090720100907201009072087
S214084C301809072018090720200907202009072037
S214084C4028090720280907203009072030090720E7
S214084C503809072038090720400907204009072097
S214084C604809072048090720500907205009072047
S214084C7058090720580907206009072060090720F7
S214084C8068090720680907207009072070090720A7
S214084C907809072078090720800907208009072057
S214084CA08809072088090720900907209009072007
S214084CB09809072098090720A0090720A0090720B7
S214084CC0A8090720A8090720B0090720B009072067
S214084CD0B8090720B8090720C0090720C009072017
S214084CE0C8090720C8090720D0090720D0090720C7
S214084CF0D8090720D8090720E0090720E009072077
S214084D00E8090720E8090720F0090720F009072026
S214084D10F8090720F8090720000A0720000A0720D4
S214084D20080A0720080A0720100A0720100A072082
S214084D30180A0720180A0720200A0720200A072032
S214084D40280A0720280A0720300A0720300A0720E2
S214084D50380A0720380A0720400A0720400A072092
S214084D60480A0720480A0720500A0720500A072042
S214084D70580A0720580A0720600A0720600A0720F2
S214084D80680A0720680A0720700A0720700A0720A2
S214084D90780A0720780A0720800A0720800A072052
S20C084DA0FFFFFFFF0000020000
S80408102DB6
